:020000040800F2
:1000000000500020A1C00008551100085711000839
:10001000591100085B1100085D1100080000000084
:100020000000000000000000000000005F11000858
:10003000611100080000000063110008651100084C
:10004000E9C00008E9C00008E9C00008E9C00008EC
:10005000E9C00008E9C00008E9C00008E9C00008DC
:10006000E9C00008E9C00008E9C00008E9C00008CC
:10007000E9C00008E9C00008E9C00008E9C00008BC
:10008000E9C00008E9C00008E9C00008E9C00008AC
:10009000E9C00008E9C00008E9C00008E9C000089C
:1000A000E9C000086D110008E9C00008E9C00008B7
:1000B000E9C00008E9C00008E9C00008E9C000087C
:1000C000E9C00008E9C00008E9C00008E9C000086C
:1000D000E9C00008E9C00008E9C00008E9C000085C
:1000E000E9C00008E9C00008E9C0000800000000FD
:1000F0000000000000000000000000000000000000
:0C01000000000000000000005FF808F1A3
:1001100010B5054C237833B9044B13B10448AFF341
:1001200000800123237010BDE809002000000000BA
:100130006C22010808B5034B1BB103490348AFF318
:10014000008008BD00000000EC0900206C220108BE
:1001500081F0004102E000BF83F0004330B54FEA78
:1001600041044FEA430594EA050F08BF90EA020FE5
:100170001FBF54EA000C55EA020C7FEA645C7FEA78
:10018000655C00F0E2804FEA5454D4EB5555B8BF9B
:100190006D420CDD2C4480EA020281EA030382EA0C
:1001A000000083EA010180EA020281EA0303362D9E
:1001B00088BF30BD11F0004F4FEA01314FF4801C71
:1001C0004CEA113102D0404261EB410113F0004F83
:1001D0004FEA03334CEA133302D0524263EB43033A
:1001E00094EA050F00F0A780A4F10104D5F1200ED8
:1001F0000DDB02FA0EFC22FA05F2801841F1000133
:1002000003FA0EF2801843FA05F359410EE0A5F106
:1002100020050EF1200E012A03FA0EFC28BF4CF037
:10022000020C43FA05F3C01851EBE37101F00045ED
:1002300007D54FF0000EDCF1000C7EEB00006EEBFA
:100240000101B1F5801F1BD3B1F5001F0CD3490884
:100250005FEA30004FEA3C0C04F101044FEA4452DB
:1002600012F5800F80F09A80BCF1004F08BF5FEA62
:10027000500C50F1000041EB045141EA050130BD42
:100280005FEA4C0C404141EB0101013C28BFB1F554
:10029000801FE9D291F0000F04BF01460020B1FA9F
:1002A00081F308BF2033A3F10B03B3F120020CDA72
:1002B0000C3208DD02F1140CC2F10C0201FA0CF050
:1002C00021FA02F10CE002F11402D8BFC2F1200CB5
:1002D00001FA02F120FA0CFCDCBF41EA0C0190406B
:1002E000E41AA2BF01EB0451294330BD6FEA0404B4
:1002F0001F3C1CDA0C340EDC04F11404C4F120029F
:1003000020FA04F001FA02F340EA030021FA04F3B0
:1003100045EA030130BDC4F10C04C4F1200220FA07
:1003200002F001FA04F340EA0300294630BD21FA45
:1003300004F0294630BD94F0000F83F4801306BF0B
:1003400081F480110134013D4EE77FEA645C18BFFF
:100350007FEA655C29D094EA050F08BF90EA020F96
:1003600005D054EA000C04BF1946104630BD91EA8E
:10037000030F1EBF0021002030BD5FEA545C05D191
:100380004000494128BF41F0004130BD14F58004D0
:100390003CBF01F5801130BD01F0004545F0FE4144
:1003A00041F470014FF0000030BD7FEA645C1ABF79
:1003B000194610467FEA655C1CBF0B46024650EAB0
:1003C000013406BF52EA033591EA030F41F40021DC
:1003D00030BD00BF90F0000F04BF0021704730B562
:1003E0004FF4806404F132044FF000054FF0000137
:1003F00050E700BF90F0000F04BF0021704730B5F8
:100400004FF4806404F1320410F0004548BF4042CC
:100410004FF000013EE700BF42004FEAE2014FEA21
:1004200031014FEA02701FBF12F07F4393F07F4FFC
:1004300081F06051704732F07F4208BF704793F0FF
:100440007F4F04BF41F40021704730B54FF4607412
:1004500001F0004521F000411CE700BF50EA010215
:1004600008BF704730B54FF000050AE050EA0102BE
:1004700008BF704730B511F0004502D5404261EB2E
:1004800041014FF4806404F132045FEA915C3FF46F
:10049000D8AE4FF003025FEADC0C18BF03325FEA0C
:1004A000DC0C18BF033202EBDC02C2F1200300FABD
:1004B00003FC20FA02F001FA03FE40EA0E0021FAE2
:1004C00002F11444BDE600BF70B54FF0FF0C4CF4D0
:1004D000E06C1CEA11541DBF1CEA135594EA0C0F82
:1004E00095EA0C0F00F0DEF82C4481EA030621EABD
:1004F0004C5123EA4C5350EA013518BF52EA0335F8
:1005000041F4801143F4801338D0A0FB02CE4FF0A9
:100510000005E1FB02E506F00042E0FB03E54FF0D9
:100520000006E1FB03569CF0000F18BF4EF0010ED1
:10053000A4F1FF04B6F5007F64F5407404D25FEACD
:100540004E0E6D4146EB060642EAC62141EA555180
:100550004FEAC52040EA5E504FEACE2EB4F1FD0CC2
:1005600088BFBCF5E06F1ED8BEF1004F08BF5FEA40
:10057000500E50F1000041EB045170BD06F00046F2
:1005800046EA010140EA020081EA0301B4EB5C049F
:10059000C2BFD4EB0C0541EA045170BD41F4801197
:1005A0004FF0000E013C00F3AB8014F1360FDEBFBC
:1005B000002001F0004170BDC4F10004203C35DA98
:1005C0000C341BDC04F11404C4F1200500FA05F31B
:1005D00020FA04F001FA05F240EA020001F00042BC
:1005E00021F0004110EBD37021FA04F642EB060132
:1005F0005EEA430E08BF20EAD37070BDC4F10C045C
:10060000C4F1200500FA04F320FA05F001FA04F21F
:1006100040EA020001F0004110EBD37041F100010B
:100620005EEA430E08BF20EAD37070BDC4F1200516
:1006300000FA05F24EEA020E20FA04F301FA05F27E
:1006400043EA020321FA04F001F0004121FA04F226
:1006500020EA020000EBD3705EEA430E08BF20EAF6
:10066000D37070BD94F0000F0FD101F00046400030
:1006700041EB010111F4801F08BF013CF7D041EAB2
:10068000060195F0000F18BF704703F000465200B6
:1006900043EB030313F4801F08BF013DF7D043EA87
:1006A0000603704794EA0C0F0CEA135518BF95EA3D
:1006B0000C0F0CD050EA410618BF52EA4306D1D1C4
:1006C00081EA030101F000414FF0000070BD50EAE3
:1006D000410606BF1046194652EA430619D094EA6D
:1006E0000C0F02D150EA013613D195EA0C0F05D157
:1006F00052EA03361CBF104619460AD181EA0301AB
:1007000001F0004141F0FE4141F470014FF0000062
:1007100070BD41F0FE4141F4780170BD70B54FF0FD
:10072000FF0C4CF4E06C1CEA11541DBF1CEA13557D
:1007300094EA0C0F95EA0C0F00F0A7F8A4EB05045F
:1007400081EA030E52EA03354FEA013100F0888056
:100750004FEA03334FF0805545EA131343EA12631F
:100760004FEA022245EA111545EA10654FEA0026D4
:100770000EF000419D4208BF964244F1FD0404F58D
:10078000407402D25B084FEA3202B61A65EB0305E9
:100790005B084FEA32024FF480104FF4002CB6EBA6
:1007A000020E75EB030E22BFB61A754640EA0C0026
:1007B0005B084FEA3202B6EB020E75EB030E22BF66
:1007C000B61A754640EA5C005B084FEA3202B6EBA7
:1007D000020E75EB030E22BFB61A754640EA9C0066
:1007E0005B084FEA3202B6EB020E75EB030E22BF36
:1007F000B61A754640EADC0055EA060E18D04FEAF4
:10080000051545EA16754FEA06164FEAC30343EA93
:1008100052734FEAC2025FEA1C1CC0D111F4801F60
:100820000BD141EA00014FF000004FF0004CB6E759
:1008300011F4801F04BF01430020B4F1FD0C88BFF8
:10084000BCF5E06F3FF6AFAEB5EB030C04BFB6EB03
:10085000020C5FEA500C50F1000041EB045170BDF6
:100860000EF0004E4EEA113114EB5C04C2BFD4EB23
:100870000C0541EA045170BD41F480114FF0000EA7
:10088000013C90E645EA060E8DE60CEA135594EA23
:100890000C0F08BF95EA0C0F3FF43BAF94EA0C0F26
:1008A0000AD150EA01347FF434AF95EA0C0F7FF49B
:1008B00025AF104619462CE795EA0C0F06D152EAEF
:1008C00003353FF4FDAE1046194622E750EA4106D3
:1008D00018BF52EA43067FF4C5AE50EA41047FF4E4
:1008E0000DAF52EA43057FF4EBAE12E74FF0FF3C49
:1008F00006E000BF4FF0010C02E000BF4FF0010C1A
:100900004DF804CD4FEA410C7FEA6C5C4FEA430C92
:1009100018BF7FEA6C5C1BD001B050EA410C0CBFE1
:1009200052EA430C91EA030F02BF90EA020F002043
:10093000704710F1000F91EA030F58BF994208BFAA
:1009400090422CBFD8176FEAE37040F00100704767
:100950004FEA410C7FEA6C5C02D150EA013C07D1BE
:100960004FEA430C7FEA6C5CD6D152EA033CD3D009
:100970005DF8040B704700BF8446104662468C4603
:100980001946634600E000BF01B5FFF7B7FF002836
:1009900048BF10F1000F01BD4DF808EDFFF7F4FF5F
:1009A0000CBF012000205DF808FB00BF4DF808EDEA
:1009B000FFF7EAFF34BF012000205DF808FB00BF0D
:1009C0004DF808EDFFF7E0FF94BF012000205DF82F
:1009D00008FB00BF4DF808EDFFF7CEFF94BF0120E4
:1009E00000205DF808FB00BF4DF808EDFFF7C4FFDD
:1009F00034BF012000205DF808FB00BF4FEA410230
:100A000012F5001215D211D56FF47873B3EB625260
:100A100012D94FEAC12343F0004343EA505311F087
:100A2000004F23FA02F018BF404270474FF0000019
:100A3000704750EA013005D111F0004008BF6FF057
:100A4000004070474FF00000704700BF53B94AB9EB
:100A5000002908BF00281CBF4FF0FF314FF0FF30C6
:100A600000F06EB9ADF1080C6DE904CE00F006F8A7
:100A7000DDF804E0DDE9022304B070472DE9F0471A
:100A8000089E0D4604468E46002B40F083808A4225
:100A9000174647D9B2FA82F34BB1C3F1200105FAE8
:100AA00003FE20FA01F19F4041EA0E0E9C404FEAFE
:100AB0001748BEFBF8FC1FFA87F908FB1CE20CFB89
:100AC00009F0210C41EA024290420AD9BA180CF10D
:100AD000FF3180F01881904240F21581ACF1020C98
:100AE0003A44121AB2FBF8F008FB102200FB09F19D
:100AF000A4B244EA0244A14209D93C1900F1FF32F0
:100B000080F00381A14240F2008102383C44641A23
:100B1000002140EA0C401EB10022DC40C6E9004240
:100B2000BDE8F08702B9FFDEB2FA82F3002B4FD1A5
:100B30008D1A01214FEA124E1FFA82F8B5FBFEFC16
:100B40000EFB1C5508FB0CF0220C42EA0545A8429E
:100B500007D97D190CF1FF3202D2A84200F2E980D8
:100B600094462D1AB5FBFEF00EFB105508FB00F85D
:100B7000A4B244EA0544A04507D93C1900F1FF326C
:100B800002D2A04500F2D9801046A4EB080440EA46
:100B90000C40C0E78B4208D9002E00F0B180002144
:100BA000C6E900050846BDE8F087B3FA83F10029DD
:100BB0004BD1AB4202D3824200F2B980841A65EB7A
:100BC000030301209E46002EAAD0C6E9004EA7E7E7
:100BD0009F40C3F12002D1404FEA174EB1FBFEF017
:100BE0001FFA87F80EFB101124FA02F29D4000FB59
:100BF00008FC2A43150C45EA0145AC4504FA03F408
:100C000009D97D1900F1FF3180F08F80AC4540F2A9
:100C10008C8002383D44A5EB0C05B5FBFEF10EFBC4
:100C2000115C01FB08F995B245EA0C45A94507D9C5
:100C30007D1901F1FF3274D2A94572D902393D44C0
:100C4000A5EB090541EA004178E7C1F120078B4097
:100C500022FA07FC4CEA030C25FA07F44FEA1C4E73
:100C6000B4FBFEF91FFA8CF80EFB194420FA07F3C7
:100C700009FB08FA8D401D432B0C43EA0444A245AE
:100C800002FA01F200FA01F309D91CEB040409F19C
:100C9000FF3048D2A24546D9A9F102096444A4EB29
:100CA0000A04B4FBFEF00EFB104400FB08FAADB2E0
:100CB00045EA0444A24508D91CEB040400F1FF35C1
:100CC0002DD2A2452BD90238644440EA0940A0FB4A
:100CD0000289A4EB0A044C45C6464D4619D316D0EA
:100CE0005EB1B3EB0E0264EB050404FA07F722FAD7
:100CF00001F31F43CC40C6E900740021BDE8F08732
:100D0000314630460CE78C46EBE61046FFE643459D
:100D1000E6D2B8EB020E69EB0C050138E0E7284695
:100D2000D3E711468CE78146B9E7084673E70846E2
:100D300049E7ACF1020C3D4413E702383C4424E798
:100D4000704700BF844641EA000313F0030349D112
:100D5000403A23D30B6803604B6843608B68836021
:100D6000CB68C3600B6903614B6943618B69836125
:100D7000CB69C3610B6A03624B6A43628B6A83620D
:100D8000CB6AC3620B6B03634B6B43638B6B8363F5
:100D9000CB6BC36340304031403ADBD230320BD3AF
:100DA0000B6803604B6843608B688360CB68C360EB
:100DB00010301031103AF3D20C3205D351F8043B05
:100DC00040F8043B043AF9D2043208D0D2071CBFE1
:100DD00011F8013B00F8013B01D30B88038060460A
:100DE000704700BF082A13D38B07B1D010F003035C
:100DF000AED0C3F10403D21ADB071CBF11F8013BCC
:100E000000F8013BA4D331F8023B20F8023B9FE7F6
:100E1000043AD9D3013A11F8013B00F8013BF9D269
:100E20000B7803704B7843708B7883706046704703
:100E30004FEA410C7FEA6C5C02D150EA013C0AD1D6
:100E40004FEA430C7FEA6C5C02D152EA033C02D1C8
:100E50004FF0000070474FF00100704730B587B089
:100E600000240294039404940594134B9A6942F06D
:100E700020029A619A6902F020020092009A9A690F
:100E800042F004029A619B6903F004030193019B01
:100E90000A4D22460F21284600F034FC0F2302930E
:100EA0000123039304940223059302A9284600F02A
:100EB00019FB07B030BD00BF001002400008014020
:100EC00072B6FEE700B591B0002309930B930C9323
:100ED00001930293039304930593012106914FF428
:100EE0008032079208930A9102230D930E924FF4D9
:100EF000E0130F9306A800F021FC80B90F230193A3
:100F000002210291002303934FF48062049205931F
:100F100001A800F051FE20B911B05DF804FBFFF705
:100F2000CFFFFFF7CDFF000000B583B0124800F0FF
:100F300027F800F035FAFFF7C5FF00F0B5F900F02B
:100F40005BF90E4801F0EEF801F06EFE1F230093EE
:100F5000A02380220021084601F090FC4FF4FA60A3
:100F600000F042FA08F0AEFB01F088FE09F0ACF8A0
:100F7000052000F039FAF9E7AC0A0020640A0020E5
:100F800008B5054B1860054B186800230222194666
:100F900080680BF039F908BD040A002038000020F1
:100FA000022801D80120704708B50BF09FF80923EB
:100FB0000360002008BD000010B5013801280AD8E0
:100FC00014464FF0FF3392B20748006801F05FFB10
:100FD00040B9204610BD0BF089F8092303604FF09B
:100FE000FF30F7E70520F5E7040A0020022801D8C2
:100FF0000020704708B50BF079F8092303604FF023
:10100000FF3008BD08B50BF071F8092303604FF0FD
:10101000FF3008BD08B548B94FF0FF33012208483A
:10102000006801F0A0FB40B9012008BD0BF05EF89C
:10103000092303604FF0FF30F7E70520F5E700BF15
:10104000040A002008B5022804D84FF400534B606E
:10105000002008BD0BF04AF809230360F8E7000000
:1010600008B51048104B03604FF4827343604FF48F
:10107000004383600023C3600222026101224261B7
:101080004FF4007282610822C2610362436283628C
:101090000A23C36200F0E6FE00B908BDFFF710FFA7
:1010A000FBE700BF080A00200030014000B587B010
:1010B000002302930393049305930268124B9A4210
:1010C00002D007B05DF804FB03F560439A6942F46F
:1010D00080529A619A6902F480520092009A9A6949
:1010E00042F004029A619B6903F004030193019B9F
:1010F000A0230293022303930323059302A9034829
:1011000000F0F0F9DDE700BF0030014000080140C9
:1011100082B00E4B9A6942F001029A619A6902F01C
:1011200001020092009ADA6942F08052DA61DB69CA
:1011300003F080530193019B054A536823F0E06359
:1011400043F00073536002B0704700BF00100240CC
:1011500000000140FEE7FEE7FEE7FEE7FEE770471E
:101160007047704708B500F02DF908BD08B5024872
:1011700001F010F808BD00BF640A002008B502683D
:10118000044B1B689A4200D008BD012008F0BAF950
:10119000FAE700BF640A00200120704708B50AF092
:1011A000A5FF162303604FF0FF3008BD08B54FF0D0
:1011B000FF31FFF7F3FFFEE708B503460B4A12685D
:1011C00042B10A4A106803446A46934206D8074A65
:1011D000136008BD054A06491160F2E70AF086FF70
:1011E0000C2303604FF0FF30F3E700BF600A0020DC
:1011F000304300207047000000B587B00023029301
:10120000039304930593009301931548154A0260D4
:10121000436083604FF6FF72C26003614361836184
:1012200001F0B0F890B94FF48053029302A90C4832
:1012300001F0DFF868B9002300930193694608487C
:1012400001F044F940B907B05DF804FBFFF738FE40
:10125000E9E7FFF735FEEEE7FFF732FEF3E700BF01
:10126000640A0020002C014002680E4B9A4200D014
:10127000704700B583B003F564439A6942F4006295
:101280009A619B6903F400630193019B002211465C
:10129000192000F0CFF8192000F000F903B05DF834
:1012A00004FB00BF002C014008B50A480A4B03604C
:1012B0004FF4E133436000238360C36003610C2279
:1012C00042618361C36101F0B3F900B908BDFFF762
:1012D000F7FDFBE7AC0A00200038014010B586B0EE
:1012E000002302930393049305930268174B9A42D9
:1012F00001D006B010BD03F558439A6942F480420C
:101300009A619A6902F480420092009A9A6942F0C6
:1013100004029A619B6903F004030193019B4FF45B
:10132000007302930223039303230593084C02A93D
:10133000204600F0D7F84FF4806302930023039314
:10134000049302A9204600F0CDF8D2E7003801400E
:101350000008014010B504460E4B18784FF47A731C
:10136000B3FBF0F30C4A1068B0FBF3F000F0A4F804
:1013700068B90F2C01D901200AE0002221464FF064
:10138000FF3000F057F8054B1C60002000E0012002
:1013900010BD00BF04000020000000200800002055
:1013A00008B5074A136843F010031360032000F0E8
:1013B0002FF80F20FFF7CEFFFFF7AAFE002008BD91
:1013C00000200240034A1168034B1B780B44136052
:1013D000704700BFF00A002004000020014B18688D
:1013E000704700BFF00A002038B50446FFF7F6FF4B
:1013F0000546B4F1FF3F02D0044B1B781C44FFF7B5
:10140000EDFF401BA042FAD338BD00BF040000200E
:10141000074AD36823F4E0631B041B0C000200F4AA
:10142000E060034343F0BF6343F40033D36070478D
:1014300000ED00E030B4174BDB68C3F30223C3F1C7
:101440000704042C28BF04241D1D062D18D9033BB6
:101450004FF0FF3505FA04F421EA0401994005FA3A
:1014600003F322EA0303194300280BDB0901C9B285
:1014700000F1604000F5614080F8001330BC704717
:101480000023E5E700F00F000901C9B2024B19542F
:10149000F4E700BF00ED00E014ED00E0002807DBFA
:1014A00000F01F02400901239340024A42F8203015
:1014B000704700BF00E100E00138B0F1807F0AD240
:1014C000064B5860064AF02182F8231000209860ED
:1014D00007221A6070470120704700BF10E000E04B
:1014E00000ED00E0F0B482B000252C46A3E07F4F71
:1014F000BB4210D007D97E4FBB420CD007F58037D6
:10150000BB4208D013E0A7F58017BB4203D007F514
:101510007027BB4207D18B68002B58D0012B51D0CC
:101520004261082503E0A7F58017BB42F3D0FF2EE8
:101530004FD88446FF2E4FD8A200DCF800300F278A
:10154000974023EA070305FA02F21343CCF8003070
:101550004B6813F0805F6DD0664B9A6942F00102D0
:101560009A619B6903F001030193019BA208971CF8
:10157000614B53F8273004F00307BF004FF00F0C06
:101580000CFA07FC23EA0C0C5C4B98422AD003F5BA
:101590008063984200F08A8003F58063984200F0EF
:1015A000878003F5806398421AD004231BE0CD683E
:1015B000BDE7CD680435BAE7CD680835B7E7CD6833
:1015C0000C35B4E702610825B1E70025AFE7042533
:1015D000ADE700F1040CADE7A4F108029200ACE71E
:1015E000032300E00023BB4043EA0C030232424FD6
:1015F00047F822304B6813F4803F5BD0404A1368B1
:10160000334313604B6813F4003F59D03C4A53688E
:10161000334353604B6813F4801F57D0384A9368A4
:10162000334393604B6813F4001F55D0344AD3689A
:101630001E43D66001340B6833FA04F252D0012203
:10164000A24003EA020632EA0303F3D14B68122BED
:101650003FF64DAF122B3FF66AAF01A757F823F0C4
:1016600017150008AF150008B9150008CB150008BC
:101670002F1500082F1500082F1500082F1500083A
:101680002F1500082F1500082F1500082F1500082A
:101690002F1500082F1500082F1500082F1500081A
:1016A0002F150008B3150008BF15000801239AE79D
:1016B000022398E7124A136823EA06031360A1E79E
:1016C0000F4A536823EA06035360A3E70C4A936862
:1016D00023EA06039360A5E7094AD36823EA0606CE
:1016E000D660A7E702B0F0BC704700BF0000221030
:1016F00000003110001002400000014000080140CD
:10170000000401400AB1016170470904016170479A
:1017100082B0084B1B68084AA2FB03235B0A00FB4C
:1017200003F3019300BF019B5A1E0192002BF9D1D4
:1017300002B0704700000020D34D6210002800F076
:10174000F18170B582B00446036813F0010F2CD00C
:10175000AA4B5B6803F00C03042B1DD0A74B5B68FE
:1017600003F00C03082B12D06368B3F5803F41D01F
:10177000002B55D103F1804303F504331A6822F49A
:1017800080321A601A6822F480221A6037E09B4B7C
:101790005B6813F4803FE7D0984B1B6813F4003F5D
:1017A00003D06368002B00F0BF81236813F0020FA1
:1017B00075D0924B5B6813F00C0F5FD08F4B5B685A
:1017C00003F00C03082B54D02369002B00F0898010
:1017D0008B4B01221A60FFF701FE0546874B1B6801
:1017E00013F0020F74D1FFF7F9FD401B0228F5D961
:1017F00003209EE1814A136843F4803313606368D9
:1018000043B3FFF7EBFD05467C4B1B6813F4003F29
:10181000CBD1FFF7E3FD401B6428F5D9032088E115
:10182000B3F5A02F09D0754B1A6822F480321A60E4
:101830001A6822F480221A60E1E703F18043A3F5DD
:101840003C331A6842F480221A601A6842F48032EB
:101850001A60D4E7FFF7C2FD0546684B1B6813F416
:10186000003FA2D0FFF7BAFD401B6428F5D9032042
:101870005FE1624B5B6813F4803FA5D15F4B1B684F
:1018800013F0020F03D02369012B40F04F815B4A14
:10189000136823F0F803616943EAC1031360236806
:1018A00013F0080F32D0A369002B45D0554B01220D
:1018B0001A60FFF793FD0546504B5B6A13F0020F69
:1018C00021D1FFF78BFD401B0228F5D9032030E121
:1018D0004A4A136823F0F803616943EAC1031360BD
:1018E000DDE7474B00221A60FFF778FD0546434BC2
:1018F0001B6813F0020FD2D0FFF770FD401B0228C7
:10190000F5D9032015E10120FFF702FF236813F04A
:10191000040F00F09780394BDB6913F0805F1DD115
:10192000364BDA6942F08052DA61DB6903F08053AA
:101930000193019B012512E0324B00221A60FFF750
:101940004DFD05462D4B5B6A13F0020FDED0FFF70D
:1019500045FD401B0228F5D90320EAE000252A4B6B
:101960001B6813F4807F11D0E368012B22D0002B79
:1019700038D103F1804303F504331A6A22F00102DF
:101980001A621A6A22F004021A6218E01E4A1368E8
:1019900043F480731360FFF721FD06461A4B1B6862
:1019A00013F4807FE0D1FFF719FD801B6428F5D97F
:1019B0000320BEE0114A136A43F001031362E36897
:1019C00073B3FFF70BFD06460C4B1B6A13F0020FB7
:1019D00037D1FFF703FD801B41F288339842F3D9DA
:1019E0000320A6E0052B11D0044B1A6A22F0010255
:1019F0001A621A6A22F004021A62E0E7001002403A
:101A00000000424280044242007000404D4B1A6A7E
:101A100042F004021A621A6A42F001021A62CEE728
:101A2000FFF7DCFC0646474B1B6A13F0020F08D099
:101A3000FFF7D4FC801B41F288339842F3D903208E
:101A400077E0E5B9E369002B72D03E4A526802F0B4
:101A50000C02082A56D0022B17D03B4B00221A60EA
:101A6000FFF7BCFC0446374B1B6813F0007F47D0E0
:101A7000FFF7B4FC001B0228F5D9032059E0314AD6
:101A8000D36923F08053D361DCE72F4B00221A6027
:101A9000FFF7A4FC05462B4B1B6813F0007F06D014
:101AA000FFF79CFC401B0228F5D9032041E0236A84
:101AB000B3F5803F1AD023494B6823F47413226A8C
:101AC000606A024313434B601F4B01221A60FFF709
:101AD00085FC04461B4B1B6813F0007F0ED1FFF7FB
:101AE0007DFC001B0228F5D9032022E0154A53682B
:101AF00023F40033A1680B435360DCE7002018E0B7
:101B0000002016E0012B16D00E4B5B6803F48031E9
:101B1000226A914211D103F47013626A93420ED18A
:101B2000002006E001207047012002E0012000E0D3
:101B3000002002B070BD0120FBE70120F9E7012081
:101B4000F7E700BF001002406000424286B0164B2B
:101B50000FCB0DF1180C0CE90F0040F20123ADF88A
:101B60000430124B5B6803F00C02082A02D01048C4
:101B700006B07047C3F38342624412F8102C13F48A
:101B8000803F0CD0094B5B68C3F34043634413F8B8
:101B9000143C074800FB02F0B0FBF3F0E8E705480F
:101BA00000FB02F0E4E700BFC02201080010024081
:101BB00000127A0000093D00002800F0A08070B5F6
:101BC0000D460446524B1B6803F007038B420BD2B1
:101BD0004F4A136823F007030B431360136803F0A5
:101BE00007038B4240F08D80236813F0020F17D05B
:101BF00013F0040F04D0474A536843F4E063536082
:101C0000236813F0080F04D0424A536843F460532A
:101C10005360404A536823F0F003A1680B435360BC
:101C2000236813F0010F31D06368012B20D0022B01
:101C300025D0384A126812F0020F64D035494A683C
:101C400022F0030213434B60FFF7C8FB0646314BFB
:101C50005B6803F00C036268B3EB820F16D0FFF7EA
:101C6000BDFB801B41F288339842F0D9032045E048
:101C7000284A126812F4003FE0D101203EE0254AD4
:101C8000126812F0007FD9D1012037E0204B1B6889
:101C900003F00703AB420AD91D4A136823F0070378
:101CA0002B431360136803F00703AB422DD1236865
:101CB00013F0040F06D0174A536823F4E063E16879
:101CC0000B435360236813F0080F07D0114A536881
:101CD00023F46053216943EAC1035360FFF736FFE1
:101CE0000C4B5B68C3F303130B4AD35CD8400B4B1C
:101CF00018600B4B1868FFF72DFB002070BD01200A
:101D000070470120FAE70120F8E70120F6E700BF5D
:101D10000020024000100240A8220108000000201C
:101D200008000020014B1868704700BF0000002029
:101D300008B5FFF7F7FF044B5B68C3F30223034AC0
:101D4000D35CD84008BD00BF00100240B822010893
:101D500008B5FFF7E7FF044B5B68C3F3C223034AF0
:101D6000D35CD84008BD00BF00100240B822010873
:101D70002DE9F04782B00546884617461E46FFF714
:101D80002DFB0A9B1B1A03EB0609FFF727FB824674
:101D90002A4B1B68C3F3CB3309FB03F301932B6876
:101DA0009C6838EA04030CBF01240024BC4240D0E4
:101DB000B6F1FF3FF3D0FFF711FBA0EB0A00484557
:101DC0000AD2B9F1000F07D0019A02B14A46019B2D
:101DD000013B01939146E2E72A68536823F0E00350
:101DE00053606B68B3F5827F0BD0AB6AB3F5005FCD
:101DF00014D0012385F85130002385F8503003209A
:101E000018E0AB68B3F5004F02D0B3F5806FECD1AA
:101E10002A68136823F040031360E6E72A68136812
:101E200023F4005313602A68136843F400531360CB
:101E3000DFE7002002B0BDE8F08700BF000000200F
:101E400010B582B004460B46009200228021FFF7B5
:101E50008FFF08B902B010BD636D43F020036365C6
:101E60000320F7E7002856D010B50446436A33B97B
:101E70004368B3F5827F05D00023C36102E00023ED
:101E8000036143610023A36294F85130002B3CD0DE
:101E9000022384F851302268136823F04003136052
:101EA000636803F48273A26802F404421343E26895
:101EB00002F400621343226902F0020213436269D2
:101EC00002F001021343A26902F400721343E269B3
:101ED00002F038021343226A02F080021343A26A1E
:101EE00002F40052216813430B60638B226803F0F5
:101EF000040353602268D36923F40063D361002094
:101F00006065012384F8513010BD84F850302046BC
:101F1000FFF7CCF8BCE7012070472DE9F04383B010
:101F20001D4690F85030012B00F0CC8004468846C6
:101F30009146012380F85030FFF750FA074694F895
:101F40005160F6B2012E40F0AA80B8F1000F00F007
:101F5000A780B9F1000F00F0A380032384F851306B
:101F600000236365C4F83080A4F83490A4F8369058
:101F7000A363A387E38763642364A368B3F5004F77
:101F80001ED023681A6812F0400F03D11A6842F07D
:101F900040021A60E368B3F5006F1CD0636813B1A8
:101FA000B9F1010F52D1226B236812781A73236B97
:101FB00001332363E38E9BB2013B9BB2E38645E092
:101FC0002268136823F0400313602268136843F407
:101FD00080431360D5E7636813B1B9F1010F16D1DF
:101FE000226B23681288DA60236B02332363E38E4B
:101FF0009BB2013B9BB2E38609E0FFF7EFF9C01B00
:10200000A84202D3B5F1FF3F54D1002D54D0E38E46
:102010009BB2002B2ED023689A6812F0020FECD0EE
:10202000226B1288DA60236B02332363E38E9BB248
:10203000013B9BB2E386EAE7FFF7D0F9C01BA84259
:1020400002D3B5F1FF3F39D1002D39D0E38E9BB2D9
:1020500083B123689A6812F0020FEDD0226B1278D8
:102060001A73236B01332363E28E92B2013A92B268
:10207000E286EBE73A4629462046FFF7E1FE08B143
:1020800020236365A36833B901932368DA6801925A
:102090009B680193019B636D13B9002600E0022643
:1020A000012384F85130002384F85030304603B0C7
:1020B000BDE8F0830326F3E70326F1E70326EFE705
:1020C0000326EDE70226F1E730B4036A056A25F03E
:1020D00001050562846924F0F00444EA021423F047
:1020E0000A030B438461036230BC704730B4056A55
:1020F00025F0100505628469036A24F4704444EAFB
:10210000023423F0A00343EA01138461036230BC6C
:102110007047836823F070030B4343F00703836029
:102120007047000090F83D30DBB2012B27D102232D
:1021300080F83D300268D36843F00103D360036840
:10214000114A934210D0B3F1804F0DD0A2F59432D2
:10215000934209D002F58062934205D01A6842F09A
:1021600001021A60002070479A6802F00702062AEE
:1021700007D01A6842F001021A600020704701205F
:1021800070470020704700BF002C01407047704727
:102190007047704710B5044603681A6912F0020FC1
:1021A00011D0DA6812F0020F0DD06FF002021A613E
:1021B0000123037703689B6913F0030F70D0FFF7C7
:1021C000E6FF0023237723681A6912F0040F12D068
:1021D000DA6812F0040F0ED06FF004021A610223C5
:1021E000237723689B6913F4407F5FD02046FFF775
:1021F000CEFF0023237723681A6912F0080F12D04C
:10220000DA6812F0080F0ED06FF008021A6104238A
:1022100023772368DB6913F0030F4ED02046FFF7C6
:10222000B6FF0023237723681A6912F0100F12D02B
:10223000DA6812F0100F0ED06FF010021A61082346
:1022400023772368DB6913F4407F3DD02046FFF7F6
:102250009EFF0023237723681A6912F0010F03D031
:10226000DA6812F0010F36D123681A6912F0800F74
:1022700003D0DA6812F0800F34D123681A6912F0A3
:10228000400F03D0DA6812F0400F32D123681A6988
:1022900012F0200F03D0DA6812F0200F30D110BDF9
:1022A000FFF774FF2046FFF773FF8AE72046FFF72A
:1022B0006DFF2046FFF76CFF9BE72046FFF766FFA8
:1022C0002046FFF765FFACE72046FFF75FFF20469B
:1022D000FFF75EFFBDE76FF001021A612046FEF7CF
:1022E0004DFFC1E76FF080021A61204600F023F92C
:1022F000C3E76FF040021A612046FFF74AFFC5E7C7
:102300006FF020021A61204600F014F9C7E70000C0
:1023100003681B4A90420AD0B0F1804F07D0A2F563
:102320009432904203D002F58062904203D123F0B0
:1023300070034A681343124A90420AD0B0F1804FAA
:1023400007D0A2F59432904203D002F58062904209
:1023500003D123F44073CA68134323F080034A690E
:10236000134303608B68C3620B688362044B98421B
:1023700002D00123436170470B690363F9E700BF93
:10238000002C014040B310B5044690F83D30F3B145
:10239000022384F83D30214651F8040BFFF7B8FFC3
:1023A000012384F8463084F83E3084F83F3084F8C6
:1023B000403084F8413084F8423084F8433084F867
:1023C000443084F8453084F83D30002010BD80F85A
:1023D0003C30FEF749FFDBE70120704710B484680A
:1023E00024F47F4442EA03220A432243826010BC61
:1023F000704790F83C30012B66D010B5044601239D
:1024000080F83C30022380F83D300268936823F462
:102410007F4323F0770393600B68602B40D022D872
:10242000402B47D00BD9502B0ED1CA6849680068A1
:10243000FFF74AFE50212068FFF76BFE04E0202BD7
:102440000CD008D9302B09D0012384F83D3000206E
:1024500084F83C0010BD0BB1102BF5D11946206853
:10246000FFF757FEF0E7702B0ED0B3F5005FEBD10E
:10247000CB684A6889680068FFF7B0FF22689368F4
:1024800043F480439360DFE7CB684A68896800685B
:10249000FFF7A4FF2268936843F077039360D3E7C4
:1024A000CA6849680068FFF721FE60212068FFF7CD
:1024B00030FEC9E7CA6849680068FFF705FE402199
:1024C0002068FFF726FEBFE70220704790F83C30F7
:1024D000012B2BD030B4012380F83C30022380F84C
:1024E0003D3003685C689D6824F070040A682243EC
:1024F0005A6003680E4A93420AD0B3F1804F07D066
:10250000A2F59432934203D002F58062934204D143
:1025100025F080054A6815439D60012380F83D3011
:10252000002380F83C30184630BC704702207047CA
:10253000002C01407047704710B5044602681369CB
:1025400023F44053C1680B4313618368026913434A
:1025500042691A430168CB6823F4B05323F00C039B
:102560001343CB600268536923F4407381690B43C2
:1025700053610268124B9A421FD0FFF7D9FB00EB60
:10258000800303EB830362689200B3FBF2F20D4811
:10259000A0FB02314909642303FB11231B013233E1
:1025A000A0FB03235B0903F0F00202EB011203F02E
:1025B0000F03216813448B6010BDFFF7C9FBDEE7F2
:1025C000003801401F85EB512DE9F84305460F46C1
:1025D00016469946DDF820802C68246837EA040303
:1025E0000CBF01240024B4421FD1B8F1FF3FF3D047
:1025F000B8F1000F05D0FEF7F1FEA0EB0900404551
:10260000EAD92A68D36823F4D073D3602A6853695F
:1026100023F001035361202385F83D3085F83E30D7
:10262000002385F83C30032000E00020BDE8F8835B
:1026300058B310B5044690F83D300BB3242384F80A
:102640003D302268D36823F40053D3602046FFF75F
:1026500073FF2268136923F490431361226853695E
:1026600023F02A0353612268D36843F40053D360F4
:1026700000202064202384F83D3084F83E3010BDD3
:1026800080F83C30FEF72AFED8E7012070472DE99C
:10269000F04182B01E4690F83D30DBB2202B54D181
:1026A00004460D469046002953D0002A53D090F896
:1026B0003C30012B51D0012380F83C3000230364CF
:1026C000212380F83D30FEF789FE0746A4F82480D8
:1026D000A4F82680A368B3F5805F05D04FF000080A
:1026E000002384F83C3012E0236913B14FF0000856
:1026F000F6E7A8460025F3E738F8023B2268C3F363
:1027000008035360E28C92B2013A92B2E284E38C05
:102710009BB273B100963B46002280212046FFF712
:1027200053FFE0B9002DE7D015F8012B23685A605C
:10273000E8E700963B46002240212046FFF744FF91
:1027400078B9202384F83D3000E0022002B0BDE8D3
:10275000F0810120FAE70120F8E70220F6E70320E4
:10276000F4E70320F2E72DE9F04182B01E4690F82D
:102770003E30DBB2202B5CD104460D46904600294A
:102780005BD0002A5BD090F83C30012B59D001235C
:1027900080F83C3000230364222280F83E2003634B
:1027A000FEF71CFE0746A4F82C80A4F82E80A36830
:1027B000B3F5805F05D04FF00008002384F83C306B
:1027C00017E0236913B14FF00008F6E7A84600258B
:1027D000F3E723685B68C3F3080328F8023B03E0D0
:1027E00023685B682B700135E28D92B2013A92B298
:1027F000E285E38D9BB2BBB100963B4600222021CF
:102800002046FFF7E1FEF0B9002DE2D0A368B3F552
:10281000805FE5D013B92369002BE1D023685B68A2
:1028200003F07F032B70DEE7202384F83E30002086
:1028300000E0022002B0BDE8F0810120FAE70120AB
:10284000F8E70220F6E70320F4E7F8B5069F161A2A
:10285000B6B20136B6B25D1AADB20135ADB200F016
:102860009BF8002405FB06F39C4206DA37F8020BBE
:1028700000F05EF80134A4B2F4E7F8BD2DE9F843A6
:1028800081460F4615469846BDF82060013B013A47
:102890009BB292B200F080F808E0304600F048F8B1
:1028A0000134A4B2AC42F8D30137BFB2474501D2DC
:1028B0004C46F7E7BDE8F88310B50B4C01221146F2
:1028C0002046FEF71FFF012202212046FEF71AFFD5
:1028D000012208212046FEF715FF0122042120468F
:1028E000FEF710FF10BD00BF0008014010B582B018
:1028F0008DF807000A4C002204212046FEF702FF53
:102900004FF47A7301220DF107010648FFF705FB2A
:10291000012204212046FEF7F5FE02B010BD00BFE3
:1029200000080140080A002008B5FFF7DFFF08BDD6
:1029300010B582B0030A8DF804308DF805000A4CFA
:10294000002204212046FEF7DDFE4FF47A730222B6
:1029500001A90648FFF7E1FA012204212046FEF70B
:10296000D1FE02B010BD00BF00080140080A0020DF
:1029700038B50446074D002202212846FEF7C2FE64
:102980002046FFF7B3FF012202212846FEF7BAFED8
:1029900038BD00BF00080140F8B507460D46164691
:1029A0001C462A20FFF7E4FFB81C80B2FFF7C0FFE7
:1029B000B01C80B2FFF7BCFF2B20FFF7D9FF681CCB
:1029C00080B2FFF7B5FF601C80B2FFF7B1FF2C208B
:1029D000FFF7CEFFF8BD000010B5FEF73FFAFFF796
:1029E0006BFFFEF73DFB7D4C002201212046FEF7E8
:1029F00089FE6420FEF7F8FC012211462046FEF70E
:102A000081FE6420FEF7F0FC012208212046FEF73B
:102A100079FE6420FEF7E8FC1120FFF7A9FF78207B
:102A2000FEF7E2FCB120FFF7A3FF0520FFF77CFFD4
:102A30003C20FFF779FF3C20FFF776FFB220FFF73D
:102A400097FF0520FFF770FF3C20FFF76DFF3C204C
:102A5000FFF76AFFB320FFF78BFF0520FFF764FF46
:102A60003C20FFF761FF3C20FFF75EFF0520FFF7EA
:102A70005BFF3C20FFF758FF3C20FFF755FFB420D9
:102A8000FFF776FF0320FFF74FFFC020FFF770FF2F
:102A90002820FFF749FF0820FFF746FF0420FFF733
:102AA00043FFC120FFF764FFC020FFF73DFFC220B6
:102AB000FFF75EFF0D20FFF737FF0020FFF734FF21
:102AC000C320FFF755FF8D20FFF72EFF2A20FFF7C9
:102AD0002BFFC420FFF74CFF8D20FFF725FFEE20D2
:102AE000FFF722FFC520FFF743FF1A20FFF71CFF67
:102AF0003620FFF73DFFC020FFF716FFE020FFF76D
:102B000037FF0420FFF710FF2220FFF70DFF0720FB
:102B1000FFF70AFF0A20FFF707FF2E20FFF704FF49
:102B20003020FFF701FF2520FFF7FEFE2A20FFF7E8
:102B3000FBFE2820FFF7F8FE2620FFF7F5FE2E20EB
:102B4000FFF7F2FE3A20FFF7EFFE0020FFF7ECFE62
:102B50000120FFF7E9FE0320FFF7E6FE1320FFF751
:102B6000E3FEE120FFF704FF0420FFF7DDFE16205F
:102B7000FFF7DAFE0620FFF7D7FE0D20FFF7D4FEA1
:102B80002D20FFF7D1FE2620FFF7CEFE2320FFF7F2
:102B9000CBFE2720FFF7C8FE2720FFF7C5FE252024
:102BA000FFF7C2FE2D20FFF7BFFE3B20FFF7BCFE64
:102BB0000020FFF7B9FE0120FFF7B6FE0420FFF763
:102BC000B3FE1320FFF7B0FE3A20FFF7D1FE052039
:102BD000FFF7AAFE2920FFF7CBFE10BD0008014039
:102BE00070B582B00446B1F90000B1F90250B1F9F4
:102BF0000460B1F9063000929BB2B2B2A9B280B2C1
:102C0000FFF723FE204606F03BFC02B070BD00003B
:102C100000B583B004980090024809F0E1FA03B0CF
:102C20005DF804FBD422010810B588B000F03CFC2C
:102C30000E4807F071F8FFF7CFFE0D4C4FF4A0637C
:102C400000220C49204606F041FB684606F01CFBBA
:102C50008023ADF80030A023ADF80230064B03937B
:102C60000194684606F03EFB08B010BD112C000828
:102C7000F4140020F40A0020E12B000810B582B003
:102C80000021B42009F0A6F907F0A6FE06F0BCFB6F
:102C900000F076F8002107F039FC04460A2264218E
:102CA00001F0FAFD002100910B460A46204600F093
:102CB00099FF4FF4FA61204607F0E0FB01226421FE
:102CC000204607F063FB02B010BD00B10120704741
:102CD00070B108B5C26B074B9A4201D1012008BD03
:102CE000054B5B220549022007F01CF80020F6E79F
:102CF0000120704778563412E42201081823010895
:102D000070B5C0B00646144609F04EFBE5282CD835
:102D10000546024631466846FEF714F80DEB0503FA
:102D200020220DF8052028225A7030229A7078222D
:102D3000DA70181D07230AE0990024FA01F101F066
:102D40000F010D4A525C00F8012B013B5BB2002BD6
:102D5000F2DA29230370002343706B46A722074948
:102D6000032006F0DFFF40B070BD3346A9220349BF
:102D7000032006F0D7FFF6E75823010818230108BF
:102D800010B5044610B12CB1206B10BD06F03CFB11
:102D90000446F8E7034B2E220349022006F0C2FF47
:102DA0002046F2E76C230108A423010810B504466D
:102DB00010B12CB1606B10BD06F026FB0446F8E79D
:102DC000034B4B220349022006F0ACFF2046F2E7FA
:102DD000E0230108A423010810B5044610B12CB16A
:102DE000A06B10BD06F010FB0446F8E7034B5C2215
:102DF0000349022006F096FF2046F2E71C24010852
:102E0000A423010810B4FF23CB738B7A6FF3040360
:102E10008B724B89292262F34A134B81C3F3072338
:102E200043F0F803CB720B7A13B9B1F90C300BB144
:102E300005238B814A88C2F3C42303EB830003EB91
:102E4000400003EBC0035B009BB203F65313C3F3D4
:102E500004234FF0000063F3CF20C2F3451303EBCC
:102E6000830403EB440403EBC4035B009BB203F64F
:102E70005543C3F3052363F34A1002F01F0303EB2A
:102E8000830203EB420203EBC203C3F3C41363F3F5
:102E9000040048808A88C2F3C42303EB830003EB59
:102EA000400003EBC0035B009BB203F65313C3F374
:102EB00004234FF0000063F3CF20C2F3451303EB6C
:102EC000830403EB440403EBC4035B009BB203F6EF
:102ED0005543C3F3052363F34A1002F01F0303EBCA
:102EE000830203EB420203EBC203C3F3C41363F395
:102EF000040088800A8AC2F3C42303EBC30303EBF4
:102F000003139BB203F65A43C3F304234FF00000AC
:102F100063F3CF20C2F3451303EBC30303EB0313A7
:102F20009BB203F582531633C3F3052363F34A10B0
:102F300002F01F0202EBC20202EB0212C2F30422F1
:102F400062F3040008820A8CC2F3C42303EB8300FB
:102F500003EB400003EBC0035B009BB203F653138B
:102F6000C3F304234FF0000063F3CF20C2F34513F3
:102F700003EB830403EB440403EBC4035B009BB249
:102F800003F65543C3F3052363F34A1002F01F030E
:102F900003EB830203EB420203EBC203C3F3C4134C
:102FA00063F30400088491F832300F2B13D891F8A2
:102FB00030306FF3040381F830300B8E292262F336
:102FC0004A130B86C3F3072343F0F80381F831302B
:102FD000662381F8323010BC704710B4FF23CB73E6
:102FE0008B7A6FF304038B724B89202262F34A13AE
:102FF0004B81C3F307236FF3C703CB720B7A13B96B
:10300000B1F90C300BB105238B814A88C2F3C4237C
:1030100003EB830003EB400003EBC003C3F3C413D3
:103020004FF0000063F3CF20C2F3451303EB83049A
:1030300003EB440403EBC4035B009BB203F51A6388
:10304000C3F3052363F34A1002F01F0303EB83026B
:1030500003EB420203EBC203C3F3C41363F30400A4
:1030600048808A88C2F3C42303EB830003EB40004B
:1030700003EBC003C3F3C4134FF0000063F3CF208E
:10308000C2F3451303EB830403EB440403EBC403D3
:103090005B009BB203F51A63C3F3052363F34A1085
:1030A00002F01F0303EB830203EB420203EBC203B4
:1030B000C3F3C41363F3040088800B8AC3F3C422F0
:1030C00002EBC20202EB0212C2F304224FF0000034
:1030D00062F3CF20C3F3451202EBC20202EB0212ED
:1030E00092B202F54C62C2F3052262F34A1003F079
:1030F0001F0303EBC30303EB0313C3F3042363F3C3
:10310000040008820A8CC2F3C42303EB830003EBA0
:10311000400003EBC003C3F3C4134FF0000063F39C
:10312000CF20C2F3451303EB830403EB440403EB0A
:10313000C4035B009BB203F51A63C3F3052363F377
:103140004A1002F01F0303EB830203EB420203EB7E
:10315000C203C3F3C41363F30400088491F832304C
:103160000F2B13D891F830306FF3040381F830300F
:103170000B8E202262F34A130B86C3F307236FF3EF
:10318000C70381F83130662381F8323010BC7047B4
:10319000074B0361074B43610B4639B1D1F8A821B6
:1031A00002B10261D3F8AC3103B14361704700BF93
:1031B000052E0008DB2F000810B5002401E000F008
:1031C000A5FA30B190F8303013F0200FF7D0044654
:1031D000F5E714B1204600F077FC10BD2DE9F84367
:1031E00090F85C3013F0010F28D1064689469046CE
:1031F000C4680127002514E096F85C3013F0100F26
:1032000000D1DDB9D7B13046C847044600273B4658
:103210000AE09CB1254609E01CB1206800F0C6FB1D
:1032200070B1002CE8D00123002DF2D0002BF3D098
:1032300021463046C04704468542EDD1BDE8F883BB
:10324000F368A342FAD083B11868C3690022112140
:103250009847F36800220D21186800F0DBF9012877
:10326000ECD1F368186800F0BFFBF4602068C36914
:10327000002210219847F36800220C21186800F002
:10328000C9F90128DAD1F3681868FFF795FFF368E8
:10329000186800F0A9FBB369002BCFD030469847DF
:1032A000CCE7000008B56021014806F001FC08BD2C
:1032B000B418002008B5024A0249FFF78FFF08BD85
:1032C000539B0008439B000808B5024A0249FFF7D8
:1032D00085FF08BD5F9B00084B9B000838B504467E
:1032E00090F85C30C3F3001543F0100380F85C30B5
:1032F00013F0080F08D1FFF7DDFF94F85C3065F399
:10330000041384F85C3038BDFFF7DEFFF5E70000FA
:10331000002839D070B50C460546064606F011FC6B
:10332000014639B10B68A34219D0304606F011FCB2
:103330000146F6E7E36A1BB1204601F071FC78B95B
:10334000E562284606F0DEFB0646FFF7BEFC58B1F4
:103350002EB13460284606F0F4FB864210D070BDD2
:10336000E06AFFF7BBFFEBE7084B8E22084903201A
:1033700006F0D8FC3246F3170648FFF7C1FCFEE71B
:103380002846FFF7ABFFEAE7704700BFA824010813
:10339000582401089824010838B5044600F11C059A
:1033A000284602F031F894F85C3013F0020F06D092
:1033B000636913B1294620469847284638BD2369DA
:1033C000002BFAD0294620469847F6E718B1C06886
:1033D00008B100687047704738B5044607F008FB2D
:1033E000054624B101462046FFF7D2FE38BD084805
:1033F00006F0A7FB044608E029462046FFF7C8FE72
:103400002146034806F0A5FB0446002CF4D1EDE765
:10341000B4180020014B1868704700BF1015002039
:1034200008B530B190F84C3043F0020380F84C30CE
:1034300008BD002006F058F80028F9D090F84C306C
:1034400043F0020380F84C3006F04EF8F4E708B57C
:103450000020FFF7E5FF08BD2DE9F0410F461646B5
:1034600000F10408404606F06CFB044617E0BDB2CC
:10347000238A2B442382B3B2628A1A446282A28ACC
:103480001544A582E28A1344E38232463946204637
:10349000FFF7E2FF2146404606F05BFB0446002CA6
:1034A000E5D1BDE8F081000008B5154B1B78FBB9EC
:1034B00006F09CFC06F02EFF06F004F9FFF7F2FE82
:1034C00001F0B4FF01F056FD4FF4B2710D4806F063
:1034D000EFFA5C210C4806F0EBFAFFF7B8FF05F0B5
:1034E000B1FB012005F066F8054B01221A7008BDFA
:1034F000064B53220649022006F014FCF7E700BFF2
:103500001C150020A4180020D0180020BC2401089D
:10351000D424010838B504460D46FFF7D6FB30B178
:1035200094F8303065F3000384F8303038BD064B32
:1035300040F2F2420549032006F0F4FB2246E3176D
:103540000348FFF7DDFBFEE780260108D4240108CD
:10355000102501082DE9F04184B007460C461546B8
:103560001E460846FFF7B1FB58B3019400238DF8BF
:1035700008300393224B1B6803B10393204B01AA2D
:103580001A60204BD3F800801E60FFF743FF18B18C
:1035900083680BB12946984717B129462046B8479A
:1035A000184BC3F80080164B1A6892681A609DF891
:1035B0000830EBB904B394F93030002B0EDB012056
:1035C00017E0114B40F2B5521049032006F0AAFB58
:1035D0002246E3170E48FFF793FBFEE7206868B129
:1035E0003246294600F016F8012802D0002000E0FB
:1035F000002004B0BDE8F0810120FAE70120F8E7DF
:103600001815002014150020A4260108D424010850
:1036100010250108D0B170B50D4616460446FFF7D7
:1036200054FB60B90A4B40F2A2520A49032006F04B
:1036300079FB2246E3170848FFF762FBFEE73346B3
:103640002A462146A069FFF785FF70BD012070471B
:1036500094260108D42401081025010838B5044631
:103660000D46FFF732FB08B1E56138BD064B40F26D
:10367000F7520649032006F055FB2246E31704489B
:10368000FFF73EFBFEE700BFB8260108D42401087F
:103690001025010838B504460D46FFF716FB08B1A2
:1036A000256238BD064B40F20F620649032006F042
:1036B00039FB2246E3170448FFF722FBFEE700BF71
:1036C000D0260108D42401081025010838B5044685
:1036D0000D46FFF7FAFA60B9094B4FF4C462094985
:1036E000032006F01FFB2246E3170748FFF708FBFD
:1036F000FEE72946606A06F0EFFB606238BD00BF56
:10370000E8260108D42401081025010810B5044654
:10371000FFF7DBFA08B1206810BD064B40F2766275
:103720000549032006F0FEFA2246E3170348FFF797
:10373000E7FAFEE744270108D42401081025010810
:1037400038B50446FFF7C1FA40B125462046FFF7D9
:10375000DDFF04460028F8D1284638BD064B4FF45B
:10376000C8620649032006F0DDFA2246E317044842
:10377000FFF7C6FAFEE700BF20270108D42401089E
:103780001025010870B50446FFF79FFAC0B1236801
:103790001BB12046FFF7D4FF0446174806F0D1F9C5
:1037A000054605B305F12406304606F0CAF9014680
:1037B00099B18C421ED0304606F0CBF90146F7E7AE
:1037C0000E4B40F254620E49032006F0ABFA22463B
:1037D000E3170C48FFF794FAFEE72946064806F07F
:1037E000B8F90546DDE7084B40F26762044902205C
:1037F00006F098FA284670BDA41800203427010866
:10380000D4240108102501082025010838B50446F4
:103810000D46FFF75AFA28B18DB12946201D06F052
:1038200098F938BD084B40F284620849032006F03D
:1038300079FA2246E3170648FFF762FAFEE7201DF1
:1038400006F07FF9EDE700BF58270108D4240108EE
:103850001025010838B504460D46FFF736FA60B961
:10386000094B40F2D7620949032006F05BFA224671
:10387000E3170748FFF744FAFEE7234653F8102FF3
:103880005B682A606B6038BD6C270108D42401088E
:103890001025010810B50446FFF717FA60B90D4B63
:1038A00040F2F6620C49032006F03CFA2246E31788
:1038B0000A48FFF725FAFEE72046FFF727FF0346F1
:1038C00020B1208A1B8AC01A00B210BDB4F91000C2
:1038D000FBE700BF80270108D42401081025010858
:1038E00010B50446FFF7F1F960B90D4B40F20972CB
:1038F0000C49032006F016FA2246E3170A48FFF7A0
:10390000FFF9FEE72046FFF701FF034620B1608A7A
:103910005B8AC01A00B210BDB4F91200FBE700BF09
:1039200090270108D42401081025010810B5044689
:10393000FFF7CBF930B1A08A238AC01A80B20130D8
:1039400000B210BD064B40F21C720649032006F07F
:10395000E9F92246E3170448FFF7D2F9FEE700BF72
:10396000A0270108D42401081025010810B5044639
:10397000FFF7ABF930B1E08A638AC01A80B2013038
:1039800000B210BD064B4FF4E5620649032006F075
:10399000C9F92246E3170448FFF7B2F9FEE700BF72
:1039A000B4270108D42401081025010810B50446E5
:1039B000FFF78BF920B194F83000C0F3001010BD70
:1039C000064B40F2EF720649032006F0ABF922469F
:1039D000E3170448FFF794F9FEE700BFDC2701086E
:1039E000D424010810250108F0B583B00446FFF780
:1039F0006CF960B9314B40F203223149032006F0E3
:103A000091F92246E3172F48FFF77AF9FEE70746B8
:103A10002046FFF7CBFF08B103B0F0BD2046FFF70B
:103A20008FFE0546FFF7AEFE0646FFF7A9F9854271
:103A300009D03046FFF7BAF9854204D03046FFF787
:103A4000CBF98542E8D12046FFF760FE0546B4F980
:103A500034306A4654F8100F616803C29BB2BDF857
:103A60000020D21AADF80020BDF80220D21AADF81D
:103A70000220BDF804201A44ADF80420BDF8062049
:103A80001344ADF806308DB105F110026946684661
:103A900005F0B7FE074648B12846FFF787FF002824
:103AA000BAD12846FFF732FE0546ECE7002FB3D027
:103AB0006946304601F05FFAAEE700BFBC25010859
:103AC000D42401081025010870B50546FFF7FDF85C
:103AD00060B9144B4FF417721349032006F022F912
:103AE0002A46EB171148FFF70BF9FEE72846FFF7C8
:103AF0000DFE0446061D304606F023F8854210D020
:103B00002046FFF771FF01232A463146304606F072
:103B10009DF8E3692A460121204698472046FFF791
:103B200063FF70BDD0250108D424010810250108C9
:103B30002DE9F04383B0044689469046FFF7C5F867
:103B400000283CD027683D8A4D44ADB27E8A464469
:103B5000B6B2238AED1A1FFA85F82DB2638AF61AD7
:103B60001FFA86F936B205B936B32046FFF73CFF97
:103B700069462046FFF76EFE238A43442382638A08
:103B80004B446382A38A9844A4F81480E38A99443E
:103B9000A4F81690324629462046FFF75DFCE369FB
:103BA0006A46022120469847FB6922460121384691
:103BB00098472046FFF718FF03B0BDE8F083064B97
:103BC0004FF424720549032006F0ACF82246E317AF
:103BD0000348FFF795F8FEE7E8250108D42401081B
:103BE000102501082DE9F0470746884615469946F5
:103BF000BDF920A0FFF769F860B9C44B4FF44B72D0
:103C0000C349032006F08EF83A46FB17C148FFF778
:103C100077F8FEE73846FFF73DFE06463846FFF7E1
:103C20005FFE0446B8F1000F1CD04046FFF74DF888
:103C3000E8B1142D46D8DFE815F02700A90170007F
:103C400081008D009900B300C800D900F300FB008B
:103C50001101220128013C014B0153016F01800138
:103C600086019A013846FFF751FD8046DDE7A74BF4
:103C700040F23532A649032006F054F84246D317E5
:103C8000A448FFF73DF8FEE74046FFF74FFE064623
:103C90003846FFF74BFE06EBD67300EBD0704610AC
:103CA000C6EB630636B24046FFF760FE0446384670
:103CB000FFF75CFE04EBD47300EBD0704410C4EB50
:103CC000630424B23846FFF721FD0246B8F910100C
:103CD000B8F91230B0F91000B2F91220494489B293
:103CE000314489B253449BB223449BB2091A9A1AB5
:103CF00012B209B23846FFF71BFF87F84050A7F809
:103D00003C90A7F83EA0C7F8388097F841306FF391
:103D1000410387F84130BDE8F0874046FFF706FED3
:103D200006463846FFF702FE06EBD67300EBD0706E
:103D30004610C6EB630636B20024C3E74046FFF7E1
:103D4000F5FD84B23846FFF7F1FD86B2A41B26B21A
:103D50000024B7E74046FFF709FE84B23846FFF774
:103D600005FE83B2E41A24B20026ABE74046FFF713
:103D7000DDFD06463846FFF7D9FD06EBD67300EBAE
:103D8000D0704610C6EB630636B24046FFF7EEFD34
:103D900084B23846FFF7EAFD83B2E41A24B291E711
:103DA0004046FFF7C3FD84B23846FFF7BFFD86B239
:103DB000A41B26B24046FFF7D9FD84B23846FFF770
:103DC000D5FD83B2E41A24B27CE74046FFF7CEFD6E
:103DD00004463846FFF7CAFD04EBD47300EBD070FD
:103DE0004410C4EB630424B200266BE74046FFF79F
:103DF0009DFD84B23846FFF799FD86B2A41B26B21A
:103E00004046FFF7B3FD04463846FFF7AFFD04EB2D
:103E1000D47300EBD0704410C4EB630424B251E7B8
:103E20003846FFF7A3FD84B2644224B2002649E776
:103E30004046FFF77BFD06463846FFF777FD06EB69
:103E4000D67300EBD0704610C6EB630636B2384628
:103E5000FFF78CFD84B2644224B233E74046FFF79B
:103E600065FD84B23846FFF761FD86B2A41B26B219
:103E70003846FFF77BFD84B2644224B222E7404615
:103E8000FFF774FD044600261CE74046FFF74EFD91
:103E900006463846FFF74AFD06EBD67300EBD070B6
:103EA0004610C6EB630636B24046FFF75FFD044698
:103EB00008E74046FFF73AFD84B23846FFF736FD83
:103EC00086B2A41B26B24046FFF750FD0446F9E631
:103ED0003846FFF72BFD86B2764236B20024F1E673
:103EE0003846FFF723FD86B2764236B24046FFF7EA
:103EF0003DFD04463846FFF739FD04EBD47300EB73
:103F0000D0704410C4EB630424B2DBE60826010839
:103F1000D4240108102501083846FFF707FD86B2B2
:103F2000764236B24046FFF721FD84B23846FFF7AD
:103F30001DFD83B2E41A24B2C4E64046FFF7F6FC46
:103F400006460024BEE64046FFF7F0FC0646404623
:103F5000FFF70CFD04463846FFF708FD04EBD47369
:103F600000EBD0704410C4EB630424B2AAE64046D0
:103F7000FFF7DCFC06464046FFF7F8FC84B2384603
:103F8000FFF7F4FC83B2E41A24B29BE60024264631
:103F900098E600BF2DE9F04F83B082460F461446E5
:103FA0000193BDF930B0FEF790FE60B9BB4B40F213
:103FB000C232BB49032005F0B5FE5246D317B948BB
:103FC000FEF79EFEFEE75046FFF764FC06465046AD
:103FD000FFF786FC05465046FFF7A8FC00EBD070C3
:103FE00040F34F095046FFF7C1FC00EBD07040F39F
:103FF0004F08E7B13846FEF768FEE8B1142C38D810
:10400000DFE814F0270066006D00790084008F005F
:104010009F00AE00BA00CA00D100DD00E800F30046
:10402000030112011901250130013B0152015046E3
:10403000FFF76CFB0746DDE7984B40F2CE3298491C
:10404000032005F06FFE3A46FB179648FEF758FE30
:10405000FEE73846FFF76AFC00EBD070C9EB60065C
:1040600036B23846FFF782FC00EBD070C8EB600533
:104070002DB25046FFF74AFB0246B7F91010B7F9C8
:1040800012C0B0F91000B2F91220019B194489B294
:10409000314489B20CEB0B039BB22B449BB2091A3F
:1040A0009A1A12B209B25046FFF742FD8AF8404010
:1040B000019BAAF83C30AAF83EB0CAF838709AF8CA
:1040C000413043F002038AF8413003B0BDE8F08F7D
:1040D000C9F1000636B2C8F100052DB2C9E738466D
:1040E000FFF724FC00EBD070C9EB600636B2C8F1D4
:1040F00000052DB2BDE73846FFF718FC86B2A6EBE7
:10410000090636B2C8F100052DB2B2E7C9F10006C2
:1041100036B23846FFF72AFC85B2A5EB08052DB26A
:10412000A7E73846FFF702FC00EBD070C9EB60064A
:1041300036B23846FFF71AFC85B2A5EB08052DB25A
:1041400097E73846FFF7F2FB86B2A6EB090636B2D0
:104150003846FFF70BFC85B2A5EB08052DB288E7C2
:10416000C9F1000636B23846FFF700FC00EBD0700C
:10417000C8EB60052DB27CE73846FFF7D7FB86B267
:10418000A6EB090636B23846FFF7F0FB00EBD0701D
:10419000C8EB60052DB26CE7C9F1000636B2C8F174
:1041A00000052DB265E73846FFF7C0FB00EBD07085
:1041B000C9EB600636B2C8F100052DB259E73846A2
:1041C000FFF7B4FB86B2A6EB090636B2C8F10005CC
:1041D0002DB24EE7C9F1000636B23846FFF7C6FBEE
:1041E00085B2A5EB08052DB243E73846FFF79EFBE5
:1041F00000EBD070C9EB600636B23846FFF7B6FB6D
:1042000085B2A5EB08052DB233E73846FFF78EFBE4
:1042100086B2A6EB090636B23846FFF7A7FB85B291
:10422000A5EB08052DB224E7C9F1000636B2C8F1A6
:1042300000052DB21DE7C9F1000636B23846FFF77A
:1042400095FB00EBD070C8EB60052DB211E7C9F10A
:10425000000636B23846FFF789FB85B2A5EB0805A4
:104260002DB206E73846FFF761FB86B2A6EB0906DA
:1042700036B2C8F100052DB2FBE63846FFF756FB13
:1042800086B2A6EB090636B23846FFF76FFB00EBA5
:10429000D070C8EB60052DB2EBE600BF1826010810
:1042A000D4240108102501083846FFF73FFB86B2E9
:1042B000A6EB090636B23846FFF758FB85B2A5EBE8
:1042C00008052DB2D5E600BF10B582B00446FEF752
:1042D000FCFC88B194F8413013F0020F19D0B4F906
:1042E0003E300093B4F93C3094F84020A16B204656
:1042F000FFF750FE02B010BD0C4B40F257420C4984
:10430000032005F00FFD2246E3170A48FEF7F8FCEC
:10431000FEE7B4F93E300093B4F93C3094F8402005
:10432000A16B2046FFF75EFCE4E700BF2C260108E6
:10433000D42401081025010810B50446FEF7C5FC79
:1043400060B90C4B40F2B4420B49032005F0EAFC83
:104350002246E3170948FEF7D3FCFEE72046FFF7A5
:1043600043FBE36900220421204698472046FFF7DB
:104370003BFB10BD50260108D4240108102501087C
:1043800038B505460021FFF741FA04460EE0204605
:10439000FFF7F6FF2046FFF7CFFF02E02046FFF7CA
:1043A000EFFF21462846FFF731FA04463CB1A36AE5
:1043B000002BECD01B7813F0010FF2D0EEE738BDE4
:1043C00038B504460D46FEF780FC60B9124B40F24A
:1043D000A2421249032005F0A5FC2246E31710482B
:1043E000FEF78EFCFEE72846FEF772FC60B90A4B2A
:1043F00040F2A3420949032005F094FC2A46EB173A
:104400000848FEF77DFCFEE7A5622046FFF7B8FFEF
:104410002046FFF791FF38BD3C260108D42401084F
:10442000102501084425010870B505460E1D3046CB
:1044300005F087FB04460EE02046FFF7A1FF20466B
:10444000FFF77AFF21462846FFF7EEFF2146304668
:1044500005F07FFB04462CB1A36AAB42ECD0002DE3
:10446000F0D1E9E770BD0000F8B50546FEF730FC75
:1044700060B9194B40F2C2421849032005F052FCC2
:104480002A46EB171648FEF73BFCFEE7002004F037
:10449000FDFF064616E02046FFF74EFF2146284660
:1044A000FFF7C2FF2146384605F053FB04462CB106
:1044B000A36AAB42EFD0002DF0D1ECE7304604F018
:1044C000E5FF064636B106F12407384605F039FB0C
:1044D0000446ECE7F8BD00BF68260108D4240108B3
:1044E0004425010810B50446FEF7EFFB48B1002251
:1044F000A286E3690621204698472046FFF774FA12
:1045000010BD064B40F22D620549032005F00AFC60
:104510002246E3170348FEF7F3FBFEE704270108F2
:10452000D42401081025010800207047F8B50D4675
:10453000074678B1FEF7C9FB002875D1C54BE322C9
:10454000C549032005F0EEFB3A46FB17C348FEF7CA
:10455000D7FBFEE704F058FF044600284ED0243075
:1045600005F0B1FA0446FEF7B0FB00284DD0002C50
:1045700000F090810026204640F8046B442105F0AD
:1045800097FAB74BE361B74B2362A6612682668236
:10459000304604F03FFF83B2013BA382304604F073
:1045A0004DFF83B2013BE382A68684F84060A68774
:1045B000E687A66394F8413066F3000384F841303F
:1045C00006F016FA68B30368A3620023E36294F866
:1045D000302084F83230FF2184F8331002F080025A
:1045E00063F3C71284F8302094F8312002F0F3020C
:1045F00063F3061284F83120636270E09A4B9022D4
:104600009549022005F08EFB44E1924B9522924998
:10461000032005F087FB2246E3179448FEF770FB62
:10462000FEE7934BA362D0E7381D05F04CFA044631
:10463000FEF74BFB002866D0002C00F02B812046B3
:1046400040F8047B442105F033FA854BE361854B48
:1046500023620022A26194F8313062F3830384F86C
:104660003130B7F9123063829BB24233E382204685
:10467000FFF75AFF012852D0B7F9103023829BB2BE
:104680006433A3820023A38684F84030A387E387A2
:10469000A36394F8412063F3000284F8412006F0FC
:1046A000A7F9002842D08368A3620022E26294F84E
:1046B000303043F0010394F8311084F83220FF20A9
:1046C00084F8330003F0810362F3C71384F83030B9
:1046D00041F0030362F3061384F831306262002D67
:1046E00000F0CF802846FEF7F0FA10BB594B40F29D
:1046F00041125949032005F015FB2A46EB1757488C
:10470000FEF7FEFAFEE7534BE6225349032005F07D
:1047100009FB2246E3175548FEF7F2FAFEE7B7F920
:104720001430A3829BB2643B2382ABE7514BA3625C
:10473000BBE72B4653F8102F5B6822616361B5F924
:104740003430A38695F8403084F84030B5F93C30D9
:10475000A387B5F93E30E387AB6BA36395F841209F
:1047600094F8413062F3000384F84130AB69A361EF
:1047700095F8302094F8303062F3000384F830303C
:1047800095F83030C3F3400394F8302063F34102CE
:1047900084F8302095F8312094F8313062F3010329
:1047A00084F8313095F83030C3F3800394F830202A
:1047B00063F3820284F8302095F83030C3F3C003ED
:1047C000D2B263F3C30284F8302095F83030C3F3DB
:1047D0000013D2B263F3041284F8302095F830301D
:1047E000C3F34013D2B263F3451284F8302095F836
:1047F0003030DB09D2B263F3C71284F8302095F869
:104800003030C3F38013D2B263F3861284F83020C1
:1048100095F8323084F8323095F8333084F83330FC
:10482000AB6AA362E86A10B12146FEF771FD284623
:10483000FEF76CFF00B3FFB12846FFF72BF80646E2
:104840002846FFF74DF8024631462046FFF770F93B
:1048500017E000BFAC250108D42401081025010889
:10486000854C00086D4B0008542501089824010868
:1048700068170020A8160020002211462046FFF7E6
:1048800057F93FB1FB692246012138469847204637
:10489000FFF7AAF82046F8BD70B582B004460D4671
:1048A0001646FEF712FA60B9304B40F2DA22304970
:1048B000032005F037FA2246E3172E48FEF720FAC8
:1048C000FEE72046FFF732F8A84228D02046FFF73F
:1048D0008BF869462046FEF7BDFF638A33449BB2DE
:1048E000013BE3822046FFF71FFE01281DD0238AEB
:1048F0002B449BB2013BA382E3696A460221204616
:1049000098472046FEF702FF18B1C56922460121EB
:10491000A847261D304605F014F9054615E0204647
:10492000FFF724F8B042D1D119E0A38A5B1B9BB2F8
:1049300001332382E0E7EB690022032128469847F0
:104940002946304605F005F90546002DF3D12046ED
:10495000FFF74AF894F8413013F0010F01D102B08B
:1049600070BD2046FFF7B0FCF9E700BFF82501084D
:10497000D42401081025010810B50446FEF7A5F956
:1049800050B1CCB194F8303013F0400F11D1204623
:10499000FEF7BCFE0446F4E7084B40F66D020849FA
:1049A000032005F0BFF92246E3170648FEF7A8F9F1
:1049B000FEE794F8330000E0FF2010BDF027010867
:1049C000D42401081025010838B504460D46FEF729
:1049D0007CF930B194F832302B4214BF0120002012
:1049E00038BD064B40F68D020549032005F09AF9C3
:1049F0002246E3170348FEF783F9FEE7082801087B
:104A0000D42401081025010810B50446FEF75DF90D
:104A100008B1E06910BD064B40F699020549032034
:104A200005F080F92246E3170348FEF769F9FEE72F
:104A30001C280108D42401081025010810B50446DB
:104A4000FEF743F908B1206A10BD064B40F6A502F7
:104A50000549032005F066F92246E3170348FEF7EF
:104A60004FF9FEE734280108D42401081025010875
:104A700010B50446FEF729F908B1606A10BD064B6F
:104A800040F6C2020549032005F04CF92246E3171F
:104A90000348FEF735F9FEE74C280108D424010845
:104AA0001025010810B50446FEF70FF908B1E06AB9
:104AB00010BD064B40F614120549032005F032F9EB
:104AC0002246E3170348FEF71BF9FEE760280108BA
:104AD000D42401081025010870B50546FEF7F5F845
:104AE00050B1AC6AACB1E86A18B1FEF76FFC854210
:104AF0002BD084B3204670BD184B40F2BD721849CC
:104B0000032005F00FF92A46EB171648FEF7F8F8D0
:104B1000FEE72E6806E0B16A2046FEF73DFC04463B
:104B2000E1E73668002EDED0B36A002BF9D01B789F
:104B300013F0010FF5D13046FFF7B4FF0446FEF73E
:104B400045FC8642E7D0B46ACDE72146E86AFEF725
:104B500023FC0446CDE7044CCCE700BFC82701087E
:104B6000D42401081025010868160020F0B583B090
:104B700004460D46022A04D0002A40D0012003B08A
:104B8000F0BD00F11001284604F0ACFE08B9002089
:104B9000F5E72046FFF7A0FF037AFA2BF7D9B0F923
:104BA000066047F618439E42F1D069462046FEF75C
:104BB00051FEB6B2BDF800303344ADF80030BDF858
:104BC00004309B1BADF804306946284604F08AFE89
:104BD0000028DCD069462046FEF73CFEBDF80230D6
:104BE0003344ADF80230BDF806309E1BADF80660C8
:104BF0006946284604F076FE0028C0D1C7E7FFF7D3
:104C00006BFF064604F110072046FFF7B5FE03468A
:104C100032462946384603F057FC0120AFE7000032
:104C200038B50446FEF751F840B10546E06A90B148
:104C3000FEF7CCFB84420FD000250DE0074B4FF46C
:104C400012620749032005F06DF82246E317054874
:104C5000FEF756F8FEE70025284638BD74280108FF
:104C6000D4240108102501080023062B05D850F88C
:104C7000232012B10133DBB2F7E740F82310012003
:104C80007047000038B5072909D005460C460129B0
:104C90000AD006290ED0042917D0012038BD0F49AB
:104CA0001046FFF7E1FFF9E70121FFF78DFE80B91C
:104CB0002046F3E7FFF710FFB0F91230B5F93420C2
:104CC000934208DDAB860120E8E7FFF70BFC0120EB
:104CD000E4E70020E2E70120E0E700BFA4250108A7
:104CE0002DE9F04383B000254BE03B68EA1D03EB60
:104CF000C2026E4603CE506091602344012283F8C5
:104D00003C210134284B1968B1F85C31C3F3090325
:104D1000A34235D90B1993F83C31002BF1D1AC42A9
:104D2000EFD0E81D01EBC000E31D01EBC30104312E
:104D3000043004F0B5FD0028E3D01B4F3A68E91DAC
:104D4000CE0002EBC101E31D4FEAC30802EBC30230
:104D500004320431684604F080FD684604F043FDE7
:104D6000814638683044043004F03DFD064638681A
:104D70004044043004F037FD0644B145C1D2B4E7E5
:104D80000135094B1B68B3F85C21C2F30902AA4242
:104D900006D92B4493F83C31002BF1D10024B1E724
:104DA00003B0BDE8F08300BF201500202DE9F041DD
:104DB00006460D46103104F095FD60B395F830308D
:104DC00013F0100F29D105F10408404604F0B9FE94
:104DD000044600275CB121463046FFF7E7FF07464F
:104DE00028B92146404604F0B4FE0446F2E7AFB9C4
:104DF0002846FFF771FE037AFF2B0FD12B6A0222A0
:104E000031462846984748B12846FFF7B5FDFF28A8
:104E100004D12F4602E0002700E000273846BDE815
:104E2000F08190F8303013F0100F00D0704770B55B
:104E30008AB004460E46B0F9345004A9FEF70AFDC4
:104E4000ABB2BDF81020D21AADF81020BDF8122078
:104E5000D21AADF81220BDF814201A44ADF814206F
:104E6000BDF816201344ADF8163004AA314606A842
:104E700004F0C7FC98B1236A002206A9204698478F
:104E800004A92046FEF7E6FC04AA314608A804F06F
:104E9000B8FC30B9236A012206A9204698470AB017
:104EA00070BD261D304604F050FE054604E029463C
:104EB000304604F054FE0546002DEBD002A92846EA
:104EC000FEF7C8FCB5F934309BB2BDF80820D21A01
:104ED000ADF80820BDF80A20D21AADF80A20BDF8B6
:104EE0000C201A44ADF80C20BDF80E201344ADF888
:104EF0000E3002AA08A9684604F083FC0028D6D028
:104F000069462846FFF78DFFD1E70000F8B50E4649
:104F1000044640B131462046FFF783FF2046FEF7A6
:104F2000F5FB07461AE0124B1868FDF729FF044607
:104F3000F0E731462046FFF774FF2146284604F08B
:104F40000EFE0446002CF4D13B6A0122314638465D
:104F500098473846FEF7DAFB3C46074637B13D1D19
:104F60002146284604F0FBFD0446EBE7F8BD00BFF0
:104F700020150020704730B585B00C46054690B32B
:104F8000002D3AD09CB30023ADF80830ADF80A30BC
:104F9000284604F03FFA80B20138ADF80C002846EC
:104FA00004F04CFA80B20138ADF80E0002AA214696
:104FB000684604F026FC00B32B6913B16946284605
:104FC00098470024B5F85C31C3F30903A34216D90E
:104FD000E11D05EBC1010431684604F083FC60B9B2
:104FE0000134A4B2EEE704F00FFA0546C8E7B5F8BD
:104FF0005C316FF30903A5F85C3105B030BD1F2BA0
:1050000010D8073305EBC3036A4603CA586099609A
:10501000B5F85C31C3F30902013262F30903A5F864
:105020005C31EAE7B5F85C316FF30903A5F85C3150
:1050300002AB03CBE8632964EAE70000014B186880
:10504000704700BF2015002038B5124D286804F0C5
:105050002BFA0446286804F029FA18B1A36913F062
:10506000010FFBD1237E43F001032376FFF7E6FF18
:10507000C3681BB1A26804F11001984723682BB1E3
:1050800062681AB1A1688B4201D0A36038BDA260EA
:10509000FCE700BF2015002070B582B00546194E10
:1050A000306804F001FA0446306804F0FFF918B9DA
:1050B000A36913F0010FFBD104F1100229466846E1
:1050C00004F09FFB0F4C2068FDF75AFE014668462E
:1050D000FFF76CFE6946FFF719FF2068FDF766FED3
:1050E0006946FFF713FF2068FDF776FE6946FFF774
:1050F0000DFF206804F0E5F908B102B070BDFFF7BC
:10510000A3FFFAE7201500202DE9F04383B00646FF
:10511000574B186804F0D5F9C8B1554D286804F00C
:10512000C3F9044600270782286804F073F980B2A7
:105130000138A0826782286804F080F980B20138C3
:10514000E0823046FFF7A8FF03B0BDE8F083DFF848
:105150002091D9F8000004F0A7F90546B7883388F4
:10516000FF1ABFB201373FB2B6F906801FFA88F4C2
:105170007388E41AA4B2013424B2D9F8000004F010
:105180005DF9404535DDB6F90680EB68B3FBF7F312
:1051900027469C4200DB1F46354B1B681B691BB32F
:1051A0000023ADF80030ADF80430ADF802303CB269
:1051B000A146013C24B2ADF806402D4B18680369A6
:1051C00069469847BDF9062093B2BDF802105B1AF4
:1051D0009BB201331BB2BB4202DD002CE8DCA146CE
:1051E000B9F1000F10DD571CB6F902304FF000097D
:1051F00018E0D9F8000004F021F91FFA80F808F14E
:10520000FF380FFA88F8C0E71A4B4FF4A7721A4913
:10521000022004F087FD97E7B5F916903046FFF7B6
:105220003BFF23B2DA19013A424510DCB6F90020FF
:105230002A82B6F90420AA826B823B449CB2631E88
:105240001BB2EB824345E7DDA5F81680E4E7C145D4
:105250003FF47AAFB6F900202A82B6F90420AA8278
:105260006B82A5F816803046FFF716FF6CE700BF8B
:105270002015002088280108D828010810B500242E
:10528000134B1C6000E00134124B1868B0F85C311D
:10529000C3F30903A3421AD9031993F83C31002B35
:1052A000F1D1E31D00EBC3000430FFF72DFF094BE4
:1052B00018688369002BE6D0E31D00EBC3000430BF
:1052C00004F091FA024A136803441360DBE710BD4F
:1052D00024150020201500202DE9F04F85B004464C
:1052E00004F01CF90190E368454C2360FFF7F8FCDB
:1052F000FFF7C4FF2068B0F85C31C3F3090323B99A
:1053000000F0A6FB05B0BDE8F08F04F0DAF800BBB2
:105310003B4B1C684FF48072002104F13C0006F006
:105320000FFF2022002104F59E7006F009FFB4F85B
:105330005C316FF30903A4F85C31A569002DDFD05F
:10534000019804F0F9F801462E4B1A682046A84748
:10535000D6E7206804F0A8F80446FFF775FEA369B5
:1053600013F0010FFBD1A3680393D4F800B09B4561
:1053700006D0234B186804F04DF88246002617E04B
:10538000D4F804B0F5E742460BEB05017019FBF7C2
:10539000D9FC05EB4A05013424B209F1070307EBF8
:1053A000C303B3F90A30A342EDDA029E0136B6B266
:1053B000134B1F68B7F85C31C3F30903B342A7D995
:1053C000B146BB1993F83C31002BEFD1F31D07EB2D
:1053D000C303B3F90640B3F9042004FB0A256D00AA
:1053E000B3F8088092B2A8EB02081FFA88F808F117
:1053F00001080FFA88F84FEA48080296039ECCE7A6
:10540000201500202415002070B401F140030E681F
:105410004D688C68CA68066045608460C26010315F
:1054200010309942F3D170BC704700002DE9F04F65
:1054300083B0E1490B786FF300030B70FF220A720F
:10544000DE4EB6F80090A1F80290A1F80490002476
:10545000CC804C838C83CC820C834FF00505CD83AC
:105460008B7A64F304038B724B8964F34A134B8188
:10547000C3F3072364F3C703CB72CA738C810F2372
:105480008B73B388ADF806300B824FF001000875BE
:105490004C8281F82C204FF00003062767F30403A9
:1054A0000C2060F34A1367F3CF230B844FF0000303
:1054B0001B2060F30403252767F34A134FF00A0CFF
:1054C0006CF3CF234B84BE4B4B620C854FF0020B29
:1054D000A1F82AB081F833204FF0040A4FF00003FE
:1054E0006AF304034FF0080868F34A136AF3CF2302
:1054F0000B8681F8324081F838204FF000036AF3C0
:10550000040368F34A136AF3CF238B86A1F836B0FD
:1055100091F8393064F3000381F83930A94BCB633B
:10552000A94F3846FFF770FF7D83BD83FD823D8321
:10553000A64D39462846FFF767FF4FF000031E21AE
:1055400061F304033C2262F34A1361F3CF232B84FB
:105550004FF0000361F3040362F34A1361F3CF23B6
:105560002B864FF0000361F3040362F34A1361F3E7
:10557000CF23AB864FF000031B2060F304032522EA
:1055800062F34A134FF00A0C6CF3CF236B80AB80AD
:105590008F4D39462846FFF737FF4FF000036AF377
:1055A000040368F34A136AF3CF232B844FF00003FC
:1055B0006AF3040368F34A136AF3CF232B864FF090
:1055C00000036AF3040368F34A136AF3CF23AB863C
:1055D000A5F802903389AB804FF00602EA804FF0C5
:1055E000000368F30403102666F34A1368F3CF231D
:1055F0006B81A5F80CB04C23EB73DFF8E0912946E2
:105600004846FFF701FF4FF000031C2060F304033E
:10561000382262F34A1360F3CF23A9F820304FF009
:10562000000360F3040362F34A1360F3CF23A9F885
:10563000303018264FF0000366F30403302262F383
:105640004A1366F3CF23A9F834304FF0000366F312
:105650000403262262F34A130D2262F3CF23A9F832
:1056600002304FF00003112262F30403162262F3AA
:105670004A134FF0050E6EF3CF23A9F804304FF014
:10568000000368F304034FF00B0868F34A136BF34D
:10569000CF23A9F80A30DFF8489139464846FFF78A
:1056A000B3FE99F8003043F0010389F80030A9F8FF
:1056B0000C4089F80840474D49462846FFF7A4FEAC
:1056C0006C83AC83EC822C83DFF818912946484622
:1056D000FFF79AFEA9F81E403F4D39462846FFF7CE
:1056E00093FE4FF000031A2262F30403282262F3B0
:1056F0004A130E2767F3CF236B804FF0000368F344
:10570000040367F34A13032262F3CF23AB804FF005
:10571000060CA5F806C04FF01909A5F81A90A5F8CF
:105720001C904FF0100CA5F816C0A5F818C04FF04B
:105730000A0CA5F81EC04FF000034FF0050E6EF3E3
:1057400004034FF0060C6CF34A134FF0010C6CF39A
:10575000CF236B81A5F80CB0B223EB73BDF80630F4
:105760002B826C824FF6FF732B842B86DFF87880B8
:1057700029464046FFF748FE4FF00003122262F32D
:10578000040366F34A134FF0060C6CF3CF23A8F81A
:1057900002304FF00003072262F30403092262F390
:1057A0004A136BF3CF23A8F804304FF0000366F3DD
:1057B00004034FF02D0B19E0681700208822010820
:1057C000280000207856341268160020A816002001
:1057D000E8160020E8170020A81500202817002050
:1057E000A817002028180020681500206BF34A1322
:1057F0004FF0140C6CF3CF23A8F820304FF00003C7
:1058000066F304036BF34A136CF3CF23A8F830302C
:105810004FF0000366F304036BF34A136CF3CF23DA
:10582000A8F83430DFF8908129464046FFF7ECFDB8
:105830004FF000036AF304036AF34A134FF0010CBC
:105840006CF3CF23A8F802304FF00003122262F36A
:10585000040366F34A13062060F3CF23A8F804304C
:105860004FF000036CF304036CF34A1364F3CF238B
:10587000A8F80A304FF000031E2161F30403372219
:1058800062F34A1369F3CF23A8F820304FF00003E6
:1058900061F3040362F34A1369F3CF23A8F83030AD
:1058A0004FF0000361F3040362F34A1369F3CF235B
:1058B000A8F83430DFF8049141464846FFF7A4FDCC
:1058C0004FF000036AF304034FF0050E6EF34A1322
:1058D00064F3CF23A9F802304FF0000367F3040309
:1058E000132262F34A136EF3CF23A9F804304FF06A
:1058F000000366F304036BF34A13142464F3CF2309
:10590000A9F820304FF0000366F304036BF34A1349
:1059100064F3CF23A9F830304FF0000366F304039B
:105920006BF34A1364F3CF23A9F83430214C294692
:105930002046FFF769FD4FF000031B2161F30403CC
:10594000362262F34A1361F3CF2363804FF00003E2
:1059500061F3040362F34A1361F3CF23A3804FF092
:105960000003122161F30403242262F34A1361F35A
:10597000CF2363814FF0000367F304031C2262F31B
:105980004A1367F3CF2323844FF0000367F3040324
:1059900062F34A1367F3CF2323864FF0000367F3C4
:1059A000040362F34A1367F3CF23A38603B0BDE871
:1059B000F08F00BF2815002028160020E8150020D1
:1059C00008B51E4B1B6883420FD201461B4B186063
:1059D0001B4B186860B104F07FFA194B1860FDF793
:1059E00074F9E8B1164B186801E0154B186808BD4A
:1059F000084604F00DFA124B1860FDF766F910B175
:105A00000F4B1868F3E70F4B40220F49032004F0B7
:105A100089F90B4B1A68D3170C48FDF771F9FEE7AB
:105A2000084B45220849032004F07CF9044B1A680E
:105A3000D3170648FDF764F9FEE700BF6818002099
:105A4000B0180020502901081429010898240108E1
:105A500008B5054B186830B104F006FA0023024A75
:105A60001360024A136008BDB018002068180020B7
:105A700090B1072808DC431E084850F82330585CD2
:105A800000FB02F2100A7047490001FB02224000AD
:105A900092FBF0F0C0B270470020704790290108D7
:105AA0002DE9F04F87B005908A46174698469DF835
:105AB00040B0FFF7C3FA4369FBB10546B7F9009060
:105AC00014E06E69CDF808B0ADF8048000944B4640
:105AD000524605992846B047013424B2B7F906303A
:105AE000A342EEDA09F101090FFA89F9B7F9043096
:105AF0004B4556DBB7F90240F0E7B7F9026006FB09
:105B00000AF0059B03EB4000BBF1FF0F1FD04FF0E5
:105B10000001C8F3C4231FFA8BFC0BFB03F3CBF18A
:105B2000FF05ADB2C3F30423894663F3CF29C8F35D
:105B300045130BFB03F3C3F3052363F34A1908F082
:105B40001F030BFB03F31B0A63F3040967E0B7F9B8
:105B5000003003E020F8138001331BB2B7F90420B2
:105B60009A42F7DAB7F9005000EB4508551B0135AA
:105B70006D002DB24FEA4A0600EB4A0A7C880134D8
:105B800024B20AE0B7F900002A4641460AEB400079
:105B9000FBF7D8F8B244013424B2B7F90630A34277
:105BA000F0DA07B0BDE8F08F30F81310C8F3C42264
:105BB000C1F3C42909FB05F902FB0C92C2F30422CC
:105BC00062F3CF24C8F34512C1F3451909FB05F967
:105BD00002FB0C92C2F3052262F34A1408F01F0282
:105BE00001F01F0909FB05F902FB0C92C2F3042224
:105BF00062F30404A146AEF8009001331BB2B7F97A
:105C000004209A4207DB00EB430E30F813B08AB24F
:105C10009345C9D1EFE700EB4A00013636B2B7F938
:105C20000630B342BDDBB7F90030E8E72DE9F041BB
:105C300084B09DF828500F2D15D904460E461F46F6
:105C4000FB2D00D9FF25B2F90030A3420BDCB2F9DD
:105C50000430A34207DBB2F90230B34203DCB2F9ED
:105C60000630B34202DA04B0BDE8F081FFF7E6F98E
:105C7000804603F019FC828A038AD21A92B201325A
:105C800012B2E41A23B2418A761A36B2D8F8144016
:105C90003CB181680295ADF8047000964046A0477B
:105CA000E1E7806802FB0634FF2D2DD030F8142088
:105CB000C7F3C423C2F3C426C5F1FF0189B206FBB2
:105CC00001F605FB0363C3F304234FF0000663F3FF
:105CD000CF26C7F34513C2F3451C0CFB01FC05FBA3
:105CE00003C3C3F3052363F34A1607F01F0302F04F
:105CF0001F0202FB01F205FB0325C5F3042565F332
:105D0000040620F81460AEE720F81470ABE70F2B00
:105D100035D970B586B015461C46FB2B00D9FF243B
:105D20000A46014604A803F06CFD08B906B070BD30
:105D3000FFF784F903F0B8FB0346BDF81010028AA0
:105D4000891AADF80810BDF812005E8A801BADF804
:105D50000A00BDF81400801AADF80C00BDF816104A
:105D6000891BADF80E109868998A891A89B2013199
:105D700000942B4602AA09B2FFF792FED6E77047BD
:105D800004380A2807D8DFE800F01208120A0C0EBF
:105D9000100A0C0E100000207047182070470120D8
:105DA0007047022070470420704708207047102079
:105DB000704750B10278A2F12003DBB25F2B06D905
:105DC00012F0800F05D1002070470320704701209A
:105DD000704702207047000002280FD0032813D01C
:105DE000042817D0C1EBC1010138B1FBF0F1C9B2F1
:105DF0000B4B585C00FB02F0000A7047094B5B5CE0
:105E000003FB02F0000A7047074B5B5C03FB02F0E8
:105E1000000A7047054B5B5C03FB02F0000A704709
:105E2000BC290108B0290108B4290108B8290108D2
:105E300070B504460E461546FFF700F903F012FB55
:105E4000B4EB660F04DB73109CB20CB1013CA4B23E
:105E50006B10B4EB650F03DB9CB20CB1013CA4B238
:105E60000CB1201A84B2204670BD2DE9F04788B0ED
:105E700004460F4616469846FFF7E0F803F0F2FA9C
:105E80000546B6F90600B6F91290A1882388C91A0A
:105E900089B20131E2886388D21A92B2013212B219
:105EA00009B280B2FFF7C4FFABB2C2181FFA82FC7E
:105EB000A288D11A013109B2ADF8181065880CEB2F
:105EC000050A1FFA8AFA9A440FFA8AFAADF81AA05C
:105ED000ADF81C10E088A0EB0C0E1FFA8EFEAEEBA6
:105EE000030E0FFA8EFEADF81EE021885C18013C0F
:105EF00024B2ADF81040ADF812A0ADF81440ADF8E2
:105F000016E0614489B2194409B2ADF808105C1971
:105F1000013C24B2ADF80A40A2EB0C0292B2D21AB4
:105F200012B2ADF80C20ADF80E40ADF80010C31A57
:105F300001331BB2ADF80230ADF80420ADF80630E5
:105F400001244C4544DC18F804502B46328A39466B
:105F500006A8FFF7DCFEBDF918300133ADF81830A4
:105F6000BDF91C300133ADF81C302B46328A39465E
:105F700004A8FFF7CCFEBDF91030013BADF810309E
:105F8000BDF91430013BADF814302B46328A394646
:105F900002A8FFF7BCFEBDF90A30013BADF80A309C
:105FA000BDF90E30013BADF80E302B46328A394632
:105FB0006846FFF7ACFEBDF902300133ADF80230A0
:105FC000BDF906200132ADF80620013424B2B8E74D
:105FD00008B0BDE8F0872DE9F04FA3B006461B904E
:105FE0000B9115460A920393FFF728F803F03AFA4B
:105FF0000446B5F90600B5F91290B1883388C91A7C
:1060000089B20131F2887388D21A92B2013212B287
:1060100009B280B2FFF70CFFA3B20593C718BBB259
:1060200013930FFA87FA1FFA89F307935E00B6B24B
:10603000013636B2CDF850A0C8460AEB09030693E4
:10604000181D20F00300420004923446F51C25F090
:106050000305AD0005EB40052844FFF7B1FC0746FA
:10606000049A00EB020B43190493002106F068F830
:1060700052460DF1820121A803F056FC21A803F03D
:106080005AFC0C9078B1BDF98620BDF9843027F810
:106090001230BDF9862027F813200DF1820121A8C6
:1060A00003F052FCEAE7039BFF2B07D00A9B197A07
:1060B000039B03FB01F3190A00220EE00A9B197AE5
:1060C000FAE7A31A01FB03F35B0204FB04F0B3FB42
:1060D000F0F34BF82230013212B2B242F1DB1B9ADC
:1060E000938813995B1A9BB205981B1A9CB215945E
:1060F0001BB21693D3885B1A9BB204461B1A98B244
:1061000017901BB2089353880B449BB2204623443C
:106110009CB218941BB2099313880B449BB203449E
:106120009AB219921BB21A934FF0000A5B46D346FB
:106130009A46DAE037F81B30ACEB03039BB21B1B2B
:106140001BB227E0039B73452ED0000A049B185511
:10615000059B63BB0134A4B2069BA34229DB079BCA
:106160005A4212B2002006E0A8EB03015AF821308F
:106170001844013212B24A45E7DC03925319D9D4CC
:106180009E42E2DB37F8133037F81B105B1A9BB2E4
:106190001B1B1BB2C8F1000E7345D3DB4B45E3DD7F
:1061A000DAF800301844E4E701230593CDE7013421
:1061B000A4B237F81B30159A1A4492B2013212B2C7
:1061C000ADF87C201FFA8BF00D901899091A09B2CE
:1061D0000391ADF87820179A024412B20592199AE9
:1061E000D31A9BB2013B1BB2ADF87430ADF87030DE
:1061F0000125CDF83880CDF83CB0DDF868B0CDF899
:1062000040901197CDF848A0DDF858A030E0049BED
:106210005B5D00930A9B1B8A0B9A03993046FFF73C
:1062200005FD2FE0049B5B5D00930A9B1B8A0B9A84
:1062300005994046FFF7FAFC2CE0049B5B5D009358
:106240000A9B1B8A0B9A03993846FFF7EFFC29E05B
:1062500009F10109ADF8789008F1FF38ADF87080C8
:106260000137ADF87C70013EADF874600135ADB218
:10627000AC422AD9BDF97460B34503DD099B039A8A
:106280009342C4DCBDF97080C34503DD089B059AC9
:106290009342C7DBBDF97C70BA4503DA099B039AC8
:1062A0009342CADCBDF97890CA45D1DA089B059AB9
:1062B0009342CDDA049B5B5D00930A9B1B8A0B9A89
:1062C00005994846FFF7B2FCC2E7DDF83880DDF8F3
:1062D0003CB0DDF84090119FDDF848A0BBF1000F05
:1062E00010D00D9B01330FFA83FB5D46069B5B4587
:1062F0000FDBDDF830E00024DDF84CC0149ECDF853
:1063000014E029E7049B0A9A0B991B98FFF7ADFD4F
:10631000E7E723B0BDE8F08F2DE9F04F93B00446D6
:10632000029193461E46FEF789FE03F09BF8054650
:10633000BBF90600BBF91270A1882388C91A89B27B
:106340000131E2886388D21A92B2013212B209B2E4
:1063500080B2FFF76DFDADB205EB450303449AB281
:106360000B921AB20992EB190FFA83F81746101D17
:1063700020F003004FEA4009DBB2033303F0FC03D3
:1063800003EB4000FFF71CFB0A9081443A460DF1F5
:10639000420111A803F0C8FA0A9F0EE0BDF9462099
:1063A000BDF9443027F81230BDF9462027F81320F4
:1063B0000DF1420111A803F0C7FA11A803F0BBFACE
:1063C0000028EBD1FF2E06D09BF8081006FB01F148
:1063D000090A00220DE09BF80810FAE7A8EB020377
:1063E00003FB01F35B08B3FBF8F309F80230013259
:1063F00012B24245F2DB23880B9A134499B20691FC
:106400001BB20493E3889B1A9BB25B1B01339BB2C4
:106410000793A3889B1A9BB20893002732E019F8D0
:106420000460DB1B19F803301E447608BDF93E50AA
:106430000096BBF81030029A29460398FFF7F6FB46
:106440000135ADF83E50049B53450EDBBDF93A30A3
:106450000133ADF83A300134A4B2234644450EDA94
:10646000002FDCD119F80460E0E70096BBF810308B
:10647000029ABDF93A105046FFF7D8FBE6E7059FB0
:1064800001373FB2099B9F421EDCB9B20591069BC2
:106490005B1A1BB203930A9830F81720079B13442A
:1064A0001BB2ADF83E30089C04EB010A0FFA8AFAE1
:1064B000ADF83A3037B107F10047013F30F81770B7
:1064C000BF1A3FB20024C8E7069B0133ADF8303055
:1064D0000B9B07990B441AB2ADF83220089B013B85
:1064E000ADF83430ADF836200024029D13E019F8E1
:1064F0000430BBF8102029460CA8FFF708FCBDF9B2
:1065000032300133ADF83230BDF936300133ADF8F9
:1065100036300134A4B24445E9DB13B0BDE8F08F56
:106520002DE9F04182B004460E4617469846B2F96E
:106530000600A58821886D1AADB20135E28863880E
:10654000D21A92B2013212B229B280B2FFF770FCB5
:1065500005466B462068616803C3BDF800302B44D4
:10656000ADF80030BDF804305B1BADF8043069466F
:10657000304603F0B7F910B102B0BDE8F0816B46C8
:106580002068616803C3BDF802302B44ADF80230C7
:10659000BDF80600451BADF806506946304603F0CD
:1065A000A1F90028E8D13B7D012B08D0002BE3D1D5
:1065B00043463A4631462046FFF7AEFEDCE7434607
:1065C0003A4631462046FFF706FDD5E72DE9F04F64
:1065D00087B00746029192469B46B2F90640A4B2A4
:1065E000FEF72CFD02F03EFF0390BAF80280BAF8E5
:1065F0000490FD887B88ED1AADB201352DB2B988C3
:106600003B88C91A89B2013109B2BBF1FF0F39D0F9
:106610009AF808300BFB03FB4FEA1B2301932A4631
:106620002046FFF705FC05EBD573B0EB630F00F3D5
:106630009380B7F90030ADF81030B7F90430ADF8F9
:1066400014301FFA88F31FFA89F293421ED07C8817
:106650000444A2B224B2B7F806B0ABEB000083B298
:106660000FFA80FBBAF9061039B1039989B3941C6B
:1066700024B2A3F1020B0FFA8BFB002C6FDBDDF8C9
:1066800008A067E09AF808300193C8E77B880344C4
:106690009AB2ADF81230FB88181A83B2ADF8160022
:1066A000BAF9061039B1039961B10232ADF812207E
:1066B000023BADF81630019B4246029904A8FFF751
:1066C00026FB49E00132ADF81220013BADF816304F
:1066D000F1E7541C24B203F1FF3B0FFA8BFBCCE72C
:1066E000ADF81240ADF81640B7F906301B1BC3EBEE
:1066F0000323B3FBF5F3C8F3C421DAB2C9F3C42012
:10670000DB43DBB200FB03F002FB0101C1F3042118
:1067100061F3CF26C8F34511C9F3451000FB03F020
:1067200001FB0201C1F3052161F34A1608F01F00C5
:1067300009F01F0101FB03F300FB0232C2F3042244
:1067400062F30406019B3246514604A8FFF7DFFAC4
:10675000013424B25C45C3DD07B0BDE8F08F0024EE
:10676000DDF808A0F6E72DE9F04F89B00446029164
:1067700016461D46B2F906801FFA88F8FEF75EFC41
:1067800002F070FE0390A1882388C91A89B20131F2
:1067900009B2E2886388D21A92B2013212B2B6F913
:1067A0000C90FF2D00F09480F37B05FB03F52B0A82
:1067B0000193B77BB6F80AB01FFA89F909F1FF35E2
:1067C0001FFA85FA2DB24046FFF732FB8046A842F9
:1067D00080F28180AAEB00039BB2039A9B1A1BB242
:1067E0000493B6F90630002B7BD00135ADB217F01B
:1067F000020900F0F68063882B44ADF81A3017F0D8
:106800000103059300F0F280E3885B1BADF81E30B6
:1068100017F0040F40F0F08017F0080F40F0FB80F5
:1068200023882B449BB2BDF810209B1AADF818307A
:10683000A3885D1BADB21544ADF81C50B9F1000F33
:1068400040F0F980059B002B40F00481049B9BB134
:1068500007F00603062B00F00D8107F00A030A2B50
:1068600000F0268107F00503052B00F0408107F0BA
:106870000903092B00F05A81B6F90630002B78D1B4
:1068800017F0060F40F0728117F00A0F40F0878171
:1068900017F0050F40F09C8117F0090F69D0B4F98B
:1068A000042093B2BDF80C001B1AADF81830ADF8F7
:1068B0001C20B4F9062093B2181AADF81A00ADF8EE
:1068C0001E20019B5A46029906A8FFF720FA50E0C5
:1068D000F37B01936DE7039BC5182DB2002304934E
:1068E0007FE717F0020547D117F0080F1DD0B4F964
:1068F000042093B2A3EB0A03ADF81830ADF81C20C6
:106900006388002D4FD04A461344ADF81A30E3880F
:1069100017F0010F49D04A469B1AADF81E30019B73
:106920005A46029906A8FFF7F2F917F0040F1DD096
:10693000B4F90030ADF818309BB25344ADF81C30B8
:106940006388A5B34A461344ADF81A30E38817F0BC
:10695000010F01D14FF00009A3EB0909ADF81E901A
:10696000019B5A46029906A8FFF7D1F917F0010FCB
:106970001FD109B0BDE8F08FB4F90030ADF8183080
:10698000B4F90430ADF81C30B4F90230ADF81A3067
:106990009BB25344ADF81E30019B5A46029906A89B
:1069A000FFF7B5F9A0E70022AEE70022B4E7002226
:1069B000C9E7B4F90030ADF81830B4F90430ADF8D7
:1069C0001C30B4F9062093B2A3EB0A0AADF81AA062
:1069D000ADF81E20019B5A46029906A8FFF797F9C9
:1069E000C7E763884344ADF81A3008E7E388A3EBB0
:1069F0000803ADF81E300BE7B4F90030ADF81830DD
:106A00009BB25344ADF81C30019B5A46029906A82C
:106A1000FFF77DF900E7B4F90430ADF81C309BB204
:106A2000A3EB0A03ADF81830019B5A46029906A859
:106A3000FFF76DF9F4E6B4F90230ADF81A309BB205
:106A40005344ADF81E30019B5A46029906A8FFF741
:106A50005EF9F7E6B4F90630ADF81E309BB2A3EB51
:106A60000A03ADF81A30019B5A46029906A8FFF7AF
:106A70004EF9EBE6B4F90030ADF818309BB2434460
:106A80009BB2BDF80C201344ADF81C30638803EBB7
:106A9000080189B20A440132ADF81A205344ADF816
:106AA0001E30019B5A46029906A8FFF730F9D4E63A
:106AB000B4F904108BB2A3EB08039BB2BDF80C2011
:106AC0009B1AADF81830ADF81C10638803EB080171
:106AD00089B20A440132ADF81A205344ADF81E3091
:106AE000019B5A46029906A8FFF711F9BAE6B4F9D4
:106AF0000030ADF818309AB2424492B2BDF80C1092
:106B00000A44ADF81C20E388A3EB0A02ADF81A2072
:106B1000A3EB08039BB25B1A013BADF81E30019B4F
:106B20005A46029906A8FFF7F2F8A0E6B4F9043035
:106B30009AB2A2EB080292B2BDF80C10521AADF84C
:106B40001820ADF81C30E088A0EB0A0AADF81AA0B6
:106B5000A0EB08039BB25B1A013BADF81E30019B12
:106B60005A46029906A8FFF7D2F885E6B4F9003034
:106B7000ADF818309BB2BDF80C201344ADF81C30B2
:106B8000B4F90230ADF81A309BB21A44ADF81E20A9
:106B9000019B5A46029906A8FFF7B9F874E6B4F9C2
:106BA00004108AB2BDF80C30D21AADF81820ADF836
:106BB0001C10B4F90220ADF81A2092B21344ADF8BB
:106BC0001E30019B5A46029906A8FFF7A0F85FE61F
:106BD000B4F90030ADF818309BB2BDF80C100B447E
:106BE000ADF81C30B4F9062093B25B1AADF81A3038
:106BF000ADF81E20019B5A46029906A8FFF787F8B8
:106C00004AE62DE9F04FADB014900391164620925C
:106C10001C46B2F906309FB2FEF710FA02F022FCD1
:106C20001790B6F802A0B6F80490FF2C7ED0209BF7
:106C30001E7A04FB06F4230A0C93149CE3886288F2
:106C40009B1A9BB201331AB21392A1882388C91AE6
:106C500089B2013109B23846FFF7EAF81F9023885C
:106C600003449BB2BDF85C2013449EB20A962146B1
:106C7000638803449BB213449FB208971BB21193DD
:106C8000E3881B1A9BB29B1A9CB207941BB2129307
:106C90008B881B1A9BB29A1A94B20B9403B20F936F
:106CA0001A460DF18A0123A802F03EFEBDF88C3091
:106CB000F11ABDF88E200798024412B223440092C4
:106CC0001BB209B226A802F087FDBDF88E30F11A7A
:106CD000BDF88C200798024412B2234400921BB2E4
:106CE00009B224A802F078FDBDF88C30F11ABDF885
:106CF0008E20BA1A12B2234400921BB209B228A8FD
:106D000002F06AFDBDF88E30F11ABDF88C20BA1A77
:106D100012B2234400921BB209B22AA802F05CFD11
:106D200000231093ADF810905F469CE2209B1B7AE5
:106D30000C9382E70C9A2146FFF74EF805460B9B11
:106D40001A46069B02EB03081FFA88F8A2B20592C6
:106D500090440FFA88F8BDF83C60079800EB0609EC
:106D60001FFA89F909F101090FFA89F90095BDF8AF
:106D70003830039A49464046FEF758FF0A998C4638
:106D80000699ACEB010A1FFA8AFA0599AAEB010AE7
:106D90000FFA8AFA0095BDF83830039A49465046F2
:106DA000FEF744FF089AA2EB06091FFA89F909F1D8
:106DB000FF390FFA89F90095BDF83A30039A494630
:106DC0005046FEF733FF0095BDF83A30039A494626
:106DD0004046FEF72BFF1598109BC31A1C44C4EBCA
:106DE00004241698B4FBF0F4BDF826C0CCF3C423F9
:106DF0005FFA84FABDF810E0CEF3C422E443E4B2B3
:106E000002FB04F20AFB0323C3F3042363F3CF273B
:106E1000CCF34513CEF3451202FB04F203FB0A2325
:106E2000C3F3052363F34A17ADF826C00CF01F0324
:106E3000ADF810E00EF01F0202FB04F203FB0A2380
:106E4000C3F3042363F304070B9B03EB06081FFA49
:106E500088F808F101080FFA88F807988146069823
:106E600081441FFA89F9059B99440FFA89F9009525
:106E70003B46039A49464046FEF7D8FE0A998E1BC8
:106E8000B6B2013E36B200953B46039A49463046BB
:106E9000FEF7CCFEBDF810E0CEF3C423BDF826C04B
:106EA000CCF3C42202FB04F20AFB0323C3F3042342
:106EB00063F3CF2BCEF34513CCF3451202FB04F260
:106EC0000AFB0323C3F3052363F34A1B0EF01F03DE
:106ED0000CF01F0202FB04F20AFB032ACAF3042A85
:106EE0006AF3040B089C0698241AA4B2059BE41AC2
:106EF00024B200955B46DDF80C904A4621463046A8
:106F0000FEF794FE00955B464A4621464046FEF752
:106F10008DFE059B5C1C24B20D9B9C420CDA0D98E7
:106F200001283FF707AF0C9D2A4621460D98FEF732
:106F30009FFD2D1AEDB202E7BDF826A05D46BDF912
:106F40008C300F931C9B1093BDF99A10BDF98E30B5
:106F5000129A9A18914200F00E820126BDF9920011
:106F6000BDF98C2012991144884200F006824FF03E
:106F70000108BDF9A2101198C31A994200F00082CD
:106F80000124BDF9AA10119B9A1A914246D01FFA0A
:106F90008AF2BDF810309A4200F0F481149BB3F9E4
:106FA00006305B1AC3EB0323139AB3FBF2F3CAF365
:106FB000C421DAB2BDF810C0CCF3C420DB43DBB28D
:106FC00000FB03F002FB0101C1F30421BDF86000E6
:106FD00061F3CF208646CAF34511CCF3451000FB80
:106FE00003F001FB0201C1F30521704661F34A1071
:106FF00086460AF01F000CF01F0101FB03F300FBA3
:107000000232C2F30422734662F304031A46ADF857
:1070100060300C9B03992AA8FEF779FE002C48D01B
:107020001FFA8AF3BDF81020934200F0AD81149B43
:10703000B3F90630BDF9A2209B1AC3EB0323139AC0
:10704000B3FBF2F3CAF3C421DAB2BDF81040C4F3C3
:10705000C420DB43DBB200FB03F002FB0101C1F300
:107060000421BDF86C0061F3CF208446CAF34511BA
:10707000C4F3451000FB03F001FB0201C1F305213D
:10708000604661F34A1084460AF01F0004F01F01B5
:1070900001FB03F300FB0232C2F30422634662F3F6
:1070A00004031A46ADF86C300C9B039928A8FEF730
:1070B0002EFE002E48D01FFA8AF3BDF8102093420E
:1070C00000F06481149BB3F90630BDF99A209B1A35
:1070D000C3EB0323139AB3FBF2F3CAF3C421DAB26E
:1070E000BDF81040C4F3C420DB43DBB200FB03F067
:1070F00002FB0101C1F30421BDF8680061F3CF2058
:107100000646CAF34511C4F3451000FB03F001FB2A
:107110000201C1F30521304661F34A1006460AF028
:107120001F0004F01F0101FB03F300FB0232C2F356
:107130000422334662F304031A46ADF868300C9B10
:10714000039926A8FEF7E3FDB8F1000F48D01FFA17
:107150008AF3BDF81020934200F01A81149BB3F912
:107160000630BDF992209B1AC3EB0323139AB3FB9D
:10717000F2F3CAF3C421DAB2BDF81040C4F3C4205C
:10718000DB43DBB200FB03F002FB0101C1F304218E
:10719000BDF8640061F3CF200646CAF34511C4F37D
:1071A000451000FB03F001FB0201C1F3052130464D
:1071B00061F34A1006460AF01F0004F01F0101FBAC
:1071C00003F300FB0232C2F30422334662F30403EA
:1071D0001A46ADF864300C9B039924A8FEF797FD7E
:1071E000BDF88C300A9CE11ABDF88E200798024445
:1071F00012B20B9E334400921BB209B226A802F0D1
:10720000EBFABDF88E30E11ABDF88C2007980244E5
:1072100012B2334400921BB209B224A802F0DCFA85
:10722000BDF88C30E11ABDF88E200898821A12B28F
:10723000334400921BB209B228A802F0CDFABDF87F
:107240008E30E11ABDF88C200898821A12B23344AD
:1072500000921BB209B22AA802F0BEFA0DF18A010F
:1072600023A802F071FB23A802F065FB002800F0C0
:107270009180179B002B3FF467AEBDF98C300F9ABD
:1072800093423FF461AEBDF98E301C93BDF84010BF
:1072900006915B1A1BB20D931F9B15939B1AC3EBB0
:1072A0000323139A1692B3FBF2F3BDF81040C4F314
:1072B000C422D9B2CAF3C420DB43DBB200FB03F023
:1072C00001FB0202C2F30422BDF8740062F3CF2076
:1072D0000646C4F34512CAF3451000FB03F002FB57
:1072E0000102C2F30522304662F34A10064604F05A
:1072F0001F020AF01F0000FB03F002FB0102C2F3B1
:107300000422304662F30400ADF87400ADF83A0090
:10731000CAF3C422C4F3C42000FB03F001FB020241
:10732000C2F30422BDF8780062F3CF200646CAF308
:107330004512C4F3451000FB03F001FB0202C2F347
:107340000522304662F34A1006460AF01F0204F096
:107350001F0000FB03F001FB0203C3F304233246CA
:1073600063F30402ADF87820ADF838200024ADF8BE
:1073700026A0AB46D0E50026F0E54FF00008F8E582
:107380000024FEE5524644E652468DE65246D6E6D5
:10739000524620E7BDF810901FFA8AF41FFA89F5CB
:1073A000AC4200F0F980149BB3F90630BDF9AA2075
:1073B0009B1AC3EB0323139AB3FBF2F3CAF3C42063
:1073C000D9B2C9F3C422DB43DBB202FB03F201FBF7
:1073D0000020C0F304204FF0000260F3CF22CAF374
:1073E0004510C9F3451606FB03F600FB0160C0F328
:1073F000052060F34A120AF01F0609F01F0000FB87
:1074000003F306FB0131C1F3042161F304020C9B79
:1074100003992AA8FEF77BFCBDF9AA30BDF9A2208A
:10742000934239D0AC4200F0B980149BB3F90630D6
:107430009B1AC3EB0323139AB3FBF2F3CAF3C420E2
:10744000D9B2C9F3C422DB43DBB202FB03F201FB76
:107450000020C0F304204FF0000260F3CF22CAF3F3
:107460004510C9F3451606FB03F600FB0160C0F3A7
:10747000052060F34A120AF01F0609F01F0000FB06
:1074800003F306FB0131C1F3042161F304020C9BF9
:10749000039928A8FEF73BFCAC4200F08180149BC6
:1074A000B3F90630BDF99A209B1AC3EB0323139A54
:1074B000B3FBF2F3CAF3C420D9B2C9F3C422DB434D
:1074C000DBB202FB03F201FB0020C0F304204FF00B
:1074D000000260F3CF22CAF34510C9F3451606FB3C
:1074E00003F600FB0160C0F3052060F34A120AF0C6
:1074F0001F0609F01F0000FB03F306FB0131C1F377
:10750000042161F304020C9B039926A8FEF7FFFBFC
:10751000BDF99220BDF99A309A4238D0AC4241D0A0
:10752000149BB3F906309B1AC3EB0323139AB3FBE6
:10753000F2F3CAF3C420D9B2C9F3C422DB43DBB2ED
:1075400002FB03F201FB0020C0F304204FF0000215
:1075500060F3CF22CAF34510C9F3451404FB03F4CA
:1075600000FB0140C0F3052060F34A120AF01F043B
:1075700009F01F0000FB03F304FB0131C1F30421F8
:1075800061F304020C9B039924A8FEF7C0FB179B30
:1075900053B92DB0BDE8F08F524638E7524676E732
:1075A0005246B0E75246EDE7149A13881F9D2B44CC
:1075B0009BB20233ADF8A830144693885B1B9BB294
:1075C000023BADF8AC30B2F90230ADF8AA30ADF8FC
:1075D000AE30DDF830804346209E7288039F3946E6
:1075E0002AA8FEF794FBB4F90630ADF8AA30ADF83E
:1075F000AE304346B28839462AA8FEF788FBBDF96B
:107600008E30BDF8402005929B1A1BB20D93119548
:107610000F9B1493EB1AC3EB0323139A1292B3FB41
:10762000F2F3C9F3C421DAB2CAF3C420DB43DBB2FC
:1076300000FB03F002FB0101C1F304214FF0000045
:1076400061F3CF20C9F34511CAF3451404FB03F4D9
:1076500001FB0241C1F3052161F34A1009F01F014A
:107660000AF01F0404FB03F401FB0241C1F30421EF
:1076700061F30400ADF83A00CAF3C420C9F3C42191
:1076800001FB03F102FB0010C0F304204FF00001E6
:1076900060F3CF21CAF34510C9F3451404FB03F48A
:1076A00002FB0040C0F3052060F34A110AF01F00FE
:1076B00009F01F0404FB03F402FB0043C3F304239B
:1076C00063F30401ADF838100024ADF818A0ADF84C
:1076D0002690BDF884A0BDF886B0ECE00C9D2A464B
:1076E00021460D98FEF7C4F92E1AF6B20B9A059BA7
:1076F000D718BFB2A3B204931F443FB2BDF83C50A9
:10770000079901EB05081FFA88F808F101080FFA3C
:1077100088F80096BDF83830039A41463846FEF79F
:1077200085FA0A998C460599ACEB01091FFA89F98B
:107730000499A9EB01090FFA89F90096BDF83830D0
:10774000039A41464846FEF771FA089BA3EB0508E9
:107750001FFA88F808F1FF380FFA88F80096BDF88C
:107760003A30039A41464846FEF760FA0096BDF863
:107770003A30039A41463846FEF758FA119F109B5B
:10778000FB1A1C44C4EB0424129FB4FBF7F4BDF8AD
:1077900018C0CCF3C4235FFA84F9BDF826E0CEF319
:1077A000C422E443E4B202FB04F209FB0323C3F363
:1077B000042363F3CF2ACCF34513CEF3451202FB27
:1077C00004F203FB0923C3F3052363F34A1AADF85C
:1077D00018C00CF01F03ADF826E00EF01F0202FBEC
:1077E00004F203FB0923C3F3042363F3040A0B9895
:1077F0004719BFB201373FB20798804605988044C9
:107800001FFA88F8049B98440FFA88F800965346AC
:10781000039A41463846FEF709FA0A994D1BADB264
:10782000013D2DB200965346039A41462846FEF785
:10783000FDF9BDF826E0CEF3C423BDF818C0CCF3A3
:10784000C42202FB04F209FB0323C3F3042363F302
:10785000CF2BCEF34513CCF3451202FB04F209FB08
:107860000323C3F3052363F34A1B0EF01F030CF03D
:107870001F0202FB04F409FB0349C9F3042969F35D
:10788000040B089C0598241AA4B2049BE41A24B2A1
:1078900000965B46DDF80C80424621462846FEF7FE
:1078A000C5F900965B46424621463846FEF7BEF9CA
:1078B000049B5C1C24B20D9B9C42FFF60FAFBDF8ED
:1078C00018A0BDF82690149B109A9B1A002BB8BFE5
:1078D0005B420D9A93427FF45CAE0F9FC7EB072388
:1078E000139AB3FBF2F3C9F3C422D8B2CAF3C42487
:1078F000DB43D9B204FB01F300FB0233C3F30423DF
:107900004FF0000463F3CF24C9F34513CAF34512C3
:1079100002FB01F203FB0023C3F3052363F34A14C4
:1079200009F01F030AF01F0202FB01F203FB002310
:10793000C3F3042363F30404CAF3C423C9F3C422C6
:1079400002FB01F200FB0323C3F304234FF0000505
:1079500063F3CF25CAF34513C9F3451202FB01F2C5
:1079600000FB0323C3F3052363F34A150AF01F0347
:1079700009F01F0202FB01F200FB0323C3F30423FF
:1079800063F304050C9B5E08BFB20B9B3B440FFAEC
:1079900083F8079B3B440FFA83F900962B46DDF8EA
:1079A0000CB05A4649464046FEF740F90A9BA3EB05
:1079B000070A0FFA8AFA00962B465A46494650465D
:1079C000FEF734F9089BDD1B2DB2009623465A467C
:1079D00029465046FEF72AF9009623465A4629467C
:1079E0004046FEF723F9D4E52DE9F04F9DB005465A
:1079F0000391164606921C46B2F90670BFB2FDF717
:107A00001DFB01F02FFD1090B6F90C307289ADF816
:107A1000462096F80EB0FF2C50D0069AD27B04FB7D
:107A200002F4220A05929BB25E1E36B2109A0AB187
:107A30009E1E36B2A9882B88C91A89B20131EA88FC
:107A40006B88D21A92B2013212B209B23846FEF7EE
:107A5000EFF904462B8803449BB2BDF84020134441
:107A60009BB208936B8803449BB2134499B207916D
:107A70001BB21293EB881B1A9BB29B1A99B20A9104
:107A80001BB21393AB881B1A9BB29A1A93B2099339
:107A900003B20C931A460DF16A011BA801F044FFD2
:107AA000A41B22B20492002A0CDB0DF1620119A87A
:107AB00001F03AFF00230B93149303E1069AD27B63
:107AC0000592B0E70022F0E79AB21FFA8AF1521A43
:107AD00091B212B20E924A1E12B20F9206E1059AAC
:107AE00021463046FEF778F905460BF00903092BCD
:107AF0001CD00BF00503052B3FD00BF00603062B23
:107B000063D00BF00A030A2B00F08880013424B202
:107B1000B44280F2AB80012EE1DC059D2A4621466D
:107B20003046FDF7A5FF2D1AEDB2DEE7BDF8308037
:107B3000099B03EB080080B201300A9AD11989B27F
:107B40001FFA84FA51440095B9F80A30039A09B231
:107B500000B2FEF76BF8099BD81980B250440A9B1B
:107B600003EB080189B201310095B9F80A30039A94
:107B700009B200B2FEF75AF8BBE7089BD81B80B2E7
:107B80001FFA84FAA0EB0A00BDF830800A9A02EBD3
:107B9000080189B201310095B9F80A30039A09B297
:107BA00000B2FEF743F8089BA3EB080080B201384F
:107BB0000A9BD91989B251440095B9F80A30039A41
:107BC00009B200B2FEF732F897E7BDF83080089BA3
:107BD000A3EB080080B20138079AD11B89B21FFAC3
:107BE00084FAA1EB0A010095B9F80A30039A09B2A8
:107BF00000B2FEF71BF8089BD81B80B2A0EB0A006E
:107C0000079BA3EB080189B201390095B9F80A3046
:107C1000039A09B200B2FEF709F872E7099BD81976
:107C200080B21FFA84FA5044BDF83080079AA2EB64
:107C3000080189B201390095B9F80A30039A09B2EE
:107C400000B2FDF7F3FF099B03EB080080B201309F
:107C5000079BD91B89B2A1EB0A010095B9F80A303C
:107C6000039A09B200B2FDF7E1FF4FE7DDF834A057
:107C7000BDF96C300C93CDF850A0BDF96430049A76
:107C8000934244D10BF00903092B00F02E810BF035
:107C90000503052B00F061810BF00603062B00F0B5
:107CA00094810BF00A030A2B00F0CE810DF16A01DA
:107CB0001BA801F049FEBDF96620BDF964309A4267
:107CC000C0F20182BDF96EA0BDF96C309A4500F397
:107CD0000082BDF96610BDF964209142BFF6F4AE92
:107CE00099B292B28A1A12B20E920F92109A002A88
:107CF000C8D00C9A9342C0D0BDF85070AAEB0706CA
:107D000036B20024CDF834A0DDF8189000E7BDF9B4
:107D10006E301593BDF82C200D929E1A36B20024B9
:107D2000A7E0059A21463046FDF7A2FE0546ADE0E4
:107D3000BDF81000099B184480B201380A9B0D9AC7
:107D4000991889B221440095069B5B89039A09B270
:107D500000B2FDF76BFF9FE0089B0D9A981A80B266
:107D6000001BBDF810100A9B194489B20139009517
:107D7000069B5B89039A09B200B2FDF757FF91E0B9
:107D8000BDF81000089B181A80B20130079B0D9AAD
:107D9000991A89B2091B0095069B5B89039A09B25F
:107DA00000B2FDF743FF83E0099B0D9A981880B25B
:107DB0002044BDF81010079B591A89B20131009573
:107DC000069B5B89039A09B200B2FDF72FFF74E0AE
:107DD000099B0D9A981880B22044BDF810100A9B98
:107DE000194489B201390095069B5B89039A09B24F
:107DF00000B2FDF71BFF69E0BDF81000089B181AE0
:107E000080B201300A9B0D9A991889B221440095DD
:107E1000069B5B89039A09B200B2FDF707FF58E0A1
:107E2000089B0D9A981A80B2001BBDF81010079B92
:107E3000591A89B201310095069B5B89039A09B2F0
:107E400000B2FDF7F3FE47E0BDF81000099B1844AF
:107E500080B20138079B0D9A991A89B2091B0095C7
:107E6000069B5B89039A09B200B2FDF7DFFE01347D
:107E700024B2B44233DA012E7FF753AF059D2A4670
:107E800021463046FDF7A8FF2D1AEDB20BF0090A86
:107E9000BAF1090F3FF44CAF0BF00509B9F1050F2A
:107EA0003FF45AAF0BF00608B8F1060F3FF468AF85
:107EB0000BF00A070A2F3FF477AF049B013B0B9AA4
:107EC000A2189342D3D0BAF1090F81D0B9F1050FAE
:107ED00092D0B8F1060FA3D00A2FC8D1B4E7BDF9EC
:107EE00064300493159B0B93CCE6BDF86C30099C71
:107EF00023449BB20F9A9A1AADF85820ADF85C3023
:107F0000BDF86E300A9D2B441BB2ADF85A30ADF867
:107F10005E30DDF814804346BDF846703A46039E55
:107F2000314616A8FDF7F3FEBDF86E3023441BB2B0
:107F3000ADF85830ADF85C30BDF86C302B449BB2D6
:107F40000E981A1AADF85A20ADF85E3043463A46FC
:107F5000314616A8FDF7DBFE99E6BDF86E30089CA9
:107F6000E31A1BB2ADF85830ADF85C30BDF86C3098
:107F70000A9D2B449BB20F9A9A1AADF85A20ADF87D
:107F80005E30DDF814804346BDF846703A46039EE5
:107F9000314616A8FDF7BBFEBDF86C30E31A9AB265
:107FA000ADF858300E981318ADF85C30BDF86E304F
:107FB0002B441BB2ADF85A30ADF85E3043463A461A
:107FC000314616A8FDF7A3FE66E6BDF96E30139A9A
:107FD000D118129AD21A91421BDCBDF86E30089A61
:107FE000D31A1BB2ADF85830ADF85C30BDF86C3028
:107FF000079AD31A9AB2ADF85A300E9BD318ADF83F
:108000005E30059BBDF84620039916A8FDF77FFE5C
:1080100047E6BDF86C2008998A1A91B2ADF858204D
:108020000F9A8A18ADF85C209BB2079AD31A1BB23C
:10803000ADF85A30ADF85E30059BBDF84620039987
:1080400016A8FDF764FEC8E7BDF86E30099A134420
:108050001BB2ADF85830ADF85C30BDF86C30079A03
:10806000D31A9AB2ADF85A300F9B1344ADF85E3074
:10807000059BBDF84620039916A8FDF748FEBDF9FB
:108080006E20139B9918129B9B1A99427FF70EAE94
:10809000BDF86C10099B194489B20E9BCB1AADF840
:1080A0005830ADF85C1093B2079AD31A1BB2ADF8F2
:1080B0005A30ADF85E30059BBDF84620039916A8EE
:1080C000FDF725FEF2E50DF1620119A801F03CFC77
:1080D000F8E5109B002B00F0F481BDF85080AAEB6E
:1080E000080A0FFA8AFA0024059E79E0BDF830707C
:1080F000099BD81980B201300A9A02EB080189B2B3
:108100001FFA84F949440095069A5389039A09B2E3
:1081100000B2FDF78BFD099B03EB080080B24844D9
:108120000A9BD91989B201310095069B5B89039A94
:1081300009B200B2FDF77AFD60E0089BA3EB0800EE
:1081400080B21FFA84F9A0EB0900BDF830700A9ADA
:10815000D11989B201310095069A5389039A09B25F
:1081600000B2FDF763FD089BD81B80B201380A9B63
:1081700003EB080189B249440095069B5B89039A89
:1081800009B200B2FDF752FD3CE0BDF83070089B2B
:10819000D81B80B20138079AA2EB080189B21FFAF6
:1081A00084F9A1EB09010095069A5389039A09B253
:1081B00000B2FDF73BFD089BA3EB080080B2A0EBEB
:1081C0000900079BD91B89B201390095069B5B8981
:1081D000039A09B200B2FDF729FD17E0013424B279
:1081E00054453FDA324621465046FDF741FC351AE8
:1081F000EDB20BF00903092B3FF478AF0BF0050348
:10820000052B9AD00BF00603062BBED00BF00A0309
:108210000A2BE3D1099B03EB080080B21FFA84F913
:108220004844BDF83070079AD11B89B201390095D6
:10823000069A5389039A09B200B2FDF7F7FC099B2D
:10824000D81980B20130079BA3EB080189B2A1EBDA
:1082500009010095069B5B89039A09B200B2FDF7FC
:10826000E5FCBBE70C9B149A9F1A002FB8BF7F4216
:1082700057450AD0BDF966A0BDF82C300C93AAEB87
:10828000030A0FFA8AFA0024DBE0059B5C080BF076
:108290000903092B1AD00BF00503052B25D00BF091
:1082A0000603062B30D00BF00A030A2BE2D1BDF8EF
:1082B0003030099AD018079AD11A0094069B5B892E
:1082C000039A09B200B2FDF7B1FCD3E7BDF8303034
:1082D000099AD0180A9AD1180094069B5B89039AD0
:1082E00009B200B2FDF7A2FCD5E7BDF83030089A1C
:1082F000D01A0A9AD1180094069B5B89039A09B296
:1083000000B2FDF793FCCAE7BDF83030089AD01AE6
:10831000079AD11A0094069B5B89039A09B200B2AE
:10832000FDF784FCBFE7BDF81000099B184480B23C
:1083300001380A9B0C9A991889B221440095069B32
:108340005B89039A09B200B2FDF770FC87E0089BD5
:108350000C9A981A80B2001BBDF810100A9B1944A1
:1083600089B201390095069B5B89039A09B200B274
:10837000FDF75CFC79E0BDF81000089B181A80B28C
:108380000130079B0C9A991A89B2091B0095069B2C
:108390005B89039A09B200B2FDF748FC69E0099BCA
:1083A0000C9A981880B22044BDF81010079B591AF7
:1083B00089B201310095069B5B89039A09B200B22C
:1083C000FDF734FC59E0099B0C9A981880B22044C0
:1083D000BDF810100A9B194489B201390095069B1B
:1083E0005B89039A09B200B2FDF720FC4EE0BDF8AC
:1083F0001000089B181A80B201300A9B0C9A991839
:1084000089B221440095069B5B89039A09B200B2A8
:10841000FDF70CFC3DE0089B0C9A981A80B2001BFB
:10842000BDF81010079B591A89B201310095069BBF
:108430005B89039A09B200B2FDF7F8FB2BE0013427
:1084400024B254453DDA059A21465046FDF710FB0B
:1084500005460BF00909B9F1090F3FF464AF0BF0C1
:108460000508B8F1050F3FF472AF0BF00607062FB1
:1084700081D00BF00A060A2E91D0049B013B0B9A87
:10848000A2189342DBD0B9F1090F9CD0B8F1050FC7
:10849000ADD0062FBFD00A2ED1D1BDF81000099B58
:1084A000184480B20138079B0C9A991A89B2091BAB
:1084B0000095069B5B89039A09B200B2FDF7B6FBF3
:1084C000BDE71DB0BDE8F08F2DE9F0419846C488A6
:1084D0004388E41AA4B2013424B2002C1DDD054601
:1084E0000F461646838802889B1A9BB201331BB243
:1084F000002B12DDB6F912308BB93946284601F04F
:10850000CFF950B1337A102B0ED8B6F90C3023B115
:10851000B37B13B1F37B0F2B17D8BDE8F081434633
:108520003246FDF7FDFFE8E7434632463946284626
:10853000FEF74CF8B6F90630002BE6D0434632463B
:1085400039462846FEF75DFBDFE7434632463946AB
:108550002846FEF708F9B6F90630002BDDD0434671
:10856000324639462846FFF73FFAD6E7F8B50646C1
:108570000E4B1F6800240AE013B1284600F024FBCC
:1085800028220021284603F0DBFD0134A4B2084B69
:108590001B88A34209D904EB840507EBC5056B686A
:1085A000B342E9D0002EF0D1E6E7F8BDC0180020B4
:1085B0006C180020F8B50546204B1B6833B100202D
:1085C000FFF7D4FF1D4B186801F04EFC05EB85004A
:1085D000C00001F01DFC194B1860FAF776FB30B1B2
:1085E000164B1B6883B1164B1D80002423E0154BEE
:1085F000A6221549032001F095FB104B1A68D317EA
:108600001248FAF77DFBFEE70D4B00221A8014E0BA
:1086100004EB8403DF00094E30682422002100EBC4
:10862000C30003F08DFD306828220021384403F098
:1086300087FD0134A4B2AC42EAD3F8BDC0180020D3
:108640006C1800205C2A0108EC2901089824010814
:1086500008B5044B40F225220349022001F062FBD9
:10866000002008BD742A0108BC2A010838B50D464F
:1086700014460846FDF79DFBD8B92B7803F01F037D
:10868000043BDBB20A2B24D82B68C3F38A2322686D
:1086900063F3942222606B88C3F34A13628863F306
:1086A0004F1262802A78237862F30403237001203A
:1086B0000FE002280ED12368012060F39423236089
:1086C000C3F30F4260F34F1262800B2262F3040384
:1086D000237038BD044B40F231120449022001F0EE
:1086E00021FB0020F5E700BF002B0108BC2A010890
:1086F00038B50D6A4DB10C46286808B101F0B4FBDD
:10870000284601F0B1FB0023236238BD2DE9F0417A
:108710000C46097B01290DD0237C03F01F031A1F8F
:10872000D2B2022A13D871B963689B6863610120D1
:10873000BDE8F0814A4B40F261124A49022001F043
:10874000F1FA0020F4E7002363610120F0E7DA1F6B
:10875000D2B2032A07D90B3BDBB2032B73D8002319
:1087600063610120E4E71846FDF70AFB8046012714
:108770008740236AA3B1266A022000FA08F001F0BC
:1087800047FB3060384601F043FB7060336853B3F9
:1087900048B3237B012B2ED06368986800234CE0FC
:1087A000082001F035FB206220B1236A00221A6004
:1087B0005A60E0E72C4B4FF4C0722A49032001F0C5
:1087C000B1FA206AFAF781FA0028EED1274B40F27D
:1087D00081122449032001F0A5FA226AD317244804
:1087E000FAF78EFAFEE7204B4FF4C5721D490320BD
:1087F00001F098FACDE71F4B4FF4CE7219490220D1
:1088000001F090FA002093E700EB8302917892F850
:1088100001C010F823E04FEADE0E4FEA9C0CC908B5
:108820006EF304056CF34A1561F3CF25316821F826
:1088300013507168D278CA540133BB42E4D3002389
:108840006361012074E72146FFF752FF0A4B40F2B3
:10885000C1120449022001F065FA002068E700BF58
:10886000742A0108BC2A0108282B0108FC2C0108E5
:1088700098240108542B0108A02B01082DE9F0438E
:1088800087B080460C4691461F460E9E4FF47F43AC
:10889000ADF81430A3F5AD03A3F528530493554B5D
:1088A0006D460FCB85E80F00D8F808301A8E0021EE
:1088B000B94209DA95B201EB4103F55401332D0AAF
:1088C000F554013109B2F3E798F8100000F01F00E9
:1088D000FDF756FA01258540ADB2013DADB298F8DD
:1088E000103003F01F030B3B032B4AD8DFE803F0E3
:1088F000021B2E40D8F81030C3F347310A4613F458
:10890000E05F00D04A1CE31009FB0239E44304F0A5
:10891000070405A998F80C30D3BBD8F804309B683D
:108920009944002244E0D8F81030C3F308310A46D5
:1089300013F4406F00D04A1CA31009FB0239A4B203
:10894000E44304F00304640004A9E3E7D8F810301A
:10895000C3F3C9210A4613F4806F00D04A1C631088
:1089600009FB023914F0010F0FD104246946D1E745
:10897000D8F81030C3F38A2309FB034900242146A9
:10898000C8E70024A1462146C4E700246946C1E7A0
:10899000194B40F279221949022001F0C3F9002055
:1089A00025E0C0F1080464B209F10109013212B2F4
:1089B000BA421BDA99F8003005FA04FC03EA0C030A
:1089C00023415FFA83FE98F810C00CF01F0CBCF135
:1089D0000E0F01D011F80EE002EB4203023306F84D
:1089E00003E0241A64B2002CE0DADAE7012007B0D1
:1089F000BDE8F08394220108CC2B0108BC2A0108B1
:108A00002DE9F84304460D4691461F46089E007C1A
:108A100000F01F00FDF7B4F980464FF0010C0CFA8E
:108A200000FC1FFA8CFC0CF1FF3C1FFA8CFC237C31
:108A300003F01F03073B032B4ED8DFE803F0021DB2
:108A400031442269C2F347310B4612F4E05F00D093
:108A50004B1C4FEAE50E09FB03E909F10809EA435B
:108A600002F00702206A237B002B3BD163689B68DE
:108A700003EB090E002545E02269C2F308310B46DD
:108A800012F4406F00D04B1C4FEAA50E09FB03E91E
:108A900009F11009AAB2D24302F003025200E1E741
:108AA0002269C2F3C9210B4612F4806F00D04B1C1F
:108AB0004FEA650E09FB03E909F1400915F0010FC2
:108AC0000ED10422CEE72369C3F38A2309FB03599D
:108AD00009F580690022C5E74FF000094A46C1E761
:108AE0000022BFE7184B40F2CE221849022001F0C5
:108AF00019F9002025E0C8F1080252B20EF1010E6A
:108B000001352DB2BD421BDA9EF800100CFA02F3BB
:108B1000194011410368C9B233F8113005EB45041F
:108B2000335504F101091B0A06F809304368023481
:108B30005B5C3355A2EB080252B2002AE0DADAE7B6
:108B40000120BDE8F88300BF1C2C0108BC2A0108E5
:108B500030B583B0084611461A46BDF91830047C7A
:108B600004F01E05042D11D004F01F04062C0DD0B6
:108B7000A4F10B05EDB2032D13D9073CE4B2032C8D
:108B800014D8079C0094FFF73BFF03E0047B012C03
:108B900002D0002003B030BD079C0094FFF758FDC1
:108BA000F8E7079C0094FFF769FEF3E7044B40F2F7
:108BB000E7120449022001F0B5F80020EAE700BFFF
:108BC000702C0108BC2A010810B50446006830B1B9
:108BD000C3680BB121469847237B012B00D010BD01
:108BE000606801F041F900236360F8E710B50D48B3
:108BF00000F069FF0446FAF768F838B124B10023A1
:108C000023606360A360E360204610BD064BCB2267
:108C10000649032001F086F82246E3170448FAF7D4
:108C20006FF8FEE7C4180020E42C0108BC2A0108F4
:108C30009824010801607047416070478160704767
:108C4000C160704710B51021164800F031FFFFF7E2
:108C5000CDFF044678B11449FFF7ECFF13492046D5
:108C6000FFF7EAFF12492046FFF7E8FF11492046C7
:108C7000FFF7E6FF10BD104B48221049022001F01B
:108C800051F82046FAF721F80028F3D10C4B49227D
:108C90000A49032001F046F82246E3170948FAF78B
:108CA0002FF8FEE7C41800206D8600080D87000825
:108CB000518B0008F1860008AC2C0108BC2A010881
:108CC000D02C01089824010803780A78934201D037
:108CD000981A704740784B78C01A704703880A8802
:108CE000934201D0981A704740884B88C01A704749
:108CF00030B4CC0801F0070101239340DBB2013B03
:108D0000DBB2055D2044407800EB052080B20A44C8
:108D1000C2F110021041184030BC704730B4032B30
:108D200016D001F007051D44C5F10805012404FA19
:108D300003F3DBB2013BDBB2C1F3CF01DB43AB405A
:108D4000445C23405BB2AA401343435430BC704799
:108D5000531E062B1AD8DFE803F004070A0D101380
:108D6000160004230222DCE704231A46D9E7042371
:108D70000622D6E713460922D3E704230B22D0E7C5
:108D800004230D22CDE704230F22CAE70423C8E7FA
:108D9000064B1860064B19700023064A1370064AEA
:108DA0001360064A1370064A137070477818002043
:108DB0007418002084180020801800207C180020DF
:108DC00075180020F8B5454B1B78EBB9444B1E686D
:108DD000444B1D782A463146434B1868FFF788FFFD
:108DE00004461EB1414B1B78834206D03F4B1C709A
:108DF00035443B4B1D602046F8BD3D4B00221A70A8
:108E0000364B01221A70F1E7012B03D0022B48D018
:108E10000024F0E7344B1F68314C256801222946B5
:108E20003846FFF765FF324A13780133DBB213701F
:108E300001352560012810D02A4B1E78324629467C
:108E40003846FFF755FF0446284B18703544244B2D
:108E50001D60224B00221A70CDE7244A14780B2B98
:108E6000C9D1062229463846FFF742FF204B187029
:108E700006351B4B1D6018B1184B02221A70BAE759
:108E8000184B1E78324629463846FFF731FF044614
:108E9000164B18703544124B1D60104B00221A708F
:108EA000A9E7124B1C78124A1378013BDBB213700E
:108EB000002BA0D10A4E37680A4B1D782A46394646
:108EC000094B1868FFF714FF0446084B18703D441F
:108ED0003560024B00221A708DE700BF8418002015
:108EE0008018002074180020781800207C180020BA
:108EF0007518002070B506460D460024AC4205DA10
:108F0000FFF760FF3055013424B2F7E770BD0088E9
:108F10000B88C01A70470000F0B585B00D460029D7
:108F20005CD0C46863698B4219D00022638AC3F3A2
:108F3000090393424ED9A16802EB82039B001F46AE
:108F4000CE18C858281A0390B388984209D8B37C21
:108F500053B9F38818446561A06105B0F0BDA069FC
:108F6000FBE7013292B2E1E7012B05D0022B08D0DA
:108F7000032B18D00020EEE7F268F388105C184449
:108F8000E9E7B168328A164B0093022303A801F087
:108F9000CDF90246D0B1A3681F44B868121AF88808
:108FA00000EB5200D7E7B168328A0D4B00930223E1
:108FB00003A801F0BBF958B1A2681744BA68831A34
:108FC0005B08FA68F888D35C1844C4E70020C2E75D
:108FD0000020C0E765610020A061BEE70846BCE74D
:108FE0000F8F000830B585B0C368D87C10F0200F13
:108FF00037D1DC68E37A13F0030304D0012B1AD0D5
:10900000002005B030BD2568120293B25A18ADF8A1
:109010000C20A2681C4B0093022322F07F422946B9
:1090200003A801F083F920B1431B5B086268D056A6
:10903000E7E70020E5E7256801EB02220392A2683A
:10904000124B0093042322F07F42294603A801F02B
:109050006DF920B1431B1B096268D056D1E700208F
:10906000CFE7DC686068435C825C43B14AB1216849
:10907000013B607B013A00FB0323C856C1E7002097
:10908000BFE70020BDE700BFC98C0008DD8C0008E9
:109090002DE9F04F83B08946174601939DF8308043
:1090A000B8F1030F0FD0C2464146FFF771FE7800BA
:1090B000FCF786FC064600EB070B3946FFF71AFF64
:1090C000002425460BE04FF0040AEDE74346325DED
:1090D00029464846FFF722FE5544013424B2BC42DB
:1090E000F4DB0123009312E01BF80420335D5A40A7
:1090F0003255434629464846FFF710FE5544013491
:1091000024B2BC42F0DB009B01331BB20093009BF6
:10911000019A934205DA39465846FFF7EBFE0024E0
:10912000EFE703B0BDE8F08F2DE9F04383B0C668E8
:10913000FFF7F2FE00285DD08046776807EBC00499
:10914000F37C13F0C00F0AD12CB1346857F83030DB
:10915000C3F313031C44204603B0BDE8F083237916
:10916000657905FB03F5002D46D0F37CC3F382033C
:10917000013B032B04D8DFE803F0022A2C2EED0874
:109180001F4B186800F098FEA8420ED2DFF87090CE
:109190002946D9F8000000F09FFEC9F80000F9F751
:1091A00094FDD0B1164B1B6843B3356857F83800AF
:1091B000C0F31300F17CC1F3820163792279104C72
:1091C000009121682844FFF763FF2468C3E7AD08D6
:1091D000D6E76D08D4E76D08D2E70A4B6A220A4940
:1091E000032000F09FFDD9F80020D3170748F9F7B6
:1091F00087FDFEE70024AEE70024ACE71C46AAE7A3
:1092000070180020602D01081C2D01089824010809
:109210002DE9F04106460C461F46C5681146FFF78A
:109220007BFE78B38046EB6863B139463046FFF782
:1092300073FE024608B9002005E041463046FFF7BC
:10924000D1FE00E00020696801EBC8012B8A03FB16
:1092500000F04B88C3F30B1303EB201308331B09F7
:1092600023804B79E3700B79A37091F90630237159
:1092700091F907306371EB7CC3F38203A371012082
:10928000BDE8F0810020FBE710B400238360036198
:109290008361C361C36080220280A0224280436058
:1092A000017A027F63F304020277828B42F4FC644A
:1092B0008483C4F3072263F3C702427701F0FD02FF
:1092C00042F001020272436110BC704710B40024E6
:1092D000046144618461016042608160C36010BCCC
:1092E00070470000F8B50546404800F0ECFB044626
:1092F00000285AD028686968AA68EB682060616015
:10930000A260E36028696969AA69EB69206161610B
:10931000A261E3612022002104F59E7002F010FF9B
:109320004FF48072002104F13C0002F009FF442157
:1093300004F1240000F0BCFB2D4B1B68002B44D033
:109340002B4D2F682C60B4F85C316FF30903A4F83F
:109350005C3100210846FBF7E9F82063002108464C
:10936000FBF7E4F8606300210846FBF7DFF8A06331
:10937000204E3146606BFBF723F83146A06BFBF7BC
:109380001FF8206BFAF730FB2F60234603221E21C3
:10939000194800F07FFF2062F9F797FCC0B1206AFE
:1093A00010B300F0A7FF2046F8BDF9F78EFC0028A7
:1093B000F9D1124B7A221249032000F0B3FC224665
:1093C000E3171048F9F79CFCFEE7094B1C60B7E770
:1093D0000A4B97220A49032000F0A4FC226AD31703
:1093E0000848F9F78DFCFEE70446DCE7A4180020E6
:1093F00088180020A8170020D9520008A861010889
:109400006861010898240108014B1868704700BF83
:109410008818002008B5034638B16BB11A7A12F0EB
:10942000020F06D1B3F9000008BDFFF7EDFF0346B8
:10943000F3E7B3F90200F7E78020F5E708B5034644
:1094400038B16BB11A7A12F0020F06D1B3F90200EB
:1094500008BDFFF7D9FF0346F3E7B3F90000F7E7CC
:10946000A020F5E708B5034620B13BB1187A00F01B
:10947000010008BDFFF7C8FF0346F6E70020F8E744
:109480004268137E6FF300031376704708B520B16E
:109490000146044800F05DFB08BD024800F051FBA6
:1094A000FAE700BFA41800204068704743681A68B4
:1094B0002AB15B680BB10120704700207047002083
:1094C000704738B50446B0F90050B0F9023003FBDC
:1094D00005F5FFF7EBFF28B16368DB68AB4200D00E
:1094E000002038BD0020FCE708B520B10146044843
:1094F00000F02FFB08BD024800F023FBFAE700BF95
:10950000D0180020034B00221A70034A136803444A
:1095100013607047901800208C180020044B012223
:109520001A70044A10681B78002BF7D0704700BFF0
:10953000901800208C18002010B50446FFF7EEFFAD
:10954000A04201D3001B10BD001BFCE7028BB0F949
:109550001A309A420BD09B0293FBF2F341690269E5
:10956000881A03FB00F002EBA02000B270474FF412
:109570008063F3E7F0B58BB0044690F8203013F029
:10958000030F1DD003F00702052A19D0C28B5242E7
:10959000428313F0010F31D013F0040302D1828B08
:1095A00052424283B3FA83F35B0994F8202063F3B9
:1095B000820284F8202023696269226163611DE0D0
:1095C000254601AF04F1200C3E4628686968AA6868
:1095D000EB680FC6103537466545F5D12868306011
:1095E0002146084800F0F3FA204600F03DFC064B07
:1095F00001221A70049B0BB101A89847024B1878FE
:109600000BB0F0BD981800209118002038B52A48FA
:1096100000F097FA014651B191F820306FF3C3037F
:1096200081F82030244800F094FA0146F3E7234BF8
:109630001868FFF781FF05461F4800F082FA0446CC
:1096400013E0A36820469847014663680BB1206881
:109650009847B4F91A20238B9A421EDA184B1B78CC
:10966000FBB1154800F06DFA044604B3144B002218
:109670001A7094F8203013F0080FEFD143F008036C
:1096800084F82030638B2B441BB263839342E5DB69
:10969000228B9342D5DD6283D3E72046FFF76AFF32
:1096A000DCE72146044800F054FA0446DDE7FFF702
:1096B00035FF024B186038BD981800209418002020
:1096C0009118002008B52421064800F0F1F9FFF7B1
:1096D00025FF054B1860002303221E21034800F0DC
:1096E000D9FD08BD98180020941800200D96000898
:1096F0002DE9F04106460F46124800F022FA0446D2
:109700004FF000080BE021460E4800F060FA2046BA
:1097100000F0AAFB01200C4B187080462C466CB15F
:109720002146084800F015FA05462368B342F5D1F2
:109730006368BB42E7D0002FF0D1E4E74046BDE8C4
:10974000F08100BF9818002091180020F8B5044659
:10975000416811B10068FFF7CBFF1A4800F0B3F978
:109760000546F9F7B2FA08B3FDB194F820306FF36B
:10977000820384F8203023462A4620341F685E681E
:109780009868D968176056609060D16010331032C5
:10979000A342F3D11B6813606B681BB1B5F91010BD
:1097A00028689847084B01221A70F8BD074B5D22C4
:1097B0000749032000F0B6FA2A46EB170548F9F7E7
:1097C0009FFAFEE79818002091180020FC6101081C
:1097D000C061010898240108018042808380BDF99E
:1097E0000030C3807047B0F90420B0F90030D21ABD
:1097F000B0F90630B0F90200181A013002FB00007F
:10980000704770B4B2F90040B1F900309C42B8BF63
:109810001C460480B2F90250B1F902309D42B8BF33
:109820001D464580B2F90430B1F90460B342A8BFC7
:1098300033468380B2F90620B1F906108A42A8BFE8
:109840000A46C2809C4203DC954204DC012000E011
:10985000002070BC70470020FBE710B4B2F9003064
:10986000B1F90040A342A8BF23460380B2F90230F9
:10987000B1F90240A342A8BF23464380B2F90430A5
:10988000B1F90440A342B8BF23468380B2F9063041
:10989000B1F906209342B8BF1346C38010BC70478D
:1098A000B0F90020B1F904309A4213DCB0F9042079
:1098B000B1F900309A420FDBB0F90220B1F906305D
:1098C0009A420BDCB0F90620B1F902309A4207DA6D
:1098D000002070470020704700207047002070472C
:1098E00001207047B0F90020B1F900309A4213DB33
:1098F000B0F90220B1F902309A420FDBB0F904202E
:10990000B1F904309A420BDCB0F90620B1F9063007
:109910009A4207DD00207047002070470020704702
:109920000020704701207047028000234380C2F16D
:1099300001020A807047B0F90220B0F900008242AB
:10994000CCBF00200120704710B4B0F902300133C1
:109950009AB21BB24380B1F90040002C0CDDB0F983
:109960000020013A12B202809B1A0A8802EB4303DC
:1099700001330B8010BC7047520092B22244013276
:109980000A80F7E730B4C0EB0020C008394BA3FBD6
:1099900000308408C0F38F00C1EB012189B2364D3D
:1099A000A5FB0131C1F34711C2EB022293B2A5FB23
:1099B0000323C3F3471371B3304AA2FB0020C0F363
:1099C000C700A4B26FF02A0202FB004202EB42027F
:1099D0005200D2B2C1F1FF0505FB03F5C5F307251F
:1099E00002FB01F42412C4F1FF0404FB03F4C4F3EA
:1099F0000724C2F1FF0202FB01F21212C2F1FF02C0
:109A000002FB03F2C2F3072204282ED8DFE800F09D
:109A10000E1020232800DA089B084FF0000062F3A4
:109A2000040063F34A1062F3CF200FE01C46134694
:109A3000C5F3C405C3F38503C4F3C4044FF00000A9
:109A400065F3040063F34A1064F3CF2030BC704721
:109A50002C461546ECE722462C461D461346E7E702
:109A600019462B460D461446E2E722461C462B4675
:109A70001546DDE7176CC1161F85EB5183BEA02F7D
:109A800059B110B422B103680433CA5010BC7047F6
:109A9000036804330022CA50F8E770470B4631B11F
:109AA00012B101685A5070470268002199507047FE
:109AB00000234360836011F0030F02D021F0030103
:109AC00004310160704738B504460068083000F082
:109AD0009FF9054690B1002201462046FFF7DEFFC0
:109AE000626829462046FFF7CBFF616819B12A4614
:109AF0002046FFF7D3FF6560A3680BB1284638BD49
:109B0000A560FBE738B504460068083000F080F92E
:109B1000054690B1002201462046FFF7B1FFA2683A
:109B200029462046FFF7BAFFA16819B12A46204608
:109B3000FFF7A6FFA56063680BB1284638BD6560D6
:109B4000FBE708B140687047704708B1806870470C
:109B5000704718B103680433C8587047704710B194
:109B60000368C85870477047F8B5074658B30C46A5
:109B700059B3FFF7E6FF844220D03868083000F080
:109B800047F90546C0B121463846FFF7E8FF0646CB
:109B90002A4601463846FFF773FF324629463846C3
:109BA000FFF77CFF2A4621463846FFF777FF22461B
:109BB00029463846FFF764FF2846F8BD3846FFF7C8
:109BC00082FF0546F8E70546F6E70D46F4E770B56F
:109BD00004460D46FFF7B5FF854219D02046FFF732
:109BE000B4FF854223D029462046FFF7B8FF06463A
:109BF00029462046FFF7ADFF05460246314620467E
:109C0000FFF73EFF324629462046FFF747FF70BD6B
:109C100029462046FFF79DFF0146606020B10022E3
:109C20002046FFF73BFFF2E70023A360EFE729465A
:109C30002046FFF794FF0146A06020B10022204695
:109C4000FFF71EFFE3E700236360E0E770B50C4613
:109C500015461E461146FFF7BAFFAEB1002229464F
:109C60002046FFF71BFF626829462046FFF708FFE2
:109C7000616819B12A462046FFF710FF6560A368A6
:109C800003B170BDA560FCE7A26829462046FFF736
:109C900005FF002229462046FFF7F2FEA16819B110
:109CA0002A462046FFF7ECFEA5606368002BE8D14A
:109CB0006560E6E791422DD0F8B506460C4615469C
:109CC00002B31146FFF74BFF0746A74219D02146C2
:109CD0003046FFF77CFF224639463046FFF7D0FE7C
:109CE0003A4621463046FFF7D9FE224629463046FD
:109CF000FFF7D4FE2A4621463046FFF7C1FE2DB1BC
:109D000037B1F8BDFFF721FF0746DEE7B460F7E79C
:109D10007460F6E770470000014B1860704700BFA1
:109D2000EC180020042807DC012805DD10B5034CE1
:109D3000246804B1A04710BD704700BFEC18002094
:109D400058B150F8043B00EB5300021D054B1B6853
:109D500003F5C0539A4203D27047024B186870470C
:109D60000020F9E7F018002011F0030F02D021F0D5
:109D7000030104310368C3F35E030A1D934215D047
:109D80008B4215D010B4021D535C6FF30003535483
:109D90000368C1EB5303043B545863F35F0454500E
:109DA000036861F35F03036010BC70471946E7E77F
:109DB000036861F35F0303607047037813F0010FDA
:109DC0000FD110B504460368C3F35E038B420AD378
:109DD000FFF7CAFF237843F00103204600F8043B55
:109DE00010BD002070470020FAE70000064B074A2C
:109DF00013601A786FF300021A701A6841F2FC714E
:109E000061F35F021A607047F4180020F018002018
:109E100070B500B3064610F0030F02D020F0030621
:109E200004360024254605E03146FFF7C6FF054607
:109E30003CB135B92046FFF783FF04460028F3D133
:109E4000F6E70DB1284670BD044BA7220449022055
:109E5000FFF768FFF6E7034DF4E700BF0C62010867
:109E600028620108F4300020124B984220D010B52F
:109E70000446E0B110F8043C6FF3000300F8043C22
:109E80000438FFF75DFF90B1037813F0010F0ED196
:109E9000016854F8043CC3F35E0202EB5102043241
:109EA00062F35F0344F8043CFFF74AFFEBE710BDA1
:109EB000704700BFF430002038B1064A904206D007
:109EC00050F8040CC0F35E0070470020704700207B
:109ED000704700BFF4300020F8B50C46064628B1A4
:109EE00010F8043C13F0010F00D100263046FFF7B4
:109EF000E3FF0546A04223D009D82046FFF788FF9C
:109F0000074608B106B145B997B13846F8BD2146B4
:109F1000301FFFF729FF3746F7E72A46A54228BF3B
:109F200022463146F6F70EFF3046FFF79DFFEBE77E
:109F3000044B4FF4817204490220FFF7F3FEE4E77B
:109F40003746E2E70C6201082862010838B5374855
:109F5000FFF7F7FD044618B3237C03F00703032B38
:109F600034D921463148FFF7F4FD04460028F3D1E7
:109F70000346002B42D04FF4FA7323600025A560FE
:109F8000237C032262F3020365F3C3032374FFF708
:109F9000C5FA6060E560264B01221A70204638BD84
:109FA0002248FFF790FD0446F8F78FFE10B1002C11
:109FB000E1D1F3E71F4BB8221F490320FFF7B2FEA0
:109FC0002246E3171D48F8F79BFEFEE72146174897
:109FD000FFF7CAFD0546F8F778FE18B125B323460A
:109FE0002C46C6E7134BC02213490320FFF79AFE05
:109FF0002A46EB171148F8F783FEFEE70B48FFF7F8
:10A0000081FD0446F8F761FE10B1002CB3D1C5E71D
:10A01000084BCA2208490320FFF784FE2246E317B3
:10A020000648F8F76DFEFEE72C46B7E7E01800207B
:10A030000D310020A0620108646201089824010823
:10A040008160704710B5044601460748FFF7BFFD21
:10A050002046FFF709FF054B1B68A34200D010BD47
:10A06000034B01221A70FAE7E0180020DC180020E8
:10A070000E31002010B504464068FFF75DFA2368F2
:10A08000834201D9002010BDFFF748FA6060002329
:10A090000B4A13700B4A1370A3680BB12046984704
:10A0A000074B18780028EED1237C13F0080F01D15C
:10A0B0000120E8E72046FFF7C5FF0120E3E700BFE6
:10A0C0000E3100200D3100204F4B1B78002B40F04B
:10A0D0009A8070B54C4B01221A704C4B1E781EB9F9
:10A0E000494B00221A7070BDFFF718FA484B1860F0
:10A0F00000254AE0474B1C6000250BE0FFF7BAFF44
:10A10000454B1B78002B4DD1444B1B78002B4BD17A
:10A11000404B1C603F4B1968002934D04048FFF782
:10A1200018FD04463B4B1868037C13F0070337D037
:10A13000A842DFD0052BE1D0B5B1027C02F00702C6
:10A140002B7C03F007039A42DAD9FFF793FF00282C
:10A15000D6D0314B1B78002BD2D1304B1B78002B43
:10A16000CED12C4A15680FE0FFF784FF0028C7D036
:10A17000294B1B78002BC3D1284B1B78002BBFD158
:10A18000244A156800E0334683B90023234A13703C
:10A19000214A13702248FFF7D4FC1E4B1860B9E720
:10A1A0003346F1E70025EFE70025EDE7184B186887
:10A1B000FFF7C2F91B4A1368034413601A4B18686F
:10A1C000FFF7BAF9B0F5FA7F19D3164B1A68642372
:10A1D00003FB02F3154AA2FB0323C3F34713642BCB
:10A1E00003D8C3F16403DBB200E00023104A13700C
:10A1F0000C4B00221A60FFF791F90B4B1860024BD1
:10A2000000221A706FE77047F83000200C310020F0
:10A2100000310020DC1800200D3100200E3100201C
:10A22000E0180020FC30002008310020D34D6210DF
:10A2300004310020F8B5037C03F007038B421ED0E5
:10A2400006460F460D461148FFF77BFC04468CB1CD
:10A25000237C03F007039D4205DA21460B48FFF7F4
:10A2600078FC0446F3E7B44204D02246314607485E
:10A27000FFF720FD24B1337C67F302033374F8BD8C
:10A28000002231460148FFF715FDF4E7E0180020F1
:10A29000016070472DE9F04180460F4616461D4685
:10A2A000FFF754FE0446F8F710FD80B164B1414653
:10A2B0002046FFF7C5FE39462046FFF7E9FF314645
:10A2C0002046FFF7B7FFE5602046BDE8F081064B6A
:10A2D000EA2206490320FFF725FD2246E31704483A
:10A2E000F8F70EFDFEE700BFB862010864620108DE
:10A2F0009824010810B50446FFF710F92368C31A23
:10A30000013B636010BD0000014B1870704700BF37
:10A310000C31002008B514210348FFF7C9FB0120C8
:10A32000FFF7F2FF08BD00BFE01800202DE9F0475D
:10A3300081460F4614469846DDF820A00D4603E0FE
:10A34000002815DA3D4634468CB1660808FB0655F0
:10A3500029464846D0470028F2DD14F0010F0CBF13
:10A3600001240024341B05EB08073D46ECE70025DB
:10A370002846BDE8F08738B504460D46FAF778FB65
:10A3800045812046F9F730FB38BD000070B58AB032
:10A3900004460D461646F8F798FC58B9294B872213
:10A3A00029490320FFF7BEFC2246E3172748F8F7A8
:10A3B000A7FCFEE72046FAF75BFB0346B0F9001066
:10A3C000A94235D0B0F904209542A8BF1546B0F98E
:10A3D0000220AA42B8BF2A46914229D056B3B0F90A
:10A3E0000A00B0F1FF3F2AD0B3F90810D9801A81D2
:10A3F0000194002205924FF4807106911449029154
:10A400001449039114490491ADF81E209B89ADF8BD
:10A410001C309DF82430ADF8202003F0FE0362F3D9
:10A4200041038DF82430ADF8222001A8FFF78EF902
:10A430000AB070BD02802046F9F7D6FAF8E7D98055
:10A440001A81D5E71C630108C862010810250108BC
:10A4500077A300084D9500085DA4000810B50446D8
:10A460000068FAF705FB4FF6FF7343810022B0F94D
:10A4700008102068FFF78AFF10BD000038B50446B9
:10A480000D46F8F722FC58B9084BE722084903208B
:10A49000FFF748FC2246E3170648F8F731FCFEE7D1
:10A4A0002046FAF7E5FA858138BD00BF3063010820
:10A4B000C86201081025010870B504460E4615460D
:10A4C000F8F703FC58B90E4BFA220E490320FFF7A8
:10A4D00029FC2246E3170C48F8F712FCFEE7204659
:10A4E000FAF7C6FA16B1012E05D070BD29462046EE
:10A4F000F9F766FFF9E705612046F9F7F3FFF4E79E
:10A5000048630108C86201081025010870B50E46AD
:10A51000FAF70CF80546F8F7D8FB00284FD0002DC5
:10A520004BD04B4B1B68002B55D04A4B1B68002B64
:10A5300057D014212846F9F7C9F80446F8F7C5FBA7
:10A54000002854D0002C00F0818000236380642216
:10A55000A2802380C822A281E38023814FF6FF726C
:10A560006281A27B63F30002A2733B4B23613B49F0
:10A570002846F9F773F83A492846F9F78BF8002E80
:10A5800041D03046FAF774FAB0F902206280B0F98F
:10A590000420A280B0F90020228002692261827B1F
:10A5A000A37B62F30003A3732846F9F7C5FE0022DC
:10A5B000B4F900102846FFF7E9FE284670BD294B84
:10A5C000422229490320FFF7ADFB2A46EB17274813
:10A5D000F8F796FBFEE72846FAF716FA1C4B1860C8
:10A5E000A3E72846FAF72AFA1A4B1860A1E71D4B91
:10A5F0004A221D490320FFF795FB2246E3171B481B
:10A60000F8F77EFBFEE700212846F8F783FF2122BA
:10A61000C8212846FAF740F90022B4F9001028466C
:10A62000FFF7B4FE00F0E4F9044650B1426D00219A
:10A630002846FFF741FFA26D01212846FFF73CFFA6
:10A64000BBE70B492846F9F7BBFEB6E72546B4E75A
:10A650001431002010310020281700208DA9000897
:10A66000C5A600080C630108C86201089824010807
:10A67000E816002038B504460D46F8F726FB60B909
:10A680000D4B4FF4AF720D490320FFF74BFB2246F1
:10A69000E3170B48F8F734FBFEE72046FAF7E8F932
:10A6A0001DB1012D05D0002038BD2046FAF714FA5F
:10A6B000FAE70069F8E700BF5C630108C8620108B7
:10A6C000102501082DE9F04391B004460E461546C9
:10A6D000022A08D062B1012A00F0358101252846FE
:10A6E00011B0BDE8F083A84B1B6898470546F6E714
:10A6F000FAF742F907462046FAF792FA002840F0A6
:10A700008980A14B1B682A4631462046984720463F
:10A71000FAF7AEF90546B0F90020B0F902309A42D6
:10A7200009D1837B13F0010F05D1B0F90630B3F1E5
:10A73000FF3F00F0278101212046FFF79BFF0246E3
:10A740006B4654F8100F616803C3508BBDF800309E
:10A75000184480B2ADF80000918BBDF804305B1A4C
:10A760009BB2ADF80430D18ABDF80240214489B2D1
:10A77000ADF80210B2F818C0BDF80640A4EB0C0406
:10A78000A4B2ADF806401B1A9BB201331BB2611A8A
:10A7900089B2013109B2994277DCB5F90AC0BCF13E
:10A7A000FF3F4AD0B5F90640B5F90290A4EB090481
:10A7B00004FB03F4B5F90410A1EB090894FBF8F4C9
:10A7C0000FFA84FEB5F90810A1EB090101FB03F1B2
:10A7D00091FBF8F109B2A1EB0E010CFB01F104EBC6
:10A7E0002121ADF80410BDF80410014489B20139EB
:10A7F00009B2ADF80410AC7B14F0010F03D0B5F929
:10A800000240002C2ADB3B4631466846FDF75CFEE1
:10A81000012564E700212046FFF72CFF014668462A
:10A82000FAF7F2FD0023ADF80C303B466A4631469C
:10A8300004F11000FDF748FE69E7B5F90010B5F91D
:10A8400002C0A1EB0C0101FB03F1B5F90440A4EB3C
:10A850000C0491FBF4F1ADF80410C4E7B5F9045011
:10A86000002DD0DDC4F1000C0CFB03F32C1B93FB7B
:10A87000F4F303441BB2994202DDADF80030C2E7A5
:10A88000ADF80010ADF80430BDE7B5F90AC0BCF171
:10A89000FF3F42D0B5F90600B5F90290A0EB0900E0
:10A8A00000FB01F0B5F90430A3EB090890FBF8F0C8
:10A8B0000FFA80FEB5F90830A3EB090303FB01F39F
:10A8C00093FBF8F31BB2A3EB0E030CFB03F300EBBB
:10A8D0002323ADF80230BDF80230E31A9BB20133F6
:10A8E0001BB2ADF80230A87B10F0010F8BD0B5F988
:10A8F0000200002887DAB5F90450002D83DDC0F18D
:10A90000000C0CFB01F1281A91FBF0F1611A09B25D
:10A910008B4213DAADF8061075E7B5F90030B5F9DA
:10A9200002C0A3EB0C0303FB01F3B5F90400A0EB99
:10A930000C0093FBF0F3ADF80230CCE7ADF8063035
:10A94000ADF802105FE7FAF76BF9054608B9012583
:10A95000C5E62046FAF710F8074600212046FFF723
:10A9600089FE01466846FAF74FFD00238DF808304E
:10A97000ADF812303B466A46314604F11000FDF74F
:10A98000A3FDACE60125AAE610310020F8B5064685
:10A990000D4617460E4B1B6898470446012803D105
:10A9A000072D03D0062D07D02046F8BD09493846AB
:10A9B000FAF75AF90446F7E701213046FFF75AFE45
:10A9C000B0F91230B6F934209342EDDDB386EBE7EF
:10A9D000143100200463010808B5044B18600020FE
:10A9E000F9F742FD0020F8F7F7FC08BD1831002008
:10A9F000014B1868704700BF18310020014B9A685E
:10AA0000DA607047A4400020014B024ADA647047C4
:10AA1000A440002024330020014B1A6F5A6770476E
:10AA2000A4400020024B9A68C3F88820704700BFFA
:10AA3000A4400020054B9A68C3F80421044AC3F8D7
:10AA40000821044AC3F80C21704700BFA44000202D
:10AA5000A8170020243C0020064B9A68C3F8202148
:10AA6000D3F81821C3F82421D3F81C21C3F82821D6
:10AA7000704700BFA4400020054B064AC3F87C2164
:10AA8000C3F88021D3F80C21C3F88421704700BF9C
:10AA9000A440002028180020F8B50C46A64B1B88BF
:10AAA00003F59673A54D85FB03251D442D124FF428
:10AAB000B47202FB1535ADB2FF23CB738B7A6FF303
:10AAC00004038B724B89202262F34A134B81C3F338
:10AAD00007236FF3C703CB720B7A13B9B1F90C30AC
:10AAE0000BB10323A38146225A212846FEF74AFFD1
:10AAF0006188C1F3C42303EB830203EB420203EB3F
:10AB0000C2035B009BB2C0F3C42202EB820602EBDD
:10AB10004602C2EBC2021344C3F304234FF0000207
:10AB200063F3CF22C1F3451303EB830603EB460621
:10AB300003EBC6035B009BB2C0F3451606EB86072A
:10AB400006EB4706C6EBC6063344C3F3052363F39F
:10AB50004A1201F01F0101EB810301EB430301EBFA
:10AB6000C30100F01F0000EB800300EB4300C0EBCB
:10AB7000C00000EB4100C0F3042060F304026280D7
:10AB800046225A212846FEF7FDFEA188C1F3C423C0
:10AB900003EB830203EB420203EBC2035B009BB2B5
:10ABA000C0F3C42202EB820602EB4602C2EBC202F1
:10ABB0001344C3F304234FF0000263F3CF22C1F325
:10ABC000451303EB830603EB460603EBC6035B006A
:10ABD0009BB2C0F3451606EB860706EB4706C6EBAD
:10ABE000C6063344C3F3052363F34A1201F01F0181
:10ABF00001EB810301EB430301EBC30100F01F00F4
:10AC000000EB800300EB4300C0EBC00000EB410011
:10AC1000C0F3042060F30402A28046225A21284691
:10AC2000FEF7B0FE238AC3F3C42202EBC20202EB9A
:10AC3000021292B2C0F3C42101EB410101EB0111F8
:10AC400002EB4102C2F304224FF0000162F3CF2174
:10AC5000C3F3451202EBC20202EB021292B2C0F33E
:10AC6000451606EB460606EB061602EB4602C2F355
:10AC7000052262F34A1103F01F0303EBC30303EB46
:10AC8000031300F01F0000EB400000EB001003EB8B
:10AC90004003C3F3042363F30401218246225A21B3
:10ACA0002846FEF76FFE218CC1F3C42303EB830219
:10ACB00003EB420203EBC2035B009BB2C0F3C4226E
:10ACC00002EB820502EB4502C2EBC2021344C3F35E
:10ACD00004234FF0000263F3CF22C1F3451303EBCB
:10ACE000830503EB450503EBC5035B009BB2C0F393
:10ACF000451505EB850605EB4605C5EBC5052B445B
:10AD0000C3F3052363F34A1201F01F0101EB810332
:10AD100001EB430301EBC30100F01F0000EB8003D4
:10AD200000EB4300C0EBC00000EB4100C0F3042087
:10AD300060F304022284F8BD20310020B7600BB616
:10AD4000F8B50C46A24B1B883C33A24D85FB03256E
:10AD50001D442D124FF4B47202FB1535ADB2FF2322
:10AD6000CB7346225A212846FEF70CFE6081237AD7
:10AD700013B9B4F90C300BB10323A38146225A2135
:10AD80002846FEF7FFFD6188C1F3C42303EB83026D
:10AD900003EB420203EBC2035B009BB2C0F3C4228D
:10ADA00002EB820602EB4602C2EBC2021344C3F37B
:10ADB00004234FF0000263F3CF22C1F3451303EBEA
:10ADC000830603EB460603EBC6035B009BB2C0F3AE
:10ADD000451606EB860706EB4706C6EBC606334468
:10ADE000C3F3052363F34A1201F01F0101EB810352
:10ADF00001EB430301EBC30100F01F0000EB8003F4
:10AE000000EB4300C0EBC00000EB4100C0F30420A6
:10AE100060F30402628046225A212846FEF7B2FD02
:10AE2000A188C1F3C42303EB830203EB420203EBCB
:10AE3000C2035B009BB2C0F3C42202EB820602EBAA
:10AE40004602C2EBC2021344C3F304234FF00002D4
:10AE500063F3CF22C1F3451303EB830603EB4606EE
:10AE600003EBC6035B009BB2C0F3451606EB8607F7
:10AE700006EB4706C6EBC6063344C3F3052363F36C
:10AE80004A1201F01F0101EB810301EB430301EBC7
:10AE9000C30100F01F0000EB800300EB4300C0EB98
:10AEA000C00000EB4100C0F3042060F30402A28064
:10AEB00046225A212846FEF765FD238AC3F3C422A1
:10AEC00002EBC20202EB021292B2C0F3C42101EB08
:10AED000410101EB011102EB4102C2F304224FF0E8
:10AEE000000162F3CF21C3F3451202EBC20202EB71
:10AEF000021292B2C0F3451606EB460606EB0616A2
:10AF000002EB4602C2F3052262F34A1103F01F036B
:10AF100003EBC30303EB031300F01F0000EB40003F
:10AF200000EB001003EB4003C3F3042363F30401BD
:10AF3000218246225A212846FEF724FD218CC1F3A6
:10AF4000C42303EB830203EB420203EBC2035B0067
:10AF50009BB2C0F3C42202EB820502EB4502C2EBB6
:10AF6000C2021344C3F304234FF0000263F3CF2261
:10AF7000C1F3451303EB830503EB450503EBC50361
:10AF80005B009BB2C0F3451505EB850605EB460556
:10AF9000C5EBC5052B44C3F3052363F34A1201F047
:10AFA0001F0101EB810301EB430301EBC30100F03F
:10AFB0001F0000EB800300EB4300C0EBC00000EB80
:10AFC0004100C0F3042060F304022284F8BD00BFF6
:10AFD00020310020B7600BB62DE9F047DFF850A113
:10AFE0004C495046FAF710FA4B4B1B68CAF824300C
:10AFF0004FF00409AAF80690DFF838815146404620
:10B00000FAF702FA1E224FF0000362F304033C2118
:10B0100061F34A1362F3CF23A8F80230A8F8043092
:10B020000026A8F806603D4F41463846FAF7ECF98D
:10B030003E83FE827E83BE83394C51462046FAF71A
:10B04000E3F9A4F80690374B1B886380A3800123A3
:10B05000A38117224FF0000362F304032E2161F352
:10B060004A1362F3CF236381FF23E37315224FF06A
:10B07000000362F304032A2161F34A1362F3CF232E
:10B0800023822675A4F812900C236383A383E382A2
:10B0900023830822E28306214FF0000261F30402B9
:10B0A00063F34A1261F3CF2222844FF0000261F36E
:10B0B000040263F34A1261F3CF2222861A4D5146ED
:10B0C0002846FAF7A1F9AB7866F30403AB706B88F6
:10B0D00066F34A136B80C3F3072366F3C703EB7071
:10B0E0002B7966F304032B71AB8866F34A13AB80AC
:10B0F000C3F3072366F3C7036B7166232B72A5F8AE
:10B100001C90A5F81890094BC3F804801F609C6040
:10B11000BDE8F087681600201C310020643C002048
:10B12000A4370020A4220108243C0020A4400020D1
:10B1300024330020E43100202DE9F047464C4749F4
:10B140002046FAF761F9464D46225A212888FEF733
:10B1500019FC6080A0800426E68010236383A3830B
:10B160000C23E38223830A23E38315224FF0000399
:10B1700062F304032A2161F34A1362F3CF2323828B
:10B180004FF0000A84F814A0062363825F22052191
:10B190002888FEF7F7FB20845F2205212888FEF728
:10B1A000F1FB2086DFF8C89021464846FAF72CF9D3
:10B1B0003C225A212888FEF7E5FBA9F80200A9F8ED
:10B1C0000400A9F81260274F21463846FAF71CF907
:10B1D00032225F212888FEF7D5FB7880B8807E82F6
:10B1E000DFF8908039464046FAF70EF928225F21B1
:10B1F0002888FEF7C7FBA8F80200A8F8040002237D
:10B20000A8F81230184E21463046FAF7FDF81922F8
:10B210004FF0000362F30403332161F34A1362F336
:10B22000CF237380B380A6F812A005225F2128885F
:10B23000FEF7A8FB308405225F212888FEF7A2FBD9
:10B2400030860A4B1C61C3F814909F61C3F81C80C0
:10B250001E62BDE8F08700BFE439002024330020DF
:10B2600020310020643F0020E4340020A44000206E
:10B27000E4370020243E0020F8B5154C154920463F
:10B28000FAF7C2F8144B1B686362144F0A2250216C
:10B290003888FEF777FB2084114E21463046FAF7B6
:10B2A000B3F84B2250213888FEF76CFB30840D4DEB
:10B2B00021462846FAF7A8F85A2228213888FEF7AE
:10B2C00061FB2884084B9C63DE631D64F8BD00BFEE
:10B2D000A4390020243300201C310020203100201C
:10B2E000A43C002024340020A4400020F8B5104DD8
:10B2F000104C29462046FAF787F80F4F55220F21A8
:10B300003888FEF73FFB2086CC2684F83260294639
:10B310000A48FAF779F8412255213888FEF732FBBE
:10B32000208684F83260064B5D649D64F8BD00BFE2
:10B3300024330020A4340020203100206434002075
:10B34000A440002038B5154C15492046FAF75CF8A2
:10B350000A23638247F61843E3800323A3814C2327
:10B36000E373104D642211462888FEF70BFB6080C2
:10B37000642211462888FEF705FBA0803C22114676
:10B380002888FEF7FFFA6081642211462888FEF7BC
:10B39000F9FA2082044B1C6538BD00BFA43600209A
:10B3A0002433002020310020A4400020F8B5154CA3
:10B3B00015492046FAF728F8144F5F220F213888E4
:10B3C000FEF7E0FA6080A0800323E3800026A681D8
:10B3D00006236383A383E38223830D4D21462846FE
:10B3E000FAF712F8462255213888FEF7CBFA688022
:10B3F000A8806E83AE83EE822E83064B5C659D65CE
:10B40000F8BD00BF6431002024330020203100202B
:10B41000A4310020A440002010B50A4C0A4920465F
:10B42000F9F7F2FF47F61843E3800023A381074BA7
:10B430009A6D51886180A180596DD9651A665C66E4
:10B4400010BD00BF6436002024330020A44000203B
:10B450002DE9F041244CDFF8A080E16D4046F9F77A
:10B46000D3FF47F61845A8F80650204FE16D38463F
:10B47000F9F7CAFFFD801E4E616E3046F9F7C4FF32
:10B480000323738200233375152262F304032A21F8
:10B4900061F34A1362F3CF233382164D31462846B7
:10B4A000F9F7B2FF4FF01F033E2262F34A1343F451
:10B4B00078436B80AB800123AB8113224FF00003F4
:10B4C00062F30403262161F34A1362F3CF236B81F5
:10B4D000FF23EB73C4F87880E767C4F88050C4F8A2
:10B4E0008460BDE8F08100BFA4400020643D0020DE
:10B4F000E43D0020A43D0020243D002010B50F4C69
:10B500000F492046F9F780FF5A224B210D4B18882E
:10B51000FEF738FA6080A0800A23638313224FF07D
:10B52000000362F30403262161F34A1362F3CF237D
:10B53000A3860223E386044B9C6610BD24370020BB
:10B540002433002020310020A440002070B5184C86
:10B5500018492046F9F758FF174D3C220A21288840
:10B56000FEF710FA6080A080062262830C21E1833E
:10B5700013204FF0000360F30403262666F34A13FA
:10B5800060F3CF2363814FF0000362F3040361F3A0
:10B590004A1362F3CF2323840323E38646225F21E9
:10B5A0002888FEF7EFF9A086044BDC6670BD00BF6B
:10B5B000643300202433002020310020A4400020E8
:10B5C00070B50E4C0E492046F9F71EFF0A26E68696
:10B5D0000C4D5A2211462888FEF7D4F9A086A68180
:10B5E0005A221E212888FEF7CDF96081002363834B
:10B5F000A383E3822383044B1C6770BD24310020A6
:10B600002433002020310020A44000202DE9F84FF1
:10B61000DFF8D880DFF8D8A041465046F9F7F4FEAD
:10B620002C4D462200212888FEF7ACF9AAF820000C
:10B63000DFF8C09041464846F9F7E6FE5A2250210D
:10B640002888FEF79FF9A9F82000234C41462046A0
:10B65000F9F7DAFE642228212888FEF793F9608042
:10B66000642228212888FEF78DF9A0800527E7822B
:10B6700027831A4DAB68B3F91A206283B3F91C20F3
:10B68000A2835A896281B3F90C30A3810C23A3737E
:10B690004FF0000BA4F806B0114E41463046F9F7C2
:10B6A000B3FE104B1B887380B380F7823783A6F8F4
:10B6B00006B0AB68C5F88C300B4BC5F89030C5F8B8
:10B6C000A0A0C5F89C90C5F8A440C5F8A860BDE846
:10B6D000F88F00BF2031002094420020A4400020B9
:10B6E00054420020A4220108A8170020243300207F
:10B6F000E4350020E43300202DE9F0472C4C2D4E9A
:10B70000A1683046F9F780FE4FF0000986F81490E2
:10B7100003237382DFF8AC8031464046F9F774FEAC
:10B7200019224FF0000362F30403332161F34A133B
:10B7300062F3CF23A8F80230A8F80430A8F81290DA
:10B740001D4D31462846F9F75FFEDFF87CA05522F3
:10B750004B21BAF80000FEF715F96880A880012394
:10B760002B75A5F81290154F29463846F9F74CFE6F
:10B7700041224B21BAF80000FEF704F97880B88026
:10B78000A7F81290DFF84490216A4846F9F73CFE8A
:10B790000B4BC4F8AC30C4F8B060C4F8B480C4F843
:10B7A000B850C4F8BC70C4F8C090BDE8F08700BFC2
:10B7B000A4400020243A0020A43F0020643E002042
:10B7C000A817002024380020203100202435002034
:10B7D0002DE9F84F4B4EDFF84081B1684046F9F74C
:10B7E00013FE0025A8F81A50A8F81C50A8F8165007
:10B7F000A8F81850A8F81E500A224FF0000362F370
:10B800000403152161F34A1362F3CF23A8F8203013
:10B810003D4FB1683846F9F7F7FD1F23BB7301238D
:10B82000BB8117224FF0000362F304032E2161F362
:10B830004A1362F3CF237B813D727D82334C3946BC
:10B840002046F9F7E1FD237865F3000323701B22FE
:10B850004FF0000362F30403372161F34A1362F3EC
:10B86000CF236380A380A581FF232372DFF8AC90F0
:10B8700021464846F9F7C8FDDFF8A4B046225A2110
:10B88000BBF80000FEF77EF8A9F80200A9F8040052
:10B890005F220521BBF80000FEF774F8A9F820002C
:10B8A000DFF880A049465046F9F7AEFD41225F21FE
:10B8B000BBF80000FEF766F8AAF80200AAF8040038
:10B8C000AAF80C50124D21462846F9F79DFD192281
:10B8D0004FF0000362F30403332161F34A1362F370
:10B8E000CF236B80AB80C6F8C480C6F8C870C6F89A
:10B8F000CC40C6F8D090C6F8D4A0064BC6F8D830D5
:10B90000BDE8F88FA4400020643A0020643800208D
:10B91000643500202433002024320020E43F00203E
:10B9200020310020A43E002010B5104C10492046C4
:10B93000F9F76AFD0F4B1B6863620F4BD3F8C42005
:10B94000C3F8DC20C3F8E040D3F8CC20C3F8E420EF
:10B95000D3F8D020C3F8E820D3F8D420C3F8EC20E3
:10B96000D3F8D820C3F8F02010BD00BFA43A0020BF
:10B97000A81700201C310020A44000202DE9F04130
:10B98000174F184D39462846F9F73EFD2B786FF3CF
:10B9900000032B70144B1B686B62DFF858804B223E
:10B9A0005521B8F80000FDF7EDFF28840F4C104E2C
:10B9B000D4F8CC103046F9F727FD3C225521B8F8D1
:10B9C0000000FDF7DFFF3084A368C4F8F430C4F84A
:10B9D000F870C4F8FC50C4F80061BDE8F08100BF05
:10B9E000A8170020E43A00201C310020A4400020C9
:10B9F000A43800202031002010B5174C17492046EC
:10BA0000F9F702FD00212172E1800123A3730323D2
:10BA1000A38106224FF0000362F304030C2060F3BD
:10BA20004A1362F3CF236381FF23E3734FF00003D4
:10BA300062F3040360F34A1362F3CF232384084BB9
:10BA40009A68C3F81021C3F81441C3F81811054AC5
:10BA5000C3F81C2110BD00BF643700202433002030
:10BA6000A4400020243C00202DE9F84F4D4EDFF883
:10BA70005481B1684046F9F7C7FC0027A8F81A704E
:10BA8000A8F81C70A8F81670A8F81870A8F81E700E
:10BA9000454D46492846F9F7B7FC0C236B83AB8329
:10BAA0001023EB822B830A23EB8017224FF0000335
:10BAB00062F304032E2161F34A1362F3CF236B81F7
:10BAC0000123AB81AB733A4C29462046F9F79CFC25
:10BAD000237867F3000323701B224FF0000362F307
:10BAE0000403372161F34A1362F3CF236380A380F9
:10BAF000A781FF2323720423E3802E4B1B6863621C
:10BB0000DFF8C49021464846F9F77EFCDFF8BCB068
:10BB100046225A21BBF80000FDF734FFA9F80200C5
:10BB2000A9F804005F220521BBF80000FDF72AFFF9
:10BB3000A9F82000DFF898A049465046F9F764FCC0
:10BB40003C225A21BBF80000FDF71CFFAAF80200B6
:10BB5000AAF80400AAF80C70174F21463846F9F7E6
:10BB600053FC19224FF0000362F30403332161F305
:10BB70004A1362F3CF237B80BB80104BC6F834316D
:10BB8000C6F82C810E4BC6F83031C6F83851C6F8CD
:10BB90003C41C6F84091C6F844A1C6F84871BDE8DA
:10BBA000F88F00BFA4400020243B0020A8170020ED
:10BBB000E43800201C310020A4350020243C002063
:10BBC00028180020E43600202440002020310020E6
:10BBD000E43E0020F8B5154E154CB1682046F9F743
:10BBE00013FC10236383A383E38223830C236385E5
:10BBF000104D21462846F9F707FC0F4F46225A21DF
:10BC00003888FDF7BFFE6880A8800023AB816B8277
:10BC10005F2205213888FDF7B5FE2884C6F84C411F
:10BC2000C6F85051054BC6F85431F8BDA440002069
:10BC300064320020E43C002020310020243C00201D
:10BC400038B5124C12492046F9F7DEFB1023638306
:10BC5000A383E38223830C2363850E4B1B686362FB
:10BC600023786FF3000323700B4D21462846F9F724
:10BC7000CBFB46225A21094B1888FDF783FE288406
:10BC8000074BC3F85841C3F85C5138BDA43B0020B2
:10BC9000A81700201C310020E43B002020310020A8
:10BCA000A44000202DE9F84F6D4F6E493846F9F752
:10BCB000ABFB46225A216C4B1888FDF763FE788057
:10BCC000B8800025FD80BD810526FE83674C65494F
:10BCD0002046F9F799FB19224FF0000362F30403A1
:10BCE000332161F34A1362F3CF236380A380E5809D
:10BCF0004FF0010BA4F80CB04FF0110A4FF0000305
:10BD00006AF30403222262F34A136AF3CF236381A6
:10BD100084F80EB04FF0FF0984F80F906682152268
:10BD20004FF0000362F304032A2161F34A1362F324
:10BD3000CF2323822575E5836583A583E58225834B
:10BD400006224FF0000362F304030C2666F34A1345
:10BD500062F3CF232384DFF8288145494046F9F771
:10BD600053FBA8F81660A8F81860424A1368C8F890
:10BD70002430414E3B493046F9F746FB17224FF03D
:10BD8000000362F304032E2161F34A1362F3CF230D
:10BD90007380B38086F80890F580A6F80CB04FF059
:10BDA00000036AF30403222161F34A136AF3CF23E9
:10BDB000738186F80EB086F80F9002224FF00003D0
:10BDC00062F30403042161F34A1362F3CF23338443
:10BDD000DFF8B0A026495046F9F716FB9AF8003074
:10BDE00065F300038AF80030224A1368CAF8243049
:10BDF00046225A211C4B1888FDF7C4FDAAF82000E2
:10BE0000DFF884B017495846F9F7FEFA55220F219A
:10BE1000154B1888FDF7B6FDABF80200ABF804002F
:10BE2000ABF80C508BF80890ABF806503C225A2126
:10BE30000D4B1888FDF7A6FDABF820000F4B5A6894
:10BE4000C3F86021C3F86471C3F86841C3F86C811A
:10BE5000C3F87061C3F874A1C3F878B1BDE8F88F76
:10BE6000243600202433002020310020A43200207A
:10BE7000A81700201C31002024390020A4400020F5
:10BE8000643B002064400020243F002038B50A4D68
:10BE90000A4CA9682046F9F7B7FA0023E38001238A
:10BEA000A38108236383A383E3822383044BC5F820
:10BEB0008831C5F88C4138BDA4400020E432002010
:10BEC000281800202DE9F047DFF804A13B4C51462B
:10BED0002046F9F799FA19224FF0000362F30403A0
:10BEE000332161F34A1362F3CF236380A3800026DA
:10BEF000E6800122A28117274FF0000367F30403B5
:10BF00004FF02E0969F34A1367F3CF236381A273BD
:10BF10004FF0FF0884F80F80E6836683A683E682ED
:10BF2000268306224FF0000362F304030C2161F321
:10BF30004A1362F3CF2323844FF0000362F3040318
:10BF400061F34A1362F3CF2323861D4D51462846E1
:10BF5000F9F75AFA4FF0000367F3040369F34A1341
:10BF600067F3CF236B80AB80AE8185F80880EE80CD
:10BF700002224FF0000362F30403042161F34A1329
:10BF800062F3CF232B844FF0000362F3040361F3C9
:10BF90004A1362F3CF232B860A4B9A68C3F8902189
:10BFA000094AC3F89421C3F89841084AC3F89C2170
:10BFB000C3F8A021C3F8A451BDE8F087A433002042
:10BFC00064390020A4400020243C0020A817002051
:10BFD0002433002008B50B4669B12A4A10802A4A4A
:10BFE00013602A4A0023692B07D8294942F8041B09
:10BFF00001339BB2F7E7274BEFE7FEF7EDFFFEF7C4
:10C00000FDFCFFF799F8FFF737F9FFF76FF9FEF737
:10C01000FBFCFFF797F9FFF7C9F9FFF7FDF9FFF709
:10C0200017FAFFF76BFAFFF791FAFEF7FBFCFFF741
:10C03000C7FAFEF7F1FCFFF7E9FAFFF75DFBFFF740
:10C04000C7FBFFF771FCFFF799FCFEF7F3FCFFF766
:10C05000D3FCFEF701FDFFF707FDFFF7BBFDFFF780
:10C06000EFFDFFF71FFEFEF707FDFFF70FFFFFF7DE
:10C0700029FF0648084BC0F8A831084BC0F8AC317E
:10C0800008BD00BF203100201C310020A44000204A
:10C09000243300202800002041AD000899AA0008A0
:10C0A0000C480D490D4A002302E0D458C450043313
:10C0B000C4188C42F9D30A4A0A4C002301E01360E9
:10C0C0000432A242FBD3F5F795F800F015F8F4F727
:10C0D0002BFF704700000020E80900207C67010862
:10C0E000E809002030430020FEE70000014B1868FB
:10C0F000704700BF3800002070B50D4E0D4D761B07
:10C10000B61006D0002455F8043B01349847A642E7
:10C11000F9D1094E094D06F0A9F8761BB61006D0E4
:10C12000002455F8043B01349847A642F9D170BD6C
:10C130007067010870670108786701087067010877
:10C14000F0B4860746D0541E002A3CD00346CAB23B
:10C1500001E0013C37D303F8012B9D07F9D1032CF3
:10C160002AD9CDB245EA05250F2C45EA054534D933
:10C17000A4F1100222F00F0C03F120071609674406
:10C1800003F1100242E9045542E902551032BA4265
:10C19000F8D1721C14F00C0F03EB021204F00F061E
:10C1A00013D0331F23F003030433134442F8045B1A
:10C1B0009342FBD106F003042CB1CAB21C4403F82D
:10C1C000012B9C42FBD1F0BC704734461346002C37
:10C1D000F3D1F8E714460346C1E71A462646E0E7DE
:10C1E0000FB400B5074983B004AB086853F8042BBB
:10C1F0008168019300F03AF903B05DF804EB04B0F4
:10C20000704700BF380000202DE9F043654D04461B
:10C21000D5F800900F4690461E4683B0B9F1000F46
:10C2200003D0D9F83830002B79D0B8F1020F06D0FE
:10C23000B8F1010F00F2A380002EC0F2A080636E5F
:10C24000D90752D52146484603F066F8216B41B123
:10C2500004F14003994202D0484603F059F9002303
:10C2600023630023B4F90C50A36163602B0665D4EB
:10C2700025F44A6525F00305B8F1020FA58164D0C5
:10C2800001AB6A462146484603F078FAA389184371
:10C29000A081002E30D0002F2FD0D9F83830002BBD
:10C2A00039D0009BC4E90476B342B4F90C3027605E
:10C2B0001CBF43F40063A381B8F1010F04BF43F036
:10C2C0000103A3819AB213F008032CD0D10754D5EF
:10C2D00000217642A661666EA16016F0010627D0A5
:10C2E0000026304603B0BDE8F083A3899A05A9D49F
:10C2F000A06D03F03FFAA5E7009E304603F0B6FAC2
:10C30000074600283ED0A38943F08003A381D9F8D3
:10C310003830002BC5D1484603F05AF8C1E74846EB
:10C3200003F056F881E7A360666E16F00106D7D1D8
:10C3300093051BD5304603B0BDE8F083484621691C
:10C3400003F0E6F8B4F90C5092E70026002301212F
:10C35000626E45F00205A360D70704F14303A5818F
:10C36000616123602361E5D4A805E3D4A06D03F0E7
:10C3700003FA304603B0BDE8F083A660D4E74FF07F
:10C38000FF36D7E7009DB54204D0284603F06EFA89
:10C39000074620B94FF0FF36B4F90C50D6E72E46C9
:10C3A000B1E700BF3800002020F0030110F00300C7
:10C3B000C0F1000051F8043B00F1040C4FEACC0C32
:10C3C0006FF000021CBF22FA0CF213434FF0010C75
:10C3D0004CEA0C2C4CEA0C4CA3EB0C0222EA0302B4
:10C3E00012EACC1204BF51F8043B0430F4D0C2F17D
:10C3F000000102EA0102B2FA82F2C2F11F0200EB6E
:10C40000D200704770B440EA0104A30722D1032A86
:10C4100020D90B460446194653F8046BA6F10135A2
:10C4200025EA060515F0803F15D1043A032A19467E
:10C4300044F8046BEFD84D1E52B1234615F8011F86
:10C44000561E03F8011B41B132461C46002AF4D1A6
:10C4500070BC704704464D1EEEE72244002EF7D014
:10C4600003F8011B9342FBD170BC70472DE9F04FDC
:10C47000D7B01C468B461746814603F073F9036814
:10C480000E9418461893FFF78FFF1790B9F1000F1D
:10C4900004D0D9F83830002B00F0EA81DBF86430A2
:10C4A00013F0010FBBF90C309AB202D19D0540F197
:10C4B000B58690040AD4DBF8642043F4005322F4D8
:10C4C0000051ABF80C309AB2CBF86410110740F170
:10C4D000BB80DBF81030002B00F0B68002F01A03AE
:10C4E0000A2B00F0BF80002300210022CDE92B336E
:10C4F000CDE91A33CDE91C33139319930A932DAB6D
:10C5000098462A933B78DA46CDE91412002B00F0C6
:10C5100060813C4604E014F8013F002B00F0B98034
:10C52000252BF8D1E51B40F0B7802378002B00F0D5
:10C53000508100230B938DF88B3007934FF0FF331E
:10C54000667804F1010B20212B2409930BF1010BD8
:10C55000A6F120035A2B00F2BB80DFE813F0EA02B9
:10C56000B900B900E302B900B900B900BF02B900CF
:10C57000B9006A005202B90033025E02B9005702E4
:10C580005B005B005B005B005B005B005B005B00D3
:10C590005B00B900B900B900B900B900B900B90031
:10C5A0004201B900C1019401420142014201B900B6
:10C5B000B900B900B900AF02B900B900FB01B90078
:10C5C000B900B900D501B9007802B900B900B707C0
:10C5D000B900B900B900B900B900B900B900B90093
:10C5E0004201B900C1019801420142014201A50284
:10C5F00098018D01B9009B02B9003A02FF0189023E
:10C600008D01B900D50172009207B900B9009607F3
:10C61000B90072000022A6F130031BF8016B02EB97
:10C62000820203EB4202A6F13003092BF5D90B92EB
:10C630008EE70E9B53F8042B002A0B920E93C0F248
:10C64000BE819BF8006081E75946484601F05EFDD7
:10C65000002841F09B83BBF80C2002F01A030A2B40
:10C660007FF441AFBBF90E30002BFFF63CAFDBF897
:10C670006430DE0702D4950541F1808123463A46B5
:10C680005946484601F0FEFC0A900A9857B0BDE8AA
:10C69000F08FE51B00F09D80DDE92B3201332A4449
:10C6A000072BC8E90075CDE92B3206DC08F1080834
:10C6B0000A9A23782A440A9238E7514648462AAA19
:10C6C00004F01EF8002841F00E840DF1B408EFE7E5
:10C6D000002E7ED0002301211A4608918DF8F460C7
:10C6E0008DF88B300D9309931293169310930C9140
:10C6F0003DAF079B13F0020302D008990231089165
:10C70000079911F084010F9105D10B9908980D1A22
:10C71000002D00F39C832C9C72B101202B9A0444C1
:10C7200002440DF18B01072ACDE92B24C8E9001042
:10C7300000F30B8408F108086BB102212B9B0C4419
:10C74000013323AA072BCDE92B34C8E9002100F3DC
:10C750000B8408F108080F9B802B00F07882099B5E
:10C760000C9A9D1A002D00F3B282079BDD0500F1A3
:10C7700019822B9B0C9A01331444072BC8E90072D1
:10C780002C942B9300F3D58308F10808079B5D07D1
:10C7900005D50B9B089A9D1A002D00F3F283DDE965
:10C7A0000A3208998A42ACBF9B185B180A93002C86
:10C7B00040F0C18200232B930D9B1BB148460D997D
:10C7C00002F0A6FE5F460DF1B4083B78002B7FF423
:10C7D000A0AE2C9BD346002B40F0FB8700232B936D
:10C7E000B7E20E9B073323F007031946F1E8022353
:10C7F000CDE91423DDE9143424F000441D46184625
:10C800000E914FF0FF322146B04BF4F711FB002898
:10C8100040F06F85284621464FF0FF32AB4BF4F7CE
:10C82000CFF8002840F06585DDE9140100220023DF
:10C83000F4F7BCF8002841F0E9809DF88B20032034
:10C840000021A34FA34B08900D91472EC8BF1F4650
:10C85000079C0C9024F08004079409911291169182
:10C860001091002A3FF445AF089B0133089340E73D
:10C87000484602F0ADFD11E6079B9BF8006043F0CF
:10C880002003079362E6079B43F010030793079B7F
:10C890009C0640F18E840E9B073323F00703194654
:10C8A000F1E8022314461D460E91002A73F100039D
:10C8B000C0F2F884099B0133079B00F0098323F041
:10C8C000800354EA0502089340F00383099A002A82
:10C8D00040F004830793002356AF09930C9353E170
:10C8E000002101240E9B0A4653F8040B0894CDE95D
:10C8F0000D138DF88B108DF8F4000991129116919B
:10C9000010910C943DAFF4E600250E9C8DF88B50F1
:10C9100054F8047B002F00F02386099A1346013354
:10C9200000F016872946384603F056FA0D90002885
:10C9300001F0A6812B460D9A0995D21B0C9222EA92
:10C94000E27208920E949DF88B200D931293169329
:10C95000109386E7079B43F010030793079B9A0603
:10C9600040F148840E9B073323F00703F3E80245A8
:10C970000E93079B23F480630893002300228DF815
:10C980008B20099A1146013100F0DF80089921F0CF
:10C990008001079154EA050140F0D580002A40F05B
:10C9A0003882002B97D1089B13F001030C9300F001
:10C9B000658430230DF257178DF85731E4E00B9B57
:10C9C0005B420B93079B9BF8006043F004030793C3
:10C9D000BCE5079B9D0600F17084079BDC0600F117
:10C9E0007B86079B580600F10687079B990540F157
:10C9F00073860E9B0A9953F8042B5F4611700E93B1
:10CA0000E3E69BF800608DF88B409FE5079B9BF861
:10CA1000006043F08003079398E55A4612F8016BD3
:10CA20002A2E01F00783A6F13003092B934698BF05
:10CA3000002201F26F811BF8016B02EB820203EB13
:10CA40004202A6F13003092BF5D9099280E5079B34
:10CA500043F010030893089B9D0640F1BB830E9B97
:10CA6000073323F00703F3E802450E93012385E71C
:10CA700047F630020E9B079953F8044B41F0020130
:10CA80000E93154B00251993782602230891ADF8D3
:10CA90008C2073E79BF80060079B6C2E00F04185AB
:10CAA00043F01003079351E59BF80060079B682E45
:10CAB00000F04D8543F04003079347E5079B9BF843
:10CAC000006043F00803079340E500BFFFFFEF7FDE
:10CAD000746301087863010884630108484602F022
:10CAE00041FE436818461C93FFF75EFC0346484628
:10CAF0001D461D9302F036FE826820211A92002DF9
:10CB00003FF49FAD1A9B002B3FF49BAD1A9B1B7803
:10CB1000002B3FF496AD079B9BF8006043F48063C5
:10CB2000079313E5079B9BF8006043F0010307930D
:10CB30000CE59DF88B30002B7FF483AD9BF80060F3
:10CB40008DF88B1002E5079A0892012B00F0C18145
:10CB5000022B00F0668156AFE20842EA4572E9080E
:10CB600004F007030D461446303354EA05013A46F3
:10CB700007F8013DF0D108990846C00700F1D382BB
:10CB800056ABDB1B07910C93002309990D9312936D
:10CB9000169310930C9B9DF88B208B42B8BF0B46CD
:10CBA00008935EE6652E40F3E580DDE9140100227E
:10CBB0000023F3F7F1FE002800F01B8201212B9BDC
:10CBC000CB4A0B440C44072BCDE92B34C8E9002198
:10CBD00000F3678508F10808249B139A934280F2BA
:10CBE00018832B9B179A013318991444072BC8E913
:10CBF00000122C942B9300F39D8408F10808139BDA
:10CC00005D1E002D7FF7C2AD102D40F35785B94F43
:10CC100010262B9B0F9705E008F10808103D102DFA
:10CC200040F34F8501331034072BCDE92B34C8E98D
:10CC30000076F1DD514648462AAA03F061FD00283E
:10CC400040F08180DDE92B340DF1B408E6E70B9B61
:10CC5000089A9D1A002D7FF782AD102D41F3A78011
:10CC6000A4482146102304462B9A0F9004E0103D5F
:10CC7000102D08F1080817DD01321031072ACDE91F
:10CC80002B21C8E90043F2DD514648462AAA03F0A9
:10CC900037FD002857D1DDE92B21103D102D4FF035
:10CCA00010030DF1B408E7DC0C4601320F9B2C4455
:10CCB000072ACDE92B24C8E9003500F30A84099B33
:10CCC0000C9A08F108089D1A002D7FF74EAD102D23
:10CCD00040F37A8587482146102304462B9A0F900B
:10CCE00004E0103D102D08F1080816DD0132103166
:10CCF000072ACDE92B21C8E90043F2DD5146484619
:10CD00002AAA03F0FDFCF0B9DDE92B21103D102D1E
:10CD10004FF010030DF1B408E8DC0C4601320F9B14
:10CD20002C44072ACDE92B24C8E9003500F33482CE
:10CD300008F1080819E5514648462AAA03F0E0FC24
:10CD400000283FF437ADD3460D9911B1484602F0A3
:10CD5000DFFBDBF8643013F0010FBBF80C3002D1BD
:10CD6000980540F17784590601F11C800A9857B064
:10CD7000BDE8F08F139B012B40F3B78101232B9D5E
:10CD80001C441D44072D2C94C8F800702B95C8F83E
:10CD9000043000F3FF8308F10808179B0135189A47
:10CDA0001C44072DCDE92B54C8E9002300F300846F
:10CDB00008F108080023DDE914010022F3F7ECFD77
:10CDC000139B002840F0BD81013B013501371C4415
:10CDD000072DCDE92B54C8F80070C8F8043000F3D3
:10CDE000938308F108081B9A0135144426AB072DDC
:10CDF000CDE92B54C8E900327FF7C6AC514648460E
:10CE00002AAA03F07DFC00289DD12C9C0DF1B408CA
:10CE1000BCE4012B00F0D087022B079B08937FF422
:10CE20009AAE199856AF230943EA0573290904F00D
:10CE30000F020D461C46835C07F8013D54EA0503CA
:10CE4000F1D1089B079356ABDB1B0C939CE6102D8E
:10CE500040F33887DDE92B211E930B463946102419
:10CE600037465646CA46894604E0103D102D08F163
:10CE7000080817DD013220491033072ACDE92B239A
:10CE8000C8E90014F1DD314650462AAA03F038FC07
:10CE9000002840F0F883DDE92B23103D102D0DF123
:10CEA000B408E7DC4846D146B2463E460746194636
:10CEB0001E9B6C1801321049072ACDE92B24C8E9C2
:10CEC000001500F3CF839DF88B2008F1080823E4B8
:10CED0000893002D08BF0A2C80F07883089B30341B
:10CEE000079301238DF857410C930DF257174BE62A
:10CEF000B82A0108C4630108B46301082B9B179981
:10CF0000013318980C44072BC8E900012C942B938B
:10CF100000F3258508F10808002AC0F2FF86139A5D
:10CF200001331444072BCDE92B34C8E900727FF795
:10CF30002BAC514648462AAA03F0E2FB00287FF4B6
:10CF400002AF2C9C0DF1B40820E4514648462AAAB1
:10CF50001E9303F0D5FB00287FF4F5AE2C9C1E9B9E
:10CF60000DF1B408FFF7E8BB514648462AAA03F082
:10CF7000C7FB00287FF4E7AE2C9C0DF1B408FFF747
:10CF8000EABB102D40F3FF8610262B9B04E0103DDA
:10CF9000102D08F1080817DD0133B94A1034072BAA
:10CFA000CDE92B34C8E90026F1DD514648462AAACE
:10CFB00003F0A6FB00287FF4C6AEDDE92B34103D5C
:10CFC000102D0DF1B408E7DC0133AD4A2C44072BDA
:10CFD000CDE92B34C8E900257FF7E1AB514648463F
:10CFE0002AAA03F08DFB00287FF4ADAE2C9CFFF73E
:10CFF000D6BB249A002A40F31A81109B139A9342BD
:10D00000A8BF1346002B1D460BDD2B9B2C44013380
:10D01000072BC8E900752C942B9300F3DB8508F1EE
:10D020000808109B002DA8BF5B1B002B1D4600F3BA
:10D030006783109B3B441E46079B590500F1018501
:10D04000249B139A934203DB079AD20740F1CB83C8
:10D050002B9A1799013218980C44072AC8E9000145
:10D060002C942B9200F3C38508F10808139ABD187D
:10D07000AD1BD31A9D42A8BF1D46002D0BDD2B9A78
:10D080002C440132072AC8E900652C942B9200F346
:10D090001D8608F10808002DB4BF1D465D1B002D3C
:10D0A0007FF774AB102D40F30983764F10262B9B2E
:10D0B0000F9705E008F10808103D102D40F301839B
:10D0C00001331034072BCDE92B34C8E90076F1DDAC
:10D0D000514648462AAA03F013FB00287FF433AEDA
:10D0E000DDE92B340DF1B408E6E7079BDE073FF5D9
:10D0F00045AE01232B9D1C441D44072D2C94C8F8DC
:10D1000000702B95C8F804307FF76BAE5146484647
:10D110002AAA03F0F5FA00287FF415AEDDE92B54B6
:10D120000DF1B4085FE6302B3FF48BAE3023023AAA
:10D1300007F8013C089956AB9B1A174607910C93C8
:10D1400022E55E1E002E7FF74EAE102E40F34F8775
:10D150004C4BCDF824B01027D3460F93CA469946BE
:10D1600005E008F10808103E102E40F3BF8101359C
:10D170001034072DCDE92B54C8E90097F1DD59464D
:10D1800050462AAA03F0BCFA002840F0EC85DDE9FD
:10D190002B540DF1B408E6E7514648462AAA03F09D
:10D1A000AFFA00287FF4CFAD2C9C0DF1B408FFF747
:10D1B000DCBA079BD80669D4079B590640F1F68272
:10D1C0000E9B53F8044B24B2E5170E9322462B46D0
:10D1D000FFF76BBB089BDC067CD4089B580640F12C
:10D1E000CA820E9A012352F8044B00250E92A4B273
:10D1F000FFF7C4BB079BDB0674D4079B5F0640F1B7
:10D20000C9820E9B002553F8044B0E93A4B2FFF77E
:10D21000B0BB079BD8077FF5B9AAE2E4DBF858005A
:10D2200002F0A8FABBF90C309AB2FFF742B901201C
:10D230002B9B154903440444072BCDE92B34C8E943
:10D24000001000F3AC8408F10808002A7FF456AE01
:10D25000079B139A03F0010313433FF497AA2B9BF8
:10D26000179A013318991444072BC8E900122C941B
:10D270002B9300F3748308F1080850E656AF83E45B
:10D28000B4630108C4630108B82A01080E9B53F86F
:10D29000044B2246E5170E932B46002A73F1000338
:10D2A000BFF608AB2D23079A64428DF88B3065EBEF
:10D2B000450501230892FFF764BB0E9B5F4653F8B8
:10D2C000041B0E930A9BDD171A462B46C1E9002367
:10D2D000FFF77BBA0E9A012352F8044B00250E92F9
:10D2E000FFF74CBB0E9B002553F8044B0E93FFF742
:10D2F00040BBDDE914010B460246F3F799FD0146F8
:10D30000002840F0DD85612E00F08285412E00F07E
:10D310007B82099B26F020055A1C089500F0CC85DD
:10D32000472D00F0A385DDE91401079B43F48073CA
:10D3300012930B46002BC0F2398600220F931E92E7
:10D340000D920C90462D0C9A00F07A84452D4FF0EA
:10D3500002000F9B40F05984099900904C1C28A9A9
:10D3600025A8049124A9CDE902100194484600F0B3
:10D37000D7FF07460444129B079D07930022002312
:10D380000C980F99F3F708FB002800F02B83234635
:10D39000DB1B1393089B472B00F0F682089B462B60
:10D3A00000F07A84249B1093109B089A013B412A39
:10D3B000249300F0F5850021F2B2002B8DF898201F
:10D3C000B6BF2D222B22109B8DF89920B8BFC3F138
:10D3D0000103092B40F3D5850DF1A70E72469C463B
:10D3E000C24C6046114684FB0C234FEAEC72C2EB40
:10D3F000A30202EB8203ACEB430330336328944671
:10D4000001F8013C01F1FF32EBDC63463033D8B266
:10D410008B1E9E4502F8010C40F228860DF19A03FE
:10D4200001E012F8010B964503F8010BF9D10DF15B
:10D43000A9030DF19A025B1A134426AA9B1A1B93A7
:10D44000139B1B9A012B1A440C9240F3B2850C9B40
:10D45000179A13440C9300231293169310930C9B6A
:10D4600025F4806545F4807223EAE37307920893FC
:10D470001E9B002B40F0AF829DF88B200993FFF795
:10D48000F0B9079B0893FFF7E6BA994B1993079BEE
:10D49000990675D50E9B073323F00703F3E8024581
:10D4A0000E93079AD7070AD554EA050307D030230D
:10D4B00042F002028DF88D6007928DF88C30079A49
:10D4C000022322F480620892FFF758BA894B19931D
:10D4D000DDE7514648462AAA03F012F900287FF4F6
:10D4E00032AC2C9C0DF1B408FFF739B9D146DA46BD
:10D4F000DDF824B001350F9B3444072DCDE92B54C2
:10D50000C8E900367FF76DAC514648462AAA03F0B9
:10D51000F7F800287FF417ACDDE92B540DF1B408BF
:10D5200061E443F020039BF8016007930BF1010BCA
:10D53000FFF70CB8514648462AAA03F0E1F8002844
:10D540007FF401AC2C9C0DF1B408FFF758BB43F4F9
:10D5500000739BF8016007930BF1010BFEF7F6BF18
:10D56000099B3A46062B28BF062309971297169760
:10D5700010970D970893604F0E940C93FFF771B9B5
:10D58000079BDA0640F183800E9B002553F8044B7D
:10D590000E9386E7514648462AAA03F0B1F80028C0
:10D5A0007FF4D1ABDDE92B540DF1B408FFF7F5BBE7
:10D5B000514648462AAA03F0A3F800287FF4C3ABDB
:10D5C000DDE92B540DF1B408FFF7F4BB0022089BF2
:10D5D000CDF81CB003F480630C96CDF834A09346CC
:10D5E000CA461E46C14656AFDDF868800BE00A22E7
:10D5F000002320462946F3F729FA002D08BF0A2CFC
:10D600001BD304460D460A22002320462946F3F781
:10D610001DFA303207F8012C0BF1010B013F002EEF
:10D62000E5D098F800309B45E1D1BBF1FF0FDED08B
:10D63000002D08BF0A2C80F0EF81CDF86880CDF86E
:10D640004CB0C8460C9ED146DDF81CB0DDF834A0C5
:10D65000FFF7F7BBDBF8580002F08EF8BBF80C3090
:10D66000FFF781BB514648462AAA1E9303F048F8AB
:10D6700000287FF468AB9DF88B202C9C1E9B0DF13D
:10D68000B408FFF749B8D146B346FFF75DBB079B27
:10D690005B0665D50E9B002553F8044B0E93A4B290
:10D6A000FFE6514648462AAA03F02AF800287FF4EC
:10D6B0004AAB2C9C0DF1B408FFF78EBA0F4A2B9B96
:10D6C0000F9201330F9A2C44072BCDE92B34C8E974
:10D6D00000257FF759A82CE40E9B0A9953F8042BD8
:10D6E0005F4611600E93FFF770B800BF676666660D
:10D6F0008463010898630108AC630108C4630108EE
:10D70000102B40F393845146BC4ACA460997102611
:10D71000174689462B9B0F9205E008F10808103D3B
:10D72000102D40F32A8201331034072BCDE92B341E
:10D73000C8E90076F1DD494650462AAA02F0E0FF2A
:10D74000002840F01383DDE92B340DF1B408E6E73F
:10D750003846FEF729FE2B4602460995FFF7EEB83C
:10D76000079B002513F4007F0E9B53F8044B0E9388
:10D7700018BFE4B295E60E9A089B52F8044B13F4D6
:10D78000007F4FF000054FF001030E9218BFE4B286
:10D79000FFF7F4B8079B002513F4007F0E9B53F8A6
:10D7A000044B0E9318BFE4B2FFF7E3B8079B13F4E2
:10D7B000007F0E9B53F8044B18BF64B2E5170E931D
:10D7C00022462B46FFF771B88C4B2B9A0F93FFF72D
:10D7D000A5BA484651462AAA02F092FF00283EF414
:10D7E000FDAFFFF7B6BA139ABD18AD1BD31A9D4211
:10D7F000A8BF1D464FE40E9B0A9953F8042B5F46C1
:10D8000011800E93FEF7E1BF30238DF88C30582342
:10D810008DF88D30079B43F00204099B632B00F3C6
:10D82000ED8200233DAF0D93079BDDE9141243F415
:10D83000817312931346002B26F020050794C0F243
:10D8400055820F93002308950C911E93612E00F0D2
:10D850007B83412E7FF476AD24AA0C980F9902F0B9
:10D8600083FE00224FF07F53F2F72EFE04460D4652
:10D8700000220023CDE91045F3F78EF808B101230B
:10D8800024935F4B0C93099BCDF83CB0013B13965E
:10D89000CDF87C90CDF880A02197BA46DDE91067DD
:10D8A0009946DDF830B0CDF8588006E0002200231C
:10D8B000F3F772F809F1FF39E8B90022514B30460D
:10D8C0003946F2F701FE0D460446F3F797F8804615
:10D8D000F2F790FD0B46024629462046F2F73CFC43
:10D8E0001BF80830B9F1FF3F554606460F464C4637
:10D8F0000AF8013BDAD1304639460022424BDDF8C6
:10D900003CB0139ECDF83CA0CDF84C80CDE9100181
:10D91000DDE91F9ADDF85880219FF3F765F80028AC
:10D9200040F05082DDE910010022374BF3F734F864
:10D9300018B1139BDB0700F14582002C08DB302275
:10D940000F99631C0B4401F8012B8B42FBD10F9103
:10D950000F9B079DDB1B1393129B07931AE5514600
:10D9600048462AAA02F0CCFE00287FF4ECA9DDE9A3
:10D970002B34249A0DF1B408FFF7CEBADBF8580027
:10D9800001F0FAFEFEF77ABE249BD81C109302DB4E
:10D99000099A934204DD023E26F02003089303E532
:10D9A000109B13998B42C0F2AB81EA0740F1E482ED
:10D9B000179A13440C936E0540F1E182109B002BE3
:10D9C00000F3948267260C9B23EAE37308930023F9
:10D9D000129316934CE52D2200238DF88B2009938A
:10D9E000FEF742BF289BA342BFF4D2AC30215A1CA1
:10D9F00028921970289B9C42F9D8C9E4C463010895
:10DA000098630108000030400000E03F2D231A46D3
:10DA10008DF88B30FEF713BF1D9B1C99FF1A1A4619
:10DA20003846FEF7EFFC98F801300BB108F1010819
:10DA30000A22002320462946F3F708F84FF0000B8E
:10DA4000DFE5139B4246DDF85880FB180993CDF8BB
:10DA500030B00F972046DDF874B01A9F129BB8F1D2
:10DA6000000F2DD0002B6DD1013F08F1FF382B9B0B
:10DA70001C9901335844072BC2E9001B2C902B93AF
:10DA800064DC083209993B788D1B9D42A8BF1D4676
:10DA9000002D0ADD2B9B28440133072BC2E90065CA
:10DAA0002C902B935DDC3B780832002DB4BF1D46D3
:10DAB0005D1B002D15DC1E44129BB8F1000FD1D167
:10DAC000002B3FD1139B1A970F9F9046FB189E4245
:10DAD000324628BF1A4604461646DDF830B0FFF736
:10DAE000AFBA102D40F36A822B9910240B4604E044
:10DAF000103D102D02F1080216DD0133B04910303F
:10DB0000072BCDE92B30C2E90014F1DD5146484620
:10DB10002AAA02F0F5FD00287FF415A9DDE92B30D3
:10DB2000103D102D2DAAE8DC19464B1CA4492844B1
:10DB3000072BCDE92B30C2E900153EDC3B780832DB
:10DB40001E44B9E7129B013B129390E751464846A9
:10DB50002AAA02F0D5FD00287FF4F5A82C982DAA5A
:10DB600090E7514648462AAA02F0CAFD00287FF4F1
:10DB7000EAA83B782C982DAA97E74A46D1469246C8
:10DB8000099F01330F9A2C44072BCDE92B34C8E9A8
:10DB9000002500F3428108F10808FFF74ABA514610
:10DBA00048462AAA02F0ACFD00287FF4CCA8249AAB
:10DBB0002C9C0DF1B408FFF748BB514648462AAAF1
:10DBC00002F09EFD00287FF4BEA83B782C982DAA79
:10DBD0001E4471E7514648462AAA02F091FD0028EA
:10DBE0007FF4B1A82C9C0DF1B408FFF71ABA514686
:10DBF00048462AAA02F084FD00287FF4A4A8249BAA
:10DC00002C9C0DF1B408FFF731BA099C28A9CDE985
:10DC10000004049125A824A9CDE90210484600F08B
:10DC20007FFB472D07461AD1079D2B46DB0700F1E6
:10DC3000A180129A289B079247220892FFF7A8BB5F
:10DC40000320099C28A9CDE90004049125A824A952
:10DC5000CDE902100F9B484600F062FB0746099B86
:10DC6000462D07EB03047FF486AB3B78302B00F0A6
:10DC7000B081249B129A079D1C440792FFF77EBB3C
:10DC8000099B9DF88B2008930C9309900E94129099
:10DC900016901090FEF7E5BD249A002A109240F3EA
:10DCA000AF81099905F001030B4340F047816626D7
:10DCB000109B0C936A0500F11A810C9B23EAE37315
:10DCC000089384E6DDE92B21FFF7F3B85146484677
:10DCD0002AAA02F015FD00287FF435A8249B139A88
:10DCE0002C9C0DF1B408D31AFFF7D5B908952D2354
:10DCF000DDE914121E9302F100430C910F93A5E588
:10DD0000139B179A9A18109B0C92002B40F3588182
:10DD10006726CFE700230993FEF71ABC554210325D
:10DD200080F2A1815146264ACA4609971026174615
:10DD300089460F9204E008F10808103D102D79DDA6
:10DD400001331034072BCDE92B34C8E90076F2DD1E
:10DD5000494650462AAA02F0D3FC38B9DDE92B34F3
:10DD60000DF1B408E9E7D146FEF7EEBFCB46D14648
:10DD7000FEF7EABF099B079DFC18129B07934723F8
:10DD80000893FFF7FBBA2B9BFFF71EB9DBF8643053
:10DD9000DB0707D4BBF80C309F0503D4DBF8580031
:10DDA00001F0EAFC4FF0FF330A93FEF7DFBF044BAC
:10DDB0002B9A0F93FEF779BF079B0893FFF78EB856
:10DDC000C46301080F9B0C99289513F8012CC97B9B
:10DDD0008A4240F02981302003F8010C289B5A1E0A
:10DDE000289213F8012C9142F6D0392A0BBF0C9AD5
:10DDF0000132927AD2B203F8012CA9E54846591CA7
:10DE000001F03CFD0746002800F024810D900BE551
:10DE100030238DF88C307823FAE4514648462AAAFC
:10DE200002F06EFC00287EF48EAF2C9C0DF1B4083D
:10DE3000FFF7FFB84A46D1469246099F01330F9A31
:10DE40002C44072BCDE92B34C8E900257FF713AA12
:10DE5000514648462AAA02F053FC00287EF473AFCC
:10DE6000DDE92B340DF1B408FFF759B8002B08BFDA
:10DE700001230993079B43F480731293159B002B96
:10DE80000C93C0F2BB800224099D28A825AA24ABCC
:10DE9000CDE90320CDE90045DDE914450293224692
:10DEA0002B4648460D9100F03BFA0C9B07460F931A
:10DEB0000D9B0C941E93B7E606230993FFF733BA24
:10DEC000159B0320002BB8BF2D234FF00001BABFD4
:10DED0001A468DF88B309DF88B20664F664B089064
:10DEE0000D91FEF7B2BCD346FEF733BF67261A99F1
:10DEF0000B78FF2B00F0AA800024109A204603E044
:10DF000001300131FF2B08D0934206DAD21A4B7848
:10DF1000002BF5D10B780134F4E71A91109216908A
:10DF20001294129A169B0C9913441D9A02FB031328
:10DF30000C9323EAE3730893FFF79ABA179B6626BC
:10DF4000D31819440C91B5E624AA0C980F9902F045
:10DF50000BFB00224FF07F53F2F7B6FA04460D4652
:10DF600000220023CDE91045F2F716FD08B1012388
:10DF70002493424B0C9386E4109B0C931BE567267D
:10DF80009BE6002937D130228DF89A200DF19B02B3
:10DF9000303302F8013B26ABD31A1B93FFF750BA7C
:10DFA00006F10F020121D2B2FFF707BA00230D9349
:10DFB0009DE6E9077FF54FAAFFF749BA2B99B4E52B
:10DFC000C3F101031A4422EAE27367260C92089314
:10DFD000FDE4002200230C980F99F2F7DDFC0028E5
:10DFE0007FF447AE099BC3F10103249342E6244B1F
:10DFF0000F93FFF77FBA0DF19A02C9E70D9076E60D
:10E00000099A05F0010513462B4304D10123662626
:10E0100008930C93DBE4179B662601331A4422EA2B
:10E02000E2730C920893D2E40F9BDEE6144A2B9B1A
:10E030000F92A6E50E9B9BF8016053F8040B9346E4
:10E0400040EAE07009900E93FEF780BA0023129325
:10E05000169366E7BAF80C30D34643F04003AAF8AB
:10E060000C30FEF776BE064A0F92E7E602231B93BA
:10E07000FFF7E6B97C630108806301088463010847
:10E08000C4630108F0B50C464FF4806C4FF0000EED
:10E09000154606461F46636EADF26C4DE2898989CE
:10E0A0001993E369ADF80E20626A21F0020107932B
:10E0B00016A81AABADF80C10CDF818E00992009331
:10E0C0000493CDF808C0CDF814C001F04FFB2A46E8
:10E0D0003B4669463046FEF7C9F9051E07DB304668
:10E0E000694601F019F9002818BF4FF0FF35BDF857
:10E0F0000C305B0603D5A38943F04003A381169837
:10E1000001F036FB28460DF26C4DF0BD38B5324BB0
:10E11000054618680C4610B1836B002B3CD0B4F94F
:10E120000C3018079AB20CD52169A9B112F0010080
:10E1300022D000256069A5604042A06111B3002093
:10E1400038BDD1063FD5520729D4216943F00803D1
:10E15000A3819AB20029E9D102F42070B0F5007FC2
:10E16000E4D02846214601F037FBB4F90C30216990
:10E170009AB212F00100DCD1950758BF6069A06027
:10E180000029DCD1120658BF0846D9D543F0400318
:10E190004FF0FF30A38138BD01F01AF9BFE7216BC2
:10E1A00051B104F14002914204D0284601F0B0F987
:10E1B000B4F90C30002222630022216923F02403E9
:10E1C000C4E90012C2E7092243F040032A604FF07D
:10E1D000FF30A38138BD00BF38000020024B13B1CF
:10E1E000024800F005B870470000000045F4000840
:10E1F000002301461A46184603F07CB92DE9F04F7A
:10E2000003690D6983B0AB42C0F28480013D01F126
:10E21000140600F1140956F8253059F82520013369
:10E220008E46A90000919A4209EB85018246B2FB15
:10E23000F3F706EB8508019137D30022B446144664
:10E2400048465CF8043B01681FFA83FB07FB0B227E
:10E250001B0C4FEA124B07FB03BB93B2E31A8AB2C3
:10E260001FFA8BF41344C4EB114404EB23449BB218
:10E2700043EA0443E04540F8043B4FEA24444FEAB4
:10E280001B42DED2009B59F8033073B9019B043B5B
:10E29000994504D307E0994505F1FF3503D253F8BA
:10E2A0000429002AF7D0CAF810507146504602F0EF
:10E2B00033F800282ADB48460023013756F8041BB0
:10E2C00004688AB29A1A0B0CA1B20A44C3EB144335
:10E2D00003EB224392B242EA0342B04540F8042BDA
:10E2E0004FEA2343EAD259F8252009EB85036AB99E
:10E2F000043B994504D307E0994505F1FF3503D266
:10E3000053F80429002AF7D0CAF81050384603B051
:10E31000BDE8F08F002003B0BDE8F08F00000000E2
:10E320002DE9F04F16461F46016C9BB00446CDE91F
:10E330000467279D41B10123426C9340C1E9012349
:10E3400001F0BCFD00232364B7F10009B4BF012331
:10E3500000232B60764BBCBF29F00049CDF8149008
:10E3600033EA090300F0AB80DDE9042310461946C7
:10E3700000220023CDE90801F2F70EFB804670B1C0
:10E380000123269A1360289B002B00F0C282694863
:10E390001860431E039303981BB0BDE8F08F18AAC2
:10E3A00019ABCDE90032DDE90823204602F07AF806
:10E3B0005FEA1955824640F09880DDE918854544AA
:10E3C00005F23240202840F39083C0F1400305F26B
:10E3D000124009FA03F926FA00F049EA0000F1F7C1
:10E3E000F9FF0122013D0F92A1F1F8710022524B79
:10E3F000F1F7B2FE48A3D3E90023F2F765F848A38A
:10E40000D3E90023F1F7AAFE064628460F46F1F7A6
:10E41000F1FF45A3D3E90023F2F756F802460B4675
:10E4200030463946F1F79AFE06460F46F2F7E6FA0D
:10E4300000228346002330463946F2F7B7FA002817
:10E4400040F05A82BBF1160F00F24882DDE9080164
:10E450003A4B03EBCB03D3E90023F2F7A7FA0028EA
:10E4600072D00023A8EB05050E936B1E0BF1FF3B4A
:10E47000069300F13B8200230B93BBF1000F6BDA94
:10E480000B9BCDF81CB0A3EB0B030B93CBF100035C
:10E490000D93249B4FF0000B092B66D8052B40F3FE
:10E4A00022830025043B2493249B023B032B00F290
:10E4B0006E86DFE813F03B0438042F04120442F2A6
:10E4C0000F73269AC9F31309136059EA06031CD186
:10E4D000289B002B00F05786194B03930833289A8A
:10E4E000039813601BB0BDE8F08FDDE90812C2F39A
:10E4F0001303084643F07F51CDF83C80A5F2FF3569
:10E50000DDF8608041F4401170E7289B002B40F05B
:10E51000C8830C4B03933EE761436F63A787D23FE9
:10E52000B3C8608B288AC63FFB799F501344D33F02
:10E530000000F07FB92A01080000F83F20650108BB
:10E54000D8630108D4630108A8EB05056B1E069388
:10E5500000F1A9840E900B90069B5B44CDE9063B2D
:10E5600000230D93249B092B98D900230125249384
:10E5700025934FF0FF330C950A9300210A9B6164A9
:10E580001293204601F074FC0390002800F00786E7
:10E59000039B23640A9B0E2B00F2E980002D00F000
:10E5A000E6800799002940F35284B54B01F00F0231
:10E5B00003EBC203C8054FEA2115D3E9006740F118
:10E5C000EE83DDE90801AF4B4FF00309D3E90823DF
:10E5D000F2F7A4F8CDE9100105F00F058DB1DFF8D1
:10E5E000A482E90709D5D8E9002330463946F1F776
:10E5F0006BFF06460F4609F101096D1008F1080886
:10E60000EFD1DDE9100132463B46F2F787F80646C6
:10E610000F460E9B43B10022304639469A4BF2F723
:10E62000C5F9002840F03B854846F1F7E3FE324645
:10E630003B46F1F749FF954B0022F1F78FFD0A9B0E
:10E640008046A1F15079002B00F0CE83079B1393F5
:10E650000A9B10930C9B002B00F0B784109A884BF8
:10E66000002003EBC20353E902238949F2F756F86D
:10E6700042464B46F1F770FD02460B46304639469E
:10E68000CDE91423F2F7BAF98046F1F7B3FE02465A
:10E690000B4630463946F1F75FFD039D08F1300324
:10E6A00006460F46024605F8013B0B46DDE914011C
:10E6B000F2F79AF9002840F03B85CDE916ABDDE989
:10E6C00014ABDDF840804FF0000910942AE009F106
:10E6D0000109C14548DA5046594600226D4BF1F711
:10E6E000F3FE00226B4B82468B4630463946F1F7EB
:10E6F000EBFE0F460646F2F781F90446F1F77AFE83
:10E7000002460B4630463946F1F726FD3034524674
:10E710005B4605F8014B06460F46F2F747F900281D
:10E7200040F0038532463B4600205749F1F714FD7F
:10E7300052465B46F2F73AF90028C8D0139BDDF841
:10E7400058A0109C039A079302E0954200F0D284EF
:10E75000A94615F8013D392BF7D00133DBB22B70F8
:10E76000079B01330793A0E1109CDDE916AB199BD1
:10E77000002BC0F29380079A0E2A00F38F80404B43
:10E7800003EBC203D3E90023CDE90423259B002B2F
:10E790001ADA0A9B002B17DC40F03F83DDE9040105
:10E7A00000223D4BF1F790FE02460B46DDE90801E1
:10E7B000F2F706F9DDF828804546002800F0CD8202
:10E7C000259B039FDE43D0E2DDE90467DDE9080114
:10E7D00032463B46F1F7A2FFF2F710F98046F1F717
:10E7E00009FE32463B46F1F76FFE0B460246DDE975
:10E7F0000801F1F7B1FC039D08F1300305F8013B76
:10E800000A9B012B00F07F83CDF818A04FF001097F
:10E810009B46AA4608941DE032463B4620462946C0
:10E82000F1F77CFFF2F7EAF88046F1F7E3FD3246B4
:10E830003B46F1F749FE09F101090B46024629461C
:10E840002046F1F789FC08F13003CB450AF8013B7B
:10E8500000F0558300220F4BF1F736FE0022002313
:10E8600004460D46F2F798F80028D5D05546089C86
:10E87000DDF818A0079BA9460133079315E100BFF7
:10E8800020650108F86401080000F03F00001C400A
:10E890000000E03F00002440000014400C9A002AD1
:10E8A0003DD0249A012A40F3BC820A9B5F1E0D9B37
:10E8B000BB42C0F26E82DF1B0A9B002BC0F2548366
:10E8C000069A11460B9A194416461A4406910B9261
:10E8D0000121204601F09AFB054623E00123A8EB25
:10E8E00005050E936B1E06937FF5C5ADC5F10103BB
:10E8F0000B9300230693C0E55846F1F77BFD3246A3
:10E900003B46F2F749F800287FF49CAD0BF1FF3B42
:10E9100098E5C74B039303981BB0BDE8F08F0D9F9C
:10E92000DDE90B65002E0CDD069A002A09DDB242F6
:10E930001346A8BF33460B99F61AC91AD31A0B917E
:10E9400006930D9BD3B10C9B002B00F0A381002FED
:10E9500010DD29463A46204601F01EFC524601468B
:10E960000546204601F068FB0346514620469A467C
:10E9700001F0A4FA0D9BDA1B40F08D8101212046A5
:10E9800001F044FBBBF1000F804600F3B380249BF1
:10E99000012B40F38A814FF000090120BBF1000FE9
:10E9A00040F0B480069A104410F01F0000F09280EE
:10E9B000C0F12003042B40F3F9830B9BC0F11C0032
:10E9C000034402440B93064406920B9B002B05DD87
:10E9D00051461A46204601F02BFC8246069B002B2E
:10E9E00005DD41461A46204601F022FC80460E9B7A
:10E9F000002B40F035810A9B002B40F31B810C9BC0
:10EA0000002B40F09A80079B013307930126039F58
:10EA1000DDF8289007E0514600230A22204601F045
:10EA200057FA8246013641465046FFF7E7FB4E450E
:10EA300000F1300307F8013BEDDB0A9A0026002ABB
:10EA4000CCBF93464FF0010B039A934451460122E9
:10EA50002046049301F0ECFB4146824601F05CFC49
:10EA6000002840F3A8811BF8013C039A0BF1FF3BFF
:10EA700004E05A4500F0E4811BF8013D392B0BF10D
:10EA80000109F6D001338BF800304146204601F0F1
:10EA900015FA55B12EB1AE4203D03146204601F0F1
:10EAA0000DFA2946204601F009FA5146204601F0A8
:10EAB00005FA002389F80030269B1A46079B13604D
:10EAC000289B002B3FF467AC0398C3F800901BB061
:10EAD000BDE8F08F1C200B9B064403440B93069B60
:10EAE0000344069371E70125DEE4C0F1200006FA35
:10EAF00000F074E401465A46204601F04DFB249B89
:10EB00008046012B40F3D1814FF00009D8F8103036
:10EB100008EB8303186901F029FAC0F1200041E7EE
:10EB2000294600230A22204601F0D2F9129B05460D
:10EB3000002B40F3158307970A93002E00F32281E0
:10EB4000B9F1000F40F0F9812F460399049B0E465E
:10EB500003F001024B1E24990C920A430B920A9A6D
:10EB60001A440A9241465046FFF748FB294683461D
:10EB7000504601F0D1FB3A4641468146204601F01D
:10EB8000E9FBC26801460BF13003002A42D106902E
:10EB90005046089301F0C0FB06990490204601F00E
:10EBA0008DF9049A089B1AB90B99002900F0CB82C1
:10EBB000B9F1000FC0F28581249941EA09090C9945
:10EBC00051EA090100F07D81002A00F3D1810A9AFF
:10EBD00006F101099642CB46337000F0E3815146BD
:10EBE00000230A22204601F073F9BD4282462946DD
:10EBF0004FF000034FF00A02204612D001F068F9EE
:10EC00003946054600230A22204601F061F94E46A6
:10EC10000746A7E72046049301F050F90122049B20
:10EC2000C6E701F055F94E46054607469AE700BF8C
:10EC3000B82A0108249B022B7EDC0C9B002B7FF45E
:10EC40007CAF41465046FFF7D9FA079ADDF80CB081
:10EC500000F130030132002607920BF8013BF5E684
:10EC60004146504601F058FB0028BFF6C4AE51465D
:10EC700000230A22204601F02BF9079B82465F1EE3
:10EC80000C9B002B7FF44CAF129B002B40F3628255
:10EC90000A93BBE60D9A5146204601F07DFA824662
:10ECA0006CE6BA4B0393033319E4DDE9041200293F
:10ECB0007FF471AEC2F31303002B7FF46CAEB44B40
:10ECC0001340002B00F02A820B9B4FF00109013307
:10ECD0000B93069B013306935FE601230C93259B60
:10ECE000079A134412930133012B1E46B8BF012625
:10ECF0000A930021172E61647FF743AC012204239D
:10ED00005B0003F11400B042114602F10102F7D991
:10ED1000616436E401230C93259B002B46DD1E46DF
:10ED200012930A93E5E700230C93D8E700230C9392
:10ED3000F2E7129B07970A930A9B002B7FF440ADE2
:10ED400041460522204601F0C3F880465046414620
:10ED500001F0E2FA00287FF733AD039F31223B46F2
:10ED6000079E03F8012B013603934146204601F02C
:10ED7000A5F8731CDDF80C9007930397002D7FF422
:10ED800090AE92E629463246204601F051FA0546F9
:10ED9000D6E60D9B0D97FB1A9B4400278CE5DDE919
:10EDA00008234FF00209CDE9102317E4012325932E
:10EDB0000A93FFF7E2BB03D1049BDB073FF553AE99
:10EDC000D9461BF8013D302BFAD05EE64846F1F7F4
:10EDD00011FB32463B46F1F777FB00226D4BF1F712
:10EDE000BDF98046A1F150793046394600226A4B80
:10EDF000F1F7B2F942464B4606460F46F1F7F4FDED
:10EE0000002840F0878142463046394609F10043E8
:10EE1000F1F7CCFD00283FF4AAAC4FF000084546BE
:10EE2000CEE40F9A002A00F0C380069A03F233431F
:10EE30001A4406920B9A0D9F16461A440B9247E508
:10EE40003123079A01320792039A13701DE600F0EE
:10EE50004B81DDE90801079B5D42504B05F00F0235
:10EE600003EBC203D3E90023F1F72EFB2D11064675
:10EE70000F4600F07D8100234FF00209DFF820816A
:10EE8000EA0705D5D8E90023F1F71EFB01239944D1
:10EE90006D1008F10808F3D1002B3FF4BAAB064619
:10EEA0000F46FFF7B6BB0E9020E5049B002B7FF4C6
:10EEB0002BAEDDE90412C2F31303002B3FF4FFAEC7
:10EEC00022E6002A12DD514601222046049301F079
:10EED000AFF94146824601F01FFA0028049B40F337
:10EEE0002C81392B00F00C810BF13103B14609F86C
:10EEF000013B079B2E4601333D460793C5E555462A
:10EF0000089CDDF818A002460B46F1F727F9DDE969
:10EF1000042306460F46F1F767FD60B9DDE90423D7
:10EF200030463946F1F738FD00283FF4A3AC18F01D
:10EF3000010F3FF49FAC039A0AE42046696800F091
:10EF400097FF0646002800F017812B6905F10C0198
:10EF500002339A000C30F1F7F5FE314601222046CB
:10EF600001F066F90746F0E5DDE90A239E1AAFE4F1
:10EF7000392B00F0C580B146013309F8013B079BEE
:10EF80002E4601333D4607937FE500BFD463010859
:10EF90000000F07F00001C400000144020650108C4
:10EFA000F8640108079A2E4601323D4607924DE566
:10EFB000189B069A0B99C3F136031A4406920A4627
:10EFC0001A440E460D9F0B9282E410987F494246E8
:10EFD00001EBC0014B4651E90201F1F775FA024617
:10EFE0000B4630463946CDE91423F1F707FD80463C
:10EFF000F1F700FA0B46024639463046F1F7ACF815
:10F0000006461098039D08F1300301280F4605F8C5
:10F01000013B1ED0109B039A1344984600226C4B70
:10F0200030463946F1F750FA0F460646F1F7E6FC4E
:10F030008146F1F7DFF902460B4630463946F1F7D3
:10F040008BF809F1300905F8019B454506460F4646
:10F05000E4D1DDE9148900225E4B40464946F1F7D0
:10F060007DF832463B46F1F7A1FC002858D14246D4
:10F070004B4600205749F1F76FF832463B46F1F70F
:10F08000B3FC00283FF473AB15F8013CA946302BC4
:10F0900005F1FF35F8D0139B0133079305E50A9B73
:10F0A000002B3FF493AE129D002D7FF760AB002242
:10F0B000474B30463946F1F707FA06460F4609F145
:10F0C0000100F1F797F932463B46F1F7FDF90022CE
:10F0D000414BF1F743F8079A8046013A1392A1F1A8
:10F0E00050791095FFF7B6BA4FF00209DDE90867CD
:10F0F000FFF78FBA079B013307933123FFF72FBB2D
:10F10000B3463923079A2E4601323D4607920BF843
:10F11000013BAAE44FF0000845461EE699463CE450
:10F12000139B039A0793FFF713BBDDF858A0109CBD
:10F13000139BA94601330793B7E47FF4D7AEDA07F0
:10F140007FF5D4AECDE6392BDAD0B9F1000F3FF719
:10F15000CBAECBE6249B022B3FF7EBAD079770E5D8
:10F16000249B022B3FF7E5AD129B07970A93E4E43B
:10F170004FF00209FFF74DBA024640F2EA21174B61
:10F18000174802F0FDF9174B0393FFF704B9002568
:10F1900020462946656400F06BFE039058B90022B2
:10F1A0004FF4D5710D4B0E4802F0EAF93FF40DAC67
:10F1B000C0F13C008FE44FF0FF3312930A93012318
:10F1C000039A259522640C93FFF7D1BA20650108B4
:10F1D000000024400000E03F00001C40E463010800
:10F1E000F8630108D8630108B1F90C202DE9F0415A
:10F1F0000D461107804647D46B6842F40062002B2D
:10F20000AA815EDDAC6A002C58D00023D8F80060DB
:10F21000C8F8003093B212F4805256D10123404610
:10F22000E969A047431C67D0AB89AC6A5F0705D585
:10F230006A682B6B801A0BB1EB6BC01A0246E96946
:10F2400000234046A047411C41D1D8F80030002B94
:10F250003DD01D2B01D0162B56D100212A69AB8938
:10F26000C5E9002123F40063AB81296BC8F8006075
:10F2700021B305F14003994202D0404600F048F91D
:10F2800000202863BDE8F0812F69BFB193B29A07CF
:10F2900018BF00232E6808BF6B692F60F61BAB6098
:10F2A0000AE033463A466C6A4046E969A047041EC4
:10F2B000A6EB0406274417DD002EF2DC0020BDE893
:10F2C000F081EB6B002B9DDCF8E7286DAEE70021A9
:10F2D000B5F90C302A6923F40063AB81DB04C5E97E
:10F2E0000021C2D52865C0E7AB894FF0FF3043F05D
:10F2F0004003AB81BDE8F081D8F80030002B93D0FB
:10F300001D2B06D0162B04D0AB8943F04003AB81F4
:10F31000D5E7C8F80060D1E738B50C46054608B116
:10F32000836BA3B1B4F90C00B8B1636EDB0701D4F1
:10F33000810515D528462146FFF756FF636E054621
:10F34000DA0702D4A3899B050ED5284638BD00F004
:10F350003FF8B4F90C000028E7D10546284638BD2F
:10F36000A06D00F007FAE5E7A06D00F005FA284669
:10F3700038BD00BF002310B50446C0E90033C0E922
:10F3800004338181C2811946836043668361082208
:10F390005C30FCF7D5FE07480749084A084BC4E92A
:10F3A0000740C4E90912E36204F15800BDE81040C7
:10F3B00000F0DCB9FD05010821060108610601081D
:10F3C00081060108014900F0A9B900BF41160108F2
:10F3D00010B50446134800F0CDF9A26BEAB903203A
:10F3E000114904F53B73C4F8E832C4E9B820E1637D
:10F3F00060680421FFF7BEFFA06801220921FFF722
:10F40000B9FFE06802221221FFF7B4FF012305488B
:10F41000A363BDE8104000F0AFB90248BDE810405A
:10F4200000F0AAB914430020C5F30008014800F019
:10F43000A1B900BF28430020014800F09DB900BFDA
:10F440002843002038B5084B084D5B1B9C1007D0A3
:10F45000043B1D44013C55F804399847002CF9D170
:10F46000BDE8384002F008BF7C67010878670108F2
:10F47000F8B50C46234F064600F0EEFCBB68C4F519
:10F480007E615D680F3125F003054B1923F47F631E
:10F4900023F00F03A3F58054B4F5805F07DB002150
:10F4A000304601F099F8BB682B44984204D03046AE
:10F4B00000F0D8FC0020F8BD3046614201F08CF825
:10F4C00001300DD0104AB96813682D1B45F00105B5
:10F4D00030461B1B4D60136000F0C4FC0120F8BDDA
:10F4E0000021304601F078F8BA68831A0F2BDEDD70
:10F4F000064943F001030C680349001B5360086090
:10F50000D5E700BF6C040020D4420020740800201E
:10F5100000295FD0F8B50C46064600F09DFC54F873
:10F52000043CDFF8F4C1A4F1080023F00101421803
:10F53000DCF808705568974225F0030500F08980D3
:10F54000DF07556034D454F8087C0CF10804C01B64
:10F5500083683944A3426AD057197F68D0F80CE019
:10F56000C3F80CE0CEF80830FB0740F1978041F07B
:10F57000010343601160B1F5007F34D20122DCF851
:10F580000440CB084909134402FA01F121430CEB72
:10F59000C3025CF83340083AC0E90242CCF80410D8
:10F5A0004CF83300E0603046BDE8F84000F05ABC4B
:10F5B00053195B68DF070ED429440CF108049368E3
:10F5C000A34273D0D46841F00102DC60A3604260C2
:10F5D0004150D0E7704741F00103B1F5007F44F896
:10F5E000043C1160CAD3B1F5206F4FEA51234AD2CF
:10F5F0008B0903F13905ED0003F138025CF80530A1
:10F600000CEB0504083C9C4259D05A6822F00302D6
:10F610008A4202D99B689C42F7D1DC68C0E9023477
:10F62000A060D8603046BDE8F84000F01BBC53191C
:10F630005B68DB0766D4D2E90223294441F0010468
:10F64000D3609A60446041503046BDE8F84000F015
:10F6500009BCDB07294407D454F8084C001BD0E947
:10F6600002232144D3609A60294B41F001021B68B8
:10F6700042608B42CCF8080095D8264B304619687A
:10F68000FFF7F6FE8FE7142B0AD9542B21D80B0B6A
:10F6900003F16F05ED0003F16E02AFE729448EE739
:10F6A00003F15C05ED0003F15B02A7E741F0010304
:10F6B000CCE90400C0E902444360415073E70125EE
:10F6C000DCF80410921005FA02F20A43CCF8042088
:10F6D000A4E7B3F5AA7F06D8CB0B03F17805ED00BC
:10F6E00003F177028AE740F25452934206D88B0C1A
:10F6F00003F17D05ED0003F17C027FE74FF47E7599
:10F700007E227BE741F00103436011604BE700BFBD
:10F7100078080020044300206C0400202DE9F84301
:10F72000074688464FF0000900F53876D6E90154BF
:10F73000013D10D4A389013D012B08D9B4F90E3045
:10F74000013304D021463846C04749EA00096B1C02
:10F7500004F16804EED13668002EE7D14846BDE8D2
:10F76000F88300BF004870476C090020704700BF55
:10F77000704700BF704700BF704700BF70B50C46B0
:10F78000B1F90E10154600291E4696B014DB6A46E4
:10F7900002F054F800280FDB019A4FF4806302F462
:10F7A0007042A2F50052B2FA82F24FF400605209A0
:10F7B00032602B6016B070BD0023A189336011F058
:10F7C000800004D0402218462A6016B070BD4FF465
:10F7D00080632B6016B070BD70B58B890C469D0799
:10F7E00082B007D5012201F143034A610B600B612E
:10F7F00002B070BD01AB6A460646FFF7BFFF009935
:10F800000546304600F03AF8B4F90C3070B11649AC
:10F81000009AF163019943F08003C4E90402A381D3
:10F82000206089B92B43A38102B070BD9A05DFD453
:10F83000012123F0030304F1430243F00203A381F7
:10F84000616122602261D3E73046B4F90E1002F004
:10F8500081F910B9B4F90C30E4E7A28922F003026F
:10F8600042F0010213B2DDE7C5F30008024B014686
:10F87000186800F003B800BF380000202DE9F04FF1
:10F8800001F10B05162D064683B024D8102900F28D
:10F89000B68000F0E1FA102502201823DFF8E88492
:10F8A00043445C68A3F10802944200F0B4806368AA
:10F8B000E16823F0030323445A68A56842F001027B
:10F8C000E96030468D6008345A6000F0CBFA20467B
:10F8D00003B0BDE8F08F35F0070500F19080A94234
:10F8E00000F28D8000F0B8FAB5F5FC7FC0F085819C
:10F8F0006B0A00F08B80042B00F25B81AB0903F1F3
:10F90000390003F13807C100DFF87C8441444C68BA
:10F910000839A14206D10CE0002A80F22281E46875
:10F92000A14206D0636823F003035A1B0F2AF3DDBC
:10F930003846D8F81040DFF854C4644577D0626880
:10F9400022F00302531B0F2B00F36581002BC8E943
:10F9500004CC80F25681B2F5007F80F0068101214F
:10F96000D30852090B4401FA02F2D8F8041058F8EF
:10F97000337008EBC30E0A43AEF10801C4E902710B
:10F98000C8F8042048F83340FC60012183109940F6
:10F99000914253D8114206D120F003004900114290
:10F9A00000F10400FAD008EBC0094C468646E7682F
:10F9B000BC4207D109E1002B80F21081FF68BC42F4
:10F9C00000F003817A6822F00302531B0F2BF2DD53
:10F9D00045F0010E3046D7E902413D4443F00106AF
:10F9E000C7F804E0E1608C60C8E90455C5E902CCC1
:10F9F0006E60BB5000F036FA07F1080402E00C23F9
:10FA000000243360204603B0BDE8F08F4FF400714E
:10FA100040203F2778E7DC68A34208BF02307FF42C
:10FA200046AFD8F81040DFF864C3644587D10121A0
:10FA3000D8F80420831099409142ABD9D8F80840F7
:10FA4000676827F00307BD4202D87B1B0F2B77DCCA
:10FA5000DFF83C93C84BD9F800201B6801322B44D7
:10FA600004EB070A00F0248103F580530F3323F4DD
:10FA70007F6B2BF00F0B5946304600F0ADFD411C5B
:10FA8000024600F0E180824500F2DC80BB4B196841
:10FA900059440846196000F04181D9F800100193DB
:10FAA00001311BBFA2EB0A0A5044C9F800201860BC
:10FAB00012F0070A00F00A81CAF108010A44CAF5E7
:10FAC000805193440831A1EB0B01C1F30B09494666
:10FAD0003046009200F080FD421CDDE9002300F07A
:10FAE0004381801A00EB090B19684BF0010049446F
:10FAF0004445C8F808201960506000F01C810F2FA1
:10FB000040F21B814FF0050C60680C3F27F007079F
:10FB100000F00100384304EB070E0F2F6060CEE9C0
:10FB200001CC00F2378114465068954B1A688A421E
:10FB300038BF1960934B1A688A4238BF196086E053
:10FB400045F0010243F00103254462603046C8F8E5
:10FB5000085008346B6000F085F9204603B0BDE81A
:10FB6000F08F23445A68E168A7E6B2F5206F4FEAA8
:10FB7000522361D3142B00F2BA8003F15C01C90057
:10FB80005B3308EB010758F80110083F8F4200F083
:10FB900092804B6823F00303934202D989688F4215
:10FBA000F7D1CF68D8F80420C4E90217BC60CC6054
:10FBB000EBE6142B59D9542B00F2A1802B0B03F147
:10FBC0006F0003F16E07C1009EE60EF1010E1EF0FC
:10FBD000030F04F108047FF4EAAE51E03C463A44D6
:10FBE0005368F96854F8085F43F0010353603046E6
:10FBF000E9608D6000F036F904E7E80805F10803D4
:10FC00004CE622445368304643F001035360083405
:10FC100000F028F9F6E645F0010743F0010125441C
:10FC200067603046C8E90455C5E902CC6960A35055
:10FC300000F018F90834E5E6930903F13901C90029
:10FC400038339EE7444564D0D8F80840606820F017
:10FC5000030B5D45ABEB050302D80F2B3FF770AFED
:10FC6000304600F0FFF80024CCE603F15C0003F11D
:10FC70005B07C10048E659F808394B4540F0A980B8
:10FC800010F0030F00F1FF30F5D1D8F8043023EA6B
:10FC90000103C8F80430490099423FF6CFAE19B9C4
:10FCA000CCE649000EF1040E1942FAD070467AE60D
:10FCB00003F1100BDFE64FF0010E9A10D8F8043074
:10FCC0000EFA02F21A43C8F804206DE702EB0B01AA
:10FCD0004942C1F30B0949463046009200F07CFCD2
:10FCE000431CDDE900237FF4FCAED146FCE6542B37
:10FCF00026D8130B03F16F01C9006E3341E7B3F54A
:10FD0000AA7F26D8EB0B03F1780003F17707C10037
:10FD1000FAE51A4B186858441860BEE6CAF30B0C93
:10FD2000BCF1000F7FF4B9AED8F80840BB444BF0EB
:10FD300001006060F9E61446F7E6012353608FE79F
:10FD4000B3F5AA7F32D8D30B03F17801C90077331A
:10FD500017E740F25452934232D8AB0C03F17D00C6
:10FD600003F17C07C100CFE5AAF1080AD3444FF0A4
:10FD70000009ABEB020BB7E604430020D44200209D
:10FD8000FC420020004300206C040020740400208A
:10FD90007408002004F1080130460093FFF7B8FB17
:10FDA000D8F80840009B60681968BEE640F25451DC
:10FDB0008B420AD8930C03F17D01C9007C33E0E645
:10FDC0004FF47E717F207E279EE54FF47E717E2367
:10FDD000D7E6D8F804305EE770B48407CDB212D00D
:10FDE0000346541E2AB90BE09A0718460CD0013C72
:10FDF00006D3184613F8012BAA42F5D170BC704700
:10FE0000002070BC70471446032C0DD8002CF7D08E
:10FE10000246031901E09A42F2D0104612F8011B83
:10FE2000A942F8D170BC704706460A0292B22A4332
:10FE300042EA0242336830465340A3F1013121EADD
:10FE4000030313F0803F06F10406E1D1043C032CC8
:10FE50003046EFD8DAE700BF0148FFF78BBC00BFA0
:10FE6000184300200148FFF787BC00BF184300205B
:10FE7000C36C70B505460C464BB153F8240080B1F5
:10FE8000026843F824200023C0E9033370BD212217
:10FE9000042101F093FB0346E8640028EDD1002023
:10FEA00070BD012101FA04F6721D2846920001F08E
:10FEB00085FB0028F3D0C0E90146E4E731B1C36C0B
:10FEC0004A6853F82200086043F82210704700BFC8
:10FED0002DE9F04180461C4600200F460E69143182
:10FEE0000D680130ABB202FB03432C0C1D0C02FB6E
:10FEF00004549BB203EB0443864241F8043B4FEAAF
:10FF00001444EDDC3CB1BB68B34207DD07EB86036C
:10FF100001365C613E613846BDE8F0817968404653
:10FF20000131FFF7A5FF0546B0B13A6907F10C01B1
:10FF3000023292000C30F0F705FFD8F84C307A68A6
:10FF400053F82210396043F822702F4607EB8603DE
:10FF500001365C613E61DEE70246B521014B024895
:10FF600001F00EFBE463010874640108020C120442
:10FF70000346CAB90304102013F07F4F04BF1B02CD
:10FF8000083013F0704F04BF1B01043013F0404FD2
:10FF900004BF9B000230002B05DB13F0804F00F103
:10FFA000010008BF202070470020E5E703680146F4
:10FFB00013F0070207D0DA0720D4980722D55B0890
:10FFC00001200B60704798B2A8B1104613F0FF0FE4
:10FFD00004BF1B0A08301A0704BF1B0904309A0724
:10FFE00004BF9B080230DA0703D45B0800F101006C
:10FFF00006D00B60704710201B0CE7E7002070470D
:020000040801F1
:10000000202070479B0802200B60704710B50C46FB
:100010000121FFF72DFF024618B10123C0E9043486
:1000200010BD4FF4A071024B024801F0A9FA00BFC5
:10003000E4630108746401082DE9F04F0D69176944
:100040000E46BD42144685B005DB3A4623462F4690
:100050000C4615461E46A368616807EB0508434534
:10006000B8BF0131FFF704FF0190002800F088803D
:10007000019B03F1140909EB880AD14505D24B46CF
:10008000002243F8042B9A45FBD806F1140E0EEB20
:10009000850B04F11403DE451A4603EB87073ED2B5
:1000A0003B1B153B23F0030304331534A74238BF31
:1000B0000423CDE902A89846924603E0F34509F1EE
:1000C00004092AD95EF8040B86B2002E38D1000C40
:1000D000F4D0D9F8003054461E464D464FF0000C7F
:1000E0002288360C00FB02669BB2B44443EA0C4300
:1000F00045F8043B54F8043B2E681B0CB2B200FBDD
:100100000323A74203EB1C434FEA134CE8D8F34503
:1001100049F8083009F10409D4D8DDE902A8B8F19A
:10012000000F03DC06E0B8F1010803D05AF8043DE3
:10013000002BF8D00198C0F8108005B0BDE8F08F12
:1001400055464C46002355F8041B20688AB21FFA16
:1001500080FC06FB02C2090C000C06FB01011344E3
:1001600001EB13429BB243EA0243AF4244F8043B23
:100170004FEA1243E7D849F808305EF8040CA6E7C6
:10018000024640F25D11024B024801F0F9F900BF4E
:10019000E46301087464010812F003032DE9F041DF
:1001A000144607462ED10E46A4101CD0BD6C95B344
:1001B000E3074FF0000806D4641014D02868A8B1F3
:1001C0000546E307F8D52A4631463846FFF734FF9F
:1001D000B6B17168FB6C641053F82120326043F8AB
:1001E00021600646EAD13046BDE8F0812A4629461C
:1001F0003846FFF721FF28600546C0F80080E0E799
:100200000646D9E7094A013B52F823200023FFF7AD
:100210005FFE0646C8E740F271213846FFF7F6FE5A
:100220000023B86405460360C2E700BFE865010823
:100230002DE9F0470F698B6807EB62177E1C9E4221
:100240000D469146804649684FEA621404DD5B0022
:100250009E4201F10101FADC4046FFF709FE002849
:100260004FD0002C00F114010DDD0B4600220534A7
:100270004FEA840C00EB840443F8042BA342FBD127
:10028000ACF1140319442C6905F1140319F01F098A
:1002900003EB840C2DD08E464FF0000AC9F12002EA
:1002A0001C6804FA09F444EA0A044EF8044B53F8B3
:1002B000044B9C4524FA02FAF2D8ACEB0503153B3B
:1002C00023F00303043305F11502944538BF0423DA
:1002D000BAF1000F18BF374641F803A0D8F84C30E8
:1002E0006A68076153F82210296043F82250BDE87C
:1002F000F087043953F8042B9C4541F8042FF9D8B2
:10030000ECE7024640F2D911014B024801F038F9FE
:10031000E46301087464010830B40B6905460069A0
:10032000C01A11D11435143101EB830205EB83039C
:1003300001E09D4208D253F8044D52F8041D8C424E
:10034000F7D003D24FF0FF3030BC7047012030BCF3
:10035000704700BF2DE9F84F0B690C4611699046B4
:10036000A3EB010BBBF1000F7CD104F11406143296
:1003700006EB810302EB810201E09E4276D253F844
:10038000045D52F8041D8D42F7D065D36168FFF714
:100390006FFD002874D000F11406B44600232769CD
:1003A000D8F8102004F1140A08F11405C0F80CB0B4
:1003B00010340AEB870E05EB820954F8042F55F828
:1003C00004BB91B20B441FFA8BF14FEA1B4B591A35
:1003D000CBEB124303EB214389B241EA0341A94528
:1003E0004CF8041B4FEA2343E7D8A9EB0802153A5F
:1003F00008F11508C14522F0030404F1040438BFD4
:10040000042422F0030238BF0022A244D64534441B
:10041000164418D92546524652F8046BB1B2194415
:100420000B1403EB164389B241EA0341964545F8A4
:10043000041B4FEA2343EFD80EF1FF36A6EB0A0662
:1004400026F00306264421B956F8043D013F002B4F
:10045000FAD00761BDE8F88F23464FF0010B444600
:10046000984693E7F8DB4FF0000B8FE70021FFF78A
:10047000FFFC60B101220023C0E90423BDE8F88F2E
:1004800002464FF41071054B054801F079F8024619
:1004900040F23221014B024801F072F8E463010896
:1004A0007464010870B5012182B016461D46FFF73D
:1004B000DFFC044600284CD02B46C5F30A55C3F395
:1004C00013030DB143F48013002E019322D068462C
:1004D0000096FFF76BFD002837D0019B0099C0F113
:1004E000200203FA02F20A43C34001936261002B27
:1004F00014BF02210121A3612161B5B1069AA5F2C1
:10050000334303441360079BC0F135001860204655
:1005100002B070BD01A8FFF749FD0123019A1946F9
:10052000C4E904322030002DE8D1069A04EB81039F
:10053000A0F2324010601869FFF718FDC0EB4111BE
:100540002046079B196002B070BDDDE9002362619F
:10055000CDE7024640F20A31014B024801F010F8A3
:10056000E463010874640108F8B517460022DFF857
:1005700060C021F00043634504460D463A6022DC2A
:10058000844653EA0C0C1ED0DFF848C00E4601EA40
:100590000C0CBCF1000F09D100220C4BEFF794FFBB
:1005A0006FF0350204460E4621F0004326F0FF4668
:1005B0001B1526F4E006A3F2FE3346F07F551344E4
:1005C00045F400153B6020462946F8BD0000504325
:1005D000FFFFEF7F0000F07F002238B5064D044694
:1005E00008462A60F0F7E8FD431C00D038BD2B68B0
:1005F000002BFBD0236038BD2C43002010B50C46E7
:10060000B1F90E1001F054FB002803DB236D034405
:10061000236510BDA38923F48053A38110BD00BFBF
:100620002DE9F0410C46B1F90C101F46CB051646DA
:1006300005460BD421F48051A1813B463246284621
:10064000B4F90E10BDE8F04100F03EBFB4F90E1051
:100650000223002201F096FAB4F90C10EAE700BF79
:1006600010B50C46B1F90E1001F08CFAA389421CAA
:100670000EBF23F4805343F480532065A38110BD43
:10068000B1F90E1000F0CABF2DE9F84F4B6E90463D
:100690009C042DD59368126843B38B46064602F13D
:1006A000080959E9025A5FEA9A0715D00024043D67
:1006B00001E0A7420ED05A46304655F8041F01F01B
:1006C00089F8431C04F10104F3D10023C8E9013384
:1006D000BDE8F88FD8F808302AF0030AA3EB0A0324
:1006E000C8F8083009F10809002BDAD10020ECE73E
:1006F00001F0BAF80023C8E90133BDE8F88F00BF64
:1007000010B4946814B110BCFFF7BEBF204654600B
:1007100010BC70472DE9F04FBBB01C46894690468F
:10072000CDE9043018B1836B002B00F07A82D9F840
:100730006430B9F90C10DE078AB202D48D0540F19D
:100740001A8590040AD4D9F8643041F4005223F495
:100750000053A9F80C20C9F8643092B2110740F197
:10076000F680D9F81030002B00F0F18002F01A0367
:100770000A2B00F0FA800023CB46CDE90833CDE9FF
:100780000A33CDE90F330DF1440A0393CDF838A0B5
:1007900098F80030002B00F0ED81444604E014F896
:1007A000013F002B00F02781252BF8D1B4EB080581
:1007B00040F025812378002B00F0DC814FF000020F
:1007C00000238DF833204FF0FF322B251F46029374
:1007D000637804F10108009208F10108A3F12002F6
:1007E0005A2A00F24181DFE812F072023F013F0114
:1007F0006D023F013F013F014B023F013F016A0093
:1008000027023F01220231023F012C025B005B0004
:100810005B005B005B005B005B005B005B003F011B
:100820003F013F013F013F013F013F013F013F01C8
:100830000E027A003F013F013F013F013F013F01AE
:100840003F013F013F013F01D7003F013F013F0111
:10085000F2013F0197023F013F0100053F013F01C7
:100860003F013F013F013F013F013F013F013F0188
:100870000E027C003F013F013F018A027C007500AF
:100880003F017D023F01B602D900A60275003F017B
:10089000F2017200FE043F013F011C053F0172009E
:1008A0000021A3F1300218F8013B01EB810102EBBA
:1008B0004101A3F13002092AF5D902918EE7049B88
:1008C00053F8042B002A02920493C0F2AD8198F8E9
:1008D000003081E798F8003047F020077CE747F0C8
:1008E0001007BC0640F15881049C073424F007032C
:1008F0001946F1E8022314461D460491002A73F1BB
:100900000003C0F21E84009B013300F0F08454EA1F
:10091000050327F0800900F0FC83002D08BF0A2C96
:1009200080F0A98401234F4630348DF8E7400193CD
:100930000DF1E706DDE900218A42B8BF0A469DF8BD
:1009400033301546002B00F09D8001359AE0494672
:100950000598FDF7DBFB002840F04A85B9F80C202C
:1009600002F01A030A2B7FF406AFB9F90E30002B00
:10097000FFF601AFD9F86430DE0702D4950540F1E7
:100980000E85234642464946059800F059FD0390DE
:1009900003983BB0BDE8F08F47F01007B806049C01
:1009A00040F10981073424F00703F3E8024504937A
:1009B000002327F480694FF000028DF83320009A5D
:1009C0001146013100F0DB8154EA050129F080076E
:1009D00040F0D481002A40F08D84002B40F09E83AB
:1009E00019F00103019300F0C38330230DF1E706F2
:1009F0008DF8E7309EE7B4EB080500F0BB80DDE939
:100A00000F3201332A44072BCAE90085CDE90F32A2
:100A100006DC0AF1080A039A23782A440392CAE6FC
:100A2000002A00F07283594605980EAAFFF72CFEA3
:100A300050B90DF1440AEEE7594605980EAAFFF7A2
:100A400023FE002800F08D80D946D9F8643013F0D9
:100A5000010FB9F80C3000F095805B0600F1D484EA
:100A600003983BB0BDE8F08F002B00F08380012598
:100A70008DF884304FF0000301958DF8333021AEAE
:100A80000023009317F00203079318BF023517F0F5
:100A90008403069304D1029B5C1B002C00F3748238
:100AA000DDE90F12481C9DF8334074B101210DF1AE
:100AB00033040A440728CDE90F02CAE9004100F3D4
:100AC000468201460AF1080A0130079BC3B10221A0
:100AD0000DAB0A440728CDE90F02CAE9003140F303
:100AE0004E82002A00F00C83594605980EAAFFF7A3
:100AF000CBFD0028A8D1DDE90F120DF1440A481CF6
:100B0000069B802B00F07E81DDE900341C1B002C4D
:100B100000F3D381019B07281A44CAE900631092AD
:100B20000F9040F36C81002A00F0768259460598B8
:100B30000EAAFFF7A9FD002886D1109A0DF1440AEC
:100B4000790704D5029B5C1B002C00F36E82DDE963
:100B50000213A942ACBF5B185B190393002A7FF410
:100B60006BAF00230F9398F800300DF1440A002B6F
:100B70007FF413AE109BD946002B40F0268400234F
:100B80000F9362E79A053FF568AFD9F85800FEF772
:100B9000F3FDB9F80C3060E7049BF80653F8044BFA
:100BA00000F10883790640F1028324B2E51704932B
:100BB00022462B46A2E654F8043BF906049400F1C1
:100BC000F3827A0640F1ED8200259CB2F0E64FF008
:100BD0000003049C8DF8333054F8046B002E00F0B1
:100BE0009783009A1346013300F01E83002130469C
:100BF000FFF7F2F8002800F0D883831B019300234D
:100C00000494009396E601254FF00002049C8DF8B1
:100C1000332054F8043B01958DF88430049421AEC0
:100C20002EE7FEF7D5FB82E5029B5B42029398F824
:100C3000003047F00407CFE598F800308DF83350C6
:100C4000CAE598F8003047F08007C5E5414611F83D
:100C5000013B2A2B00F0DD83A3F13002092A8846EC
:100C600098BF002100F2AD8318F8013B01EB810130
:100C700002EB4101A3F13002092AF5D90091ADE55B
:100C8000059C2046FEF76EFD436818460A93FBF765
:100C90008BFB034620460B931C46FEF763FD8268E0
:100CA0000992002C3FF413AE099B002B3FF40FAECA
:100CB000099B1B78002B3FF40AAE98F8003047F4EC
:100CC000806789E598F8003047F0010784E59DF8D2
:100CD0003330002B7FF4FBAD20238DF8333098F8B0
:100CE000003079E598F800306C2B03BF98F801309C
:100CF00047F0200708F1010847F010076CE598F865
:100D00000030682B03BF98F8013047F4007708F1F2
:100D1000010847F040075FE547F0100919F0200F80
:100D2000049C00F00082073424F00703F3E8024536
:100D3000049301233FE647F63003049CADF83430BA
:100D400054F8042BBF4B0494089314460025022347
:100D500047F002092FE6BB0600F13282FE0600F1E1
:100D6000CF827D0600F10183BC0540F1C982049C5D
:100D7000039A54F8043B1A70049409E5B946012B10
:100D80003FF4CBAD022B3AAE13D10898230943EAC6
:100D90000573290904F00F020D461C46835C06F812
:100DA000013D54EA0503F1D13AAB9B1B4F46019339
:100DB000C0E5E20842EA4572E90804F007030D467F
:100DC0001446303354EA0501324606F8013DF0D1AD
:100DD00019F0010FE8D0302BE6D03023023A06F8A4
:100DE000013C3AAB9B1A4F4616460193A2E50123FC
:100DF000019A0F93CDE9102612920DF1440A0AF1DF
:100E0000080A9DE6029B5C1B002C7FF77DAE102C30
:100E100040F3EA82DFF8309250460697B2464E46DB
:100E2000C146A846059D06E001F1020C19460830AE
:100E3000103C102C1ADD10274B1C1032072B10927F
:100E4000066047600F93EFDD002A7BD059462846A5
:100E50000EAAFFF719FC00287FF4F6ADDDE90F12AA
:100E6000103C102C11A801F1010CE4DC4546C846E9
:100E7000B14656468246069F2244BCF1070FCAE996
:100E800000941092CDF83CC040F37E81002A00F01F
:100E90005C82594605980EAAFFF7F6FB00287FF4FE
:100EA000D3ADDDE90034DDE90F121C1B002C0DF180
:100EB000440A01F101007FF72DAE102CDFF8889174
:100EC0002FDDD446B2464E46C146A846059D06E0F3
:100ED000881C19460CF1080C103C102C1CDD10204D
:100EE0004B1C1032072B1092CCF80060CCF8040099
:100EF0000F93EDDD0AB3594628460EAAFFF7C4FB4F
:100F000000287FF4A1ADDDE90F12103C102C0DF18B
:100F1000440C01F10100E2DC4546C846B1465646A4
:100F2000E24622440728CAE9009410920F9000F389
:100F3000D3800AF1080A0130ECE5012011460DF1D9
:100F4000440CC9E74FF0010C114611A870E7002AC4
:100F500000F0D380594605980EAAFFF795FB0028AC
:100F60007FF472ADDDE90F120DF1440A481CACE5C7
:100F7000022201200DABCDE911320DF1440A0146E8
:100F80000AF1080A481CBBE5102C40F31482DDE985
:100F90000F32DFF8B890D446B2464E46C146A84656
:100FA000059D06E0991C03460CF1080C103C102C22
:100FB0001CDD1021581C103207281092CCF800605C
:100FC000CCF804100F90EDDD0AB3594628460EAA5E
:100FD000FFF75AFB00287FF437ADDDE90F32103CF4
:100FE000102C0DF1440C03F10101E2DC4546C8462A
:100FF000B1465646E24622440729CAE900941092B7
:101000000F9100F3A8800AF1080A481C4BE513462B
:1010100001210DF1440CC9E778070F9254D5029BCA
:101020005C1B002C50DD0DF1440A102C40F3D781DD
:10103000DFF8189010264B460F99A946059F1D46CC
:101040000DE000BF8463010804660108F46501082F
:10105000881C19460AF1080A103C102C19DD4B1C9B
:101060001032072BCAE9005610920F93F0DD32B30D
:10107000594638460EAAFFF707FB00287FF4E4AC78
:10108000DDE90F12103C102C0DF1440A01F10100B2
:10109000E5DC2B464D46994622440728CAE90094D0
:1010A00010920F907FF753AD72B1594605980EAA72
:1010B000FFF7EAFA00287FF4C7AC109A47E5012051
:1010C00011460DF1440AC7E7DDE90223AA42ACBF8D
:1010D0009B185B19039344E5002A3FF488AE5946F8
:1010E00005980EAAFFF7D0FA00287FF4ADACDDE931
:1010F0000F020DF1440A01300CE5079B002B6BD168
:10110000012011460DF1440AFAE40F920DF1440A50
:1011100081E4009B002B7FF405AC4F4600233AAEE0
:101120000093019306E454F8042B19F0100F4FF0CC
:101130000103049432D119F0400F2BD0002594B252
:1011400039E42D2364428DF83330B9464FF0010362
:1011500065EB450533E4002A6FD0594605980EAA81
:10116000FFF792FA00287FF46FAC0DF1440A97E480
:101170003AAEFFF7DFBBD9F85800FEF7FBFAB9F932
:101180000C108AB2FFF7DDBA61460AF1080A0CF1C9
:101190000100B9E419F4007F40F0EF801446002507
:1011A00009E4BE0500F1F7801C46002500E4BA05FD
:1011B00000F1EA80E517049322462B46FFF79EBB19
:1011C000039B049CDD171A462B4654F8041BC1E907
:1011D00000230494FFF7DCBA02220DABCDE91132F3
:1011E0000DF1440ACCE6B94698E5904A0892BD064E
:1011F000049C30D5073424F00702F2E8024504923B
:10120000FE0709D554EA050206D030228DF83530A4
:1012100047F002078DF83420022327F48069FFF796
:10122000CABB834A0892E2E73046FBF7BDF80023C9
:10123000049401900093FFF77DBB9DF833100029C3
:1012400040F08980079B002B7FF492AE114601206D
:101250000DF1440A58E454F8042B0494FC0607D416
:10126000780602D5002594B2CAE7B90500F1898055
:1012700014460025C4E709F48063CDF80490CDF846
:10128000188000279846DDF824903AAE0BE00A2239
:10129000002320462946EFF7D9FB002D08BF0A2C72
:1012A00019D304460D460A22002320462946EFF7AB
:1012B000CDFB303206F8012C0137013EB8F1000FAA
:1012C000E5D099F80030BB42E1D1FF2FDFD0002DEF
:1012D00008BF0A2C25D2CDF824903AABDDF8049053
:1012E0009B1B4F46DDF818800193FFF723BBB946DF
:1012F000FFF713BB012BB9467FF444ADFFF712BBD8
:10130000049C039A54F8043B1A600494FFF740BA13
:10131000009D484E062D28BF062504940195FFF731
:10132000AFBB0B9B0A99F61A1A463046FBF76AF8D0
:1013300099F801300BB109F101090A220023204676
:101340002946EFF783FB0027ABE7012011460DF19B
:10135000440AFFF7D9BB01220DF133011046CDE954
:1013600011120DF1440AFFF7ACBB049C039A54F828
:10137000043B1A800494FFF70BBA0025D4B2FFF7A0
:101380001ABB0025D4B23BE764B2E51704932246AA
:101390002B46FFF7B3BA0025DCB2FFF709BBD9F83B
:1013A0005800FEF7E9F9FFF7ECBA009B04940193AB
:1013B0000090FFF7BFBADDE90F12DFF87C90013132
:1013C00019E600220092FFF709BA594605980EAABD
:1013D000FFF75AF900283FF4D2ABFFF736BB0F985E
:1013E000DFF85490013057E68446DFF8509043E52B
:1013F000D9F86430DB0707D4B9F80C309F0503D463
:10140000D9F85800FEF7B8F94FF0FF330393FFF710
:1014100027BB049A98F8013052F8040B884640EA3A
:10142000E07000900492FFF7D7B900BF98630108FD
:1014300084630108AC630108F465010804660108CF
:10144000F0B50C464FF4806C4FF0000E1546064682
:101450001F46636EADF26C4DE28989891993E36989
:10146000ADF80E20626A21F00201079316A81AABAC
:10147000ADF80C10CDF818E0099200930493CDF864
:1014800008C0CDF814C0FEF771F92A463B466946FC
:101490003046FFF73FF9051E07DB30466946FDF78A
:1014A0003BFF002818BF4FF0FF35BDF80C305B063E
:1014B00003D5A38943F04003A3811698FEF758F99A
:1014C00028460DF26C4DF0BDF8B50F460026084DCC
:1014D000114604461A4638462E60EFF76DFD431C50
:1014E00000D0F8BD2B68002BFBD02360F8BD00BFF7
:1014F0002C4300202DE9F047DFF880A00646DAF8FB
:10150000000098460F469146FEF734F91A4B1B68C7
:10151000D3F8484124B365681F2D26DC5EB96B1CE7
:101520000235DAF80000636044F82570FEF724F90C
:101530000020BDE8F087012304EB8501C1F8889005
:10154000D4F88821AB401A43022EC4F88821C1F890
:101550000881E4D1D4F88C211343C4F88C31DEE740
:1015600003F5A674C3F84841D5E7DAF80000FEF7A2
:1015700003F94FF0FF30DCE77063010868040020D6
:10158000144600B5094D1A460346286885B0C06860
:1015900044B1074D0091CDE90154064900F0B6F879
:1015A00000F010FE044D2C46F4E700BF3800002088
:1015B0001466010824660108D022010810B502FB58
:1015C00001F1FEF75BF9044668B150F8042C22F0F3
:1015D0000302043A242A18D8132A06D80246002304
:1015E000C2E900339360204610BD00231B2AC0E9E6
:1015F00000330FD9242AC0E902330ABFC0E90433FB
:1016000000F1100200F11802E9E70021FAF798FD55
:10161000204610BD00F10802E1E700BF002238B506
:10162000064D044608462A60EFF7E0FC431C00D054
:1016300038BD2B68002BFBD0236038BD2C43002025
:1016400070B500294BD00C46054610B1836B002BBA
:1016500048D0636ED80734D5B4F90C30002B3ED097
:1016600021462846FDF7C0FDE36A064633B1284609
:10167000E16998470028B8BF4FF0FF36A3891A06E2
:101680003BD4216B41B104F14003994202D028467A
:10169000FDF73EFF00232363616C21B12846FDF76F
:1016A00037FF00236364FDF7C1FE0022636EA28151
:1016B000DB0727D5A06DFEF75BF8FDF7BDFE3046D2
:1016C00070BDA3899905CBD4A06DFEF753F8B4F98A
:1016D0000C30002BC4D1666E16F0010608D000262F
:1016E000304670BDFDF774FE636ED807B4D4E8E7EA
:1016F000A06DFEF741F8304670BD28462169FDF720
:1017000007FFBEE7A06DFEF737F8D3E70EB410B5BC
:1017100083B005AB064C53F8042B014620680193B7
:10172000FEF7F8FF03B0BDE8104003B0704700BFFC
:10173000380000202DE9F04383B007468846144660
:1017400000F01AFA012803D108F1FF33FE2B33D938
:101750004246384604F15C0301A900F007FD421C33
:1017600006462FD018B39DF8041000250DF104098A
:1017700008E023685A1C226019700135B54216D260
:1017800015F80910A368013B002BA360F1DAA269E8
:10179000934201DB0A29ECD12246384600F08EFC48
:1017A000431CEAD10646304603B0BDE8F083464606
:1017B000304603B0BDE8F0835FFA88F106468DF845
:1017C0000410D2E73046A38943F04003A38103B05D
:1017D000BDE8F08330B5536E144613F0010FB2F933
:1017E0000C30054683B09AB201D198051CD59004FF
:1017F00006D4626E43F4005342F40052A381626641
:1018000028462246FFF796FF636E0546DA0702D4A4
:10181000A3899B0502D5284603B030BDA06DFDF716
:10182000ABFF284603B030BDA06D0191FDF7A2FFCC
:10183000B4F90C3001999AB2D9E700BF70B50C46E3
:1018400003460026074D204611461C462E60EFF742
:10185000F9FB431C00D070BD2B68002BFBD023602C
:1018600070BD00BF2C4300209368002B00F0BD80AA
:101870002DE9F04F9046B1F90C200C461107814636
:1018800083B093B227D522692AB313F00207D8F8A0
:1018900000502FD04FF0000B5F46DFF8B4A2002FAE
:1018A00000F0898057453B465A4628BF5346484674
:1018B000E169666AB047002840F38D80D8F80830A7
:1018C00083441B1A3F1AC8F80830002BE7D10020C8
:1018D00003B0BDE8F08F21464846FCF717FC00280E
:1018E00040F03281B4F90C20D8F8005093B213F0D4
:1018F0000207CFD113F0010A79D15646002E56D0F7
:101900009A05A76840F1BD80B742BB4600F2D2807D
:1019100013F4906F00F0D080D4E90417226807EB2D
:101920004707A2EB010B07EBD7770BF101007F1004
:101930003044B8423A4684BF07463A465B0540F118
:10194000E78011464846FDF799FF002800F0F68031
:101950005A4621690090EFF7F5F9A289009B22F41D
:10196000906242F08002A281A7EB0B0203EB0B0016
:101970006761B346374623612060A2605A465146EC
:1019800000F02CF9A2682368D21B374600265B447E
:10199000A2602360D8F80820BA44D71BC8F80870A2
:1019A000002F94D0B4F90C309BB2002EA8D1D5E909
:1019B00000A60835A2E7D5E900B708356FE7294644
:1019C0005A4600F00BF9236821465B4448462360E1
:1019D000FDF7A2FC58B3B4F90C304FF0FF3043F0E0
:1019E0004003A38103B0BDE8F08F002070473E465E
:1019F000AA4638463D4600976EB3002835D0009A77
:101A000020682169B24228BF32468842636904D9FE
:101A1000A16803EB010B5A45D1DC93426BDC2A46EB
:101A20004846E169676AB847B0F1000BD3DD009B17
:101A3000B3EB0B03009357D00120D8F808305D4476
:101A4000A3EB0B03A6EB0B06C8F80830002B3FF402
:101A50003EAF002ED1D10AF1080353F8046C9A4628
:101A600053F8085C0833002EF7D032460A21284686
:101A7000FEF7B2F900285ED00130431B1A460093EE
:101A8000BEE720682369984218D86269B24215D827
:101A90006FF00043B34228BF334693FBF2F3676A0B
:101AA00002FB03F348465246E169B847071E92DD40
:101AB000F61B6FE73746B34620685FE7B74228BF9B
:101AC000374651463A4600F089F8A3682268DB1B86
:101AD0003A44A3602260002BEAD121464846FDF734
:101AE0001BFC0028E4D076E721464846FDF714FCAD
:101AF0000028A2D06FE729469346019200F06EF8C5
:101B0000A1682368019A891A1A44A16022608EE7AD
:101B1000484600F0E3F8034600287FF425AF484626
:101B20002169FDF7F5FC0C22B4F90C30C9F800204E
:101B300023F0800351E7721C009261E70C22B4F994
:101B40000C30C9F8002048E74FF0FF30C0E600BF76
:101B500000FCFF7F002238B5064D044608462A6087
:101B6000EFF71EFA431C00D038BD2B68002BFBD0CA
:101B7000236038BD2C430020014B93F828017047A7
:101B80007C080020F8B50F460026084D1146044693
:101B90001A4638462E60EFF735FA431C00D0F8BDE0
:101BA0002B68002BFBD02360F8BD00BF2C43002026
:101BB00082B049B15AB16BB113780B601278101E24
:101BC00018BF012002B0704701A9002AF3D11046C6
:101BD00002B070476FF00100F4E700BF8842F0B434
:101BE0000DD98B1883420AD9841832B1224613F8D2
:101BF000014D994202F8014DF9D1F0BC70470F2A0E
