Archive member included to satisfy reference by file (symbol)

d:/program/gcc-arm/gcc-arm-none-eabi-9-2020-q2-update-win32/bin/../lib/gcc/arm-none-eabi/9.3.1/thumb/v7-m/nofp\libgcc.a(_arm_muldf3.o)
                              CMakeFiles/LVGL_Porting.elf.dir/lvgl/src/lv_misc/lv_printf.c.obj (__aeabi_dmul)
d:/program/gcc-arm/gcc-arm-none-eabi-9-2020-q2-update-win32/bin/../lib/gcc/arm-none-eabi/9.3.1/thumb/v7-m/nofp\libgcc.a(_arm_mulsf3.o)
                              CMakeFiles/LVGL_Porting.elf.dir/LCD/lcd.c.obj (__aeabi_fmul)
d:/program/gcc-arm/gcc-arm-none-eabi-9-2020-q2-update-win32/bin/../lib/gcc/arm-none-eabi/9.3.1/thumb/v7-m/nofp\libgcc.a(_arm_addsubdf3.o)
                              CMakeFiles/LVGL_Porting.elf.dir/lvgl/src/lv_misc/lv_printf.c.obj (__aeabi_dsub)
d:/program/gcc-arm/gcc-arm-none-eabi-9-2020-q2-update-win32/bin/../lib/gcc/arm-none-eabi/9.3.1/thumb/v7-m/nofp\libgcc.a(_arm_muldivdf3.o)
                              CMakeFiles/LVGL_Porting.elf.dir/lvgl/src/lv_misc/lv_printf.c.obj (__aeabi_ddiv)
d:/program/gcc-arm/gcc-arm-none-eabi-9-2020-q2-update-win32/bin/../lib/gcc/arm-none-eabi/9.3.1/thumb/v7-m/nofp\libgcc.a(_arm_cmpdf2.o)
                              CMakeFiles/LVGL_Porting.elf.dir/lvgl/src/lv_misc/lv_printf.c.obj (__aeabi_dcmpeq)
d:/program/gcc-arm/gcc-arm-none-eabi-9-2020-q2-update-win32/bin/../lib/gcc/arm-none-eabi/9.3.1/thumb/v7-m/nofp\libgcc.a(_arm_fixdfsi.o)
                              CMakeFiles/LVGL_Porting.elf.dir/lvgl/src/lv_misc/lv_printf.c.obj (__aeabi_d2iz)
d:/program/gcc-arm/gcc-arm-none-eabi-9-2020-q2-update-win32/bin/../lib/gcc/arm-none-eabi/9.3.1/thumb/v7-m/nofp\libgcc.a(_arm_fixunsdfsi.o)
                              CMakeFiles/LVGL_Porting.elf.dir/lvgl/src/lv_misc/lv_printf.c.obj (__aeabi_d2uiz)
d:/program/gcc-arm/gcc-arm-none-eabi-9-2020-q2-update-win32/bin/../lib/gcc/arm-none-eabi/9.3.1/thumb/v7-m/nofp\libgcc.a(_arm_fixunssfsi.o)
                              CMakeFiles/LVGL_Porting.elf.dir/LCD/lcd.c.obj (__aeabi_f2uiz)
d:/program/gcc-arm/gcc-arm-none-eabi-9-2020-q2-update-win32/bin/../lib/gcc/arm-none-eabi/9.3.1/thumb/v7-m/nofp\libgcc.a(_aeabi_uldivmod.o)
                              CMakeFiles/LVGL_Porting.elf.dir/lvgl/src/lv_misc/lv_printf.c.obj (__aeabi_uldivmod)
d:/program/gcc-arm/gcc-arm-none-eabi-9-2020-q2-update-win32/bin/../lib/gcc/arm-none-eabi/9.3.1/thumb/v7-m/nofp\libgcc.a(_udivmoddi4.o)
                              d:/program/gcc-arm/gcc-arm-none-eabi-9-2020-q2-update-win32/bin/../lib/gcc/arm-none-eabi/9.3.1/thumb/v7-m/nofp\libgcc.a(_aeabi_uldivmod.o) (__udivmoddi4)
d:/program/gcc-arm/gcc-arm-none-eabi-9-2020-q2-update-win32/bin/../lib/gcc/arm-none-eabi/9.3.1/thumb/v7-m/nofp\libgcc.a(_dvmd_tls.o)
                              d:/program/gcc-arm/gcc-arm-none-eabi-9-2020-q2-update-win32/bin/../lib/gcc/arm-none-eabi/9.3.1/thumb/v7-m/nofp\libgcc.a(_aeabi_uldivmod.o) (__aeabi_ldiv0)
d:/program/gcc-arm/gcc-arm-none-eabi-9-2020-q2-update-win32/bin/../lib/gcc/arm-none-eabi/9.3.1/../../../../arm-none-eabi/lib/thumb/v7-m/nofp\libg.a(lib_a-errno.o)
                              CMakeFiles/LVGL_Porting.elf.dir/Core/Src/retarget.c.obj (__errno)
d:/program/gcc-arm/gcc-arm-none-eabi-9-2020-q2-update-win32/bin/../lib/gcc/arm-none-eabi/9.3.1/../../../../arm-none-eabi/lib/thumb/v7-m/nofp\libg.a(lib_a-exit.o)
                              d:/program/gcc-arm/gcc-arm-none-eabi-9-2020-q2-update-win32/bin/../lib/gcc/arm-none-eabi/9.3.1/../../../../arm-none-eabi/lib/thumb/v7-m/nofp/crt0.o (exit)
d:/program/gcc-arm/gcc-arm-none-eabi-9-2020-q2-update-win32/bin/../lib/gcc/arm-none-eabi/9.3.1/../../../../arm-none-eabi/lib/thumb/v7-m/nofp\libg.a(lib_a-impure.o)
                              d:/program/gcc-arm/gcc-arm-none-eabi-9-2020-q2-update-win32/bin/../lib/gcc/arm-none-eabi/9.3.1/../../../../arm-none-eabi/lib/thumb/v7-m/nofp\libg.a(lib_a-exit.o) (_global_impure_ptr)
d:/program/gcc-arm/gcc-arm-none-eabi-9-2020-q2-update-win32/bin/../lib/gcc/arm-none-eabi/9.3.1/../../../../arm-none-eabi/lib/thumb/v7-m/nofp\libg.a(lib_a-init.o)
                              d:/program/gcc-arm/gcc-arm-none-eabi-9-2020-q2-update-win32/bin/../lib/gcc/arm-none-eabi/9.3.1/../../../../arm-none-eabi/lib/thumb/v7-m/nofp/crt0.o (__libc_init_array)
d:/program/gcc-arm/gcc-arm-none-eabi-9-2020-q2-update-win32/bin/../lib/gcc/arm-none-eabi/9.3.1/../../../../arm-none-eabi/lib/thumb/v7-m/nofp\libg.a(lib_a-memcpy.o)
                              CMakeFiles/LVGL_Porting.elf.dir/lvgl/src/lv_core/lv_debug.c.obj (memcpy)
d:/program/gcc-arm/gcc-arm-none-eabi-9-2020-q2-update-win32/bin/../lib/gcc/arm-none-eabi/9.3.1/../../../../arm-none-eabi/lib/thumb/v7-m/nofp\libg.a(lib_a-memset.o)
                              d:/program/gcc-arm/gcc-arm-none-eabi-9-2020-q2-update-win32/bin/../lib/gcc/arm-none-eabi/9.3.1/../../../../arm-none-eabi/lib/thumb/v7-m/nofp/crt0.o (memset)
d:/program/gcc-arm/gcc-arm-none-eabi-9-2020-q2-update-win32/bin/../lib/gcc/arm-none-eabi/9.3.1/../../../../arm-none-eabi/lib/thumb/v7-m/nofp\libg.a(lib_a-printf.o)
                              CMakeFiles/LVGL_Porting.elf.dir/lvgl/porting/lv_port_disp.c.obj (printf)
d:/program/gcc-arm/gcc-arm-none-eabi-9-2020-q2-update-win32/bin/../lib/gcc/arm-none-eabi/9.3.1/../../../../arm-none-eabi/lib/thumb/v7-m/nofp\libg.a(lib_a-setvbuf.o)
                              CMakeFiles/LVGL_Porting.elf.dir/Core/Src/retarget.c.obj (setvbuf)
d:/program/gcc-arm/gcc-arm-none-eabi-9-2020-q2-update-win32/bin/../lib/gcc/arm-none-eabi/9.3.1/../../../../arm-none-eabi/lib/thumb/v7-m/nofp\libg.a(lib_a-strcmp.o)
                              CMakeFiles/LVGL_Porting.elf.dir/lvgl/src/lv_core/lv_debug.c.obj (strcmp)
d:/program/gcc-arm/gcc-arm-none-eabi-9-2020-q2-update-win32/bin/../lib/gcc/arm-none-eabi/9.3.1/../../../../arm-none-eabi/lib/thumb/v7-m/nofp\libg.a(lib_a-strcpy.o)
                              CMakeFiles/LVGL_Porting.elf.dir/lvgl/src/lv_draw/lv_img_decoder.c.obj (strcpy)
d:/program/gcc-arm/gcc-arm-none-eabi-9-2020-q2-update-win32/bin/../lib/gcc/arm-none-eabi/9.3.1/../../../../arm-none-eabi/lib/thumb/v7-m/nofp\libg.a(lib_a-strlen-stub.o)
                              CMakeFiles/LVGL_Porting.elf.dir/lvgl/src/lv_core/lv_debug.c.obj (strlen)
d:/program/gcc-arm/gcc-arm-none-eabi-9-2020-q2-update-win32/bin/../lib/gcc/arm-none-eabi/9.3.1/../../../../arm-none-eabi/lib/thumb/v7-m/nofp\libg.a(lib_a-strncpy.o)
                              CMakeFiles/LVGL_Porting.elf.dir/lvgl/src/lv_objx/lv_chart.c.obj (strncpy)
d:/program/gcc-arm/gcc-arm-none-eabi-9-2020-q2-update-win32/bin/../lib/gcc/arm-none-eabi/9.3.1/../../../../arm-none-eabi/lib/thumb/v7-m/nofp\libg.a(lib_a-vfprintf.o)
                              d:/program/gcc-arm/gcc-arm-none-eabi-9-2020-q2-update-win32/bin/../lib/gcc/arm-none-eabi/9.3.1/../../../../arm-none-eabi/lib/thumb/v7-m/nofp\libg.a(lib_a-printf.o) (_vfprintf_r)
d:/program/gcc-arm/gcc-arm-none-eabi-9-2020-q2-update-win32/bin/../lib/gcc/arm-none-eabi/9.3.1/../../../../arm-none-eabi/lib/thumb/v7-m/nofp\libg.a(lib_a-wsetup.o)
                              d:/program/gcc-arm/gcc-arm-none-eabi-9-2020-q2-update-win32/bin/../lib/gcc/arm-none-eabi/9.3.1/../../../../arm-none-eabi/lib/thumb/v7-m/nofp\libg.a(lib_a-vfprintf.o) (__swsetup_r)
d:/program/gcc-arm/gcc-arm-none-eabi-9-2020-q2-update-win32/bin/../lib/gcc/arm-none-eabi/9.3.1/../../../../arm-none-eabi/lib/thumb/v7-m/nofp\libg.a(lib_a-__call_atexit.o)
                              d:/program/gcc-arm/gcc-arm-none-eabi-9-2020-q2-update-win32/bin/../lib/gcc/arm-none-eabi/9.3.1/../../../../arm-none-eabi/lib/thumb/v7-m/nofp\libg.a(lib_a-exit.o) (__call_exitprocs)
d:/program/gcc-arm/gcc-arm-none-eabi-9-2020-q2-update-win32/bin/../lib/gcc/arm-none-eabi/9.3.1/../../../../arm-none-eabi/lib/thumb/v7-m/nofp\libg.a(lib_a-atexit.o)
                              d:/program/gcc-arm/gcc-arm-none-eabi-9-2020-q2-update-win32/bin/../lib/gcc/arm-none-eabi/9.3.1/../../../../arm-none-eabi/lib/thumb/v7-m/nofp\libg.a(lib_a-__call_atexit.o) (atexit)
d:/program/gcc-arm/gcc-arm-none-eabi-9-2020-q2-update-win32/bin/../lib/gcc/arm-none-eabi/9.3.1/../../../../arm-none-eabi/lib/thumb/v7-m/nofp\libg.a(lib_a-dtoa.o)
                              d:/program/gcc-arm/gcc-arm-none-eabi-9-2020-q2-update-win32/bin/../lib/gcc/arm-none-eabi/9.3.1/../../../../arm-none-eabi/lib/thumb/v7-m/nofp\libg.a(lib_a-vfprintf.o) (_dtoa_r)
d:/program/gcc-arm/gcc-arm-none-eabi-9-2020-q2-update-win32/bin/../lib/gcc/arm-none-eabi/9.3.1/../../../../arm-none-eabi/lib/thumb/v7-m/nofp\libg.a(lib_a-fflush.o)
                              d:/program/gcc-arm/gcc-arm-none-eabi-9-2020-q2-update-win32/bin/../lib/gcc/arm-none-eabi/9.3.1/../../../../arm-none-eabi/lib/thumb/v7-m/nofp\libg.a(lib_a-setvbuf.o) (_fflush_r)
d:/program/gcc-arm/gcc-arm-none-eabi-9-2020-q2-update-win32/bin/../lib/gcc/arm-none-eabi/9.3.1/../../../../arm-none-eabi/lib/thumb/v7-m/nofp\libg.a(lib_a-findfp.o)
                              d:/program/gcc-arm/gcc-arm-none-eabi-9-2020-q2-update-win32/bin/../lib/gcc/arm-none-eabi/9.3.1/../../../../arm-none-eabi/lib/thumb/v7-m/nofp\libg.a(lib_a-setvbuf.o) (__sinit)
d:/program/gcc-arm/gcc-arm-none-eabi-9-2020-q2-update-win32/bin/../lib/gcc/arm-none-eabi/9.3.1/../../../../arm-none-eabi/lib/thumb/v7-m/nofp\libg.a(lib_a-fini.o)
                              d:/program/gcc-arm/gcc-arm-none-eabi-9-2020-q2-update-win32/bin/../lib/gcc/arm-none-eabi/9.3.1/../../../../arm-none-eabi/lib/thumb/v7-m/nofp\libg.a(lib_a-__call_atexit.o) (__libc_fini_array)
d:/program/gcc-arm/gcc-arm-none-eabi-9-2020-q2-update-win32/bin/../lib/gcc/arm-none-eabi/9.3.1/../../../../arm-none-eabi/lib/thumb/v7-m/nofp\libg.a(lib_a-freer.o)
                              d:/program/gcc-arm/gcc-arm-none-eabi-9-2020-q2-update-win32/bin/../lib/gcc/arm-none-eabi/9.3.1/../../../../arm-none-eabi/lib/thumb/v7-m/nofp\libg.a(lib_a-setvbuf.o) (_free_r)
d:/program/gcc-arm/gcc-arm-none-eabi-9-2020-q2-update-win32/bin/../lib/gcc/arm-none-eabi/9.3.1/../../../../arm-none-eabi/lib/thumb/v7-m/nofp\libg.a(lib_a-fwalk.o)
                              d:/program/gcc-arm/gcc-arm-none-eabi-9-2020-q2-update-win32/bin/../lib/gcc/arm-none-eabi/9.3.1/../../../../arm-none-eabi/lib/thumb/v7-m/nofp\libg.a(lib_a-findfp.o) (_fwalk)
d:/program/gcc-arm/gcc-arm-none-eabi-9-2020-q2-update-win32/bin/../lib/gcc/arm-none-eabi/9.3.1/../../../../arm-none-eabi/lib/thumb/v7-m/nofp\libg.a(lib_a-localeconv.o)
                              d:/program/gcc-arm/gcc-arm-none-eabi-9-2020-q2-update-win32/bin/../lib/gcc/arm-none-eabi/9.3.1/../../../../arm-none-eabi/lib/thumb/v7-m/nofp\libg.a(lib_a-vfprintf.o) (_localeconv_r)
d:/program/gcc-arm/gcc-arm-none-eabi-9-2020-q2-update-win32/bin/../lib/gcc/arm-none-eabi/9.3.1/../../../../arm-none-eabi/lib/thumb/v7-m/nofp\libg.a(lib_a-lock.o)
                              d:/program/gcc-arm/gcc-arm-none-eabi-9-2020-q2-update-win32/bin/../lib/gcc/arm-none-eabi/9.3.1/../../../../arm-none-eabi/lib/thumb/v7-m/nofp\libg.a(lib_a-vfprintf.o) (__retarget_lock_init_recursive)
d:/program/gcc-arm/gcc-arm-none-eabi-9-2020-q2-update-win32/bin/../lib/gcc/arm-none-eabi/9.3.1/../../../../arm-none-eabi/lib/thumb/v7-m/nofp\libg.a(lib_a-makebuf.o)
                              d:/program/gcc-arm/gcc-arm-none-eabi-9-2020-q2-update-win32/bin/../lib/gcc/arm-none-eabi/9.3.1/../../../../arm-none-eabi/lib/thumb/v7-m/nofp\libg.a(lib_a-setvbuf.o) (__swhatbuf_r)
d:/program/gcc-arm/gcc-arm-none-eabi-9-2020-q2-update-win32/bin/../lib/gcc/arm-none-eabi/9.3.1/../../../../arm-none-eabi/lib/thumb/v7-m/nofp\libg.a(lib_a-malloc.o)
                              d:/program/gcc-arm/gcc-arm-none-eabi-9-2020-q2-update-win32/bin/../lib/gcc/arm-none-eabi/9.3.1/../../../../arm-none-eabi/lib/thumb/v7-m/nofp\libg.a(lib_a-setvbuf.o) (malloc)
d:/program/gcc-arm/gcc-arm-none-eabi-9-2020-q2-update-win32/bin/../lib/gcc/arm-none-eabi/9.3.1/../../../../arm-none-eabi/lib/thumb/v7-m/nofp\libg.a(lib_a-mallocr.o)
                              d:/program/gcc-arm/gcc-arm-none-eabi-9-2020-q2-update-win32/bin/../lib/gcc/arm-none-eabi/9.3.1/../../../../arm-none-eabi/lib/thumb/v7-m/nofp\libg.a(lib_a-vfprintf.o) (_malloc_r)
d:/program/gcc-arm/gcc-arm-none-eabi-9-2020-q2-update-win32/bin/../lib/gcc/arm-none-eabi/9.3.1/../../../../arm-none-eabi/lib/thumb/v7-m/nofp\libg.a(lib_a-memchr-stub.o)
                              d:/program/gcc-arm/gcc-arm-none-eabi-9-2020-q2-update-win32/bin/../lib/gcc/arm-none-eabi/9.3.1/../../../../arm-none-eabi/lib/thumb/v7-m/nofp\libg.a(lib_a-vfprintf.o) (memchr)
d:/program/gcc-arm/gcc-arm-none-eabi-9-2020-q2-update-win32/bin/../lib/gcc/arm-none-eabi/9.3.1/../../../../arm-none-eabi/lib/thumb/v7-m/nofp\libg.a(lib_a-mlock.o)
                              d:/program/gcc-arm/gcc-arm-none-eabi-9-2020-q2-update-win32/bin/../lib/gcc/arm-none-eabi/9.3.1/../../../../arm-none-eabi/lib/thumb/v7-m/nofp\libg.a(lib_a-freer.o) (__malloc_lock)
d:/program/gcc-arm/gcc-arm-none-eabi-9-2020-q2-update-win32/bin/../lib/gcc/arm-none-eabi/9.3.1/../../../../arm-none-eabi/lib/thumb/v7-m/nofp\libg.a(lib_a-mprec.o)
                              d:/program/gcc-arm/gcc-arm-none-eabi-9-2020-q2-update-win32/bin/../lib/gcc/arm-none-eabi/9.3.1/../../../../arm-none-eabi/lib/thumb/v7-m/nofp\libg.a(lib_a-dtoa.o) (_Balloc)
d:/program/gcc-arm/gcc-arm-none-eabi-9-2020-q2-update-win32/bin/../lib/gcc/arm-none-eabi/9.3.1/../../../../arm-none-eabi/lib/thumb/v7-m/nofp\libg.a(lib_a-s_frexp.o)
                              d:/program/gcc-arm/gcc-arm-none-eabi-9-2020-q2-update-win32/bin/../lib/gcc/arm-none-eabi/9.3.1/../../../../arm-none-eabi/lib/thumb/v7-m/nofp\libg.a(lib_a-vfprintf.o) (frexp)
d:/program/gcc-arm/gcc-arm-none-eabi-9-2020-q2-update-win32/bin/../lib/gcc/arm-none-eabi/9.3.1/../../../../arm-none-eabi/lib/thumb/v7-m/nofp\libg.a(lib_a-sbrkr.o)
                              d:/program/gcc-arm/gcc-arm-none-eabi-9-2020-q2-update-win32/bin/../lib/gcc/arm-none-eabi/9.3.1/../../../../arm-none-eabi/lib/thumb/v7-m/nofp\libg.a(lib_a-freer.o) (_sbrk_r)
d:/program/gcc-arm/gcc-arm-none-eabi-9-2020-q2-update-win32/bin/../lib/gcc/arm-none-eabi/9.3.1/../../../../arm-none-eabi/lib/thumb/v7-m/nofp\libg.a(lib_a-stdio.o)
                              d:/program/gcc-arm/gcc-arm-none-eabi-9-2020-q2-update-win32/bin/../lib/gcc/arm-none-eabi/9.3.1/../../../../arm-none-eabi/lib/thumb/v7-m/nofp\libg.a(lib_a-findfp.o) (__sread)
d:/program/gcc-arm/gcc-arm-none-eabi-9-2020-q2-update-win32/bin/../lib/gcc/arm-none-eabi/9.3.1/../../../../arm-none-eabi/lib/thumb/v7-m/nofp\libg.a(lib_a-vfiprintf.o)
                              d:/program/gcc-arm/gcc-arm-none-eabi-9-2020-q2-update-win32/bin/../lib/gcc/arm-none-eabi/9.3.1/../../../../arm-none-eabi/lib/thumb/v7-m/nofp\libg.a(lib_a-vfprintf.o) (__sprint_r)
d:/program/gcc-arm/gcc-arm-none-eabi-9-2020-q2-update-win32/bin/../lib/gcc/arm-none-eabi/9.3.1/../../../../arm-none-eabi/lib/thumb/v7-m/nofp\libg.a(lib_a-writer.o)
                              d:/program/gcc-arm/gcc-arm-none-eabi-9-2020-q2-update-win32/bin/../lib/gcc/arm-none-eabi/9.3.1/../../../../arm-none-eabi/lib/thumb/v7-m/nofp\libg.a(lib_a-stdio.o) (_write_r)
d:/program/gcc-arm/gcc-arm-none-eabi-9-2020-q2-update-win32/bin/../lib/gcc/arm-none-eabi/9.3.1/../../../../arm-none-eabi/lib/thumb/v7-m/nofp\libg.a(lib_a-__atexit.o)
                              d:/program/gcc-arm/gcc-arm-none-eabi-9-2020-q2-update-win32/bin/../lib/gcc/arm-none-eabi/9.3.1/../../../../arm-none-eabi/lib/thumb/v7-m/nofp\libg.a(lib_a-atexit.o) (__register_exitproc)
d:/program/gcc-arm/gcc-arm-none-eabi-9-2020-q2-update-win32/bin/../lib/gcc/arm-none-eabi/9.3.1/../../../../arm-none-eabi/lib/thumb/v7-m/nofp\libg.a(lib_a-assert.o)
                              d:/program/gcc-arm/gcc-arm-none-eabi-9-2020-q2-update-win32/bin/../lib/gcc/arm-none-eabi/9.3.1/../../../../arm-none-eabi/lib/thumb/v7-m/nofp\libg.a(lib_a-dtoa.o) (__assert_func)
d:/program/gcc-arm/gcc-arm-none-eabi-9-2020-q2-update-win32/bin/../lib/gcc/arm-none-eabi/9.3.1/../../../../arm-none-eabi/lib/thumb/v7-m/nofp\libg.a(lib_a-callocr.o)
                              d:/program/gcc-arm/gcc-arm-none-eabi-9-2020-q2-update-win32/bin/../lib/gcc/arm-none-eabi/9.3.1/../../../../arm-none-eabi/lib/thumb/v7-m/nofp\libg.a(lib_a-mprec.o) (_calloc_r)
d:/program/gcc-arm/gcc-arm-none-eabi-9-2020-q2-update-win32/bin/../lib/gcc/arm-none-eabi/9.3.1/../../../../arm-none-eabi/lib/thumb/v7-m/nofp\libg.a(lib_a-closer.o)
                              d:/program/gcc-arm/gcc-arm-none-eabi-9-2020-q2-update-win32/bin/../lib/gcc/arm-none-eabi/9.3.1/../../../../arm-none-eabi/lib/thumb/v7-m/nofp\libg.a(lib_a-stdio.o) (_close_r)
d:/program/gcc-arm/gcc-arm-none-eabi-9-2020-q2-update-win32/bin/../lib/gcc/arm-none-eabi/9.3.1/../../../../arm-none-eabi/lib/thumb/v7-m/nofp\libg.a(lib_a-fclose.o)
                              d:/program/gcc-arm/gcc-arm-none-eabi-9-2020-q2-update-win32/bin/../lib/gcc/arm-none-eabi/9.3.1/../../../../arm-none-eabi/lib/thumb/v7-m/nofp\libg.a(lib_a-findfp.o) (_fclose_r)
d:/program/gcc-arm/gcc-arm-none-eabi-9-2020-q2-update-win32/bin/../lib/gcc/arm-none-eabi/9.3.1/../../../../arm-none-eabi/lib/thumb/v7-m/nofp\libg.a(lib_a-fiprintf.o)
                              d:/program/gcc-arm/gcc-arm-none-eabi-9-2020-q2-update-win32/bin/../lib/gcc/arm-none-eabi/9.3.1/../../../../arm-none-eabi/lib/thumb/v7-m/nofp\libg.a(lib_a-assert.o) (fiprintf)
d:/program/gcc-arm/gcc-arm-none-eabi-9-2020-q2-update-win32/bin/../lib/gcc/arm-none-eabi/9.3.1/../../../../arm-none-eabi/lib/thumb/v7-m/nofp\libg.a(lib_a-fputwc.o)
                              d:/program/gcc-arm/gcc-arm-none-eabi-9-2020-q2-update-win32/bin/../lib/gcc/arm-none-eabi/9.3.1/../../../../arm-none-eabi/lib/thumb/v7-m/nofp\libg.a(lib_a-vfiprintf.o) (_fputwc_r)
d:/program/gcc-arm/gcc-arm-none-eabi-9-2020-q2-update-win32/bin/../lib/gcc/arm-none-eabi/9.3.1/../../../../arm-none-eabi/lib/thumb/v7-m/nofp\libg.a(lib_a-fstatr.o)
                              d:/program/gcc-arm/gcc-arm-none-eabi-9-2020-q2-update-win32/bin/../lib/gcc/arm-none-eabi/9.3.1/../../../../arm-none-eabi/lib/thumb/v7-m/nofp\libg.a(lib_a-makebuf.o) (_fstat_r)
d:/program/gcc-arm/gcc-arm-none-eabi-9-2020-q2-update-win32/bin/../lib/gcc/arm-none-eabi/9.3.1/../../../../arm-none-eabi/lib/thumb/v7-m/nofp\libg.a(lib_a-fvwrite.o)
                              d:/program/gcc-arm/gcc-arm-none-eabi-9-2020-q2-update-win32/bin/../lib/gcc/arm-none-eabi/9.3.1/../../../../arm-none-eabi/lib/thumb/v7-m/nofp\libg.a(lib_a-vfiprintf.o) (__sfvwrite_r)
d:/program/gcc-arm/gcc-arm-none-eabi-9-2020-q2-update-win32/bin/../lib/gcc/arm-none-eabi/9.3.1/../../../../arm-none-eabi/lib/thumb/v7-m/nofp\libg.a(lib_a-isattyr.o)
                              d:/program/gcc-arm/gcc-arm-none-eabi-9-2020-q2-update-win32/bin/../lib/gcc/arm-none-eabi/9.3.1/../../../../arm-none-eabi/lib/thumb/v7-m/nofp\libg.a(lib_a-makebuf.o) (_isatty_r)
d:/program/gcc-arm/gcc-arm-none-eabi-9-2020-q2-update-win32/bin/../lib/gcc/arm-none-eabi/9.3.1/../../../../arm-none-eabi/lib/thumb/v7-m/nofp\libg.a(lib_a-locale.o)
                              d:/program/gcc-arm/gcc-arm-none-eabi-9-2020-q2-update-win32/bin/../lib/gcc/arm-none-eabi/9.3.1/../../../../arm-none-eabi/lib/thumb/v7-m/nofp\libg.a(lib_a-fputwc.o) (__locale_mb_cur_max)
d:/program/gcc-arm/gcc-arm-none-eabi-9-2020-q2-update-win32/bin/../lib/gcc/arm-none-eabi/9.3.1/../../../../arm-none-eabi/lib/thumb/v7-m/nofp\libg.a(lib_a-lseekr.o)
                              d:/program/gcc-arm/gcc-arm-none-eabi-9-2020-q2-update-win32/bin/../lib/gcc/arm-none-eabi/9.3.1/../../../../arm-none-eabi/lib/thumb/v7-m/nofp\libg.a(lib_a-stdio.o) (_lseek_r)
d:/program/gcc-arm/gcc-arm-none-eabi-9-2020-q2-update-win32/bin/../lib/gcc/arm-none-eabi/9.3.1/../../../../arm-none-eabi/lib/thumb/v7-m/nofp\libg.a(lib_a-mbtowc_r.o)
                              d:/program/gcc-arm/gcc-arm-none-eabi-9-2020-q2-update-win32/bin/../lib/gcc/arm-none-eabi/9.3.1/../../../../arm-none-eabi/lib/thumb/v7-m/nofp\libg.a(lib_a-locale.o) (__ascii_mbtowc)
d:/program/gcc-arm/gcc-arm-none-eabi-9-2020-q2-update-win32/bin/../lib/gcc/arm-none-eabi/9.3.1/../../../../arm-none-eabi/lib/thumb/v7-m/nofp\libg.a(lib_a-memmove.o)
                              d:/program/gcc-arm/gcc-arm-none-eabi-9-2020-q2-update-win32/bin/../lib/gcc/arm-none-eabi/9.3.1/../../../../arm-none-eabi/lib/thumb/v7-m/nofp\libg.a(lib_a-fvwrite.o) (memmove)
d:/program/gcc-arm/gcc-arm-none-eabi-9-2020-q2-update-win32/bin/../lib/gcc/arm-none-eabi/9.3.1/../../../../arm-none-eabi/lib/thumb/v7-m/nofp\libg.a(lib_a-readr.o)
                              d:/program/gcc-arm/gcc-arm-none-eabi-9-2020-q2-update-win32/bin/../lib/gcc/arm-none-eabi/9.3.1/../../../../arm-none-eabi/lib/thumb/v7-m/nofp\libg.a(lib_a-stdio.o) (_read_r)
d:/program/gcc-arm/gcc-arm-none-eabi-9-2020-q2-update-win32/bin/../lib/gcc/arm-none-eabi/9.3.1/../../../../arm-none-eabi/lib/thumb/v7-m/nofp\libg.a(lib_a-reallocr.o)
                              d:/program/gcc-arm/gcc-arm-none-eabi-9-2020-q2-update-win32/bin/../lib/gcc/arm-none-eabi/9.3.1/../../../../arm-none-eabi/lib/thumb/v7-m/nofp\libg.a(lib_a-fvwrite.o) (_realloc_r)
d:/program/gcc-arm/gcc-arm-none-eabi-9-2020-q2-update-win32/bin/../lib/gcc/arm-none-eabi/9.3.1/../../../../arm-none-eabi/lib/thumb/v7-m/nofp\libg.a(lib_a-reent.o)
                              d:/program/gcc-arm/gcc-arm-none-eabi-9-2020-q2-update-win32/bin/../lib/gcc/arm-none-eabi/9.3.1/../../../../arm-none-eabi/lib/thumb/v7-m/nofp\libg.a(lib_a-sbrkr.o) (errno)
d:/program/gcc-arm/gcc-arm-none-eabi-9-2020-q2-update-win32/bin/../lib/gcc/arm-none-eabi/9.3.1/../../../../arm-none-eabi/lib/thumb/v7-m/nofp\libg.a(lib_a-wbuf.o)
                              d:/program/gcc-arm/gcc-arm-none-eabi-9-2020-q2-update-win32/bin/../lib/gcc/arm-none-eabi/9.3.1/../../../../arm-none-eabi/lib/thumb/v7-m/nofp\libg.a(lib_a-fputwc.o) (__swbuf_r)
d:/program/gcc-arm/gcc-arm-none-eabi-9-2020-q2-update-win32/bin/../lib/gcc/arm-none-eabi/9.3.1/../../../../arm-none-eabi/lib/thumb/v7-m/nofp\libg.a(lib_a-wcrtomb.o)
                              d:/program/gcc-arm/gcc-arm-none-eabi-9-2020-q2-update-win32/bin/../lib/gcc/arm-none-eabi/9.3.1/../../../../arm-none-eabi/lib/thumb/v7-m/nofp\libg.a(lib_a-fputwc.o) (_wcrtomb_r)
d:/program/gcc-arm/gcc-arm-none-eabi-9-2020-q2-update-win32/bin/../lib/gcc/arm-none-eabi/9.3.1/../../../../arm-none-eabi/lib/thumb/v7-m/nofp\libg.a(lib_a-wctomb_r.o)
                              d:/program/gcc-arm/gcc-arm-none-eabi-9-2020-q2-update-win32/bin/../lib/gcc/arm-none-eabi/9.3.1/../../../../arm-none-eabi/lib/thumb/v7-m/nofp\libg.a(lib_a-locale.o) (__ascii_wctomb)
d:/program/gcc-arm/gcc-arm-none-eabi-9-2020-q2-update-win32/bin/../lib/gcc/arm-none-eabi/9.3.1/../../../../arm-none-eabi/lib/thumb/v7-m/nofp\libg.a(lib_a-abort.o)
                              d:/program/gcc-arm/gcc-arm-none-eabi-9-2020-q2-update-win32/bin/../lib/gcc/arm-none-eabi/9.3.1/../../../../arm-none-eabi/lib/thumb/v7-m/nofp\libg.a(lib_a-assert.o) (abort)
d:/program/gcc-arm/gcc-arm-none-eabi-9-2020-q2-update-win32/bin/../lib/gcc/arm-none-eabi/9.3.1/../../../../arm-none-eabi/lib/thumb/v7-m/nofp\libg.a(lib_a-ctype_.o)
                              d:/program/gcc-arm/gcc-arm-none-eabi-9-2020-q2-update-win32/bin/../lib/gcc/arm-none-eabi/9.3.1/../../../../arm-none-eabi/lib/thumb/v7-m/nofp\libg.a(lib_a-locale.o) (_ctype_)
d:/program/gcc-arm/gcc-arm-none-eabi-9-2020-q2-update-win32/bin/../lib/gcc/arm-none-eabi/9.3.1/../../../../arm-none-eabi/lib/thumb/v7-m/nofp\libg.a(lib_a-signal.o)
                              d:/program/gcc-arm/gcc-arm-none-eabi-9-2020-q2-update-win32/bin/../lib/gcc/arm-none-eabi/9.3.1/../../../../arm-none-eabi/lib/thumb/v7-m/nofp\libg.a(lib_a-abort.o) (raise)
d:/program/gcc-arm/gcc-arm-none-eabi-9-2020-q2-update-win32/bin/../lib/gcc/arm-none-eabi/9.3.1/../../../../arm-none-eabi/lib/thumb/v7-m/nofp\libg.a(lib_a-signalr.o)
                              d:/program/gcc-arm/gcc-arm-none-eabi-9-2020-q2-update-win32/bin/../lib/gcc/arm-none-eabi/9.3.1/../../../../arm-none-eabi/lib/thumb/v7-m/nofp\libg.a(lib_a-signal.o) (_kill_r)
d:/program/gcc-arm/gcc-arm-none-eabi-9-2020-q2-update-win32/bin/../lib/gcc/arm-none-eabi/9.3.1/thumb/v7-m/nofp\libgcc.a(_arm_unorddf2.o)
                              d:/program/gcc-arm/gcc-arm-none-eabi-9-2020-q2-update-win32/bin/../lib/gcc/arm-none-eabi/9.3.1/../../../../arm-none-eabi/lib/thumb/v7-m/nofp\libg.a(lib_a-vfprintf.o) (__aeabi_dcmpun)

Allocating common symbols
Common symbol       size              file

__lock___atexit_recursive_mutex
                    0x1               d:/program/gcc-arm/gcc-arm-none-eabi-9-2020-q2-update-win32/bin/../lib/gcc/arm-none-eabi/9.3.1/../../../../arm-none-eabi/lib/thumb/v7-m/nofp\libg.a(lib_a-lock.o)
__lock___arc4random_mutex
                    0x1               d:/program/gcc-arm/gcc-arm-none-eabi-9-2020-q2-update-win32/bin/../lib/gcc/arm-none-eabi/9.3.1/../../../../arm-none-eabi/lib/thumb/v7-m/nofp\libg.a(lib_a-lock.o)
errno               0x4               d:/program/gcc-arm/gcc-arm-none-eabi-9-2020-q2-update-win32/bin/../lib/gcc/arm-none-eabi/9.3.1/../../../../arm-none-eabi/lib/thumb/v7-m/nofp\libg.a(lib_a-reent.o)
__lock___env_recursive_mutex
                    0x1               d:/program/gcc-arm/gcc-arm-none-eabi-9-2020-q2-update-win32/bin/../lib/gcc/arm-none-eabi/9.3.1/../../../../arm-none-eabi/lib/thumb/v7-m/nofp\libg.a(lib_a-lock.o)
__lock___sinit_recursive_mutex
                    0x1               d:/program/gcc-arm/gcc-arm-none-eabi-9-2020-q2-update-win32/bin/../lib/gcc/arm-none-eabi/9.3.1/../../../../arm-none-eabi/lib/thumb/v7-m/nofp\libg.a(lib_a-lock.o)
__lock___malloc_recursive_mutex
                    0x1               d:/program/gcc-arm/gcc-arm-none-eabi-9-2020-q2-update-win32/bin/../lib/gcc/arm-none-eabi/9.3.1/../../../../arm-none-eabi/lib/thumb/v7-m/nofp\libg.a(lib_a-lock.o)
__lock___at_quick_exit_mutex
                    0x1               d:/program/gcc-arm/gcc-arm-none-eabi-9-2020-q2-update-win32/bin/../lib/gcc/arm-none-eabi/9.3.1/../../../../arm-none-eabi/lib/thumb/v7-m/nofp\libg.a(lib_a-lock.o)
__lock___dd_hash_mutex
                    0x1               d:/program/gcc-arm/gcc-arm-none-eabi-9-2020-q2-update-win32/bin/../lib/gcc/arm-none-eabi/9.3.1/../../../../arm-none-eabi/lib/thumb/v7-m/nofp\libg.a(lib_a-lock.o)
__lock___tz_mutex   0x1               d:/program/gcc-arm/gcc-arm-none-eabi-9-2020-q2-update-win32/bin/../lib/gcc/arm-none-eabi/9.3.1/../../../../arm-none-eabi/lib/thumb/v7-m/nofp\libg.a(lib_a-lock.o)
__lock___sfp_recursive_mutex
                    0x1               d:/program/gcc-arm/gcc-arm-none-eabi-9-2020-q2-update-win32/bin/../lib/gcc/arm-none-eabi/9.3.1/../../../../arm-none-eabi/lib/thumb/v7-m/nofp\libg.a(lib_a-lock.o)

Discarded input sections

 .text          0x00000000        0x0 d:/program/gcc-arm/gcc-arm-none-eabi-9-2020-q2-update-win32/bin/../lib/gcc/arm-none-eabi/9.3.1/thumb/v7-m/nofp/crti.o
 .data          0x00000000        0x0 d:/program/gcc-arm/gcc-arm-none-eabi-9-2020-q2-update-win32/bin/../lib/gcc/arm-none-eabi/9.3.1/thumb/v7-m/nofp/crti.o
 .bss           0x00000000        0x0 d:/program/gcc-arm/gcc-arm-none-eabi-9-2020-q2-update-win32/bin/../lib/gcc/arm-none-eabi/9.3.1/thumb/v7-m/nofp/crti.o
 .data          0x00000000        0x4 d:/program/gcc-arm/gcc-arm-none-eabi-9-2020-q2-update-win32/bin/../lib/gcc/arm-none-eabi/9.3.1/thumb/v7-m/nofp/crtbegin.o
 .text          0x00000000       0x7c d:/program/gcc-arm/gcc-arm-none-eabi-9-2020-q2-update-win32/bin/../lib/gcc/arm-none-eabi/9.3.1/../../../../arm-none-eabi/lib/thumb/v7-m/nofp/crt0.o
 .data          0x00000000        0x0 d:/program/gcc-arm/gcc-arm-none-eabi-9-2020-q2-update-win32/bin/../lib/gcc/arm-none-eabi/9.3.1/../../../../arm-none-eabi/lib/thumb/v7-m/nofp/crt0.o
 .bss           0x00000000        0x0 d:/program/gcc-arm/gcc-arm-none-eabi-9-2020-q2-update-win32/bin/../lib/gcc/arm-none-eabi/9.3.1/../../../../arm-none-eabi/lib/thumb/v7-m/nofp/crt0.o
 .ARM.extab     0x00000000        0x0 d:/program/gcc-arm/gcc-arm-none-eabi-9-2020-q2-update-win32/bin/../lib/gcc/arm-none-eabi/9.3.1/../../../../arm-none-eabi/lib/thumb/v7-m/nofp/crt0.o
 .ARM.exidx     0x00000000       0x10 d:/program/gcc-arm/gcc-arm-none-eabi-9-2020-q2-update-win32/bin/../lib/gcc/arm-none-eabi/9.3.1/../../../../arm-none-eabi/lib/thumb/v7-m/nofp/crt0.o
 .ARM.attributes
                0x00000000       0x1b d:/program/gcc-arm/gcc-arm-none-eabi-9-2020-q2-update-win32/bin/../lib/gcc/arm-none-eabi/9.3.1/../../../../arm-none-eabi/lib/thumb/v7-m/nofp/crt0.o
 .text          0x00000000        0x0 CMakeFiles/LVGL_Porting.elf.dir/Core/Src/gpio.c.obj
 .data          0x00000000        0x0 CMakeFiles/LVGL_Porting.elf.dir/Core/Src/gpio.c.obj
 .bss           0x00000000        0x0 CMakeFiles/LVGL_Porting.elf.dir/Core/Src/gpio.c.obj
 .text          0x00000000        0x0 CMakeFiles/LVGL_Porting.elf.dir/Core/Src/main.c.obj
 .data          0x00000000        0x0 CMakeFiles/LVGL_Porting.elf.dir/Core/Src/main.c.obj
 .bss           0x00000000        0x0 CMakeFiles/LVGL_Porting.elf.dir/Core/Src/main.c.obj
 .text          0x00000000        0x0 CMakeFiles/LVGL_Porting.elf.dir/Core/Src/retarget.c.obj
Memory Configuration

Name             Origin             Length             Attributes
RAM              0x20000000         0x00005000         xrw
FLASH            0x08000000         0x00020000         xr
*default*        0x00000000         0xffffffff

Linker script and memory map

LOAD d:/program/gcc-arm/gcc-arm-none-eabi-9-2020-q2-update-win32/bin/../lib/gcc/arm-none-eabi/9.3.1/thumb/v7-m/nofp/crti.o
LOAD d:/program/gcc-arm/gcc-arm-none-eabi-9-2020-q2-update-win32/bin/../lib/gcc/arm-none-eabi/9.3.1/thumb/v7-m/nofp/crtbegin.o
LOAD d:/program/gcc-arm/gcc-arm-none-eabi-9-2020-q2-update-win32/bin/../lib/gcc/arm-none-eabi/9.3.1/../../../../arm-none-eabi/lib/thumb/v7-m/nofp/crt0.o
LOAD CMakeFiles/LVGL_Porting.elf.dir/Core/Src/gpio.c.obj
LOAD CMakeFiles/LVGL_Porting.elf.dir/Core/Src/main.c.obj
LOAD CMakeFiles/LVGL_Porting.elf.dir/Core/Src/retarget.c.obj
LOAD CMakeFiles/LVGL_Porting.elf.dir/Core/Src/spi.c.obj
LOAD CMakeFiles/LVGL_Porting.elf.dir/Core/Src/stm32f1xx_hal_msp.c.obj
LOAD CMakeFiles/LVGL_Porting.elf.dir/Core/Src/stm32f1xx_it.c.obj
LOAD CMakeFiles/LVGL_Porting.elf.dir/Core/Src/syscalls.c.obj
LOAD CMakeFiles/LVGL_Porting.elf.dir/Core/Src/system_stm32f1xx.c.obj
LOAD CMakeFiles/LVGL_Porting.elf.dir/Core/Src/tim.c.obj
LOAD CMakeFiles/LVGL_Porting.elf.dir/Core/Src/usart.c.obj
LOAD CMakeFiles/LVGL_Porting.elf.dir/Drivers/STM32F1xx_HAL_Driver/Src/stm32f1xx_hal.c.obj
LOAD CMakeFiles/LVGL_Porting.elf.dir/Drivers/STM32F1xx_HAL_Driver/Src/stm32f1xx_hal_cortex.c.obj
LOAD CMakeFiles/LVGL_Porting.elf.dir/Drivers/STM32F1xx_HAL_Driver/Src/stm32f1xx_hal_dma.c.obj
LOAD CMakeFiles/LVGL_Porting.elf.dir/Drivers/STM32F1xx_HAL_Driver/Src/stm32f1xx_hal_exti.c.obj
LOAD CMakeFiles/LVGL_Porting.elf.dir/Drivers/STM32F1xx_HAL_Driver/Src/stm32f1xx_hal_flash.c.obj
LOAD CMakeFiles/LVGL_Porting.elf.dir/Drivers/STM32F1xx_HAL_Driver/Src/stm32f1xx_hal_flash_ex.c.obj
LOAD CMakeFiles/LVGL_Porting.elf.dir/Drivers/STM32F1xx_HAL_Driver/Src/stm32f1xx_hal_gpio.c.obj
LOAD CMakeFiles/LVGL_Porting.elf.dir/Drivers/STM32F1xx_HAL_Driver/Src/stm32f1xx_hal_gpio_ex.c.obj
LOAD CMakeFiles/LVGL_Porting.elf.dir/Drivers/STM32F1xx_HAL_Driver/Src/stm32f1xx_hal_pwr.c.obj
LOAD CMakeFiles/LVGL_Porting.elf.dir/Drivers/STM32F1xx_HAL_Driver/Src/stm32f1xx_hal_rcc.c.obj
LOAD CMakeFiles/LVGL_Porting.elf.dir/Drivers/STM32F1xx_HAL_Driver/Src/stm32f1xx_hal_rcc_ex.c.obj
LOAD CMakeFiles/LVGL_Porting.elf.dir/Drivers/STM32F1xx_HAL_Driver/Src/stm32f1xx_hal_spi.c.obj
LOAD CMakeFiles/LVGL_Porting.elf.dir/Drivers/STM32F1xx_HAL_Driver/Src/stm32f1xx_hal_tim.c.obj
LOAD CMakeFiles/LVGL_Porting.elf.dir/Drivers/STM32F1xx_HAL_Driver/Src/stm32f1xx_hal_tim_ex.c.obj
LOAD CMakeFiles/LVGL_Porting.elf.dir/Drivers/STM32F1xx_HAL_Driver/Src/stm32f1xx_hal_uart.c.obj
LOAD CMakeFiles/LVGL_Porting.elf.dir/LCD/lcd.c.obj
LOAD CMakeFiles/LVGL_Porting.elf.dir/LCD/lcd_init.c.obj
LOAD CMakeFiles/LVGL_Porting.elf.dir/lvgl/porting/lv_port_disp.c.obj
LOAD CMakeFiles/LVGL_Porting.elf.dir/lvgl/porting/lv_port_fs.c.obj
LOAD CMakeFiles/LVGL_Porting.elf.dir/lvgl/porting/lv_port_indev.c.obj
LOAD CMakeFiles/LVGL_Porting.elf.dir/lvgl/src/lv_core/lv_debug.c.obj
LOAD CMakeFiles/LVGL_Porting.elf.dir/lvgl/src/lv_core/lv_disp.c.obj
LOAD CMakeFiles/LVGL_Porting.elf.dir/lvgl/src/lv_core/lv_group.c.obj
LOAD CMakeFiles/LVGL_Porting.elf.dir/lvgl/src/lv_core/lv_indev.c.obj
LOAD CMakeFiles/LVGL_Porting.elf.dir/lvgl/src/lv_core/lv_obj.c.obj
LOAD CMakeFiles/LVGL_Porting.elf.dir/lvgl/src/lv_core/lv_refr.c.obj
LOAD CMakeFiles/LVGL_Porting.elf.dir/lvgl/src/lv_core/lv_style.c.obj
LOAD CMakeFiles/LVGL_Porting.elf.dir/lvgl/src/lv_draw/lv_draw.c.obj
LOAD CMakeFiles/LVGL_Porting.elf.dir/lvgl/src/lv_draw/lv_draw_arc.c.obj
LOAD CMakeFiles/LVGL_Porting.elf.dir/lvgl/src/lv_draw/lv_draw_basic.c.obj
LOAD CMakeFiles/LVGL_Porting.elf.dir/lvgl/src/lv_draw/lv_draw_img.c.obj
LOAD CMakeFiles/LVGL_Porting.elf.dir/lvgl/src/lv_draw/lv_draw_label.c.obj
LOAD CMakeFiles/LVGL_Porting.elf.dir/lvgl/src/lv_draw/lv_draw_line.c.obj
LOAD CMakeFiles/LVGL_Porting.elf.dir/lvgl/src/lv_draw/lv_draw_rect.c.obj
LOAD CMakeFiles/LVGL_Porting.elf.dir/lvgl/src/lv_draw/lv_draw_triangle.c.obj
LOAD CMakeFiles/LVGL_Porting.elf.dir/lvgl/src/lv_draw/lv_img_cache.c.obj
LOAD CMakeFiles/LVGL_Porting.elf.dir/lvgl/src/lv_draw/lv_img_decoder.c.obj
LOAD CMakeFiles/LVGL_Porting.elf.dir/lvgl/src/lv_font/lv_font.c.obj
LOAD CMakeFiles/LVGL_Porting.elf.dir/lvgl/src/lv_font/lv_font_fmt_txt.c.obj
LOAD CMakeFiles/LVGL_Porting.elf.dir/lvgl/src/lv_font/lv_font_roboto_12.c.obj
LOAD CMakeFiles/LVGL_Porting.elf.dir/lvgl/src/lv_font/lv_font_roboto_12_subpx.c.obj
LOAD CMakeFiles/LVGL_Porting.elf.dir/lvgl/src/lv_font/lv_font_roboto_16.c.obj
LOAD CMakeFiles/LVGL_Porting.elf.dir/lvgl/src/lv_font/lv_font_roboto_22.c.obj
LOAD CMakeFiles/LVGL_Porting.elf.dir/lvgl/src/lv_font/lv_font_roboto_28.c.obj
LOAD CMakeFiles/LVGL_Porting.elf.dir/lvgl/src/lv_font/lv_font_roboto_28_compressed.c.obj
LOAD CMakeFiles/LVGL_Porting.elf.dir/lvgl/src/lv_font/lv_font_unscii_8.c.obj
LOAD CMakeFiles/LVGL_Porting.elf.dir/lvgl/src/lv_hal/lv_hal_disp.c.obj
LOAD CMakeFiles/LVGL_Porting.elf.dir/lvgl/src/lv_hal/lv_hal_indev.c.obj
LOAD CMakeFiles/LVGL_Porting.elf.dir/lvgl/src/lv_hal/lv_hal_tick.c.obj
LOAD CMakeFiles/LVGL_Porting.elf.dir/lvgl/src/lv_misc/lv_anim.c.obj
LOAD CMakeFiles/LVGL_Porting.elf.dir/lvgl/src/lv_misc/lv_area.c.obj
LOAD CMakeFiles/LVGL_Porting.elf.dir/lvgl/src/lv_misc/lv_async.c.obj
LOAD CMakeFiles/LVGL_Porting.elf.dir/lvgl/src/lv_misc/lv_bidi.c.obj
LOAD CMakeFiles/LVGL_Porting.elf.dir/lvgl/src/lv_misc/lv_circ.c.obj
LOAD CMakeFiles/LVGL_Porting.elf.dir/lvgl/src/lv_misc/lv_color.c.obj
LOAD CMakeFiles/LVGL_Porting.elf.dir/lvgl/src/lv_misc/lv_fs.c.obj
LOAD CMakeFiles/LVGL_Porting.elf.dir/lvgl/src/lv_misc/lv_gc.c.obj
LOAD CMakeFiles/LVGL_Porting.elf.dir/lvgl/src/lv_misc/lv_ll.c.obj
LOAD CMakeFiles/LVGL_Porting.elf.dir/lvgl/src/lv_misc/lv_log.c.obj
LOAD CMakeFiles/LVGL_Porting.elf.dir/lvgl/src/lv_misc/lv_math.c.obj
LOAD CMakeFiles/LVGL_Porting.elf.dir/lvgl/src/lv_misc/lv_mem.c.obj
LOAD CMakeFiles/LVGL_Porting.elf.dir/lvgl/src/lv_misc/lv_printf.c.obj
LOAD CMakeFiles/LVGL_Porting.elf.dir/lvgl/src/lv_misc/lv_task.c.obj
LOAD CMakeFiles/LVGL_Porting.elf.dir/lvgl/src/lv_misc/lv_templ.c.obj
LOAD CMakeFiles/LVGL_Porting.elf.dir/lvgl/src/lv_misc/lv_txt.c.obj
LOAD CMakeFiles/LVGL_Porting.elf.dir/lvgl/src/lv_misc/lv_utils.c.obj
LOAD CMakeFiles/LVGL_Porting.elf.dir/lvgl/src/lv_objx/lv_arc.c.obj
LOAD CMakeFiles/LVGL_Porting.elf.dir/lvgl/src/lv_objx/lv_bar.c.obj
LOAD CMakeFiles/LVGL_Porting.elf.dir/lvgl/src/lv_objx/lv_btn.c.obj
LOAD CMakeFiles/LVGL_Porting.elf.dir/lvgl/src/lv_objx/lv_btnm.c.obj
LOAD CMakeFiles/LVGL_Porting.elf.dir/lvgl/src/lv_objx/lv_calendar.c.obj
LOAD CMakeFiles/LVGL_Porting.elf.dir/lvgl/src/lv_objx/lv_canvas.c.obj
LOAD CMakeFiles/LVGL_Porting.elf.dir/lvgl/src/lv_objx/lv_cb.c.obj
LOAD CMakeFiles/LVGL_Porting.elf.dir/lvgl/src/lv_objx/lv_chart.c.obj
LOAD CMakeFiles/LVGL_Porting.elf.dir/lvgl/src/lv_objx/lv_cont.c.obj
LOAD CMakeFiles/LVGL_Porting.elf.dir/lvgl/src/lv_objx/lv_cpicker.c.obj
LOAD CMakeFiles/LVGL_Porting.elf.dir/lvgl/src/lv_objx/lv_ddlist.c.obj
LOAD CMakeFiles/LVGL_Porting.elf.dir/lvgl/src/lv_objx/lv_gauge.c.obj
LOAD CMakeFiles/LVGL_Porting.elf.dir/lvgl/src/lv_objx/lv_img.c.obj
LOAD CMakeFiles/LVGL_Porting.elf.dir/lvgl/src/lv_objx/lv_imgbtn.c.obj
LOAD CMakeFiles/LVGL_Porting.elf.dir/lvgl/src/lv_objx/lv_kb.c.obj
LOAD CMakeFiles/LVGL_Porting.elf.dir/lvgl/src/lv_objx/lv_label.c.obj
LOAD CMakeFiles/LVGL_Porting.elf.dir/lvgl/src/lv_objx/lv_led.c.obj
LOAD CMakeFiles/LVGL_Porting.elf.dir/lvgl/src/lv_objx/lv_line.c.obj
LOAD CMakeFiles/LVGL_Porting.elf.dir/lvgl/src/lv_objx/lv_list.c.obj
LOAD CMakeFiles/LVGL_Porting.elf.dir/lvgl/src/lv_objx/lv_lmeter.c.obj
LOAD CMakeFiles/LVGL_Porting.elf.dir/lvgl/src/lv_objx/lv_mbox.c.obj
LOAD CMakeFiles/LVGL_Porting.elf.dir/lvgl/src/lv_objx/lv_objx_templ.c.obj
LOAD CMakeFiles/LVGL_Porting.elf.dir/lvgl/src/lv_objx/lv_page.c.obj
LOAD CMakeFiles/LVGL_Porting.elf.dir/lvgl/src/lv_objx/lv_preload.c.obj
LOAD CMakeFiles/LVGL_Porting.elf.dir/lvgl/src/lv_objx/lv_roller.c.obj
LOAD CMakeFiles/LVGL_Porting.elf.dir/lvgl/src/lv_objx/lv_slider.c.obj
LOAD CMakeFiles/LVGL_Porting.elf.dir/lvgl/src/lv_objx/lv_spinbox.c.obj
LOAD CMakeFiles/LVGL_Porting.elf.dir/lvgl/src/lv_objx/lv_sw.c.obj
LOAD CMakeFiles/LVGL_Porting.elf.dir/lvgl/src/lv_objx/lv_ta.c.obj
LOAD CMakeFiles/LVGL_Porting.elf.dir/lvgl/src/lv_objx/lv_table.c.obj
LOAD CMakeFiles/LVGL_Porting.elf.dir/lvgl/src/lv_objx/lv_tabview.c.obj
LOAD CMakeFiles/LVGL_Porting.elf.dir/lvgl/src/lv_objx/lv_tileview.c.obj
LOAD CMakeFiles/LVGL_Porting.elf.dir/lvgl/src/lv_objx/lv_win.c.obj
LOAD CMakeFiles/LVGL_Porting.elf.dir/lvgl/src/lv_themes/lv_theme.c.obj
LOAD CMakeFiles/LVGL_Porting.elf.dir/lvgl/src/lv_themes/lv_theme_alien.c.obj
LOAD CMakeFiles/LVGL_Porting.elf.dir/lvgl/src/lv_themes/lv_theme_default.c.obj
LOAD CMakeFiles/LVGL_Porting.elf.dir/lvgl/src/lv_themes/lv_theme_material.c.obj
LOAD CMakeFiles/LVGL_Porting.elf.dir/lvgl/src/lv_themes/lv_theme_mono.c.obj
LOAD CMakeFiles/LVGL_Porting.elf.dir/lvgl/src/lv_themes/lv_theme_nemo.c.obj
LOAD CMakeFiles/LVGL_Porting.elf.dir/lvgl/src/lv_themes/lv_theme_night.c.obj
LOAD CMakeFiles/LVGL_Porting.elf.dir/lvgl/src/lv_themes/lv_theme_templ.c.obj
LOAD CMakeFiles/LVGL_Porting.elf.dir/lvgl/src/lv_themes/lv_theme_zen.c.obj
LOAD CMakeFiles/LVGL_Porting.elf.dir/startup/startup_stm32f103xb.s.obj
START GROUP
LOAD d:/program/gcc-arm/gcc-arm-none-eabi-9-2020-q2-update-win32/bin/../lib/gcc/arm-none-eabi/9.3.1/thumb/v7-m/nofp\libgcc.a
LOAD d:/program/gcc-arm/gcc-arm-none-eabi-9-2020-q2-update-win32/bin/../lib/gcc/arm-none-eabi/9.3.1/../../../../arm-none-eabi/lib/thumb/v7-m/nofp\libg.a
LOAD d:/program/gcc-arm/gcc-arm-none-eabi-9-2020-q2-update-win32/bin/../lib/gcc/arm-none-eabi/9.3.1/../../../../arm-none-eabi/lib/thumb/v7-m/nofp\libc.a
END GROUP
LOAD d:/program/gcc-arm/gcc-arm-none-eabi-9-2020-q2-update-win32/bin/../lib/gcc/arm-none-eabi/9.3.1/thumb/v7-m/nofp/crtend.o
LOAD d:/program/gcc-arm/gcc-arm-none-eabi-9-2020-q2-update-win32/bin/../lib/gcc/arm-none-eabi/9.3.1/thumb/v7-m/nofp/crtn.o
                0x20005000                _estack = 0x20005000
                0x00000200                _Min_Heap_Size = 0x200
                0x00000400                _Min_Stack_Size = 0x400

.isr_vector     0x08000000      0x10c
                0x08000000                . = ALIGN (0x4)
 *(.isr_vector)
 .isr_vector    0x08000000      0x10c CMakeFiles/LVGL_Porting.elf.dir/startup/startup_stm32f103xb.s.obj
                0x08000000                g_pfnVectors
                0x0800010c                . = ALIGN (0x4)

.text           0x08000110    0x12174
                0x08000110                . = ALIGN (0x4)
 *(.text)
 .text          0x08000110       0x40 d:/program/gcc-arm/gcc-arm-none-eabi-9-2020-q2-update-win32/bin/../lib/gcc/arm-none-eabi/9.3.1/thumb/v7-m/nofp/crtbegin.o
 .text          0x08000150      0x378 d:/program/gcc-arm/gcc-arm-none-eabi-9-2020-q2-update-win32/bin/../lib/gcc/arm-none-eabi/9.3.1/thumb/v7-m/nofp\libgcc.a(_arm_addsubdf3.o)
                0x08000150                __aeabi_drsub
                0x08000158                __aeabi_dsub
                0x08000158                __subdf3
                0x0800015c                __aeabi_dadd
                0x0800015c                __adddf3
                0x080003d4                __floatunsidf
                0x080003d4                __aeabi_ui2d
                0x080003f4                __floatsidf
                0x080003f4                __aeabi_i2d
                0x08000418                __aeabi_f2d
                0x08000418                __extendsfdf2
                0x0800045c                __floatundidf
                0x0800045c                __aeabi_ul2d
                0x0800046c                __floatdidf
                0x0800046c                __aeabi_l2d
 .text          0x080004c8      0x424 d:/program/gcc-arm/gcc-arm-none-eabi-9-2020-q2-update-win32/bin/../lib/gcc/arm-none-eabi/9.3.1/thumb/v7-m/nofp\libgcc.a(_arm_muldivdf3.o)
                0x080004c8                __aeabi_dmul
                0x080004c8                __muldf3
                0x0800071c                __divdf3
                0x0800071c                __aeabi_ddiv
 .text          0x080008ec      0x110 d:/program/gcc-arm/gcc-arm-none-eabi-9-2020-q2-update-win32/bin/../lib/gcc/arm-none-eabi/9.3.1/thumb/v7-m/nofp\libgcc.a(_arm_cmpdf2.o)
                0x080008ec                __gtdf2
                0x080008ec                __gedf2
                0x080008f4                __ltdf2
                0x080008f4                __ledf2
                0x080008fc                __nedf2
                0x080008fc                __eqdf2
                0x080008fc                __cmpdf2
                0x08000978                __aeabi_cdrcmple
                0x08000988                __aeabi_cdcmpeq
                0x08000988                __aeabi_cdcmple
                0x08000998                __aeabi_dcmpeq
                0x080009ac                __aeabi_dcmplt
                0x080009c0                __aeabi_dcmple
                0x080009d4                __aeabi_dcmpge
                0x080009e8                __aeabi_dcmpgt
 .text          0x080009fc       0x50 d:/program/gcc-arm/gcc-arm-none-eabi-9-2020-q2-update-win32/bin/../lib/gcc/arm-none-eabi/9.3.1/thumb/v7-m/nofp\libgcc.a(_arm_fixdfsi.o)
                0x080009fc                __aeabi_d2iz
                0x080009fc                __fixdfsi
 .text          0x08000a4c       0x30 d:/program/gcc-arm/gcc-arm-none-eabi-9-2020-q2-update-win32/bin/../lib/gcc/arm-none-eabi/9.3.1/thumb/v7-m/nofp\libgcc.a(_aeabi_uldivmod.o)
                0x08000a4c                __aeabi_uldivmod
 .text          0x08000a7c      0x2c4 d:/program/gcc-arm/gcc-arm-none-eabi-9-2020-q2-update-win32/bin/../lib/gcc/arm-none-eabi/9.3.1/thumb/v7-m/nofp\libgcc.a(_udivmoddi4.o)
                0x08000a7c                __udivmoddi4
 .text          0x08000d40        0x4 d:/program/gcc-arm/gcc-arm-none-eabi-9-2020-q2-update-win32/bin/../lib/gcc/arm-none-eabi/9.3.1/thumb/v7-m/nofp\libgcc.a(_dvmd_tls.o)
                0x08000d40                __aeabi_idiv0
                0x08000d40                __aeabi_ldiv0
 .text          0x08000d44       0xec d:/program/gcc-arm/gcc-arm-none-eabi-9-2020-q2-update-win32/bin/../lib/gcc/arm-none-eabi/9.3.1/../../../../arm-none-eabi/lib/thumb/v7-m/nofp\libg.a(lib_a-memcpy.o)
                0x08000d44                memcpy
 .text          0x08000e30       0x2c d:/program/gcc-arm/gcc-arm-none-eabi-9-2020-q2-update-win32/bin/../lib/gcc/arm-none-eabi/9.3.1/thumb/v7-m/nofp\libgcc.a(_arm_unorddf2.o)
                0x08000e30                __unorddf2
                0x08000e30                __aeabi_dcmpun
 *(.text*)
 .text.MX_GPIO_Init
                0x08000e5c       0x64 CMakeFiles/LVGL_Porting.elf.dir/Core/Src/gpio.c.obj
                0x08000e5c                MX_GPIO_Init
 .text.Error_Handler
                0x08000ec0        0x4 CMakeFiles/LVGL_Porting.elf.dir/Core/Src/main.c.obj
                0x08000ec0                Error_Handler
 .text.SystemClock_Config
                0x08000ec4       0x62 CMakeFiles/LVGL_Porting.elf.dir/Core/Src/main.c.obj
                0x08000ec4                SystemClock_Config
 *fill*         0x08000f26        0x2 
 .text.main     0x08000f28       0x58 CMakeFiles/LVGL_Porting.elf.dir/Core/Src/main.c.obj
                0x08000f28                main
 .text.RetargetInit
                0x08000f80       0x20 CMakeFiles/LVGL_Porting.elf.dir/Core/Src/retarget.c.obj
                0x08000f80                RetargetInit
 .text._isatty  0x08000fa0       0x16 CMakeFiles/LVGL_Porting.elf.dir/Core/Src/retarget.c.obj
                0x08000fa0                _isatty
 *fill*         0x08000fb6        0x2 
 .text._write   0x08000fb8       0x34 CMakeFiles/LVGL_Porting.elf.dir/Core/Src/retarget.c.obj
                0x08000fb8                _write
 .text._close   0x08000fec       0x18 CMakeFiles/LVGL_Porting.elf.dir/Core/Src/retarget.c.obj
                0x08000fec                _close
 .text._lseek   0x08001004       0x10 CMakeFiles/LVGL_Porting.elf.dir/Core/Src/retarget.c.obj
                0x08001004                _lseek
 .text._read    0x08001014       0x30 CMakeFiles/LVGL_Porting.elf.dir/Core/Src/retarget.c.obj
                0x08001014                _read
 .text._fstat   0x08001044       0x1a CMakeFiles/LVGL_Porting.elf.dir/Core/Src/retarget.c.obj
                0x08001044                _fstat
 *fill*         0x0800105e        0x2 
 .text.MX_SPI1_Init
                0x08001060       0x4c CMakeFiles/LVGL_Porting.elf.dir/Core/Src/spi.c.obj
                0x08001060                MX_SPI1_Init
 .text.HAL_SPI_MspInit
                0x080010ac       0x64 CMakeFiles/LVGL_Porting.elf.dir/Core/Src/spi.c.obj
                0x080010ac                HAL_SPI_MspInit
 .text.HAL_MspInit
                0x08001110       0x44 CMakeFiles/LVGL_Porting.elf.dir/Core/Src/stm32f1xx_hal_msp.c.obj
                0x08001110                HAL_MspInit
 .text.NMI_Handler
                0x08001154        0x2 CMakeFiles/LVGL_Porting.elf.dir/Core/Src/stm32f1xx_it.c.obj
                0x08001154                NMI_Handler
 .text.HardFault_Handler
                0x08001156        0x2 CMakeFiles/LVGL_Porting.elf.dir/Core/Src/stm32f1xx_it.c.obj
                0x08001156                HardFault_Handler
 .text.MemManage_Handler
                0x08001158        0x2 CMakeFiles/LVGL_Porting.elf.dir/Core/Src/stm32f1xx_it.c.obj
                0x08001158                MemManage_Handler
 .text.BusFault_Handler
                0x0800115a        0x2 CMakeFiles/LVGL_Porting.elf.dir/Core/Src/stm32f1xx_it.c.obj
                0x0800115a                BusFault_Handler
 .text.UsageFault_Handler
                0x0800115c        0x2 CMakeFiles/LVGL_Porting.elf.dir/Core/Src/stm32f1xx_it.c.obj
                0x0800115c                UsageFault_Handler
 .text.SVC_Handler
                0x0800115e        0x2 CMakeFiles/LVGL_Porting.elf.dir/Core/Src/stm32f1xx_it.c.obj
                0x0800115e                SVC_Handler
 .text.DebugMon_Handler
                0x08001160        0x2 CMakeFiles/LVGL_Porting.elf.dir/Core/Src/stm32f1xx_it.c.obj
                0x08001160                DebugMon_Handler
 .text.PendSV_Handler
                0x08001162        0x2 CMakeFiles/LVGL_Porting.elf.dir/Core/Src/stm32f1xx_it.c.obj
                0x08001162                PendSV_Handler
 .text.SysTick_Handler
                0x08001164        0x8 CMakeFiles/LVGL_Porting.elf.dir/Core/Src/stm32f1xx_it.c.obj
                0x08001164                SysTick_Handler
 .text.TIM1_UP_IRQHandler
                0x0800116c       0x10 CMakeFiles/LVGL_Porting.elf.dir/Core/Src/stm32f1xx_it.c.obj
                0x0800116c                TIM1_UP_IRQHandler
 .text.HAL_TIM_PeriodElapsedCallback
                0x0800117c       0x1c CMakeFiles/LVGL_Porting.elf.dir/Core/Src/stm32f1xx_it.c.obj
                0x0800117c                HAL_TIM_PeriodElapsedCallback
 .text._getpid  0x08001198        0x4 CMakeFiles/LVGL_Porting.elf.dir/Core/Src/syscalls.c.obj
                0x08001198                _getpid
 .text._kill    0x0800119c       0x10 CMakeFiles/LVGL_Porting.elf.dir/Core/Src/syscalls.c.obj
                0x0800119c                _kill
 .text._exit    0x080011ac        0xc CMakeFiles/LVGL_Porting.elf.dir/Core/Src/syscalls.c.obj
                0x080011ac                _exit
 .text._sbrk    0x080011b8       0x3c CMakeFiles/LVGL_Porting.elf.dir/Core/Src/syscalls.c.obj
                0x080011b8                _sbrk
 .text.SystemInit
                0x080011f4        0x2 CMakeFiles/LVGL_Porting.elf.dir/Core/Src/system_stm32f1xx.c.obj
                0x080011f4                SystemInit
 *fill*         0x080011f6        0x2 
 .text.MX_TIM1_Init
                0x080011f8       0x70 CMakeFiles/LVGL_Porting.elf.dir/Core/Src/tim.c.obj
                0x080011f8                MX_TIM1_Init
 .text.HAL_TIM_Base_MspInit
                0x08001268       0x40 CMakeFiles/LVGL_Porting.elf.dir/Core/Src/tim.c.obj
                0x08001268                HAL_TIM_Base_MspInit
 .text.MX_USART1_UART_Init
                0x080012a8       0x34 CMakeFiles/LVGL_Porting.elf.dir/Core/Src/usart.c.obj
                0x080012a8                MX_USART1_UART_Init
 .text.HAL_UART_MspInit
                0x080012dc       0x78 CMakeFiles/LVGL_Porting.elf.dir/Core/Src/usart.c.obj
                0x080012dc                HAL_UART_MspInit
 .text.HAL_InitTick
                0x08001354       0x4c CMakeFiles/LVGL_Porting.elf.dir/Drivers/STM32F1xx_HAL_Driver/Src/stm32f1xx_hal.c.obj
                0x08001354                HAL_InitTick
 .text.HAL_Init
                0x080013a0       0x24 CMakeFiles/LVGL_Porting.elf.dir/Drivers/STM32F1xx_HAL_Driver/Src/stm32f1xx_hal.c.obj
                0x080013a0                HAL_Init
 .text.HAL_IncTick
                0x080013c4       0x18 CMakeFiles/LVGL_Porting.elf.dir/Drivers/STM32F1xx_HAL_Driver/Src/stm32f1xx_hal.c.obj
                0x080013c4                HAL_IncTick
 .text.HAL_GetTick
                0x080013dc        0xc CMakeFiles/LVGL_Porting.elf.dir/Drivers/STM32F1xx_HAL_Driver/Src/stm32f1xx_hal.c.obj
                0x080013dc                HAL_GetTick
 .text.HAL_Delay
                0x080013e8       0x28 CMakeFiles/LVGL_Porting.elf.dir/Drivers/STM32F1xx_HAL_Driver/Src/stm32f1xx_hal.c.obj
                0x080013e8                HAL_Delay
 .text.HAL_NVIC_SetPriorityGrouping
                0x08001410       0x24 CMakeFiles/LVGL_Porting.elf.dir/Drivers/STM32F1xx_HAL_Driver/Src/stm32f1xx_hal_cortex.c.obj
                0x08001410                HAL_NVIC_SetPriorityGrouping
 .text.HAL_NVIC_SetPriority
                0x08001434       0x68 CMakeFiles/LVGL_Porting.elf.dir/Drivers/STM32F1xx_HAL_Driver/Src/stm32f1xx_hal_cortex.c.obj
                0x08001434                HAL_NVIC_SetPriority
 .text.HAL_NVIC_EnableIRQ
                0x0800149c       0x1c CMakeFiles/LVGL_Porting.elf.dir/Drivers/STM32F1xx_HAL_Driver/Src/stm32f1xx_hal_cortex.c.obj
                0x0800149c                HAL_NVIC_EnableIRQ
 .text.HAL_SYSTICK_Config
                0x080014b8       0x2c CMakeFiles/LVGL_Porting.elf.dir/Drivers/STM32F1xx_HAL_Driver/Src/stm32f1xx_hal_cortex.c.obj
                0x080014b8                HAL_SYSTICK_Config
 .text.HAL_GPIO_Init
                0x080014e4      0x220 CMakeFiles/LVGL_Porting.elf.dir/Drivers/STM32F1xx_HAL_Driver/Src/stm32f1xx_hal_gpio.c.obj
                0x080014e4                HAL_GPIO_Init
 .text.HAL_GPIO_WritePin
                0x08001704        0xc CMakeFiles/LVGL_Porting.elf.dir/Drivers/STM32F1xx_HAL_Driver/Src/stm32f1xx_hal_gpio.c.obj
                0x08001704                HAL_GPIO_WritePin
 .text.RCC_Delay
                0x08001710       0x2c CMakeFiles/LVGL_Porting.elf.dir/Drivers/STM32F1xx_HAL_Driver/Src/stm32f1xx_hal_rcc.c.obj
 .text.HAL_RCC_OscConfig
                0x0800173c      0x410 CMakeFiles/LVGL_Porting.elf.dir/Drivers/STM32F1xx_HAL_Driver/Src/stm32f1xx_hal_rcc.c.obj
                0x0800173c                HAL_RCC_OscConfig
 .text.HAL_RCC_GetSysClockFreq
                0x08001b4c       0x6c CMakeFiles/LVGL_Porting.elf.dir/Drivers/STM32F1xx_HAL_Driver/Src/stm32f1xx_hal_rcc.c.obj
                0x08001b4c                HAL_RCC_GetSysClockFreq
 .text.HAL_RCC_ClockConfig
                0x08001bb8      0x16c CMakeFiles/LVGL_Porting.elf.dir/Drivers/STM32F1xx_HAL_Driver/Src/stm32f1xx_hal_rcc.c.obj
                0x08001bb8                HAL_RCC_ClockConfig
 .text.HAL_RCC_GetHCLKFreq
                0x08001d24        0xc CMakeFiles/LVGL_Porting.elf.dir/Drivers/STM32F1xx_HAL_Driver/Src/stm32f1xx_hal_rcc.c.obj
                0x08001d24                HAL_RCC_GetHCLKFreq
 .text.HAL_RCC_GetPCLK1Freq
                0x08001d30       0x20 CMakeFiles/LVGL_Porting.elf.dir/Drivers/STM32F1xx_HAL_Driver/Src/stm32f1xx_hal_rcc.c.obj
                0x08001d30                HAL_RCC_GetPCLK1Freq
 .text.HAL_RCC_GetPCLK2Freq
                0x08001d50       0x20 CMakeFiles/LVGL_Porting.elf.dir/Drivers/STM32F1xx_HAL_Driver/Src/stm32f1xx_hal_rcc.c.obj
                0x08001d50                HAL_RCC_GetPCLK2Freq
 .text.SPI_WaitFlagStateUntilTimeout
                0x08001d70       0xd0 CMakeFiles/LVGL_Porting.elf.dir/Drivers/STM32F1xx_HAL_Driver/Src/stm32f1xx_hal_spi.c.obj
 .text.SPI_EndRxTxTransaction
                0x08001e40       0x24 CMakeFiles/LVGL_Porting.elf.dir/Drivers/STM32F1xx_HAL_Driver/Src/stm32f1xx_hal_spi.c.obj
 .text.HAL_SPI_Init
                0x08001e64       0xb6 CMakeFiles/LVGL_Porting.elf.dir/Drivers/STM32F1xx_HAL_Driver/Src/stm32f1xx_hal_spi.c.obj
                0x08001e64                HAL_SPI_Init
 .text.HAL_SPI_Transmit
                0x08001f1a      0x1ae CMakeFiles/LVGL_Porting.elf.dir/Drivers/STM32F1xx_HAL_Driver/Src/stm32f1xx_hal_spi.c.obj
                0x08001f1a                HAL_SPI_Transmit
 .text.TIM_TI1_ConfigInputStage
                0x080020c8       0x24 CMakeFiles/LVGL_Porting.elf.dir/Drivers/STM32F1xx_HAL_Driver/Src/stm32f1xx_hal_tim.c.obj
 .text.TIM_TI2_ConfigInputStage
                0x080020ec       0x26 CMakeFiles/LVGL_Porting.elf.dir/Drivers/STM32F1xx_HAL_Driver/Src/stm32f1xx_hal_tim.c.obj
 .text.TIM_ITRx_SetConfig
                0x08002112       0x10 CMakeFiles/LVGL_Porting.elf.dir/Drivers/STM32F1xx_HAL_Driver/Src/stm32f1xx_hal_tim.c.obj
 *fill*         0x08002122        0x2 
 .text.HAL_TIM_Base_Start_IT
                0x08002124       0x68 CMakeFiles/LVGL_Porting.elf.dir/Drivers/STM32F1xx_HAL_Driver/Src/stm32f1xx_hal_tim.c.obj
                0x08002124                HAL_TIM_Base_Start_IT
 .text.HAL_TIM_OC_DelayElapsedCallback
                0x0800218c        0x2 CMakeFiles/LVGL_Porting.elf.dir/Drivers/STM32F1xx_HAL_Driver/Src/stm32f1xx_hal_tim.c.obj
                0x0800218c                HAL_TIM_OC_DelayElapsedCallback
 .text.HAL_TIM_IC_CaptureCallback
                0x0800218e        0x2 CMakeFiles/LVGL_Porting.elf.dir/Drivers/STM32F1xx_HAL_Driver/Src/stm32f1xx_hal_tim.c.obj
                0x0800218e                HAL_TIM_IC_CaptureCallback
 .text.HAL_TIM_PWM_PulseFinishedCallback
                0x08002190        0x2 CMakeFiles/LVGL_Porting.elf.dir/Drivers/STM32F1xx_HAL_Driver/Src/stm32f1xx_hal_tim.c.obj
                0x08002190                HAL_TIM_PWM_PulseFinishedCallback
 .text.HAL_TIM_TriggerCallback
                0x08002192        0x2 CMakeFiles/LVGL_Porting.elf.dir/Drivers/STM32F1xx_HAL_Driver/Src/stm32f1xx_hal_tim.c.obj
                0x08002192                HAL_TIM_TriggerCallback
 .text.HAL_TIM_IRQHandler
                0x08002194      0x17a CMakeFiles/LVGL_Porting.elf.dir/Drivers/STM32F1xx_HAL_Driver/Src/stm32f1xx_hal_tim.c.obj
                0x08002194                HAL_TIM_IRQHandler
 *fill*         0x0800230e        0x2 
 .text.TIM_Base_SetConfig
                0x08002310       0x74 CMakeFiles/LVGL_Porting.elf.dir/Drivers/STM32F1xx_HAL_Driver/Src/stm32f1xx_hal_tim.c.obj
                0x08002310                TIM_Base_SetConfig
 .text.HAL_TIM_Base_Init
                0x08002384       0x58 CMakeFiles/LVGL_Porting.elf.dir/Drivers/STM32F1xx_HAL_Driver/Src/stm32f1xx_hal_tim.c.obj
                0x08002384                HAL_TIM_Base_Init
 .text.TIM_ETR_SetConfig
                0x080023dc       0x16 CMakeFiles/LVGL_Porting.elf.dir/Drivers/STM32F1xx_HAL_Driver/Src/stm32f1xx_hal_tim.c.obj
                0x080023dc                TIM_ETR_SetConfig
 .text.HAL_TIM_ConfigClockSource
                0x080023f2       0xda CMakeFiles/LVGL_Porting.elf.dir/Drivers/STM32F1xx_HAL_Driver/Src/stm32f1xx_hal_tim.c.obj
                0x080023f2                HAL_TIM_ConfigClockSource
 .text.HAL_TIMEx_MasterConfigSynchronization
                0x080024cc       0x68 CMakeFiles/LVGL_Porting.elf.dir/Drivers/STM32F1xx_HAL_Driver/Src/stm32f1xx_hal_tim_ex.c.obj
                0x080024cc                HAL_TIMEx_MasterConfigSynchronization
 .text.HAL_TIMEx_CommutCallback
                0x08002534        0x2 CMakeFiles/LVGL_Porting.elf.dir/Drivers/STM32F1xx_HAL_Driver/Src/stm32f1xx_hal_tim_ex.c.obj
                0x08002534                HAL_TIMEx_CommutCallback
 .text.HAL_TIMEx_BreakCallback
                0x08002536        0x2 CMakeFiles/LVGL_Porting.elf.dir/Drivers/STM32F1xx_HAL_Driver/Src/stm32f1xx_hal_tim_ex.c.obj
                0x08002536                HAL_TIMEx_BreakCallback
 .text.UART_SetConfig
                0x08002538       0x90 CMakeFiles/LVGL_Porting.elf.dir/Drivers/STM32F1xx_HAL_Driver/Src/stm32f1xx_hal_uart.c.obj
 .text.UART_WaitOnFlagUntilTimeout
                0x080025c8       0x68 CMakeFiles/LVGL_Porting.elf.dir/Drivers/STM32F1xx_HAL_Driver/Src/stm32f1xx_hal_uart.c.obj
 .text.HAL_UART_Init
                0x08002630       0x5e CMakeFiles/LVGL_Porting.elf.dir/Drivers/STM32F1xx_HAL_Driver/Src/stm32f1xx_hal_uart.c.obj
                0x08002630                HAL_UART_Init
 .text.HAL_UART_Transmit
                0x0800268e       0xd8 CMakeFiles/LVGL_Porting.elf.dir/Drivers/STM32F1xx_HAL_Driver/Src/stm32f1xx_hal_uart.c.obj
                0x0800268e                HAL_UART_Transmit
 .text.HAL_UART_Receive
                0x08002766       0xe4 CMakeFiles/LVGL_Porting.elf.dir/Drivers/STM32F1xx_HAL_Driver/Src/stm32f1xx_hal_uart.c.obj
                0x08002766                HAL_UART_Receive
 .text.LCD_Color_Fill
                0x0800284a       0x32 CMakeFiles/LVGL_Porting.elf.dir/LCD/lcd.c.obj
                0x0800284a                LCD_Color_Fill
 .text.LCD_Fill
                0x0800287c       0x3c CMakeFiles/LVGL_Porting.elf.dir/LCD/lcd.c.obj
                0x0800287c                LCD_Fill
 .text.LCD_GPIO_Init
                0x080028b8       0x34 CMakeFiles/LVGL_Porting.elf.dir/LCD/lcd_init.c.obj
                0x080028b8                LCD_GPIO_Init
 .text.LCD_Writ_Bus
                0x080028ec       0x3c CMakeFiles/LVGL_Porting.elf.dir/LCD/lcd_init.c.obj
                0x080028ec                LCD_Writ_Bus
 .text.LCD_WR_DATA8
                0x08002928        0x8 CMakeFiles/LVGL_Porting.elf.dir/LCD/lcd_init.c.obj
                0x08002928                LCD_WR_DATA8
 .text.LCD_WR_DATA
                0x08002930       0x40 CMakeFiles/LVGL_Porting.elf.dir/LCD/lcd_init.c.obj
                0x08002930                LCD_WR_DATA
 .text.LCD_WR_REG
                0x08002970       0x28 CMakeFiles/LVGL_Porting.elf.dir/LCD/lcd_init.c.obj
                0x08002970                LCD_WR_REG
 .text.LCD_Address_Set
                0x08002998       0x3e CMakeFiles/LVGL_Porting.elf.dir/LCD/lcd_init.c.obj
                0x08002998                LCD_Address_Set
 *fill*         0x080029d6        0x2 
 .text.LCD_Init
                0x080029d8      0x208 CMakeFiles/LVGL_Porting.elf.dir/LCD/lcd_init.c.obj
                0x080029d8                LCD_Init
 .text.my_disp_flush
                0x08002be0       0x2e CMakeFiles/LVGL_Porting.elf.dir/lvgl/porting/lv_port_disp.c.obj
                0x08002be0                my_disp_flush
 *fill*         0x08002c0e        0x2 
 .text.my_printf
                0x08002c10       0x18 CMakeFiles/LVGL_Porting.elf.dir/lvgl/porting/lv_port_disp.c.obj
                0x08002c10                my_printf
 .text.display_init
                0x08002c28       0x54 CMakeFiles/LVGL_Porting.elf.dir/lvgl/porting/lv_port_disp.c.obj
                0x08002c28                display_init
 .text.bar_create
                0x08002c7c       0x4e CMakeFiles/LVGL_Porting.elf.dir/lvgl/porting/lv_port_disp.c.obj
                0x08002c7c                bar_create
 .text.lv_debug_check_null
                0x08002cca        0x6 CMakeFiles/LVGL_Porting.elf.dir/lvgl/src/lv_core/lv_debug.c.obj
                0x08002cca                lv_debug_check_null
 .text.lv_debug_check_style
                0x08002cd0       0x30 CMakeFiles/LVGL_Porting.elf.dir/lvgl/src/lv_core/lv_debug.c.obj
                0x08002cd0                lv_debug_check_style
 .text.lv_debug_log_error
                0x08002d00       0x80 CMakeFiles/LVGL_Porting.elf.dir/lvgl/src/lv_core/lv_debug.c.obj
                0x08002d00                lv_debug_log_error
 .text.lv_disp_get_scr_act
                0x08002d80       0x2c CMakeFiles/LVGL_Porting.elf.dir/lvgl/src/lv_core/lv_disp.c.obj
                0x08002d80                lv_disp_get_scr_act
 .text.lv_disp_get_layer_top
                0x08002dac       0x2c CMakeFiles/LVGL_Porting.elf.dir/lvgl/src/lv_core/lv_disp.c.obj
                0x08002dac                lv_disp_get_layer_top
 .text.lv_disp_get_layer_sys
                0x08002dd8       0x2c CMakeFiles/LVGL_Porting.elf.dir/lvgl/src/lv_core/lv_disp.c.obj
                0x08002dd8                lv_disp_get_layer_sys
 .text.style_mod_def
                0x08002e04      0x1d6 CMakeFiles/LVGL_Porting.elf.dir/lvgl/src/lv_core/lv_group.c.obj
 .text.style_mod_edit_def
                0x08002fda      0x1b6 CMakeFiles/LVGL_Porting.elf.dir/lvgl/src/lv_core/lv_group.c.obj
 .text.refresh_theme
                0x08003190       0x28 CMakeFiles/LVGL_Porting.elf.dir/lvgl/src/lv_core/lv_group.c.obj
 .text.obj_to_foreground
                0x080031b8       0x24 CMakeFiles/LVGL_Porting.elf.dir/lvgl/src/lv_core/lv_group.c.obj
 .text.focus_next_core
                0x080031dc       0xc6 CMakeFiles/LVGL_Porting.elf.dir/lvgl/src/lv_core/lv_group.c.obj
 *fill*         0x080032a2        0x2 
 .text.lv_group_init
                0x080032a4       0x10 CMakeFiles/LVGL_Porting.elf.dir/lvgl/src/lv_core/lv_group.c.obj
                0x080032a4                lv_group_init
 .text.lv_group_focus_next
                0x080032b4       0x14 CMakeFiles/LVGL_Porting.elf.dir/lvgl/src/lv_core/lv_group.c.obj
                0x080032b4                lv_group_focus_next
 .text.lv_group_focus_prev
                0x080032c8       0x14 CMakeFiles/LVGL_Porting.elf.dir/lvgl/src/lv_core/lv_group.c.obj
                0x080032c8                lv_group_focus_prev
 .text.lv_group_refocus
                0x080032dc       0x32 CMakeFiles/LVGL_Porting.elf.dir/lvgl/src/lv_core/lv_group.c.obj
 *fill*         0x0800330e        0x2 
 .text.lv_group_add_obj
                0x08003310       0x88 CMakeFiles/LVGL_Porting.elf.dir/lvgl/src/lv_core/lv_group.c.obj
                0x08003310                lv_group_add_obj
 .text.lv_group_mod_style
                0x08003398       0x34 CMakeFiles/LVGL_Porting.elf.dir/lvgl/src/lv_core/lv_group.c.obj
                0x08003398                lv_group_mod_style
 .text.lv_group_get_focused
                0x080033cc        0xc CMakeFiles/LVGL_Porting.elf.dir/lvgl/src/lv_core/lv_group.c.obj
                0x080033cc                lv_group_get_focused
 .text.lv_group_report_style_mod
                0x080033d8       0x3c CMakeFiles/LVGL_Porting.elf.dir/lvgl/src/lv_core/lv_group.c.obj
                0x080033d8                lv_group_report_style_mod
 .text.lv_indev_get_act
                0x08003414        0xc CMakeFiles/LVGL_Porting.elf.dir/lvgl/src/lv_core/lv_indev.c.obj
                0x08003414                lv_indev_get_act
 .text.lv_indev_reset
                0x08003420       0x2e CMakeFiles/LVGL_Porting.elf.dir/lvgl/src/lv_core/lv_indev.c.obj
                0x08003420                lv_indev_reset
 .text.lv_indev_init
                0x0800344e        0xa CMakeFiles/LVGL_Porting.elf.dir/lvgl/src/lv_core/lv_indev.c.obj
                0x0800344e                lv_indev_init
 .text.refresh_children_position
                0x08003458       0x4e CMakeFiles/LVGL_Porting.elf.dir/lvgl/src/lv_core/lv_obj.c.obj
 *fill*         0x080034a6        0x2 
 .text.lv_init  0x080034a8       0x6c CMakeFiles/LVGL_Porting.elf.dir/lvgl/src/lv_core/lv_obj.c.obj
                0x080034a8                lv_init
 .text.lv_obj_set_click
                0x08003514       0x40 CMakeFiles/LVGL_Porting.elf.dir/lvgl/src/lv_core/lv_obj.c.obj
                0x08003514                lv_obj_set_click
 .text.lv_event_send_func
                0x08003554       0xc0 CMakeFiles/LVGL_Porting.elf.dir/lvgl/src/lv_core/lv_obj.c.obj
                0x08003554                lv_event_send_func
 .text.lv_event_send
                0x08003614       0x48 CMakeFiles/LVGL_Porting.elf.dir/lvgl/src/lv_core/lv_obj.c.obj
                0x08003614                lv_event_send
 .text.lv_obj_set_signal_cb
                0x0800365c       0x38 CMakeFiles/LVGL_Porting.elf.dir/lvgl/src/lv_core/lv_obj.c.obj
                0x0800365c                lv_obj_set_signal_cb
 .text.lv_obj_set_design_cb
                0x08003694       0x38 CMakeFiles/LVGL_Porting.elf.dir/lvgl/src/lv_core/lv_obj.c.obj
                0x08003694                lv_obj_set_design_cb
 .text.lv_obj_allocate_ext_attr
                0x080036cc       0x40 CMakeFiles/LVGL_Porting.elf.dir/lvgl/src/lv_core/lv_obj.c.obj
                0x080036cc                lv_obj_allocate_ext_attr
 .text.lv_obj_get_parent
                0x0800370c       0x34 CMakeFiles/LVGL_Porting.elf.dir/lvgl/src/lv_core/lv_obj.c.obj
                0x0800370c                lv_obj_get_parent
 .text.lv_obj_get_screen
                0x08003740       0x44 CMakeFiles/LVGL_Porting.elf.dir/lvgl/src/lv_core/lv_obj.c.obj
                0x08003740                lv_obj_get_screen
 .text.lv_obj_get_disp
                0x08003784       0x88 CMakeFiles/LVGL_Porting.elf.dir/lvgl/src/lv_core/lv_obj.c.obj
                0x08003784                lv_obj_get_disp
 .text.lv_obj_get_child
                0x0800380c       0x48 CMakeFiles/LVGL_Porting.elf.dir/lvgl/src/lv_core/lv_obj.c.obj
                0x0800380c                lv_obj_get_child
 .text.lv_obj_get_coords
                0x08003854       0x40 CMakeFiles/LVGL_Porting.elf.dir/lvgl/src/lv_core/lv_obj.c.obj
                0x08003854                lv_obj_get_coords
 .text.lv_obj_get_x
                0x08003894       0x4c CMakeFiles/LVGL_Porting.elf.dir/lvgl/src/lv_core/lv_obj.c.obj
                0x08003894                lv_obj_get_x
 .text.lv_obj_get_y
                0x080038e0       0x4c CMakeFiles/LVGL_Porting.elf.dir/lvgl/src/lv_core/lv_obj.c.obj
                0x080038e0                lv_obj_get_y
 .text.lv_obj_get_width
                0x0800392c       0x40 CMakeFiles/LVGL_Porting.elf.dir/lvgl/src/lv_core/lv_obj.c.obj
                0x0800392c                lv_obj_get_width
 .text.lv_obj_get_height
                0x0800396c       0x40 CMakeFiles/LVGL_Porting.elf.dir/lvgl/src/lv_core/lv_obj.c.obj
                0x0800396c                lv_obj_get_height
 .text.lv_obj_get_hidden
                0x080039ac       0x3c CMakeFiles/LVGL_Porting.elf.dir/lvgl/src/lv_core/lv_obj.c.obj
                0x080039ac                lv_obj_get_hidden
 .text.lv_obj_invalidate
                0x080039e8       0xe0 CMakeFiles/LVGL_Porting.elf.dir/lvgl/src/lv_core/lv_obj.c.obj
                0x080039e8                lv_obj_invalidate
 .text.lv_obj_move_foreground
                0x08003ac8       0x68 CMakeFiles/LVGL_Porting.elf.dir/lvgl/src/lv_core/lv_obj.c.obj
                0x08003ac8                lv_obj_move_foreground
 .text.lv_obj_set_pos
                0x08003b30       0xb4 CMakeFiles/LVGL_Porting.elf.dir/lvgl/src/lv_core/lv_obj.c.obj
                0x08003b30                lv_obj_set_pos
 .text.lv_obj_align
                0x08003be4      0x3b0 CMakeFiles/LVGL_Porting.elf.dir/lvgl/src/lv_core/lv_obj.c.obj
                0x08003be4                lv_obj_align
 .text.lv_obj_align_origo
                0x08003f94      0x334 CMakeFiles/LVGL_Porting.elf.dir/lvgl/src/lv_core/lv_obj.c.obj
                0x08003f94                lv_obj_align_origo
 .text.lv_obj_realign
                0x080042c8       0x70 CMakeFiles/LVGL_Porting.elf.dir/lvgl/src/lv_core/lv_obj.c.obj
                0x080042c8                lv_obj_realign
 .text.lv_obj_refresh_style
                0x08004338       0x48 CMakeFiles/LVGL_Porting.elf.dir/lvgl/src/lv_core/lv_obj.c.obj
                0x08004338                lv_obj_refresh_style
 .text.refresh_children_style
                0x08004380       0x40 CMakeFiles/LVGL_Porting.elf.dir/lvgl/src/lv_core/lv_obj.c.obj
 .text.lv_obj_set_style
                0x080043c0       0x68 CMakeFiles/LVGL_Porting.elf.dir/lvgl/src/lv_core/lv_obj.c.obj
                0x080043c0                lv_obj_set_style
 .text.report_style_mod_core
                0x08004428       0x3e CMakeFiles/LVGL_Porting.elf.dir/lvgl/src/lv_core/lv_obj.c.obj
 *fill*         0x08004466        0x2 
 .text.lv_obj_report_style_mod
                0x08004468       0x7c CMakeFiles/LVGL_Porting.elf.dir/lvgl/src/lv_core/lv_obj.c.obj
                0x08004468                lv_obj_report_style_mod
 .text.lv_obj_refresh_ext_draw_pad
                0x080044e4       0x44 CMakeFiles/LVGL_Porting.elf.dir/lvgl/src/lv_core/lv_obj.c.obj
                0x080044e4                lv_obj_refresh_ext_draw_pad
 .text.lv_obj_get_base_dir
                0x08004528        0x4 CMakeFiles/LVGL_Porting.elf.dir/lvgl/src/lv_core/lv_obj.c.obj
                0x08004528                lv_obj_get_base_dir
 .text.lv_obj_create
                0x0800452c      0x36c CMakeFiles/LVGL_Porting.elf.dir/lvgl/src/lv_core/lv_obj.c.obj
                0x0800452c                lv_obj_create
 .text.lv_obj_set_size
                0x08004898       0xe0 CMakeFiles/LVGL_Porting.elf.dir/lvgl/src/lv_core/lv_obj.c.obj
                0x08004898                lv_obj_set_size
 .text.lv_obj_get_opa_scale
                0x08004978       0x50 CMakeFiles/LVGL_Porting.elf.dir/lvgl/src/lv_core/lv_obj.c.obj
                0x08004978                lv_obj_get_opa_scale
 .text.lv_obj_is_protected
                0x080049c8       0x40 CMakeFiles/LVGL_Porting.elf.dir/lvgl/src/lv_core/lv_obj.c.obj
                0x080049c8                lv_obj_is_protected
 .text.lv_obj_get_signal_cb
                0x08004a08       0x34 CMakeFiles/LVGL_Porting.elf.dir/lvgl/src/lv_core/lv_obj.c.obj
                0x08004a08                lv_obj_get_signal_cb
 .text.lv_obj_get_design_cb
                0x08004a3c       0x34 CMakeFiles/LVGL_Porting.elf.dir/lvgl/src/lv_core/lv_obj.c.obj
                0x08004a3c                lv_obj_get_design_cb
 .text.lv_obj_get_ext_attr
                0x08004a70       0x34 CMakeFiles/LVGL_Porting.elf.dir/lvgl/src/lv_core/lv_obj.c.obj
                0x08004a70                lv_obj_get_ext_attr
 .text.lv_obj_get_group
                0x08004aa4       0x34 CMakeFiles/LVGL_Porting.elf.dir/lvgl/src/lv_core/lv_obj.c.obj
                0x08004aa4                lv_obj_get_group
 .text.lv_obj_get_style
                0x08004ad8       0x94 CMakeFiles/LVGL_Porting.elf.dir/lvgl/src/lv_core/lv_obj.c.obj
                0x08004ad8                lv_obj_get_style
 .text.lv_obj_design
                0x08004b6c       0xb2 CMakeFiles/LVGL_Porting.elf.dir/lvgl/src/lv_core/lv_obj.c.obj
 *fill*         0x08004c1e        0x2 
 .text.lv_obj_is_focused
                0x08004c20       0x48 CMakeFiles/LVGL_Porting.elf.dir/lvgl/src/lv_core/lv_obj.c.obj
                0x08004c20                lv_obj_is_focused
 .text.lv_obj_handle_get_type_signal
                0x08004c68       0x1a CMakeFiles/LVGL_Porting.elf.dir/lvgl/src/lv_core/lv_obj.c.obj
                0x08004c68                lv_obj_handle_get_type_signal
 *fill*         0x08004c82        0x2 
 .text.lv_obj_signal
                0x08004c84       0x5c CMakeFiles/LVGL_Porting.elf.dir/lvgl/src/lv_core/lv_obj.c.obj
 .text.lv_refr_join_area
                0x08004ce0       0xcc CMakeFiles/LVGL_Porting.elf.dir/lvgl/src/lv_core/lv_refr.c.obj
 .text.lv_refr_get_top_obj
                0x08004dac       0x76 CMakeFiles/LVGL_Porting.elf.dir/lvgl/src/lv_core/lv_refr.c.obj
 .text.lv_refr_obj
                0x08004e22       0xe8 CMakeFiles/LVGL_Porting.elf.dir/lvgl/src/lv_core/lv_refr.c.obj
 *fill*         0x08004f0a        0x2 
 .text.lv_refr_obj_and_children
                0x08004f0c       0x68 CMakeFiles/LVGL_Porting.elf.dir/lvgl/src/lv_core/lv_refr.c.obj
 .text.lv_refr_init
                0x08004f74        0x2 CMakeFiles/LVGL_Porting.elf.dir/lvgl/src/lv_core/lv_refr.c.obj
                0x08004f74                lv_refr_init
 .text.lv_inv_area
                0x08004f76       0xc4 CMakeFiles/LVGL_Porting.elf.dir/lvgl/src/lv_core/lv_refr.c.obj
                0x08004f76                lv_inv_area
 *fill*         0x0800503a        0x2 
 .text.lv_refr_get_disp_refreshing
                0x0800503c        0xc CMakeFiles/LVGL_Porting.elf.dir/lvgl/src/lv_core/lv_refr.c.obj
                0x0800503c                lv_refr_get_disp_refreshing
 .text.lv_refr_vdb_flush
                0x08005048       0x50 CMakeFiles/LVGL_Porting.elf.dir/lvgl/src/lv_core/lv_refr.c.obj
 .text.lv_refr_area_part
                0x08005098       0x70 CMakeFiles/LVGL_Porting.elf.dir/lvgl/src/lv_core/lv_refr.c.obj
 .text.lv_refr_area
                0x08005108      0x174 CMakeFiles/LVGL_Porting.elf.dir/lvgl/src/lv_core/lv_refr.c.obj
 .text.lv_refr_areas
                0x0800527c       0x5c CMakeFiles/LVGL_Porting.elf.dir/lvgl/src/lv_core/lv_refr.c.obj
 .text.lv_disp_refr_task
                0x080052d8      0x130 CMakeFiles/LVGL_Porting.elf.dir/lvgl/src/lv_core/lv_refr.c.obj
                0x080052d8                lv_disp_refr_task
 .text.lv_style_copy
                0x08005408       0x22 CMakeFiles/LVGL_Porting.elf.dir/lvgl/src/lv_core/lv_style.c.obj
                0x08005408                lv_style_copy
 *fill*         0x0800542a        0x2 
 .text.lv_style_init
                0x0800542c      0x594 CMakeFiles/LVGL_Porting.elf.dir/lvgl/src/lv_core/lv_style.c.obj
                0x0800542c                lv_style_init
 .text.lv_draw_get_buf
                0x080059c0       0x90 CMakeFiles/LVGL_Porting.elf.dir/lvgl/src/lv_draw/lv_draw.c.obj
                0x080059c0                lv_draw_get_buf
 .text.lv_draw_free_buf
                0x08005a50       0x20 CMakeFiles/LVGL_Porting.elf.dir/lvgl/src/lv_draw/lv_draw.c.obj
                0x08005a50                lv_draw_free_buf
 .text.lv_draw_aa_get_opa
                0x08005a70       0x30 CMakeFiles/LVGL_Porting.elf.dir/lvgl/src/lv_draw/lv_draw.c.obj
                0x08005a70                lv_draw_aa_get_opa
 .text.sw_color_fill
                0x08005aa0      0x18c CMakeFiles/LVGL_Porting.elf.dir/lvgl/src/lv_draw/lv_draw_basic.c.obj
 .text.lv_draw_px
                0x08005c2c       0xe2 CMakeFiles/LVGL_Porting.elf.dir/lvgl/src/lv_draw/lv_draw_basic.c.obj
                0x08005c2c                lv_draw_px
 .text.lv_draw_fill
                0x08005d0e       0x72 CMakeFiles/LVGL_Porting.elf.dir/lvgl/src/lv_draw/lv_draw_basic.c.obj
                0x08005d0e                lv_draw_fill
 .text.lv_img_color_format_get_px_size
                0x08005d80       0x32 CMakeFiles/LVGL_Porting.elf.dir/lvgl/src/lv_draw/lv_draw_img.c.obj
                0x08005d80                lv_img_color_format_get_px_size
 .text.lv_img_src_get_type
                0x08005db2       0x24 CMakeFiles/LVGL_Porting.elf.dir/lvgl/src/lv_draw/lv_draw_img.c.obj
                0x08005db2                lv_img_src_get_type
 *fill*         0x08005dd6        0x2 
 .text.antialias_get_opa_circ
                0x08005dd8       0x58 CMakeFiles/LVGL_Porting.elf.dir/lvgl/src/lv_draw/lv_draw_rect.c.obj
 .text.lv_draw_cont_radius_corr
                0x08005e30       0x3a CMakeFiles/LVGL_Porting.elf.dir/lvgl/src/lv_draw/lv_draw_rect.c.obj
 .text.lv_draw_shadow_full_straight
                0x08005e6a      0x16c CMakeFiles/LVGL_Porting.elf.dir/lvgl/src/lv_draw/lv_draw_rect.c.obj
 .text.lv_draw_shadow_full
                0x08005fd6      0x342 CMakeFiles/LVGL_Porting.elf.dir/lvgl/src/lv_draw/lv_draw_rect.c.obj
 .text.lv_draw_shadow_bottom
                0x08006318      0x208 CMakeFiles/LVGL_Porting.elf.dir/lvgl/src/lv_draw/lv_draw_rect.c.obj
 .text.lv_draw_shadow
                0x08006520       0xac CMakeFiles/LVGL_Porting.elf.dir/lvgl/src/lv_draw/lv_draw_rect.c.obj
 .text.lv_draw_rect_main_mid
                0x080065cc      0x19a CMakeFiles/LVGL_Porting.elf.dir/lvgl/src/lv_draw/lv_draw_rect.c.obj
 .text.lv_draw_rect_border_straight
                0x08006766      0x49c CMakeFiles/LVGL_Porting.elf.dir/lvgl/src/lv_draw/lv_draw_rect.c.obj
 .text.lv_draw_rect_main_corner
                0x08006c02      0xde6 CMakeFiles/LVGL_Porting.elf.dir/lvgl/src/lv_draw/lv_draw_rect.c.obj
 .text.lv_draw_rect_border_corner
                0x080079e8      0xae0 CMakeFiles/LVGL_Porting.elf.dir/lvgl/src/lv_draw/lv_draw_rect.c.obj
 .text.lv_draw_rect
                0x080084c8       0xa4 CMakeFiles/LVGL_Porting.elf.dir/lvgl/src/lv_draw/lv_draw_rect.c.obj
                0x080084c8                lv_draw_rect
 .text.lv_img_cache_invalidate_src
                0x0800856c       0x48 CMakeFiles/LVGL_Porting.elf.dir/lvgl/src/lv_draw/lv_img_cache.c.obj
                0x0800856c                lv_img_cache_invalidate_src
 .text.lv_img_cache_set_size
                0x080085b4       0x9c CMakeFiles/LVGL_Porting.elf.dir/lvgl/src/lv_draw/lv_img_cache.c.obj
                0x080085b4                lv_img_cache_set_size
 .text.lv_img_decoder_built_in_line_true_color
                0x08008650       0x1c CMakeFiles/LVGL_Porting.elf.dir/lvgl/src/lv_draw/lv_img_decoder.c.obj
 .text.lv_img_decoder_built_in_info
                0x0800866c       0x84 CMakeFiles/LVGL_Porting.elf.dir/lvgl/src/lv_draw/lv_img_decoder.c.obj
                0x0800866c                lv_img_decoder_built_in_info
 .text.lv_img_decoder_built_in_close
                0x080086f0       0x1c CMakeFiles/LVGL_Porting.elf.dir/lvgl/src/lv_draw/lv_img_decoder.c.obj
                0x080086f0                lv_img_decoder_built_in_close
 .text.lv_img_decoder_built_in_open
                0x0800870c      0x170 CMakeFiles/LVGL_Porting.elf.dir/lvgl/src/lv_draw/lv_img_decoder.c.obj
                0x0800870c                lv_img_decoder_built_in_open
 .text.lv_img_decoder_built_in_line_alpha
                0x0800887c      0x184 CMakeFiles/LVGL_Porting.elf.dir/lvgl/src/lv_draw/lv_img_decoder.c.obj
 .text.lv_img_decoder_built_in_line_indexed
                0x08008a00      0x150 CMakeFiles/LVGL_Porting.elf.dir/lvgl/src/lv_draw/lv_img_decoder.c.obj
 .text.lv_img_decoder_built_in_read_line
                0x08008b50       0x78 CMakeFiles/LVGL_Porting.elf.dir/lvgl/src/lv_draw/lv_img_decoder.c.obj
                0x08008b50                lv_img_decoder_built_in_read_line
 .text.lv_img_decoder_close
                0x08008bc8       0x24 CMakeFiles/LVGL_Porting.elf.dir/lvgl/src/lv_draw/lv_img_decoder.c.obj
                0x08008bc8                lv_img_decoder_close
 .text.lv_img_decoder_create
                0x08008bec       0x48 CMakeFiles/LVGL_Porting.elf.dir/lvgl/src/lv_draw/lv_img_decoder.c.obj
                0x08008bec                lv_img_decoder_create
 .text.lv_img_decoder_set_info_cb
                0x08008c34        0x4 CMakeFiles/LVGL_Porting.elf.dir/lvgl/src/lv_draw/lv_img_decoder.c.obj
                0x08008c34                lv_img_decoder_set_info_cb
 .text.lv_img_decoder_set_open_cb
                0x08008c38        0x4 CMakeFiles/LVGL_Porting.elf.dir/lvgl/src/lv_draw/lv_img_decoder.c.obj
                0x08008c38                lv_img_decoder_set_open_cb
 .text.lv_img_decoder_set_read_line_cb
                0x08008c3c        0x4 CMakeFiles/LVGL_Porting.elf.dir/lvgl/src/lv_draw/lv_img_decoder.c.obj
                0x08008c3c                lv_img_decoder_set_read_line_cb
 .text.lv_img_decoder_set_close_cb
                0x08008c40        0x4 CMakeFiles/LVGL_Porting.elf.dir/lvgl/src/lv_draw/lv_img_decoder.c.obj
                0x08008c40                lv_img_decoder_set_close_cb
 .text.lv_img_decoder_init
                0x08008c44       0x84 CMakeFiles/LVGL_Porting.elf.dir/lvgl/src/lv_draw/lv_img_decoder.c.obj
                0x08008c44                lv_img_decoder_init
 .text.kern_pair_8_compare
                0x08008cc8       0x14 CMakeFiles/LVGL_Porting.elf.dir/lvgl/src/lv_font/lv_font_fmt_txt.c.obj
 .text.kern_pair_16_compare
                0x08008cdc       0x14 CMakeFiles/LVGL_Porting.elf.dir/lvgl/src/lv_font/lv_font_fmt_txt.c.obj
 .text.get_bits
                0x08008cf0       0x2c CMakeFiles/LVGL_Porting.elf.dir/lvgl/src/lv_font/lv_font_fmt_txt.c.obj
 .text.bits_write
                0x08008d1c       0x74 CMakeFiles/LVGL_Porting.elf.dir/lvgl/src/lv_font/lv_font_fmt_txt.c.obj
 .text.rle_init
                0x08008d90       0x34 CMakeFiles/LVGL_Porting.elf.dir/lvgl/src/lv_font/lv_font_fmt_txt.c.obj
 .text.rle_next
                0x08008dc4      0x130 CMakeFiles/LVGL_Porting.elf.dir/lvgl/src/lv_font/lv_font_fmt_txt.c.obj
 .text.decompress_line
                0x08008ef4       0x1a CMakeFiles/LVGL_Porting.elf.dir/lvgl/src/lv_font/lv_font_fmt_txt.c.obj
 .text.unicode_list_compare
                0x08008f0e        0x8 CMakeFiles/LVGL_Porting.elf.dir/lvgl/src/lv_font/lv_font_fmt_txt.c.obj
 *fill*         0x08008f16        0x2 
 .text.get_glyph_dsc_id
                0x08008f18       0xcc CMakeFiles/LVGL_Porting.elf.dir/lvgl/src/lv_font/lv_font_fmt_txt.c.obj
 .text.get_kern_value
                0x08008fe4       0xac CMakeFiles/LVGL_Porting.elf.dir/lvgl/src/lv_font/lv_font_fmt_txt.c.obj
 .text.decompress
                0x08009090       0x98 CMakeFiles/LVGL_Porting.elf.dir/lvgl/src/lv_font/lv_font_fmt_txt.c.obj
 .text.lv_font_get_bitmap_fmt_txt
                0x08009128       0xe8 CMakeFiles/LVGL_Porting.elf.dir/lvgl/src/lv_font/lv_font_fmt_txt.c.obj
                0x08009128                lv_font_get_bitmap_fmt_txt
 .text.lv_font_get_glyph_dsc_fmt_txt
                0x08009210       0x78 CMakeFiles/LVGL_Porting.elf.dir/lvgl/src/lv_font/lv_font_fmt_txt.c.obj
                0x08009210                lv_font_get_glyph_dsc_fmt_txt
 .text.lv_disp_drv_init
                0x08009288       0x44 CMakeFiles/LVGL_Porting.elf.dir/lvgl/src/lv_hal/lv_hal_disp.c.obj
                0x08009288                lv_disp_drv_init
 .text.lv_disp_buf_init
                0x080092cc       0x16 CMakeFiles/LVGL_Porting.elf.dir/lvgl/src/lv_hal/lv_hal_disp.c.obj
                0x080092cc                lv_disp_buf_init
 *fill*         0x080092e2        0x2 
 .text.lv_disp_drv_register
                0x080092e4      0x124 CMakeFiles/LVGL_Porting.elf.dir/lvgl/src/lv_hal/lv_hal_disp.c.obj
                0x080092e4                lv_disp_drv_register
 .text.lv_disp_get_default
                0x08009408        0xc CMakeFiles/LVGL_Porting.elf.dir/lvgl/src/lv_hal/lv_hal_disp.c.obj
                0x08009408                lv_disp_get_default
 .text.lv_disp_get_hor_res
                0x08009414       0x28 CMakeFiles/LVGL_Porting.elf.dir/lvgl/src/lv_hal/lv_hal_disp.c.obj
                0x08009414                lv_disp_get_hor_res
 .text.lv_disp_get_ver_res
                0x0800943c       0x28 CMakeFiles/LVGL_Porting.elf.dir/lvgl/src/lv_hal/lv_hal_disp.c.obj
                0x0800943c                lv_disp_get_ver_res
 .text.lv_disp_get_antialiasing
                0x08009464       0x1c CMakeFiles/LVGL_Porting.elf.dir/lvgl/src/lv_hal/lv_hal_disp.c.obj
                0x08009464                lv_disp_get_antialiasing
 .text.lv_disp_flush_ready
                0x08009480        0xc CMakeFiles/LVGL_Porting.elf.dir/lvgl/src/lv_hal/lv_hal_disp.c.obj
                0x08009480                lv_disp_flush_ready
 .text.lv_disp_get_next
                0x0800948c       0x1c CMakeFiles/LVGL_Porting.elf.dir/lvgl/src/lv_hal/lv_hal_disp.c.obj
                0x0800948c                lv_disp_get_next
 .text.lv_disp_get_buf
                0x080094a8        0x4 CMakeFiles/LVGL_Porting.elf.dir/lvgl/src/lv_hal/lv_hal_disp.c.obj
                0x080094a8                lv_disp_get_buf
 .text.lv_disp_is_double_buf
                0x080094ac       0x16 CMakeFiles/LVGL_Porting.elf.dir/lvgl/src/lv_hal/lv_hal_disp.c.obj
                0x080094ac                lv_disp_is_double_buf
 .text.lv_disp_is_true_double_buf
                0x080094c2       0x26 CMakeFiles/LVGL_Porting.elf.dir/lvgl/src/lv_hal/lv_hal_disp.c.obj
                0x080094c2                lv_disp_is_true_double_buf
 .text.lv_indev_get_next
                0x080094e8       0x1c CMakeFiles/LVGL_Porting.elf.dir/lvgl/src/lv_hal/lv_hal_indev.c.obj
                0x080094e8                lv_indev_get_next
 .text.lv_tick_inc
                0x08009504       0x18 CMakeFiles/LVGL_Porting.elf.dir/lvgl/src/lv_hal/lv_hal_tick.c.obj
                0x08009504                lv_tick_inc
 .text.lv_tick_get
                0x0800951c       0x1c CMakeFiles/LVGL_Porting.elf.dir/lvgl/src/lv_hal/lv_hal_tick.c.obj
                0x0800951c                lv_tick_get
 .text.lv_tick_elaps
                0x08009538       0x14 CMakeFiles/LVGL_Porting.elf.dir/lvgl/src/lv_hal/lv_hal_tick.c.obj
                0x08009538                lv_tick_elaps
 .text.lv_anim_path_linear
                0x0800954c       0x28 CMakeFiles/LVGL_Porting.elf.dir/lvgl/src/lv_misc/lv_anim.c.obj
                0x0800954c                lv_anim_path_linear
 .text.anim_ready_handler
                0x08009574       0x98 CMakeFiles/LVGL_Porting.elf.dir/lvgl/src/lv_misc/lv_anim.c.obj
 .text.anim_task
                0x0800960c       0xb8 CMakeFiles/LVGL_Porting.elf.dir/lvgl/src/lv_misc/lv_anim.c.obj
 .text.lv_anim_core_init
                0x080096c4       0x2c CMakeFiles/LVGL_Porting.elf.dir/lvgl/src/lv_misc/lv_anim.c.obj
                0x080096c4                lv_anim_core_init
 .text.lv_anim_del
                0x080096f0       0x5c CMakeFiles/LVGL_Porting.elf.dir/lvgl/src/lv_misc/lv_anim.c.obj
                0x080096f0                lv_anim_del
 .text.lv_anim_create
                0x0800974c       0x8c CMakeFiles/LVGL_Porting.elf.dir/lvgl/src/lv_misc/lv_anim.c.obj
                0x0800974c                lv_anim_create
 .text.lv_area_set
                0x080097d8        0xe CMakeFiles/LVGL_Porting.elf.dir/lvgl/src/lv_misc/lv_area.c.obj
                0x080097d8                lv_area_set
 .text.lv_area_get_size
                0x080097e6       0x1c CMakeFiles/LVGL_Porting.elf.dir/lvgl/src/lv_misc/lv_area.c.obj
                0x080097e6                lv_area_get_size
 .text.lv_area_intersect
                0x08009802       0x58 CMakeFiles/LVGL_Porting.elf.dir/lvgl/src/lv_misc/lv_area.c.obj
                0x08009802                lv_area_intersect
 .text.lv_area_join
                0x0800985a       0x46 CMakeFiles/LVGL_Porting.elf.dir/lvgl/src/lv_misc/lv_area.c.obj
                0x0800985a                lv_area_join
 .text.lv_area_is_on
                0x080098a0       0x44 CMakeFiles/LVGL_Porting.elf.dir/lvgl/src/lv_misc/lv_area.c.obj
                0x080098a0                lv_area_is_on
 .text.lv_area_is_in
                0x080098e4       0x44 CMakeFiles/LVGL_Porting.elf.dir/lvgl/src/lv_misc/lv_area.c.obj
                0x080098e4                lv_area_is_in
 .text.lv_circ_init
                0x08009928        0xe CMakeFiles/LVGL_Porting.elf.dir/lvgl/src/lv_misc/lv_circ.c.obj
                0x08009928                lv_circ_init
 .text.lv_circ_cont
                0x08009936       0x12 CMakeFiles/LVGL_Porting.elf.dir/lvgl/src/lv_misc/lv_circ.c.obj
                0x08009936                lv_circ_cont
 .text.lv_circ_next
                0x08009948       0x3c CMakeFiles/LVGL_Porting.elf.dir/lvgl/src/lv_misc/lv_circ.c.obj
                0x08009948                lv_circ_next
 .text.lv_color_hsv_to_rgb
                0x08009984       0xfc CMakeFiles/LVGL_Porting.elf.dir/lvgl/src/lv_misc/lv_color.c.obj
                0x08009984                lv_color_hsv_to_rgb
 .text.node_set_next
                0x08009a80       0x1c CMakeFiles/LVGL_Porting.elf.dir/lvgl/src/lv_misc/lv_ll.c.obj
 .text.node_set_prev
                0x08009a9c       0x14 CMakeFiles/LVGL_Porting.elf.dir/lvgl/src/lv_misc/lv_ll.c.obj
 .text.lv_ll_init
                0x08009ab0       0x16 CMakeFiles/LVGL_Porting.elf.dir/lvgl/src/lv_misc/lv_ll.c.obj
                0x08009ab0                lv_ll_init
 .text.lv_ll_ins_head
                0x08009ac6       0x3e CMakeFiles/LVGL_Porting.elf.dir/lvgl/src/lv_misc/lv_ll.c.obj
                0x08009ac6                lv_ll_ins_head
 .text.lv_ll_ins_tail
                0x08009b04       0x3e CMakeFiles/LVGL_Porting.elf.dir/lvgl/src/lv_misc/lv_ll.c.obj
                0x08009b04                lv_ll_ins_tail
 .text.lv_ll_get_head
                0x08009b42        0x8 CMakeFiles/LVGL_Porting.elf.dir/lvgl/src/lv_misc/lv_ll.c.obj
                0x08009b42                lv_ll_get_head
 .text.lv_ll_get_tail
                0x08009b4a        0x8 CMakeFiles/LVGL_Porting.elf.dir/lvgl/src/lv_misc/lv_ll.c.obj
                0x08009b4a                lv_ll_get_tail
 .text.lv_ll_get_next
                0x08009b52        0xc CMakeFiles/LVGL_Porting.elf.dir/lvgl/src/lv_misc/lv_ll.c.obj
                0x08009b52                lv_ll_get_next
 .text.lv_ll_get_prev
                0x08009b5e        0xa CMakeFiles/LVGL_Porting.elf.dir/lvgl/src/lv_misc/lv_ll.c.obj
                0x08009b5e                lv_ll_get_prev
 .text.lv_ll_ins_prev
                0x08009b68       0x66 CMakeFiles/LVGL_Porting.elf.dir/lvgl/src/lv_misc/lv_ll.c.obj
                0x08009b68                lv_ll_ins_prev
 .text.lv_ll_rem
                0x08009bce       0x7e CMakeFiles/LVGL_Porting.elf.dir/lvgl/src/lv_misc/lv_ll.c.obj
                0x08009bce                lv_ll_rem
 .text.lv_ll_chg_list
                0x08009c4c       0x68 CMakeFiles/LVGL_Porting.elf.dir/lvgl/src/lv_misc/lv_ll.c.obj
                0x08009c4c                lv_ll_chg_list
 .text.lv_ll_move_before
                0x08009cb4       0x62 CMakeFiles/LVGL_Porting.elf.dir/lvgl/src/lv_misc/lv_ll.c.obj
                0x08009cb4                lv_ll_move_before
 *fill*         0x08009d16        0x2 
 .text.lv_log_register_print_cb
                0x08009d18        0xc CMakeFiles/LVGL_Porting.elf.dir/lvgl/src/lv_misc/lv_log.c.obj
                0x08009d18                lv_log_register_print_cb
 .text.lv_log_add
                0x08009d24       0x1c CMakeFiles/LVGL_Porting.elf.dir/lvgl/src/lv_misc/lv_log.c.obj
                0x08009d24                lv_log_add
 .text.ent_get_next
                0x08009d40       0x28 CMakeFiles/LVGL_Porting.elf.dir/lvgl/src/lv_misc/lv_mem.c.obj
 .text.ent_trunc
                0x08009d68       0x52 CMakeFiles/LVGL_Porting.elf.dir/lvgl/src/lv_misc/lv_mem.c.obj
 .text.ent_alloc
                0x08009dba       0x30 CMakeFiles/LVGL_Porting.elf.dir/lvgl/src/lv_misc/lv_mem.c.obj
 *fill*         0x08009dea        0x2 
 .text.lv_mem_init
                0x08009dec       0x24 CMakeFiles/LVGL_Porting.elf.dir/lvgl/src/lv_misc/lv_mem.c.obj
                0x08009dec                lv_mem_init
 .text.lv_mem_alloc
                0x08009e10       0x58 CMakeFiles/LVGL_Porting.elf.dir/lvgl/src/lv_misc/lv_mem.c.obj
                0x08009e10                lv_mem_alloc
 .text.lv_mem_free
                0x08009e68       0x50 CMakeFiles/LVGL_Porting.elf.dir/lvgl/src/lv_misc/lv_mem.c.obj
                0x08009e68                lv_mem_free
 .text.lv_mem_get_size
                0x08009eb8       0x20 CMakeFiles/LVGL_Porting.elf.dir/lvgl/src/lv_misc/lv_mem.c.obj
                0x08009eb8                lv_mem_get_size
 .text.lv_mem_realloc
                0x08009ed8       0x74 CMakeFiles/LVGL_Porting.elf.dir/lvgl/src/lv_misc/lv_mem.c.obj
                0x08009ed8                lv_mem_realloc
 .text.lv_task_create_basic
                0x08009f4c       0xf4 CMakeFiles/LVGL_Porting.elf.dir/lvgl/src/lv_misc/lv_task.c.obj
                0x08009f4c                lv_task_create_basic
 .text.lv_task_set_cb
                0x0800a040        0x4 CMakeFiles/LVGL_Porting.elf.dir/lvgl/src/lv_misc/lv_task.c.obj
                0x0800a040                lv_task_set_cb
 .text.lv_task_del
                0x0800a044       0x30 CMakeFiles/LVGL_Porting.elf.dir/lvgl/src/lv_misc/lv_task.c.obj
                0x0800a044                lv_task_del
 .text.lv_task_exec
                0x0800a074       0x54 CMakeFiles/LVGL_Porting.elf.dir/lvgl/src/lv_misc/lv_task.c.obj
 .text.lv_task_handler
                0x0800a0c8      0x16c CMakeFiles/LVGL_Porting.elf.dir/lvgl/src/lv_misc/lv_task.c.obj
                0x0800a0c8                lv_task_handler
 .text.lv_task_set_prio
                0x0800a234       0x5c CMakeFiles/LVGL_Porting.elf.dir/lvgl/src/lv_misc/lv_task.c.obj
                0x0800a234                lv_task_set_prio
 .text.lv_task_set_period
                0x0800a290        0x4 CMakeFiles/LVGL_Porting.elf.dir/lvgl/src/lv_misc/lv_task.c.obj
                0x0800a290                lv_task_set_period
 .text.lv_task_create
                0x0800a294       0x60 CMakeFiles/LVGL_Porting.elf.dir/lvgl/src/lv_misc/lv_task.c.obj
                0x0800a294                lv_task_create
 .text.lv_task_ready
                0x0800a2f4       0x12 CMakeFiles/LVGL_Porting.elf.dir/lvgl/src/lv_misc/lv_task.c.obj
                0x0800a2f4                lv_task_ready
 *fill*         0x0800a306        0x2 
 .text.lv_task_enable
                0x0800a308        0xc CMakeFiles/LVGL_Porting.elf.dir/lvgl/src/lv_misc/lv_task.c.obj
                0x0800a308                lv_task_enable
 .text.lv_task_core_init
                0x0800a314       0x18 CMakeFiles/LVGL_Porting.elf.dir/lvgl/src/lv_misc/lv_task.c.obj
                0x0800a314                lv_task_core_init
 .text.lv_utils_bsearch
                0x0800a32c       0x4a CMakeFiles/LVGL_Porting.elf.dir/lvgl/src/lv_misc/lv_utils.c.obj
                0x0800a32c                lv_utils_bsearch
 .text.lv_bar_anim
                0x0800a376       0x14 CMakeFiles/LVGL_Porting.elf.dir/lvgl/src/lv_objx/lv_bar.c.obj
 *fill*         0x0800a38a        0x2 
 .text.lv_bar_set_value
                0x0800a38c       0xd0 CMakeFiles/LVGL_Porting.elf.dir/lvgl/src/lv_objx/lv_bar.c.obj
                0x0800a38c                lv_bar_set_value
 .text.lv_bar_anim_ready
                0x0800a45c       0x1e CMakeFiles/LVGL_Porting.elf.dir/lvgl/src/lv_objx/lv_bar.c.obj
 *fill*         0x0800a47a        0x2 
 .text.lv_bar_set_anim_time
                0x0800a47c       0x3c CMakeFiles/LVGL_Porting.elf.dir/lvgl/src/lv_objx/lv_bar.c.obj
                0x0800a47c                lv_bar_set_anim_time
 .text.lv_bar_set_style
                0x0800a4b8       0x54 CMakeFiles/LVGL_Porting.elf.dir/lvgl/src/lv_objx/lv_bar.c.obj
                0x0800a4b8                lv_bar_set_style
 .text.lv_bar_create
                0x0800a50c      0x168 CMakeFiles/LVGL_Porting.elf.dir/lvgl/src/lv_objx/lv_bar.c.obj
                0x0800a50c                lv_bar_create
 .text.lv_bar_get_style
                0x0800a674       0x50 CMakeFiles/LVGL_Porting.elf.dir/lvgl/src/lv_objx/lv_bar.c.obj
                0x0800a674                lv_bar_get_style
 .text.lv_bar_design
                0x0800a6c4      0x2c8 CMakeFiles/LVGL_Porting.elf.dir/lvgl/src/lv_objx/lv_bar.c.obj
 .text.lv_bar_signal
                0x0800a98c       0x4c CMakeFiles/LVGL_Porting.elf.dir/lvgl/src/lv_objx/lv_bar.c.obj
 .text.lv_theme_set_current
                0x0800a9d8       0x18 CMakeFiles/LVGL_Porting.elf.dir/lvgl/src/lv_themes/lv_theme.c.obj
                0x0800a9d8                lv_theme_set_current
 .text.lv_theme_get_current
                0x0800a9f0        0xc CMakeFiles/LVGL_Porting.elf.dir/lvgl/src/lv_themes/lv_theme.c.obj
                0x0800a9f0                lv_theme_get_current
 .text.cont_init
                0x0800a9fc        0xc CMakeFiles/LVGL_Porting.elf.dir/lvgl/src/lv_themes/lv_theme_material.c.obj
 .text.line_init
                0x0800aa08       0x10 CMakeFiles/LVGL_Porting.elf.dir/lvgl/src/lv_themes/lv_theme_material.c.obj
 .text.preload_init
                0x0800aa18        0xc CMakeFiles/LVGL_Porting.elf.dir/lvgl/src/lv_themes/lv_theme_material.c.obj
 .text.chart_init
                0x0800aa24       0x10 CMakeFiles/LVGL_Porting.elf.dir/lvgl/src/lv_themes/lv_theme_material.c.obj
 .text.page_init
                0x0800aa34       0x24 CMakeFiles/LVGL_Porting.elf.dir/lvgl/src/lv_themes/lv_theme_material.c.obj
 .text.spinbox_init
                0x0800aa58       0x20 CMakeFiles/LVGL_Porting.elf.dir/lvgl/src/lv_themes/lv_theme_material.c.obj
 .text.tileview_init
                0x0800aa78       0x20 CMakeFiles/LVGL_Porting.elf.dir/lvgl/src/lv_themes/lv_theme_material.c.obj
 .text.style_mod_edit
                0x0800aa98      0x2a8 CMakeFiles/LVGL_Porting.elf.dir/lvgl/src/lv_themes/lv_theme_material.c.obj
 .text.style_mod
                0x0800ad40      0x298 CMakeFiles/LVGL_Porting.elf.dir/lvgl/src/lv_themes/lv_theme_material.c.obj
 .text.basic_init
                0x0800afd8      0x160 CMakeFiles/LVGL_Porting.elf.dir/lvgl/src/lv_themes/lv_theme_material.c.obj
 .text.btn_init
                0x0800b138      0x140 CMakeFiles/LVGL_Porting.elf.dir/lvgl/src/lv_themes/lv_theme_material.c.obj
 .text.label_init
                0x0800b278       0x74 CMakeFiles/LVGL_Porting.elf.dir/lvgl/src/lv_themes/lv_theme_material.c.obj
 .text.img_init
                0x0800b2ec       0x58 CMakeFiles/LVGL_Porting.elf.dir/lvgl/src/lv_themes/lv_theme_material.c.obj
 .text.led_init
                0x0800b344       0x68 CMakeFiles/LVGL_Porting.elf.dir/lvgl/src/lv_themes/lv_theme_material.c.obj
 .text.bar_init
                0x0800b3ac       0x6c CMakeFiles/LVGL_Porting.elf.dir/lvgl/src/lv_themes/lv_theme_material.c.obj
 .text.slider_init
                0x0800b418       0x38 CMakeFiles/LVGL_Porting.elf.dir/lvgl/src/lv_themes/lv_theme_material.c.obj
 .text.sw_init  0x0800b450       0xac CMakeFiles/LVGL_Porting.elf.dir/lvgl/src/lv_themes/lv_theme_material.c.obj
 .text.lmeter_init
                0x0800b4fc       0x50 CMakeFiles/LVGL_Porting.elf.dir/lvgl/src/lv_themes/lv_theme_material.c.obj
 .text.gauge_init
                0x0800b54c       0x74 CMakeFiles/LVGL_Porting.elf.dir/lvgl/src/lv_themes/lv_theme_material.c.obj
 .text.arc_init
                0x0800b5c0       0x4c CMakeFiles/LVGL_Porting.elf.dir/lvgl/src/lv_themes/lv_theme_material.c.obj
 .text.calendar_init
                0x0800b60c       0xec CMakeFiles/LVGL_Porting.elf.dir/lvgl/src/lv_themes/lv_theme_material.c.obj
 .text.cb_init  0x0800b6f8       0xd8 CMakeFiles/LVGL_Porting.elf.dir/lvgl/src/lv_themes/lv_theme_material.c.obj
 .text.btnm_init
                0x0800b7d0      0x158 CMakeFiles/LVGL_Porting.elf.dir/lvgl/src/lv_themes/lv_theme_material.c.obj
 .text.kb_init  0x0800b928       0x54 CMakeFiles/LVGL_Porting.elf.dir/lvgl/src/lv_themes/lv_theme_material.c.obj
 .text.mbox_init
                0x0800b97c       0x7c CMakeFiles/LVGL_Porting.elf.dir/lvgl/src/lv_themes/lv_theme_material.c.obj
 .text.ta_init  0x0800b9f8       0x70 CMakeFiles/LVGL_Porting.elf.dir/lvgl/src/lv_themes/lv_theme_material.c.obj
 .text.list_init
                0x0800ba68      0x16c CMakeFiles/LVGL_Porting.elf.dir/lvgl/src/lv_themes/lv_theme_material.c.obj
 .text.ddlist_init
                0x0800bbd4       0x6c CMakeFiles/LVGL_Porting.elf.dir/lvgl/src/lv_themes/lv_theme_material.c.obj
 .text.roller_init
                0x0800bc40       0x64 CMakeFiles/LVGL_Porting.elf.dir/lvgl/src/lv_themes/lv_theme_material.c.obj
 .text.tabview_init
                0x0800bca4      0x1e8 CMakeFiles/LVGL_Porting.elf.dir/lvgl/src/lv_themes/lv_theme_material.c.obj
 .text.table_init
                0x0800be8c       0x38 CMakeFiles/LVGL_Porting.elf.dir/lvgl/src/lv_themes/lv_theme_material.c.obj
 .text.win_init
                0x0800bec4      0x110 CMakeFiles/LVGL_Porting.elf.dir/lvgl/src/lv_themes/lv_theme_material.c.obj
 .text.lv_theme_material_init
                0x0800bfd4       0xcc CMakeFiles/LVGL_Porting.elf.dir/lvgl/src/lv_themes/lv_theme_material.c.obj
                0x0800bfd4                lv_theme_material_init
 .text.Reset_Handler
                0x0800c0a0       0x48 CMakeFiles/LVGL_Porting.elf.dir/startup/startup_stm32f103xb.s.obj
                0x0800c0a0                Reset_Handler
 .text.Default_Handler
                0x0800c0e8        0x2 CMakeFiles/LVGL_Porting.elf.dir/startup/startup_stm32f103xb.s.obj
                0x0800c0e8                RTC_Alarm_IRQHandler
                0x0800c0e8                EXTI2_IRQHandler
                0x0800c0e8                TIM1_CC_IRQHandler
                0x0800c0e8                PVD_IRQHandler
                0x0800c0e8                EXTI3_IRQHandler
                0x0800c0e8                EXTI0_IRQHandler
                0x0800c0e8                I2C2_EV_IRQHandler
                0x0800c0e8                ADC1_2_IRQHandler
                0x0800c0e8                SPI1_IRQHandler
                0x0800c0e8                TAMPER_IRQHandler
                0x0800c0e8                DMA1_Channel4_IRQHandler
                0x0800c0e8                USART3_IRQHandler
                0x0800c0e8                RTC_IRQHandler
                0x0800c0e8                DMA1_Channel7_IRQHandler
                0x0800c0e8                CAN1_RX1_IRQHandler
                0x0800c0e8                TIM4_IRQHandler
                0x0800c0e8                I2C1_EV_IRQHandler
                0x0800c0e8                DMA1_Channel6_IRQHandler
                0x0800c0e8                TIM3_IRQHandler
                0x0800c0e8                RCC_IRQHandler
                0x0800c0e8                TIM1_TRG_COM_IRQHandler
                0x0800c0e8                DMA1_Channel1_IRQHandler
                0x0800c0e8                Default_Handler
                0x0800c0e8                EXTI15_10_IRQHandler
                0x0800c0e8                EXTI9_5_IRQHandler
                0x0800c0e8                SPI2_IRQHandler
                0x0800c0e8                DMA1_Channel5_IRQHandler
                0x0800c0e8                EXTI4_IRQHandler
                0x0800c0e8                USB_LP_CAN1_RX0_IRQHandler
                0x0800c0e8                USB_HP_CAN1_TX_IRQHandler
                0x0800c0e8                DMA1_Channel3_IRQHandler
                0x0800c0e8                WWDG_IRQHandler
                0x0800c0e8                TIM2_IRQHandler
                0x0800c0e8                TIM1_BRK_IRQHandler
                0x0800c0e8                EXTI1_IRQHandler
                0x0800c0e8                USART2_IRQHandler
                0x0800c0e8                I2C2_ER_IRQHandler
                0x0800c0e8                DMA1_Channel2_IRQHandler
                0x0800c0e8                CAN1_SCE_IRQHandler
                0x0800c0e8                FLASH_IRQHandler
                0x0800c0e8                USART1_IRQHandler
                0x0800c0e8                I2C1_ER_IRQHandler
                0x0800c0e8                USBWakeUp_IRQHandler
 *fill*         0x0800c0ea        0x2 
 .text.__errno  0x0800c0ec        0xc d:/program/gcc-arm/gcc-arm-none-eabi-9-2020-q2-update-win32/bin/../lib/gcc/arm-none-eabi/9.3.1/../../../../arm-none-eabi/lib/thumb/v7-m/nofp\libg.a(lib_a-errno.o)
                0x0800c0ec                __errno
 .text.__libc_init_array
                0x0800c0f8       0x48 d:/program/gcc-arm/gcc-arm-none-eabi-9-2020-q2-update-win32/bin/../lib/gcc/arm-none-eabi/9.3.1/../../../../arm-none-eabi/lib/thumb/v7-m/nofp\libg.a(lib_a-init.o)
                0x0800c0f8                __libc_init_array
 .text.memset   0x0800c140       0xa0 d:/program/gcc-arm/gcc-arm-none-eabi-9-2020-q2-update-win32/bin/../lib/gcc/arm-none-eabi/9.3.1/../../../../arm-none-eabi/lib/thumb/v7-m/nofp\libg.a(lib_a-memset.o)
                0x0800c140                memset
 .text.printf   0x0800c1e0       0x28 d:/program/gcc-arm/gcc-arm-none-eabi-9-2020-q2-update-win32/bin/../lib/gcc/arm-none-eabi/9.3.1/../../../../arm-none-eabi/lib/thumb/v7-m/nofp\libg.a(lib_a-printf.o)
                0x0800c1e0                printf
 .text.setvbuf  0x0800c208      0x1a0 d:/program/gcc-arm/gcc-arm-none-eabi-9-2020-q2-update-win32/bin/../lib/gcc/arm-none-eabi/9.3.1/../../../../arm-none-eabi/lib/thumb/v7-m/nofp\libg.a(lib_a-setvbuf.o)
                0x0800c208                setvbuf
 .text.strlen   0x0800c3a8       0x5c d:/program/gcc-arm/gcc-arm-none-eabi-9-2020-q2-update-win32/bin/../lib/gcc/arm-none-eabi/9.3.1/../../../../arm-none-eabi/lib/thumb/v7-m/nofp\libg.a(lib_a-strlen-stub.o)
                0x0800c3a8                strlen
 .text.strncpy  0x0800c404       0x68 d:/program/gcc-arm/gcc-arm-none-eabi-9-2020-q2-update-win32/bin/../lib/gcc/arm-none-eabi/9.3.1/../../../../arm-none-eabi/lib/thumb/v7-m/nofp\libg.a(lib_a-strncpy.o)
                0x0800c404                strncpy
 .text._vfprintf_r
                0x0800c46c     0x1c18 d:/program/gcc-arm/gcc-arm-none-eabi-9-2020-q2-update-win32/bin/../lib/gcc/arm-none-eabi/9.3.1/../../../../arm-none-eabi/lib/thumb/v7-m/nofp\libg.a(lib_a-vfprintf.o)
                0x0800c46c                _vfprintf_r
 .text.__sbprintf
                0x0800e084       0x88 d:/program/gcc-arm/gcc-arm-none-eabi-9-2020-q2-update-win32/bin/../lib/gcc/arm-none-eabi/9.3.1/../../../../arm-none-eabi/lib/thumb/v7-m/nofp\libg.a(lib_a-vfprintf.o)
 .text.__swsetup_r
                0x0800e10c       0xd0 d:/program/gcc-arm/gcc-arm-none-eabi-9-2020-q2-update-win32/bin/../lib/gcc/arm-none-eabi/9.3.1/../../../../arm-none-eabi/lib/thumb/v7-m/nofp\libg.a(lib_a-wsetup.o)
                0x0800e10c                __swsetup_r
 .text.startup.register_fini
                0x0800e1dc       0x14 d:/program/gcc-arm/gcc-arm-none-eabi-9-2020-q2-update-win32/bin/../lib/gcc/arm-none-eabi/9.3.1/../../../../arm-none-eabi/lib/thumb/v7-m/nofp\libg.a(lib_a-__call_atexit.o)
 .text.atexit   0x0800e1f0        0xc d:/program/gcc-arm/gcc-arm-none-eabi-9-2020-q2-update-win32/bin/../lib/gcc/arm-none-eabi/9.3.1/../../../../arm-none-eabi/lib/thumb/v7-m/nofp\libg.a(lib_a-atexit.o)
                0x0800e1f0                atexit
 .text.quorem   0x0800e1fc      0x120 d:/program/gcc-arm/gcc-arm-none-eabi-9-2020-q2-update-win32/bin/../lib/gcc/arm-none-eabi/9.3.1/../../../../arm-none-eabi/lib/thumb/v7-m/nofp\libg.a(lib_a-dtoa.o)
 *fill*         0x0800e31c        0x4 
 .text._dtoa_r  0x0800e320      0xec8 d:/program/gcc-arm/gcc-arm-none-eabi-9-2020-q2-update-win32/bin/../lib/gcc/arm-none-eabi/9.3.1/../../../../arm-none-eabi/lib/thumb/v7-m/nofp\libg.a(lib_a-dtoa.o)
                0x0800e320                _dtoa_r
 .text.__sflush_r
                0x0800f1e8      0x130 d:/program/gcc-arm/gcc-arm-none-eabi-9-2020-q2-update-win32/bin/../lib/gcc/arm-none-eabi/9.3.1/../../../../arm-none-eabi/lib/thumb/v7-m/nofp\libg.a(lib_a-fflush.o)
                0x0800f1e8                __sflush_r
 .text._fflush_r
                0x0800f318       0x5c d:/program/gcc-arm/gcc-arm-none-eabi-9-2020-q2-update-win32/bin/../lib/gcc/arm-none-eabi/9.3.1/../../../../arm-none-eabi/lib/thumb/v7-m/nofp\libg.a(lib_a-fflush.o)
                0x0800f318                _fflush_r
 .text.std      0x0800f374       0x50 d:/program/gcc-arm/gcc-arm-none-eabi-9-2020-q2-update-win32/bin/../lib/gcc/arm-none-eabi/9.3.1/../../../../arm-none-eabi/lib/thumb/v7-m/nofp\libg.a(lib_a-findfp.o)
 .text._cleanup_r
                0x0800f3c4        0xc d:/program/gcc-arm/gcc-arm-none-eabi-9-2020-q2-update-win32/bin/../lib/gcc/arm-none-eabi/9.3.1/../../../../arm-none-eabi/lib/thumb/v7-m/nofp\libg.a(lib_a-findfp.o)
                0x0800f3c4                _cleanup_r
 .text.__sinit  0x0800f3d0       0x5c d:/program/gcc-arm/gcc-arm-none-eabi-9-2020-q2-update-win32/bin/../lib/gcc/arm-none-eabi/9.3.1/../../../../arm-none-eabi/lib/thumb/v7-m/nofp\libg.a(lib_a-findfp.o)
                0x0800f3d0                __sinit
 .text.__sfp_lock_acquire
                0x0800f42c        0xc d:/program/gcc-arm/gcc-arm-none-eabi-9-2020-q2-update-win32/bin/../lib/gcc/arm-none-eabi/9.3.1/../../../../arm-none-eabi/lib/thumb/v7-m/nofp\libg.a(lib_a-findfp.o)
                0x0800f42c                __sfp_lock_acquire
 .text.__sfp_lock_release
                0x0800f438        0xc d:/program/gcc-arm/gcc-arm-none-eabi-9-2020-q2-update-win32/bin/../lib/gcc/arm-none-eabi/9.3.1/../../../../arm-none-eabi/lib/thumb/v7-m/nofp\libg.a(lib_a-findfp.o)
                0x0800f438                __sfp_lock_release
 .text.__libc_fini_array
                0x0800f444       0x2c d:/program/gcc-arm/gcc-arm-none-eabi-9-2020-q2-update-win32/bin/../lib/gcc/arm-none-eabi/9.3.1/../../../../arm-none-eabi/lib/thumb/v7-m/nofp\libg.a(lib_a-fini.o)
                0x0800f444                __libc_fini_array
 .text._malloc_trim_r
                0x0800f470       0xa0 d:/program/gcc-arm/gcc-arm-none-eabi-9-2020-q2-update-win32/bin/../lib/gcc/arm-none-eabi/9.3.1/../../../../arm-none-eabi/lib/thumb/v7-m/nofp\libg.a(lib_a-freer.o)
                0x0800f470                _malloc_trim_r
 .text._free_r  0x0800f510      0x20c d:/program/gcc-arm/gcc-arm-none-eabi-9-2020-q2-update-win32/bin/../lib/gcc/arm-none-eabi/9.3.1/../../../../arm-none-eabi/lib/thumb/v7-m/nofp\libg.a(lib_a-freer.o)
                0x0800f510                _free_r
 .text._fwalk_reent
                0x0800f71c       0x48 d:/program/gcc-arm/gcc-arm-none-eabi-9-2020-q2-update-win32/bin/../lib/gcc/arm-none-eabi/9.3.1/../../../../arm-none-eabi/lib/thumb/v7-m/nofp\libg.a(lib_a-fwalk.o)
                0x0800f71c                _fwalk_reent
 .text._localeconv_r
                0x0800f764        0x8 d:/program/gcc-arm/gcc-arm-none-eabi-9-2020-q2-update-win32/bin/../lib/gcc/arm-none-eabi/9.3.1/../../../../arm-none-eabi/lib/thumb/v7-m/nofp\libg.a(lib_a-localeconv.o)
                0x0800f764                _localeconv_r
 .text.__retarget_lock_init_recursive
                0x0800f76c        0x4 d:/program/gcc-arm/gcc-arm-none-eabi-9-2020-q2-update-win32/bin/../lib/gcc/arm-none-eabi/9.3.1/../../../../arm-none-eabi/lib/thumb/v7-m/nofp\libg.a(lib_a-lock.o)
                0x0800f76c                __retarget_lock_init_recursive
 .text.__retarget_lock_close_recursive
                0x0800f770        0x4 d:/program/gcc-arm/gcc-arm-none-eabi-9-2020-q2-update-win32/bin/../lib/gcc/arm-none-eabi/9.3.1/../../../../arm-none-eabi/lib/thumb/v7-m/nofp\libg.a(lib_a-lock.o)
                0x0800f770                __retarget_lock_close_recursive
 .text.__retarget_lock_acquire_recursive
                0x0800f774        0x4 d:/program/gcc-arm/gcc-arm-none-eabi-9-2020-q2-update-win32/bin/../lib/gcc/arm-none-eabi/9.3.1/../../../../arm-none-eabi/lib/thumb/v7-m/nofp\libg.a(lib_a-lock.o)
                0x0800f774                __retarget_lock_acquire_recursive
 .text.__retarget_lock_release_recursive
                0x0800f778        0x4 d:/program/gcc-arm/gcc-arm-none-eabi-9-2020-q2-update-win32/bin/../lib/gcc/arm-none-eabi/9.3.1/../../../../arm-none-eabi/lib/thumb/v7-m/nofp\libg.a(lib_a-lock.o)
                0x0800f778                __retarget_lock_release_recursive
 .text.__swhatbuf_r
                0x0800f77c       0x5c d:/program/gcc-arm/gcc-arm-none-eabi-9-2020-q2-update-win32/bin/../lib/gcc/arm-none-eabi/9.3.1/../../../../arm-none-eabi/lib/thumb/v7-m/nofp\libg.a(lib_a-makebuf.o)
                0x0800f77c                __swhatbuf_r
 .text.__smakebuf_r
                0x0800f7d8       0x94 d:/program/gcc-arm/gcc-arm-none-eabi-9-2020-q2-update-win32/bin/../lib/gcc/arm-none-eabi/9.3.1/../../../../arm-none-eabi/lib/thumb/v7-m/nofp\libg.a(lib_a-makebuf.o)
                0x0800f7d8                __smakebuf_r
 .text.malloc   0x0800f86c       0x10 d:/program/gcc-arm/gcc-arm-none-eabi-9-2020-q2-update-win32/bin/../lib/gcc/arm-none-eabi/9.3.1/../../../../arm-none-eabi/lib/thumb/v7-m/nofp\libg.a(lib_a-malloc.o)
                0x0800f86c                malloc
 .text._malloc_r
                0x0800f87c      0x55c d:/program/gcc-arm/gcc-arm-none-eabi-9-2020-q2-update-win32/bin/../lib/gcc/arm-none-eabi/9.3.1/../../../../arm-none-eabi/lib/thumb/v7-m/nofp\libg.a(lib_a-mallocr.o)
                0x0800f87c                _malloc_r
 .text.memchr   0x0800fdd8       0x80 d:/program/gcc-arm/gcc-arm-none-eabi-9-2020-q2-update-win32/bin/../lib/gcc/arm-none-eabi/9.3.1/../../../../arm-none-eabi/lib/thumb/v7-m/nofp\libg.a(lib_a-memchr-stub.o)
                0x0800fdd8                memchr
 .text.__malloc_lock
                0x0800fe58        0xc d:/program/gcc-arm/gcc-arm-none-eabi-9-2020-q2-update-win32/bin/../lib/gcc/arm-none-eabi/9.3.1/../../../../arm-none-eabi/lib/thumb/v7-m/nofp\libg.a(lib_a-mlock.o)
                0x0800fe58                __malloc_lock
 .text.__malloc_unlock
                0x0800fe64        0xc d:/program/gcc-arm/gcc-arm-none-eabi-9-2020-q2-update-win32/bin/../lib/gcc/arm-none-eabi/9.3.1/../../../../arm-none-eabi/lib/thumb/v7-m/nofp\libg.a(lib_a-mlock.o)
                0x0800fe64                __malloc_unlock
 .text._Balloc  0x0800fe70       0x4c d:/program/gcc-arm/gcc-arm-none-eabi-9-2020-q2-update-win32/bin/../lib/gcc/arm-none-eabi/9.3.1/../../../../arm-none-eabi/lib/thumb/v7-m/nofp\libg.a(lib_a-mprec.o)
                0x0800fe70                _Balloc
 .text._Bfree   0x0800febc       0x14 d:/program/gcc-arm/gcc-arm-none-eabi-9-2020-q2-update-win32/bin/../lib/gcc/arm-none-eabi/9.3.1/../../../../arm-none-eabi/lib/thumb/v7-m/nofp\libg.a(lib_a-mprec.o)
                0x0800febc                _Bfree
 .text.__multadd
                0x0800fed0       0x9c d:/program/gcc-arm/gcc-arm-none-eabi-9-2020-q2-update-win32/bin/../lib/gcc/arm-none-eabi/9.3.1/../../../../arm-none-eabi/lib/thumb/v7-m/nofp\libg.a(lib_a-mprec.o)
                0x0800fed0                __multadd
 .text.__hi0bits
                0x0800ff6c       0x40 d:/program/gcc-arm/gcc-arm-none-eabi-9-2020-q2-update-win32/bin/../lib/gcc/arm-none-eabi/9.3.1/../../../../arm-none-eabi/lib/thumb/v7-m/nofp\libg.a(lib_a-mprec.o)
                0x0800ff6c                __hi0bits
 .text.__lo0bits
                0x0800ffac       0x60 d:/program/gcc-arm/gcc-arm-none-eabi-9-2020-q2-update-win32/bin/../lib/gcc/arm-none-eabi/9.3.1/../../../../arm-none-eabi/lib/thumb/v7-m/nofp\libg.a(lib_a-mprec.o)
                0x0800ffac                __lo0bits
 .text.__i2b    0x0801000c       0x2c d:/program/gcc-arm/gcc-arm-none-eabi-9-2020-q2-update-win32/bin/../lib/gcc/arm-none-eabi/9.3.1/../../../../arm-none-eabi/lib/thumb/v7-m/nofp\libg.a(lib_a-mprec.o)
                0x0801000c                __i2b
 .text.__multiply
                0x08010038      0x160 d:/program/gcc-arm/gcc-arm-none-eabi-9-2020-q2-update-win32/bin/../lib/gcc/arm-none-eabi/9.3.1/../../../../arm-none-eabi/lib/thumb/v7-m/nofp\libg.a(lib_a-mprec.o)
                0x08010038                __multiply
 .text.__pow5mult
                0x08010198       0x98 d:/program/gcc-arm/gcc-arm-none-eabi-9-2020-q2-update-win32/bin/../lib/gcc/arm-none-eabi/9.3.1/../../../../arm-none-eabi/lib/thumb/v7-m/nofp\libg.a(lib_a-mprec.o)
                0x08010198                __pow5mult
 .text.__lshift
                0x08010230       0xe8 d:/program/gcc-arm/gcc-arm-none-eabi-9-2020-q2-update-win32/bin/../lib/gcc/arm-none-eabi/9.3.1/../../../../arm-none-eabi/lib/thumb/v7-m/nofp\libg.a(lib_a-mprec.o)
                0x08010230                __lshift
 .text.__mcmp   0x08010318       0x3c d:/program/gcc-arm/gcc-arm-none-eabi-9-2020-q2-update-win32/bin/../lib/gcc/arm-none-eabi/9.3.1/../../../../arm-none-eabi/lib/thumb/v7-m/nofp\libg.a(lib_a-mprec.o)
                0x08010318                __mcmp
 .text.__mdiff  0x08010354      0x150 d:/program/gcc-arm/gcc-arm-none-eabi-9-2020-q2-update-win32/bin/../lib/gcc/arm-none-eabi/9.3.1/../../../../arm-none-eabi/lib/thumb/v7-m/nofp\libg.a(lib_a-mprec.o)
                0x08010354                __mdiff
 .text.__d2b    0x080104a4       0xc4 d:/program/gcc-arm/gcc-arm-none-eabi-9-2020-q2-update-win32/bin/../lib/gcc/arm-none-eabi/9.3.1/../../../../arm-none-eabi/lib/thumb/v7-m/nofp\libg.a(lib_a-mprec.o)
                0x080104a4                __d2b
 .text.frexp    0x08010568       0x70 d:/program/gcc-arm/gcc-arm-none-eabi-9-2020-q2-update-win32/bin/../lib/gcc/arm-none-eabi/9.3.1/../../../../arm-none-eabi/lib/thumb/v7-m/nofp\libg.a(lib_a-s_frexp.o)
                0x08010568                frexp
 .text._sbrk_r  0x080105d8       0x24 d:/program/gcc-arm/gcc-arm-none-eabi-9-2020-q2-update-win32/bin/../lib/gcc/arm-none-eabi/9.3.1/../../../../arm-none-eabi/lib/thumb/v7-m/nofp\libg.a(lib_a-sbrkr.o)
                0x080105d8                _sbrk_r
 .text.__sread  0x080105fc       0x24 d:/program/gcc-arm/gcc-arm-none-eabi-9-2020-q2-update-win32/bin/../lib/gcc/arm-none-eabi/9.3.1/../../../../arm-none-eabi/lib/thumb/v7-m/nofp\libg.a(lib_a-stdio.o)
                0x080105fc                __sread
 .text.__swrite
                0x08010620       0x40 d:/program/gcc-arm/gcc-arm-none-eabi-9-2020-q2-update-win32/bin/../lib/gcc/arm-none-eabi/9.3.1/../../../../arm-none-eabi/lib/thumb/v7-m/nofp\libg.a(lib_a-stdio.o)
                0x08010620                __swrite
 .text.__sseek  0x08010660       0x20 d:/program/gcc-arm/gcc-arm-none-eabi-9-2020-q2-update-win32/bin/../lib/gcc/arm-none-eabi/9.3.1/../../../../arm-none-eabi/lib/thumb/v7-m/nofp\libg.a(lib_a-stdio.o)
                0x08010660                __sseek
 .text.__sclose
                0x08010680        0x8 d:/program/gcc-arm/gcc-arm-none-eabi-9-2020-q2-update-win32/bin/../lib/gcc/arm-none-eabi/9.3.1/../../../../arm-none-eabi/lib/thumb/v7-m/nofp\libg.a(lib_a-stdio.o)
                0x08010680                __sclose
 .text.__sprint_r.part.0
                0x08010688       0x78 d:/program/gcc-arm/gcc-arm-none-eabi-9-2020-q2-update-win32/bin/../lib/gcc/arm-none-eabi/9.3.1/../../../../arm-none-eabi/lib/thumb/v7-m/nofp\libg.a(lib_a-vfiprintf.o)
 .text.__sprint_r
                0x08010700       0x14 d:/program/gcc-arm/gcc-arm-none-eabi-9-2020-q2-update-win32/bin/../lib/gcc/arm-none-eabi/9.3.1/../../../../arm-none-eabi/lib/thumb/v7-m/nofp\libg.a(lib_a-vfiprintf.o)
                0x08010700                __sprint_r
 .text._vfiprintf_r
                0x08010714      0xd2c d:/program/gcc-arm/gcc-arm-none-eabi-9-2020-q2-update-win32/bin/../lib/gcc/arm-none-eabi/9.3.1/../../../../arm-none-eabi/lib/thumb/v7-m/nofp\libg.a(lib_a-vfiprintf.o)
                0x08010714                _vfiprintf_r
 .text.__sbprintf
                0x08011440       0x88 d:/program/gcc-arm/gcc-arm-none-eabi-9-2020-q2-update-win32/bin/../lib/gcc/arm-none-eabi/9.3.1/../../../../arm-none-eabi/lib/thumb/v7-m/nofp\libg.a(lib_a-vfiprintf.o)
 .text._write_r
                0x080114c8       0x2c d:/program/gcc-arm/gcc-arm-none-eabi-9-2020-q2-update-win32/bin/../lib/gcc/arm-none-eabi/9.3.1/../../../../arm-none-eabi/lib/thumb/v7-m/nofp\libg.a(lib_a-writer.o)
                0x080114c8                _write_r
 .text.__register_exitproc
                0x080114f4       0x8c d:/program/gcc-arm/gcc-arm-none-eabi-9-2020-q2-update-win32/bin/../lib/gcc/arm-none-eabi/9.3.1/../../../../arm-none-eabi/lib/thumb/v7-m/nofp\libg.a(lib_a-__atexit.o)
                0x080114f4                __register_exitproc
 .text.__assert_func
                0x08011580       0x3c d:/program/gcc-arm/gcc-arm-none-eabi-9-2020-q2-update-win32/bin/../lib/gcc/arm-none-eabi/9.3.1/../../../../arm-none-eabi/lib/thumb/v7-m/nofp\libg.a(lib_a-assert.o)
                0x08011580                __assert_func
 .text._calloc_r
                0x080115bc       0x60 d:/program/gcc-arm/gcc-arm-none-eabi-9-2020-q2-update-win32/bin/../lib/gcc/arm-none-eabi/9.3.1/../../../../arm-none-eabi/lib/thumb/v7-m/nofp\libg.a(lib_a-callocr.o)
                0x080115bc                _calloc_r
 .text._close_r
                0x0801161c       0x24 d:/program/gcc-arm/gcc-arm-none-eabi-9-2020-q2-update-win32/bin/../lib/gcc/arm-none-eabi/9.3.1/../../../../arm-none-eabi/lib/thumb/v7-m/nofp\libg.a(lib_a-closer.o)
                0x0801161c                _close_r
 .text._fclose_r
                0x08011640       0xcc d:/program/gcc-arm/gcc-arm-none-eabi-9-2020-q2-update-win32/bin/../lib/gcc/arm-none-eabi/9.3.1/../../../../arm-none-eabi/lib/thumb/v7-m/nofp\libg.a(lib_a-fclose.o)
                0x08011640                _fclose_r
 .text.fiprintf
                0x0801170c       0x28 d:/program/gcc-arm/gcc-arm-none-eabi-9-2020-q2-update-win32/bin/../lib/gcc/arm-none-eabi/9.3.1/../../../../arm-none-eabi/lib/thumb/v7-m/nofp\libg.a(lib_a-fiprintf.o)
                0x0801170c                fiprintf
 .text.__fputwc
                0x08011734       0xa0 d:/program/gcc-arm/gcc-arm-none-eabi-9-2020-q2-update-win32/bin/../lib/gcc/arm-none-eabi/9.3.1/../../../../arm-none-eabi/lib/thumb/v7-m/nofp\libg.a(lib_a-fputwc.o)
                0x08011734                __fputwc
 .text._fputwc_r
                0x080117d4       0x68 d:/program/gcc-arm/gcc-arm-none-eabi-9-2020-q2-update-win32/bin/../lib/gcc/arm-none-eabi/9.3.1/../../../../arm-none-eabi/lib/thumb/v7-m/nofp\libg.a(lib_a-fputwc.o)
                0x080117d4                _fputwc_r
 .text._fstat_r
                0x0801183c       0x2c d:/program/gcc-arm/gcc-arm-none-eabi-9-2020-q2-update-win32/bin/../lib/gcc/arm-none-eabi/9.3.1/../../../../arm-none-eabi/lib/thumb/v7-m/nofp\libg.a(lib_a-fstatr.o)
                0x0801183c                _fstat_r
 .text.__sfvwrite_r
                0x08011868      0x2ec d:/program/gcc-arm/gcc-arm-none-eabi-9-2020-q2-update-win32/bin/../lib/gcc/arm-none-eabi/9.3.1/../../../../arm-none-eabi/lib/thumb/v7-m/nofp\libg.a(lib_a-fvwrite.o)
                0x08011868                __sfvwrite_r
 .text._isatty_r
                0x08011b54       0x24 d:/program/gcc-arm/gcc-arm-none-eabi-9-2020-q2-update-win32/bin/../lib/gcc/arm-none-eabi/9.3.1/../../../../arm-none-eabi/lib/thumb/v7-m/nofp\libg.a(lib_a-isattyr.o)
                0x08011b54                _isatty_r
 .text.__locale_mb_cur_max
                0x08011b78        0xc d:/program/gcc-arm/gcc-arm-none-eabi-9-2020-q2-update-win32/bin/../lib/gcc/arm-none-eabi/9.3.1/../../../../arm-none-eabi/lib/thumb/v7-m/nofp\libg.a(lib_a-locale.o)
                0x08011b78                __locale_mb_cur_max
 .text._lseek_r
                0x08011b84       0x2c d:/program/gcc-arm/gcc-arm-none-eabi-9-2020-q2-update-win32/bin/../lib/gcc/arm-none-eabi/9.3.1/../../../../arm-none-eabi/lib/thumb/v7-m/nofp\libg.a(lib_a-lseekr.o)
                0x08011b84                _lseek_r
 .text.__ascii_mbtowc
                0x08011bb0       0x2c d:/program/gcc-arm/gcc-arm-none-eabi-9-2020-q2-update-win32/bin/../lib/gcc/arm-none-eabi/9.3.1/../../../../arm-none-eabi/lib/thumb/v7-m/nofp\libg.a(lib_a-mbtowc_r.o)
                0x08011bb0                __ascii_mbtowc
 .text.memmove  0x08011bdc       0xd4 d:/program/gcc-arm/gcc-arm-none-eabi-9-2020-q2-update-win32/bin/../lib/gcc/arm-none-eabi/9.3.1/../../../../arm-none-eabi/lib/thumb/v7-m/nofp\libg.a(lib_a-memmove.o)
                0x08011bdc                memmove
 .text._read_r  0x08011cb0       0x2c d:/program/gcc-arm/gcc-arm-none-eabi-9-2020-q2-update-win32/bin/../lib/gcc/arm-none-eabi/9.3.1/../../../../arm-none-eabi/lib/thumb/v7-m/nofp\libg.a(lib_a-readr.o)
                0x08011cb0                _read_r
 .text._realloc_r
                0x08011cdc      0x3e0 d:/program/gcc-arm/gcc-arm-none-eabi-9-2020-q2-update-win32/bin/../lib/gcc/arm-none-eabi/9.3.1/../../../../arm-none-eabi/lib/thumb/v7-m/nofp\libg.a(lib_a-reallocr.o)
                0x08011cdc                _realloc_r
 .text.__swbuf_r
                0x080120bc       0xb0 d:/program/gcc-arm/gcc-arm-none-eabi-9-2020-q2-update-win32/bin/../lib/gcc/arm-none-eabi/9.3.1/../../../../arm-none-eabi/lib/thumb/v7-m/nofp\libg.a(lib_a-wbuf.o)
                0x080120bc                __swbuf_r
 .text._wcrtomb_r
                0x0801216c       0x3c d:/program/gcc-arm/gcc-arm-none-eabi-9-2020-q2-update-win32/bin/../lib/gcc/arm-none-eabi/9.3.1/../../../../arm-none-eabi/lib/thumb/v7-m/nofp\libg.a(lib_a-wcrtomb.o)
                0x0801216c                _wcrtomb_r
 .text.__ascii_wctomb
                0x080121a8       0x1c d:/program/gcc-arm/gcc-arm-none-eabi-9-2020-q2-update-win32/bin/../lib/gcc/arm-none-eabi/9.3.1/../../../../arm-none-eabi/lib/thumb/v7-m/nofp\libg.a(lib_a-wctomb_r.o)
                0x080121a8                __ascii_wctomb
 .text.abort    0x080121c4       0x10 d:/program/gcc-arm/gcc-arm-none-eabi-9-2020-q2-update-win32/bin/../lib/gcc/arm-none-eabi/9.3.1/../../../../arm-none-eabi/lib/thumb/v7-m/nofp\libg.a(lib_a-abort.o)
                0x080121c4                abort
 .text._raise_r
                0x080121d4       0x58 d:/program/gcc-arm/gcc-arm-none-eabi-9-2020-q2-update-win32/bin/../lib/gcc/arm-none-eabi/9.3.1/../../../../arm-none-eabi/lib/thumb/v7-m/nofp\libg.a(lib_a-signal.o)
                0x080121d4                _raise_r
 .text.raise    0x0801222c       0x10 d:/program/gcc-arm/gcc-arm-none-eabi-9-2020-q2-update-win32/bin/../lib/gcc/arm-none-eabi/9.3.1/../../../../arm-none-eabi/lib/thumb/v7-m/nofp\libg.a(lib_a-signal.o)
                0x0801222c                raise
 .text._kill_r  0x0801223c       0x2c d:/program/gcc-arm/gcc-arm-none-eabi-9-2020-q2-update-win32/bin/../lib/gcc/arm-none-eabi/9.3.1/../../../../arm-none-eabi/lib/thumb/v7-m/nofp\libg.a(lib_a-signalr.o)
                0x0801223c                _kill_r
 .text._getpid_r
                0x08012268        0x4 d:/program/gcc-arm/gcc-arm-none-eabi-9-2020-q2-update-win32/bin/../lib/gcc/arm-none-eabi/9.3.1/../../../../arm-none-eabi/lib/thumb/v7-m/nofp\libg.a(lib_a-signalr.o)
                0x08012268                _getpid_r
 *(.glue_7)
 .glue_7        0x0801226c        0x0 linker stubs
 *(.glue_7t)
 .glue_7t       0x0801226c        0x0 linker stubs
 *(.eh_frame)
 .eh_frame      0x0801226c        0x0 d:/program/gcc-arm/gcc-arm-none-eabi-9-2020-q2-update-win32/bin/../lib/gcc/arm-none-eabi/9.3.1/thumb/v7-m/nofp/crtbegin.o
 *(.init)
 .init          0x0801226c        0x4 d:/program/gcc-arm/gcc-arm-none-eabi-9-2020-q2-update-win32/bin/../lib/gcc/arm-none-eabi/9.3.1/thumb/v7-m/nofp/crti.o
                0x0801226c                _init
 .init          0x08012270        0x8 d:/program/gcc-arm/gcc-arm-none-eabi-9-2020-q2-update-win32/bin/../lib/gcc/arm-none-eabi/9.3.1/thumb/v7-m/nofp/crtn.o
 *(.fini)
 .fini          0x08012278        0x4 d:/program/gcc-arm/gcc-arm-none-eabi-9-2020-q2-update-win32/bin/../lib/gcc/arm-none-eabi/9.3.1/thumb/v7-m/nofp/crti.o
                0x08012278                _fini
 .fini          0x0801227c        0x8 d:/program/gcc-arm/gcc-arm-none-eabi-9-2020-q2-update-win32/bin/../lib/gcc/arm-none-eabi/9.3.1/thumb/v7-m/nofp/crtn.o
                0x08012284                . = ALIGN (0x4)
                0x08012284                _etext = .

.vfp11_veneer   0x08012284        0x0
 .vfp11_veneer  0x08012284        0x0 linker stubs

.v4_bx          0x08012284        0x0
 .v4_bx         0x08012284        0x0 linker stubs

.iplt           0x08012284        0x0
 .iplt          0x08012284        0x0 d:/program/gcc-arm/gcc-arm-none-eabi-9-2020-q2-update-win32/bin/../lib/gcc/arm-none-eabi/9.3.1/thumb/v7-m/nofp/crtbegin.o

.rodata         0x08012288     0x44e0
                0x08012288                . = ALIGN (0x4)
 *(.rodata)
 .rodata        0x08012288        0xa CMakeFiles/LVGL_Porting.elf.dir/lvgl/src/lv_core/lv_style.c.obj
 *fill*         0x08012292        0x2 
 .rodata        0x08012294       0x10 CMakeFiles/LVGL_Porting.elf.dir/lvgl/src/lv_draw/lv_img_decoder.c.obj
 .rodata        0x080122a4        0x2 CMakeFiles/LVGL_Porting.elf.dir/lvgl/src/lv_themes/lv_theme_material.c.obj
 *(.rodata*)
 *fill*         0x080122a6        0x2 
 .rodata.AHBPrescTable
                0x080122a8       0x10 CMakeFiles/LVGL_Porting.elf.dir/Core/Src/system_stm32f1xx.c.obj
                0x080122a8                AHBPrescTable
 .rodata.APBPrescTable
                0x080122b8        0x8 CMakeFiles/LVGL_Porting.elf.dir/Core/Src/system_stm32f1xx.c.obj
                0x080122b8                APBPrescTable
 .rodata.HAL_RCC_GetSysClockFreq.str1.4
                0x080122c0       0x11 CMakeFiles/LVGL_Porting.elf.dir/Drivers/STM32F1xx_HAL_Driver/Src/stm32f1xx_hal_rcc.c.obj
 *fill*         0x080122d1        0x3 
 .rodata.my_printf.str1.4
                0x080122d4        0xd CMakeFiles/LVGL_Porting.elf.dir/lvgl/porting/lv_port_disp.c.obj
 *fill*         0x080122e1        0x3 
 .rodata.lv_debug_check_style.str1.4
                0x080122e4       0x71 CMakeFiles/LVGL_Porting.elf.dir/lvgl/src/lv_core/lv_debug.c.obj
 *fill*         0x08012355        0x3 
 .rodata.hex.5845
                0x08012358       0x11 CMakeFiles/LVGL_Porting.elf.dir/lvgl/src/lv_core/lv_debug.c.obj
 *fill*         0x08012369        0x3 
 .rodata.lv_disp_get_scr_act.str1.4
                0x0801236c       0x74 CMakeFiles/LVGL_Porting.elf.dir/lvgl/src/lv_core/lv_disp.c.obj
 .rodata.lv_disp_get_layer_top.str1.4
                0x080123e0       0x39 CMakeFiles/LVGL_Porting.elf.dir/lvgl/src/lv_core/lv_disp.c.obj
 *fill*         0x08012419        0x3 
 .rodata.lv_disp_get_layer_sys.str1.4
                0x0801241c       0x39 CMakeFiles/LVGL_Porting.elf.dir/lvgl/src/lv_core/lv_disp.c.obj
 *fill*         0x08012455        0x3 
 .rodata.lv_group_create.str1.4
                0x08012458       0x4e CMakeFiles/LVGL_Porting.elf.dir/lvgl/src/lv_core/lv_group.c.obj
 *fill*         0x080124a6        0x2 
 .rodata.__func__.6289
                0x080124a8       0x11 CMakeFiles/LVGL_Porting.elf.dir/lvgl/src/lv_core/lv_group.c.obj
 *fill*         0x080124b9        0x3 
 .rodata.lv_init.str1.4
                0x080124bc       0x53 CMakeFiles/LVGL_Porting.elf.dir/lvgl/src/lv_core/lv_obj.c.obj
 *fill*         0x0801250f        0x1 
 .rodata.lv_obj_del_async.str1.4
                0x08012510        0xd CMakeFiles/LVGL_Porting.elf.dir/lvgl/src/lv_core/lv_obj.c.obj
 *fill*         0x0801251d        0x3 
 .rodata.lv_obj_get_disp.str1.4
                0x08012520       0x22 CMakeFiles/LVGL_Porting.elf.dir/lvgl/src/lv_core/lv_obj.c.obj
 *fill*         0x08012542        0x2 
 .rodata.lv_obj_set_style.str1.4
                0x08012544        0xe CMakeFiles/LVGL_Porting.elf.dir/lvgl/src/lv_core/lv_obj.c.obj
 *fill*         0x08012552        0x2 
 .rodata.lv_obj_create.str1.4
                0x08012554       0x50 CMakeFiles/LVGL_Porting.elf.dir/lvgl/src/lv_core/lv_obj.c.obj
                                 0x5e (size before relaxing)
 .rodata.lv_obj_signal.str1.4
                0x080125a4        0x7 CMakeFiles/LVGL_Porting.elf.dir/lvgl/src/lv_core/lv_obj.c.obj
 *fill*         0x080125ab        0x1 
 .rodata.__func__.6600
                0x080125ac        0xe CMakeFiles/LVGL_Porting.elf.dir/lvgl/src/lv_core/lv_obj.c.obj
 *fill*         0x080125ba        0x2 
 .rodata.__func__.6642
                0x080125bc       0x12 CMakeFiles/LVGL_Porting.elf.dir/lvgl/src/lv_core/lv_obj.c.obj
 *fill*         0x080125ce        0x2 
 .rodata.__func__.6665
                0x080125d0       0x17 CMakeFiles/LVGL_Porting.elf.dir/lvgl/src/lv_core/lv_obj.c.obj
 *fill*         0x080125e7        0x1 
 .rodata.__func__.6679
                0x080125e8        0xf CMakeFiles/LVGL_Porting.elf.dir/lvgl/src/lv_core/lv_obj.c.obj
 *fill*         0x080125f7        0x1 
 .rodata.__func__.6701
                0x080125f8       0x10 CMakeFiles/LVGL_Porting.elf.dir/lvgl/src/lv_core/lv_obj.c.obj
 .rodata.__func__.6728
                0x08012608        0xd CMakeFiles/LVGL_Porting.elf.dir/lvgl/src/lv_core/lv_obj.c.obj
 *fill*         0x08012615        0x3 
 .rodata.__func__.6767
                0x08012618       0x13 CMakeFiles/LVGL_Porting.elf.dir/lvgl/src/lv_core/lv_obj.c.obj
 *fill*         0x0801262b        0x1 
 .rodata.__func__.6804
                0x0801262c        0xf CMakeFiles/LVGL_Porting.elf.dir/lvgl/src/lv_core/lv_obj.c.obj
 *fill*         0x0801263b        0x1 
 .rodata.__func__.6825
                0x0801263c       0x11 CMakeFiles/LVGL_Porting.elf.dir/lvgl/src/lv_core/lv_obj.c.obj
 *fill*         0x0801264d        0x3 
 .rodata.__func__.6831
                0x08012650       0x15 CMakeFiles/LVGL_Porting.elf.dir/lvgl/src/lv_core/lv_obj.c.obj
 *fill*         0x08012665        0x3 
 .rodata.__func__.6836
                0x08012668       0x18 CMakeFiles/LVGL_Porting.elf.dir/lvgl/src/lv_core/lv_obj.c.obj
 .rodata.__func__.6857
                0x08012680       0x11 CMakeFiles/LVGL_Porting.elf.dir/lvgl/src/lv_core/lv_obj.c.obj
 *fill*         0x08012691        0x3 
 .rodata.__func__.6934
                0x08012694        0xe CMakeFiles/LVGL_Porting.elf.dir/lvgl/src/lv_core/lv_obj.c.obj
 *fill*         0x080126a2        0x2 
 .rodata.__func__.6943
                0x080126a4       0x13 CMakeFiles/LVGL_Porting.elf.dir/lvgl/src/lv_core/lv_obj.c.obj
 *fill*         0x080126b7        0x1 
 .rodata.__func__.6956
                0x080126b8       0x15 CMakeFiles/LVGL_Porting.elf.dir/lvgl/src/lv_core/lv_obj.c.obj
 *fill*         0x080126cd        0x3 
 .rodata.__func__.6969
                0x080126d0       0x15 CMakeFiles/LVGL_Porting.elf.dir/lvgl/src/lv_core/lv_obj.c.obj
 *fill*         0x080126e5        0x3 
 .rodata.__func__.6975
                0x080126e8       0x19 CMakeFiles/LVGL_Porting.elf.dir/lvgl/src/lv_core/lv_obj.c.obj
 *fill*         0x08012701        0x3 
 .rodata.__func__.6980
                0x08012704       0x1c CMakeFiles/LVGL_Porting.elf.dir/lvgl/src/lv_core/lv_obj.c.obj
 .rodata.__func__.6985
                0x08012720       0x12 CMakeFiles/LVGL_Porting.elf.dir/lvgl/src/lv_core/lv_obj.c.obj
 *fill*         0x08012732        0x2 
 .rodata.__func__.6994
                0x08012734       0x10 CMakeFiles/LVGL_Porting.elf.dir/lvgl/src/lv_core/lv_obj.c.obj
 .rodata.__func__.7008
                0x08012744       0x12 CMakeFiles/LVGL_Porting.elf.dir/lvgl/src/lv_core/lv_obj.c.obj
 *fill*         0x08012756        0x2 
 .rodata.__func__.7014
                0x08012758       0x11 CMakeFiles/LVGL_Porting.elf.dir/lvgl/src/lv_core/lv_obj.c.obj
 *fill*         0x08012769        0x3 
 .rodata.__func__.7048
                0x0801276c       0x12 CMakeFiles/LVGL_Porting.elf.dir/lvgl/src/lv_core/lv_obj.c.obj
 *fill*         0x0801277e        0x2 
 .rodata.__func__.7060
                0x08012780        0xd CMakeFiles/LVGL_Porting.elf.dir/lvgl/src/lv_core/lv_obj.c.obj
 *fill*         0x0801278d        0x3 
 .rodata.__func__.7067
                0x08012790        0xd CMakeFiles/LVGL_Porting.elf.dir/lvgl/src/lv_core/lv_obj.c.obj
 *fill*         0x0801279d        0x3 
 .rodata.__func__.7074
                0x080127a0       0x11 CMakeFiles/LVGL_Porting.elf.dir/lvgl/src/lv_core/lv_obj.c.obj
 *fill*         0x080127b1        0x3 
 .rodata.__func__.7079
                0x080127b4       0x12 CMakeFiles/LVGL_Porting.elf.dir/lvgl/src/lv_core/lv_obj.c.obj
 *fill*         0x080127c6        0x2 
 .rodata.__func__.7126
                0x080127c8       0x11 CMakeFiles/LVGL_Porting.elf.dir/lvgl/src/lv_core/lv_obj.c.obj
 *fill*         0x080127d9        0x3 
 .rodata.__func__.7137
                0x080127dc       0x12 CMakeFiles/LVGL_Porting.elf.dir/lvgl/src/lv_core/lv_obj.c.obj
 *fill*         0x080127ee        0x2 
 .rodata.__func__.7183
                0x080127f0       0x15 CMakeFiles/LVGL_Porting.elf.dir/lvgl/src/lv_core/lv_obj.c.obj
 *fill*         0x08012805        0x3 
 .rodata.__func__.7198
                0x08012808       0x14 CMakeFiles/LVGL_Porting.elf.dir/lvgl/src/lv_core/lv_obj.c.obj
 .rodata.__func__.7203
                0x0801281c       0x15 CMakeFiles/LVGL_Porting.elf.dir/lvgl/src/lv_core/lv_obj.c.obj
 *fill*         0x08012831        0x3 
 .rodata.__func__.7208
                0x08012834       0x15 CMakeFiles/LVGL_Porting.elf.dir/lvgl/src/lv_core/lv_obj.c.obj
 *fill*         0x08012849        0x3 
 .rodata.__func__.7218
                0x0801284c       0x14 CMakeFiles/LVGL_Porting.elf.dir/lvgl/src/lv_core/lv_obj.c.obj
 .rodata.__func__.7239
                0x08012860       0x11 CMakeFiles/LVGL_Porting.elf.dir/lvgl/src/lv_core/lv_obj.c.obj
 *fill*         0x08012871        0x3 
 .rodata.__func__.7244
                0x08012874       0x12 CMakeFiles/LVGL_Porting.elf.dir/lvgl/src/lv_core/lv_obj.c.obj
 *fill*         0x08012886        0x2 
 .rodata.lv_refr_area.str1.4
                0x08012888       0x8c CMakeFiles/LVGL_Porting.elf.dir/lvgl/src/lv_core/lv_refr.c.obj
 .rodata.lv_draw_get_buf.str1.4
                0x08012914       0x3c CMakeFiles/LVGL_Porting.elf.dir/lvgl/src/lv_draw/lv_draw.c.obj
                                 0x4a (size before relaxing)
 .rodata.__func__.7004
                0x08012950       0x10 CMakeFiles/LVGL_Porting.elf.dir/lvgl/src/lv_draw/lv_draw.c.obj
 .rodata.seg1.7015
                0x08012960        0x1 CMakeFiles/LVGL_Porting.elf.dir/lvgl/src/lv_draw/lv_draw.c.obj
 *fill*         0x08012961        0x3 
 .rodata.seg2.7016
                0x08012964        0x2 CMakeFiles/LVGL_Porting.elf.dir/lvgl/src/lv_draw/lv_draw.c.obj
 *fill*         0x08012966        0x2 
 .rodata.seg3.7017
                0x08012968        0x3 CMakeFiles/LVGL_Porting.elf.dir/lvgl/src/lv_draw/lv_draw.c.obj
 *fill*         0x0801296b        0x1 
 .rodata.seg4.7018
                0x0801296c        0x4 CMakeFiles/LVGL_Porting.elf.dir/lvgl/src/lv_draw/lv_draw.c.obj
 .rodata.seg5.7019
                0x08012970        0x5 CMakeFiles/LVGL_Porting.elf.dir/lvgl/src/lv_draw/lv_draw.c.obj
 *fill*         0x08012975        0x3 
 .rodata.seg6.7020
                0x08012978        0x6 CMakeFiles/LVGL_Porting.elf.dir/lvgl/src/lv_draw/lv_draw.c.obj
 *fill*         0x0801297e        0x2 
 .rodata.seg7.7021
                0x08012980        0x7 CMakeFiles/LVGL_Porting.elf.dir/lvgl/src/lv_draw/lv_draw.c.obj
 *fill*         0x08012987        0x1 
 .rodata.seg8.7022
                0x08012988        0x8 CMakeFiles/LVGL_Porting.elf.dir/lvgl/src/lv_draw/lv_draw.c.obj
 .rodata.seg_map.7023
                0x08012990       0x20 CMakeFiles/LVGL_Porting.elf.dir/lvgl/src/lv_draw/lv_draw.c.obj
 .rodata.opa_map2.6516
                0x080129b0        0x2 CMakeFiles/LVGL_Porting.elf.dir/lvgl/src/lv_draw/lv_draw_rect.c.obj
 *fill*         0x080129b2        0x2 
 .rodata.opa_map3.6517
                0x080129b4        0x3 CMakeFiles/LVGL_Porting.elf.dir/lvgl/src/lv_draw/lv_draw_rect.c.obj
 *fill*         0x080129b7        0x1 
 .rodata.opa_map4.6518
                0x080129b8        0x4 CMakeFiles/LVGL_Porting.elf.dir/lvgl/src/lv_draw/lv_draw_rect.c.obj
 .rodata.opa_map8.6519
                0x080129bc        0x8 CMakeFiles/LVGL_Porting.elf.dir/lvgl/src/lv_draw/lv_draw_rect.c.obj
 .rodata.lv_img_cache_open.str1.4
                0x080129c4       0x96 CMakeFiles/LVGL_Porting.elf.dir/lvgl/src/lv_draw/lv_img_cache.c.obj
 .rodata.lv_img_cache_set_size.str1.4
                0x08012a5a        0xe CMakeFiles/LVGL_Porting.elf.dir/lvgl/src/lv_draw/lv_img_cache.c.obj
 *fill*         0x08012a5a        0x2 
 .rodata.__func__.6194
                0x08012a5c       0x16 CMakeFiles/LVGL_Porting.elf.dir/lvgl/src/lv_draw/lv_img_cache.c.obj
 *fill*         0x08012a72        0x2 
 .rodata.lv_img_decoder_built_in_line_true_color.str1.4
                0x08012a74       0x8b CMakeFiles/LVGL_Porting.elf.dir/lvgl/src/lv_draw/lv_img_decoder.c.obj
 *fill*         0x08012aff        0x1 
 .rodata.lv_img_decoder_built_in_info.str1.4
                0x08012b00       0x26 CMakeFiles/LVGL_Porting.elf.dir/lvgl/src/lv_draw/lv_img_decoder.c.obj
 *fill*         0x08012b26        0x2 
 .rodata.lv_img_decoder_built_in_open.str1.4
                0x08012b28       0xa1 CMakeFiles/LVGL_Porting.elf.dir/lvgl/src/lv_draw/lv_img_decoder.c.obj
                                 0xb1 (size before relaxing)
 *fill*         0x08012bc9        0x3 
 .rodata.lv_img_decoder_built_in_line_alpha.str1.4
                0x08012bcc       0x4f CMakeFiles/LVGL_Porting.elf.dir/lvgl/src/lv_draw/lv_img_decoder.c.obj
 *fill*         0x08012c1b        0x1 
 .rodata.lv_img_decoder_built_in_line_indexed.str1.4
                0x08012c1c       0x51 CMakeFiles/LVGL_Porting.elf.dir/lvgl/src/lv_draw/lv_img_decoder.c.obj
 *fill*         0x08012c6d        0x3 
 .rodata.lv_img_decoder_built_in_read_line.str1.4
                0x08012c70       0x3a CMakeFiles/LVGL_Porting.elf.dir/lvgl/src/lv_draw/lv_img_decoder.c.obj
 *fill*         0x08012caa        0x2 
 .rodata.lv_img_decoder_init.str1.4
                0x08012cac       0x23 CMakeFiles/LVGL_Porting.elf.dir/lvgl/src/lv_draw/lv_img_decoder.c.obj
 *fill*         0x08012ccf        0x1 
 .rodata.__func__.6196
                0x08012cd0       0x14 CMakeFiles/LVGL_Porting.elf.dir/lvgl/src/lv_draw/lv_img_decoder.c.obj
 .rodata.__func__.6234
                0x08012ce4       0x16 CMakeFiles/LVGL_Porting.elf.dir/lvgl/src/lv_draw/lv_img_decoder.c.obj
 *fill*         0x08012cfa        0x2 
 .rodata.__func__.6269
                0x08012cfc       0x1d CMakeFiles/LVGL_Porting.elf.dir/lvgl/src/lv_draw/lv_img_decoder.c.obj
 *fill*         0x08012d19        0x3 
 .rodata.lv_font_get_bitmap_fmt_txt.str1.4
                0x08012d1c       0x44 CMakeFiles/LVGL_Porting.elf.dir/lvgl/src/lv_font/lv_font_fmt_txt.c.obj
                                 0x52 (size before relaxing)
 .rodata.__func__.6288
                0x08012d60       0x1b CMakeFiles/LVGL_Porting.elf.dir/lvgl/src/lv_font/lv_font_fmt_txt.c.obj
 *fill*         0x08012d7b        0x1 
 .rodata.cmaps  0x08012d7c       0x28 CMakeFiles/LVGL_Porting.elf.dir/lvgl/src/lv_font/lv_font_roboto_16.c.obj
 .rodata.glyph_dsc
                0x08012da4      0x4c8 CMakeFiles/LVGL_Porting.elf.dir/lvgl/src/lv_font/lv_font_roboto_16.c.obj
 .rodata.gylph_bitmap
                0x0801326c     0x27c7 CMakeFiles/LVGL_Porting.elf.dir/lvgl/src/lv_font/lv_font_roboto_16.c.obj
 *fill*         0x08015a33        0x1 
 .rodata.kern_class_values
                0x08015a34      0x578 CMakeFiles/LVGL_Porting.elf.dir/lvgl/src/lv_font/lv_font_roboto_16.c.obj
 .rodata.kern_classes
                0x08015fac       0x10 CMakeFiles/LVGL_Porting.elf.dir/lvgl/src/lv_font/lv_font_roboto_16.c.obj
 .rodata.kern_left_class_mapping
                0x08015fbc       0x99 CMakeFiles/LVGL_Porting.elf.dir/lvgl/src/lv_font/lv_font_roboto_16.c.obj
 *fill*         0x08016055        0x3 
 .rodata.kern_right_class_mapping
                0x08016058       0x99 CMakeFiles/LVGL_Porting.elf.dir/lvgl/src/lv_font/lv_font_roboto_16.c.obj
 *fill*         0x080160f1        0x3 
 .rodata.unicode_list_1
                0x080160f4       0x72 CMakeFiles/LVGL_Porting.elf.dir/lvgl/src/lv_font/lv_font_roboto_16.c.obj
 *fill*         0x08016166        0x2 
 .rodata.lv_disp_drv_register.str1.4
                0x08016168       0x3f CMakeFiles/LVGL_Porting.elf.dir/lvgl/src/lv_hal/lv_hal_disp.c.obj
                                 0x4e (size before relaxing)
 *fill*         0x080161a7        0x1 
 .rodata.__func__.5988
                0x080161a8       0x15 CMakeFiles/LVGL_Porting.elf.dir/lvgl/src/lv_hal/lv_hal_disp.c.obj
 *fill*         0x080161bd        0x3 
 .rodata.lv_anim_create.str1.4
                0x080161c0       0x3c CMakeFiles/LVGL_Porting.elf.dir/lvgl/src/lv_misc/lv_anim.c.obj
                                 0x4a (size before relaxing)
 .rodata.__func__.5989
                0x080161fc        0xf CMakeFiles/LVGL_Porting.elf.dir/lvgl/src/lv_misc/lv_anim.c.obj
 *fill*         0x0801620b        0x1 
 .rodata.lv_mem_alloc.str1.4
                0x0801620c       0x57 CMakeFiles/LVGL_Porting.elf.dir/lvgl/src/lv_misc/lv_mem.c.obj
 *fill*         0x08016263        0x1 
 .rodata.lv_task_create_basic.str1.4
                0x08016264       0x3c CMakeFiles/LVGL_Porting.elf.dir/lvgl/src/lv_misc/lv_task.c.obj
                                 0x4a (size before relaxing)
 .rodata.__func__.5990
                0x080162a0       0x15 CMakeFiles/LVGL_Porting.elf.dir/lvgl/src/lv_misc/lv_task.c.obj
 *fill*         0x080162b5        0x3 
 .rodata.__func__.6003
                0x080162b8        0xf CMakeFiles/LVGL_Porting.elf.dir/lvgl/src/lv_misc/lv_task.c.obj
 *fill*         0x080162c7        0x1 
 .rodata.lv_bar_set_value.str1.4
                0x080162c8       0x3b CMakeFiles/LVGL_Porting.elf.dir/lvgl/src/lv_objx/lv_bar.c.obj
                                 0x49 (size before relaxing)
 .rodata.lv_bar_create.str1.4
                0x08016303        0xe CMakeFiles/LVGL_Porting.elf.dir/lvgl/src/lv_objx/lv_bar.c.obj
 *fill*         0x08016303        0x1 
 .rodata.lv_bar_signal.str1.4
                0x08016304        0x7 CMakeFiles/LVGL_Porting.elf.dir/lvgl/src/lv_objx/lv_bar.c.obj
 *fill*         0x0801630b        0x1 
 .rodata.__func__.7639
                0x0801630c        0xe CMakeFiles/LVGL_Porting.elf.dir/lvgl/src/lv_objx/lv_bar.c.obj
 *fill*         0x0801631a        0x2 
 .rodata.__func__.7650
                0x0801631c       0x11 CMakeFiles/LVGL_Porting.elf.dir/lvgl/src/lv_objx/lv_bar.c.obj
 *fill*         0x0801632d        0x3 
 .rodata.__func__.7674
                0x08016330       0x15 CMakeFiles/LVGL_Porting.elf.dir/lvgl/src/lv_objx/lv_bar.c.obj
 *fill*         0x08016345        0x3 
 .rodata.__func__.7682
                0x08016348       0x11 CMakeFiles/LVGL_Porting.elf.dir/lvgl/src/lv_objx/lv_bar.c.obj
 *fill*         0x08016359        0x3 
 .rodata.__func__.7722
                0x0801635c       0x11 CMakeFiles/LVGL_Porting.elf.dir/lvgl/src/lv_objx/lv_bar.c.obj
 *fill*         0x0801636d        0x3 
 .rodata._global_impure_ptr
                0x08016370        0x4 d:/program/gcc-arm/gcc-arm-none-eabi-9-2020-q2-update-win32/bin/../lib/gcc/arm-none-eabi/9.3.1/../../../../arm-none-eabi/lib/thumb/v7-m/nofp\libg.a(lib_a-impure.o)
                0x08016370                _global_impure_ptr
 .rodata._vfprintf_r.str1.4
                0x08016374       0x3f d:/program/gcc-arm/gcc-arm-none-eabi-9-2020-q2-update-win32/bin/../lib/gcc/arm-none-eabi/9.3.1/../../../../arm-none-eabi/lib/thumb/v7-m/nofp\libg.a(lib_a-vfprintf.o)
                                 0x42 (size before relaxing)
 *fill*         0x080163b3        0x1 
 .rodata.blanks.7350
                0x080163b4       0x10 d:/program/gcc-arm/gcc-arm-none-eabi-9-2020-q2-update-win32/bin/../lib/gcc/arm-none-eabi/9.3.1/../../../../arm-none-eabi/lib/thumb/v7-m/nofp\libg.a(lib_a-vfprintf.o)
 .rodata.zeroes.7351
                0x080163c4       0x10 d:/program/gcc-arm/gcc-arm-none-eabi-9-2020-q2-update-win32/bin/../lib/gcc/arm-none-eabi/9.3.1/../../../../arm-none-eabi/lib/thumb/v7-m/nofp\libg.a(lib_a-vfprintf.o)
 .rodata._dtoa_r.str1.4
                0x080163d4       0xa0 d:/program/gcc-arm/gcc-arm-none-eabi-9-2020-q2-update-win32/bin/../lib/gcc/arm-none-eabi/9.3.1/../../../../arm-none-eabi/lib/thumb/v7-m/nofp\libg.a(lib_a-dtoa.o)
                                 0xa4 (size before relaxing)
 .rodata.__multadd.str1.4
                0x08016474       0x7d d:/program/gcc-arm/gcc-arm-none-eabi-9-2020-q2-update-win32/bin/../lib/gcc/arm-none-eabi/9.3.1/../../../../arm-none-eabi/lib/thumb/v7-m/nofp\libg.a(lib_a-mprec.o)
                                 0x91 (size before relaxing)
 *fill*         0x080164f1        0x7 
 .rodata.__mprec_bigtens
                0x080164f8       0x28 d:/program/gcc-arm/gcc-arm-none-eabi-9-2020-q2-update-win32/bin/../lib/gcc/arm-none-eabi/9.3.1/../../../../arm-none-eabi/lib/thumb/v7-m/nofp\libg.a(lib_a-mprec.o)
                0x080164f8                __mprec_bigtens
 .rodata.__mprec_tens
                0x08016520       0xc8 d:/program/gcc-arm/gcc-arm-none-eabi-9-2020-q2-update-win32/bin/../lib/gcc/arm-none-eabi/9.3.1/../../../../arm-none-eabi/lib/thumb/v7-m/nofp\libg.a(lib_a-mprec.o)
                0x08016520                __mprec_tens
 .rodata.p05.6122
                0x080165e8        0xc d:/program/gcc-arm/gcc-arm-none-eabi-9-2020-q2-update-win32/bin/../lib/gcc/arm-none-eabi/9.3.1/../../../../arm-none-eabi/lib/thumb/v7-m/nofp\libg.a(lib_a-mprec.o)
 .rodata._vfiprintf_r.str1.4
                0x080165f4       0x2f d:/program/gcc-arm/gcc-arm-none-eabi-9-2020-q2-update-win32/bin/../lib/gcc/arm-none-eabi/9.3.1/../../../../arm-none-eabi/lib/thumb/v7-m/nofp\libg.a(lib_a-vfiprintf.o)
 .rodata.blanks.7328
                0x080165f4       0x10 d:/program/gcc-arm/gcc-arm-none-eabi-9-2020-q2-update-win32/bin/../lib/gcc/arm-none-eabi/9.3.1/../../../../arm-none-eabi/lib/thumb/v7-m/nofp\libg.a(lib_a-vfiprintf.o)
 .rodata.zeroes.7329
                0x08016604       0x10 d:/program/gcc-arm/gcc-arm-none-eabi-9-2020-q2-update-win32/bin/../lib/gcc/arm-none-eabi/9.3.1/../../../../arm-none-eabi/lib/thumb/v7-m/nofp\libg.a(lib_a-vfiprintf.o)
 .rodata.__assert_func.str1.4
                0x08016614       0x3f d:/program/gcc-arm/gcc-arm-none-eabi-9-2020-q2-update-win32/bin/../lib/gcc/arm-none-eabi/9.3.1/../../../../arm-none-eabi/lib/thumb/v7-m/nofp\libg.a(lib_a-assert.o)
                                 0x43 (size before relaxing)
 *fill*         0x08016653        0x1 
 .rodata._setlocale_r.str1.4
                0x08016654        0xa d:/program/gcc-arm/gcc-arm-none-eabi-9-2020-q2-update-win32/bin/../lib/gcc/arm-none-eabi/9.3.1/../../../../arm-none-eabi/lib/thumb/v7-m/nofp\libg.a(lib_a-locale.o)
                                  0xd (size before relaxing)
 *fill*         0x0801665e        0x2 
 .rodata.str1.4
                0x08016660        0x2 d:/program/gcc-arm/gcc-arm-none-eabi-9-2020-q2-update-win32/bin/../lib/gcc/arm-none-eabi/9.3.1/../../../../arm-none-eabi/lib/thumb/v7-m/nofp\libg.a(lib_a-locale.o)
 *fill*         0x08016662        0x2 
 .rodata._ctype_
                0x08016664      0x101 d:/program/gcc-arm/gcc-arm-none-eabi-9-2020-q2-update-win32/bin/../lib/gcc/arm-none-eabi/9.3.1/../../../../arm-none-eabi/lib/thumb/v7-m/nofp\libg.a(lib_a-ctype_.o)
                0x08016664                _ctype_
                0x08016768                . = ALIGN (0x4)
 *fill*         0x08016765        0x3 

.ARM.extab
 *(.ARM.extab* .gnu.linkonce.armextab.*)

.ARM            0x08016768        0x8
                0x08016768                __exidx_start = .
 *(.ARM.exidx*)
 .ARM.exidx     0x08016768        0x8 d:/program/gcc-arm/gcc-arm-none-eabi-9-2020-q2-update-win32/bin/../lib/gcc/arm-none-eabi/9.3.1/thumb/v7-m/nofp\libgcc.a(_udivmoddi4.o)
                0x08016770                __exidx_end = .

.rel.dyn        0x08016770        0x0
 .rel.iplt      0x08016770        0x0 d:/program/gcc-arm/gcc-arm-none-eabi-9-2020-q2-update-win32/bin/../lib/gcc/arm-none-eabi/9.3.1/thumb/v7-m/nofp/crtbegin.o

.preinit_array  0x08016770        0x0
                0x08016770                PROVIDE (__preinit_array_start = .)
 *(.preinit_array*)
                0x08016770                PROVIDE (__preinit_array_end = .)

.init_array     0x08016770        0x8
                0x08016770                PROVIDE (__init_array_start = .)
 *(SORT_BY_NAME(.init_array.*))
 .init_array.00000
                0x08016770        0x4 d:/program/gcc-arm/gcc-arm-none-eabi-9-2020-q2-update-win32/bin/../lib/gcc/arm-none-eabi/9.3.1/../../../../arm-none-eabi/lib/thumb/v7-m/nofp\libg.a(lib_a-__call_atexit.o)
 *(.init_array*)
 .init_array    0x08016774        0x4 d:/program/gcc-arm/gcc-arm-none-eabi-9-2020-q2-update-win32/bin/../lib/gcc/arm-none-eabi/9.3.1/thumb/v7-m/nofp/crtbegin.o
                0x08016778                PROVIDE (__init_array_end = .)

.fini_array     0x08016778        0x4
                0x08016778                PROVIDE (__fini_array_start = .)
 *(SORT_BY_NAME(.fini_array.*))
 *(.fini_array*)
 .fini_array    0x08016778        0x4 d:/program/gcc-arm/gcc-arm-none-eabi-9-2020-q2-update-win32/bin/../lib/gcc/arm-none-eabi/9.3.1/thumb/v7-m/nofp/crtbegin.o
                0x0801677c                PROVIDE (__fini_array_end = .)
                0x0801677c                _sidata = LOADADDR (.data)

.data           0x20000000      0x9e8 load address 0x0801677c
                0x20000000                . = ALIGN (0x4)
                0x20000000                _sdata = .
 *(.data)
 *(.data*)
 .data.SystemCoreClock
                0x20000000        0x4 CMakeFiles/LVGL_Porting.elf.dir/Core/Src/system_stm32f1xx.c.obj
                0x20000000                SystemCoreClock
 .data.uwTickFreq
                0x20000004        0x1 CMakeFiles/LVGL_Porting.elf.dir/Drivers/STM32F1xx_HAL_Driver/Src/stm32f1xx_hal.c.obj
                0x20000004                uwTickFreq
 *fill*         0x20000005        0x3 
 .data.uwTickPrio
                0x20000008        0x4 CMakeFiles/LVGL_Porting.elf.dir/Drivers/STM32F1xx_HAL_Driver/Src/stm32f1xx_hal.c.obj
                0x20000008                uwTickPrio
 .data.font_dsc
                0x2000000c       0x1c CMakeFiles/LVGL_Porting.elf.dir/lvgl/src/lv_font/lv_font_roboto_16.c.obj
 .data.lv_font_roboto_16
                0x20000028       0x10 CMakeFiles/LVGL_Porting.elf.dir/lvgl/src/lv_font/lv_font_roboto_16.c.obj
                0x20000028                lv_font_roboto_16
 .data._impure_ptr
                0x20000038        0x4 d:/program/gcc-arm/gcc-arm-none-eabi-9-2020-q2-update-win32/bin/../lib/gcc/arm-none-eabi/9.3.1/../../../../arm-none-eabi/lib/thumb/v7-m/nofp\libg.a(lib_a-impure.o)
                0x20000038                _impure_ptr
 *fill*         0x2000003c        0x4 
 .data.impure_data
                0x20000040      0x428 d:/program/gcc-arm/gcc-arm-none-eabi-9-2020-q2-update-win32/bin/../lib/gcc/arm-none-eabi/9.3.1/../../../../arm-none-eabi/lib/thumb/v7-m/nofp\libg.a(lib_a-impure.o)
 .data.__atexit_recursive_mutex
                0x20000468        0x4 d:/program/gcc-arm/gcc-arm-none-eabi-9-2020-q2-update-win32/bin/../lib/gcc/arm-none-eabi/9.3.1/../../../../arm-none-eabi/lib/thumb/v7-m/nofp\libg.a(lib_a-__call_atexit.o)
                0x20000468                __atexit_recursive_mutex
 .data.__malloc_av_
                0x2000046c      0x408 d:/program/gcc-arm/gcc-arm-none-eabi-9-2020-q2-update-win32/bin/../lib/gcc/arm-none-eabi/9.3.1/../../../../arm-none-eabi/lib/thumb/v7-m/nofp\libg.a(lib_a-mallocr.o)
                0x2000046c                __malloc_av_
 .data.__malloc_sbrk_base
                0x20000874        0x4 d:/program/gcc-arm/gcc-arm-none-eabi-9-2020-q2-update-win32/bin/../lib/gcc/arm-none-eabi/9.3.1/../../../../arm-none-eabi/lib/thumb/v7-m/nofp\libg.a(lib_a-mallocr.o)
                0x20000874                __malloc_sbrk_base
 .data.__malloc_trim_threshold
                0x20000878        0x4 d:/program/gcc-arm/gcc-arm-none-eabi-9-2020-q2-update-win32/bin/../lib/gcc/arm-none-eabi/9.3.1/../../../../arm-none-eabi/lib/thumb/v7-m/nofp\libg.a(lib_a-mallocr.o)
                0x20000878                __malloc_trim_threshold
 .data.__global_locale
                0x2000087c      0x16c d:/program/gcc-arm/gcc-arm-none-eabi-9-2020-q2-update-win32/bin/../lib/gcc/arm-none-eabi/9.3.1/../../../../arm-none-eabi/lib/thumb/v7-m/nofp\libg.a(lib_a-locale.o)
                0x2000087c                __global_locale
                0x200009e8                . = ALIGN (0x4)
                0x200009e8                _edata = .

.igot.plt       0x200009e8        0x0 load address 0x08017164
 .igot.plt      0x200009e8        0x0 d:/program/gcc-arm/gcc-arm-none-eabi-9-2020-q2-update-win32/bin/../lib/gcc/arm-none-eabi/9.3.1/thumb/v7-m/nofp/crtbegin.o
                0x200009e8                . = ALIGN (0x4)

.bss            0x200009e8     0x3948 load address 0x08017164
                0x200009e8                _sbss = .
                0x200009e8                __bss_start__ = _sbss
 *(.bss)
 .bss           0x200009e8       0x1c d:/program/gcc-arm/gcc-arm-none-eabi-9-2020-q2-update-win32/bin/../lib/gcc/arm-none-eabi/9.3.1/thumb/v7-m/nofp/crtbegin.o
 *(.bss*)
 .bss.gHuart    0x20000a04        0x4 CMakeFiles/LVGL_Porting.elf.dir/Core/Src/retarget.c.obj
                0x20000a04                gHuart
 .bss.hspi1     0x20000a08       0x58 CMakeFiles/LVGL_Porting.elf.dir/Core/Src/spi.c.obj
                0x20000a08                hspi1
 .bss.heap_end.6022
                0x20000a60        0x4 CMakeFiles/LVGL_Porting.elf.dir/Core/Src/syscalls.c.obj
 .bss.htim1     0x20000a64       0x48 CMakeFiles/LVGL_Porting.elf.dir/Core/Src/tim.c.obj
                0x20000a64                htim1
 .bss.huart1    0x20000aac       0x44 CMakeFiles/LVGL_Porting.elf.dir/Core/Src/usart.c.obj
                0x20000aac                huart1
 .bss.uwTick    0x20000af0        0x4 CMakeFiles/LVGL_Porting.elf.dir/Drivers/STM32F1xx_HAL_Driver/Src/stm32f1xx_hal.c.obj
                0x20000af0                uwTick
 .bss.buf       0x20000af4      0xa00 CMakeFiles/LVGL_Porting.elf.dir/lvgl/porting/lv_port_disp.c.obj
 .bss.dispBuf   0x200014f4       0x1c CMakeFiles/LVGL_Porting.elf.dir/lvgl/porting/lv_port_disp.c.obj
 .bss.indev_act
                0x20001510        0x4 CMakeFiles/LVGL_Porting.elf.dir/lvgl/src/lv_core/lv_indev.c.obj
 .bss.event_act_data
                0x20001514        0x4 CMakeFiles/LVGL_Porting.elf.dir/lvgl/src/lv_core/lv_obj.c.obj
 .bss.event_temp_data_head
                0x20001518        0x4 CMakeFiles/LVGL_Porting.elf.dir/lvgl/src/lv_core/lv_obj.c.obj
 .bss.lv_initialized
                0x2000151c        0x1 CMakeFiles/LVGL_Porting.elf.dir/lvgl/src/lv_core/lv_obj.c.obj
 *fill*         0x2000151d        0x3 
 .bss.disp_refr
                0x20001520        0x4 CMakeFiles/LVGL_Porting.elf.dir/lvgl/src/lv_core/lv_refr.c.obj
 .bss.px_num    0x20001524        0x4 CMakeFiles/LVGL_Porting.elf.dir/lvgl/src/lv_core/lv_refr.c.obj
 .bss.lv_style_btn_ina
                0x20001528       0x40 CMakeFiles/LVGL_Porting.elf.dir/lvgl/src/lv_core/lv_style.c.obj
                0x20001528                lv_style_btn_ina
 .bss.lv_style_btn_pr
                0x20001568       0x40 CMakeFiles/LVGL_Porting.elf.dir/lvgl/src/lv_core/lv_style.c.obj
                0x20001568                lv_style_btn_pr
 .bss.lv_style_btn_rel
                0x200015a8       0x40 CMakeFiles/LVGL_Porting.elf.dir/lvgl/src/lv_core/lv_style.c.obj
                0x200015a8                lv_style_btn_rel
 .bss.lv_style_btn_tgl_pr
                0x200015e8       0x40 CMakeFiles/LVGL_Porting.elf.dir/lvgl/src/lv_core/lv_style.c.obj
                0x200015e8                lv_style_btn_tgl_pr
 .bss.lv_style_btn_tgl_rel
                0x20001628       0x40 CMakeFiles/LVGL_Porting.elf.dir/lvgl/src/lv_core/lv_style.c.obj
                0x20001628                lv_style_btn_tgl_rel
 .bss.lv_style_plain
                0x20001668       0x40 CMakeFiles/LVGL_Porting.elf.dir/lvgl/src/lv_core/lv_style.c.obj
                0x20001668                lv_style_plain
 .bss.lv_style_plain_color
                0x200016a8       0x40 CMakeFiles/LVGL_Porting.elf.dir/lvgl/src/lv_core/lv_style.c.obj
                0x200016a8                lv_style_plain_color
 .bss.lv_style_pretty
                0x200016e8       0x40 CMakeFiles/LVGL_Porting.elf.dir/lvgl/src/lv_core/lv_style.c.obj
                0x200016e8                lv_style_pretty
 .bss.lv_style_pretty_color
                0x20001728       0x40 CMakeFiles/LVGL_Porting.elf.dir/lvgl/src/lv_core/lv_style.c.obj
                0x20001728                lv_style_pretty_color
 .bss.lv_style_scr
                0x20001768       0x40 CMakeFiles/LVGL_Porting.elf.dir/lvgl/src/lv_core/lv_style.c.obj
                0x20001768                lv_style_scr
 .bss.lv_style_transp
                0x200017a8       0x40 CMakeFiles/LVGL_Porting.elf.dir/lvgl/src/lv_core/lv_style.c.obj
                0x200017a8                lv_style_transp
 .bss.lv_style_transp_fit
                0x200017e8       0x40 CMakeFiles/LVGL_Porting.elf.dir/lvgl/src/lv_core/lv_style.c.obj
                0x200017e8                lv_style_transp_fit
 .bss.lv_style_transp_tight
                0x20001828       0x40 CMakeFiles/LVGL_Porting.elf.dir/lvgl/src/lv_core/lv_style.c.obj
                0x20001828                lv_style_transp_tight
 .bss.draw_buf_size
                0x20001868        0x4 CMakeFiles/LVGL_Porting.elf.dir/lvgl/src/lv_draw/lv_draw.c.obj
 .bss.entry_cnt
                0x2000186c        0x2 CMakeFiles/LVGL_Porting.elf.dir/lvgl/src/lv_draw/lv_img_cache.c.obj
 *fill*         0x2000186e        0x2 
 .bss.buf.6280  0x20001870        0x4 CMakeFiles/LVGL_Porting.elf.dir/lvgl/src/lv_font/lv_font_fmt_txt.c.obj
 .bss.rle_bpp   0x20001874        0x1 CMakeFiles/LVGL_Porting.elf.dir/lvgl/src/lv_font/lv_font_fmt_txt.c.obj
 .bss.rle_cnt   0x20001875        0x1 CMakeFiles/LVGL_Porting.elf.dir/lvgl/src/lv_font/lv_font_fmt_txt.c.obj
 *fill*         0x20001876        0x2 
 .bss.rle_in    0x20001878        0x4 CMakeFiles/LVGL_Porting.elf.dir/lvgl/src/lv_font/lv_font_fmt_txt.c.obj
 .bss.rle_prev_v
                0x2000187c        0x1 CMakeFiles/LVGL_Porting.elf.dir/lvgl/src/lv_font/lv_font_fmt_txt.c.obj
 *fill*         0x2000187d        0x3 
 .bss.rle_rdp   0x20001880        0x4 CMakeFiles/LVGL_Porting.elf.dir/lvgl/src/lv_font/lv_font_fmt_txt.c.obj
 .bss.rle_state
                0x20001884        0x1 CMakeFiles/LVGL_Porting.elf.dir/lvgl/src/lv_font/lv_font_fmt_txt.c.obj
 *fill*         0x20001885        0x3 
 .bss.disp_def  0x20001888        0x4 CMakeFiles/LVGL_Porting.elf.dir/lvgl/src/lv_hal/lv_hal_disp.c.obj
 .bss.sys_time  0x2000188c        0x4 CMakeFiles/LVGL_Porting.elf.dir/lvgl/src/lv_hal/lv_hal_tick.c.obj
 .bss.tick_irq_flag
                0x20001890        0x1 CMakeFiles/LVGL_Porting.elf.dir/lvgl/src/lv_hal/lv_hal_tick.c.obj
 .bss.anim_list_changed
                0x20001891        0x1 CMakeFiles/LVGL_Porting.elf.dir/lvgl/src/lv_misc/lv_anim.c.obj
 *fill*         0x20001892        0x2 
 .bss.last_task_run
                0x20001894        0x4 CMakeFiles/LVGL_Porting.elf.dir/lvgl/src/lv_misc/lv_anim.c.obj
 .bss._lv_anim_ll
                0x20001898        0xc CMakeFiles/LVGL_Porting.elf.dir/lvgl/src/lv_misc/lv_gc.c.obj
                0x20001898                _lv_anim_ll
 .bss._lv_disp_ll
                0x200018a4        0xc CMakeFiles/LVGL_Porting.elf.dir/lvgl/src/lv_misc/lv_gc.c.obj
                0x200018a4                _lv_disp_ll
 .bss._lv_draw_buf
                0x200018b0        0x4 CMakeFiles/LVGL_Porting.elf.dir/lvgl/src/lv_misc/lv_gc.c.obj
                0x200018b0                _lv_draw_buf
 .bss._lv_group_ll
                0x200018b4        0xc CMakeFiles/LVGL_Porting.elf.dir/lvgl/src/lv_misc/lv_gc.c.obj
                0x200018b4                _lv_group_ll
 .bss._lv_img_cache_array
                0x200018c0        0x4 CMakeFiles/LVGL_Porting.elf.dir/lvgl/src/lv_misc/lv_gc.c.obj
                0x200018c0                _lv_img_cache_array
 .bss._lv_img_defoder_ll
                0x200018c4        0xc CMakeFiles/LVGL_Porting.elf.dir/lvgl/src/lv_misc/lv_gc.c.obj
                0x200018c4                _lv_img_defoder_ll
 .bss._lv_indev_ll
                0x200018d0        0xc CMakeFiles/LVGL_Porting.elf.dir/lvgl/src/lv_misc/lv_gc.c.obj
                0x200018d0                _lv_indev_ll
 .bss._lv_task_act
                0x200018dc        0x4 CMakeFiles/LVGL_Porting.elf.dir/lvgl/src/lv_misc/lv_gc.c.obj
                0x200018dc                _lv_task_act
 .bss._lv_task_ll
                0x200018e0        0xc CMakeFiles/LVGL_Porting.elf.dir/lvgl/src/lv_misc/lv_gc.c.obj
                0x200018e0                _lv_task_ll
 .bss.custom_print_cb
                0x200018ec        0x4 CMakeFiles/LVGL_Porting.elf.dir/lvgl/src/lv_misc/lv_log.c.obj
 .bss.work_mem  0x200018f0        0x4 CMakeFiles/LVGL_Porting.elf.dir/lvgl/src/lv_misc/lv_mem.c.obj
 .bss.work_mem_int.4686
                0x200018f4     0x1800 CMakeFiles/LVGL_Porting.elf.dir/lvgl/src/lv_misc/lv_mem.c.obj
 .bss.zero_mem  0x200030f4        0x4 CMakeFiles/LVGL_Porting.elf.dir/lvgl/src/lv_misc/lv_mem.c.obj
 .bss.already_running.5972
                0x200030f8        0x1 CMakeFiles/LVGL_Porting.elf.dir/lvgl/src/lv_misc/lv_task.c.obj
 *fill*         0x200030f9        0x3 
 .bss.busy_time.5975
                0x200030fc        0x4 CMakeFiles/LVGL_Porting.elf.dir/lvgl/src/lv_misc/lv_task.c.obj
 .bss.handler_start.5974
                0x20003100        0x4 CMakeFiles/LVGL_Porting.elf.dir/lvgl/src/lv_misc/lv_task.c.obj
 .bss.idle_last
                0x20003104        0x1 CMakeFiles/LVGL_Porting.elf.dir/lvgl/src/lv_misc/lv_task.c.obj
 *fill*         0x20003105        0x3 
 .bss.idle_period_start.5973
                0x20003108        0x4 CMakeFiles/LVGL_Porting.elf.dir/lvgl/src/lv_misc/lv_task.c.obj
 .bss.lv_task_run
                0x2000310c        0x1 CMakeFiles/LVGL_Porting.elf.dir/lvgl/src/lv_misc/lv_task.c.obj
 .bss.task_created
                0x2000310d        0x1 CMakeFiles/LVGL_Porting.elf.dir/lvgl/src/lv_misc/lv_task.c.obj
 .bss.task_deleted
                0x2000310e        0x1 CMakeFiles/LVGL_Porting.elf.dir/lvgl/src/lv_misc/lv_task.c.obj
 *fill*         0x2000310f        0x1 
 .bss.ancestor_design_f
                0x20003110        0x4 CMakeFiles/LVGL_Porting.elf.dir/lvgl/src/lv_objx/lv_bar.c.obj
 .bss.ancestor_signal
                0x20003114        0x4 CMakeFiles/LVGL_Porting.elf.dir/lvgl/src/lv_objx/lv_bar.c.obj
 .bss.current_theme
                0x20003118        0x4 CMakeFiles/LVGL_Porting.elf.dir/lvgl/src/lv_themes/lv_theme.c.obj
 .bss._font     0x2000311c        0x4 CMakeFiles/LVGL_Porting.elf.dir/lvgl/src/lv_themes/lv_theme_material.c.obj
 .bss._hue      0x20003120        0x2 CMakeFiles/LVGL_Porting.elf.dir/lvgl/src/lv_themes/lv_theme_material.c.obj
 *fill*         0x20003122        0x2 
 .bss.arc.6142  0x20003124       0x40 CMakeFiles/LVGL_Porting.elf.dir/lvgl/src/lv_themes/lv_theme_material.c.obj
 .bss.bar_bg.6118
                0x20003164       0x40 CMakeFiles/LVGL_Porting.elf.dir/lvgl/src/lv_themes/lv_theme_material.c.obj
 .bss.bar_indic.6119
                0x200031a4       0x40 CMakeFiles/LVGL_Porting.elf.dir/lvgl/src/lv_themes/lv_theme_material.c.obj
 .bss.bg.6079   0x200031e4       0x40 CMakeFiles/LVGL_Porting.elf.dir/lvgl/src/lv_themes/lv_theme_material.c.obj
 .bss.bg.6169   0x20003224       0x40 CMakeFiles/LVGL_Porting.elf.dir/lvgl/src/lv_themes/lv_theme_material.c.obj
 .bss.bg.6206   0x20003264       0x40 CMakeFiles/LVGL_Porting.elf.dir/lvgl/src/lv_themes/lv_theme_material.c.obj
 .bss.btn_bg.6217
                0x200032a4       0x40 CMakeFiles/LVGL_Porting.elf.dir/lvgl/src/lv_themes/lv_theme_material.c.obj
 .bss.cell.6228
                0x200032e4       0x40 CMakeFiles/LVGL_Porting.elf.dir/lvgl/src/lv_themes/lv_theme_material.c.obj
 .bss.def       0x20003324       0x40 CMakeFiles/LVGL_Porting.elf.dir/lvgl/src/lv_themes/lv_theme_material.c.obj
 .bss.gauge.6138
                0x20003364       0x40 CMakeFiles/LVGL_Porting.elf.dir/lvgl/src/lv_themes/lv_theme_material.c.obj
 .bss.header.6232
                0x200033a4       0x40 CMakeFiles/LVGL_Porting.elf.dir/lvgl/src/lv_themes/lv_theme_material.c.obj
 .bss.high_days.6153
                0x200033e4       0x40 CMakeFiles/LVGL_Porting.elf.dir/lvgl/src/lv_themes/lv_theme_material.c.obj
 .bss.hint.6102
                0x20003424       0x40 CMakeFiles/LVGL_Porting.elf.dir/lvgl/src/lv_themes/lv_theme_material.c.obj
 .bss.img_dark.6107
                0x20003464       0x40 CMakeFiles/LVGL_Porting.elf.dir/lvgl/src/lv_themes/lv_theme_material.c.obj
 .bss.img_light.6106
                0x200034a4       0x40 CMakeFiles/LVGL_Porting.elf.dir/lvgl/src/lv_themes/lv_theme_material.c.obj
 .bss.ina.6096  0x200034e4       0x40 CMakeFiles/LVGL_Porting.elf.dir/lvgl/src/lv_themes/lv_theme_material.c.obj
 .bss.ina.6165  0x20003524       0x40 CMakeFiles/LVGL_Porting.elf.dir/lvgl/src/lv_themes/lv_theme_material.c.obj
 .bss.ina.6174  0x20003564       0x40 CMakeFiles/LVGL_Porting.elf.dir/lvgl/src/lv_themes/lv_theme_material.c.obj
 .bss.ina.6202  0x200035a4       0x40 CMakeFiles/LVGL_Porting.elf.dir/lvgl/src/lv_themes/lv_theme_material.c.obj
 .bss.ina_days.6152
                0x200035e4       0x40 CMakeFiles/LVGL_Porting.elf.dir/lvgl/src/lv_themes/lv_theme_material.c.obj
 .bss.indic.6216
                0x20003624       0x40 CMakeFiles/LVGL_Porting.elf.dir/lvgl/src/lv_themes/lv_theme_material.c.obj
 .bss.knob.6123
                0x20003664       0x40 CMakeFiles/LVGL_Porting.elf.dir/lvgl/src/lv_themes/lv_theme_material.c.obj
 .bss.led.6114  0x200036a4       0x40 CMakeFiles/LVGL_Porting.elf.dir/lvgl/src/lv_themes/lv_theme_material.c.obj
 .bss.list_bg.6197
                0x200036e4       0x40 CMakeFiles/LVGL_Porting.elf.dir/lvgl/src/lv_themes/lv_theme_material.c.obj
 .bss.lmeter.6134
                0x20003724       0x40 CMakeFiles/LVGL_Porting.elf.dir/lvgl/src/lv_themes/lv_theme_material.c.obj
 .bss.oneline.6190
                0x20003764       0x40 CMakeFiles/LVGL_Porting.elf.dir/lvgl/src/lv_themes/lv_theme_material.c.obj
 .bss.panel.6080
                0x200037a4       0x40 CMakeFiles/LVGL_Porting.elf.dir/lvgl/src/lv_themes/lv_theme_material.c.obj
 .bss.pr.6093   0x200037e4       0x40 CMakeFiles/LVGL_Porting.elf.dir/lvgl/src/lv_themes/lv_theme_material.c.obj
 .bss.pr.6162   0x20003824       0x40 CMakeFiles/LVGL_Porting.elf.dir/lvgl/src/lv_themes/lv_theme_material.c.obj
 .bss.pr.6171   0x20003864       0x40 CMakeFiles/LVGL_Porting.elf.dir/lvgl/src/lv_themes/lv_theme_material.c.obj
 .bss.pr.6182   0x200038a4       0x40 CMakeFiles/LVGL_Porting.elf.dir/lvgl/src/lv_themes/lv_theme_material.c.obj
 .bss.pr.6199   0x200038e4       0x40 CMakeFiles/LVGL_Porting.elf.dir/lvgl/src/lv_themes/lv_theme_material.c.obj
 .bss.pr.6219   0x20003924       0x40 CMakeFiles/LVGL_Porting.elf.dir/lvgl/src/lv_themes/lv_theme_material.c.obj
 .bss.pr.6233   0x20003964       0x40 CMakeFiles/LVGL_Porting.elf.dir/lvgl/src/lv_themes/lv_theme_material.c.obj
 .bss.prim.6100
                0x200039a4       0x40 CMakeFiles/LVGL_Porting.elf.dir/lvgl/src/lv_themes/lv_theme_material.c.obj
 .bss.rel.6092  0x200039e4       0x40 CMakeFiles/LVGL_Porting.elf.dir/lvgl/src/lv_themes/lv_theme_material.c.obj
 .bss.rel.6161  0x20003a24       0x40 CMakeFiles/LVGL_Porting.elf.dir/lvgl/src/lv_themes/lv_theme_material.c.obj
 .bss.rel.6170  0x20003a64       0x40 CMakeFiles/LVGL_Porting.elf.dir/lvgl/src/lv_themes/lv_theme_material.c.obj
 .bss.rel.6178  0x20003aa4       0x40 CMakeFiles/LVGL_Porting.elf.dir/lvgl/src/lv_themes/lv_theme_material.c.obj
 .bss.rel.6183  0x20003ae4       0x40 CMakeFiles/LVGL_Porting.elf.dir/lvgl/src/lv_themes/lv_theme_material.c.obj
 .bss.rel.6198  0x20003b24       0x40 CMakeFiles/LVGL_Porting.elf.dir/lvgl/src/lv_themes/lv_theme_material.c.obj
 .bss.rel.6218  0x20003b64       0x40 CMakeFiles/LVGL_Porting.elf.dir/lvgl/src/lv_themes/lv_theme_material.c.obj
 .bss.roller_bg.6211
                0x20003ba4       0x40 CMakeFiles/LVGL_Porting.elf.dir/lvgl/src/lv_themes/lv_theme_material.c.obj
 .bss.roller_sel.6212
                0x20003be4       0x40 CMakeFiles/LVGL_Porting.elf.dir/lvgl/src/lv_themes/lv_theme_material.c.obj
 .bss.sb        0x20003c24       0x40 CMakeFiles/LVGL_Porting.elf.dir/lvgl/src/lv_themes/lv_theme_material.c.obj
 .bss.scr.6081  0x20003c64       0x40 CMakeFiles/LVGL_Porting.elf.dir/lvgl/src/lv_themes/lv_theme_material.c.obj
 .bss.sec.6101  0x20003ca4       0x40 CMakeFiles/LVGL_Porting.elf.dir/lvgl/src/lv_themes/lv_theme_material.c.obj
 .bss.sel.6207  0x20003ce4       0x40 CMakeFiles/LVGL_Porting.elf.dir/lvgl/src/lv_themes/lv_theme_material.c.obj
 .bss.sw_bg.6127
                0x20003d24       0x40 CMakeFiles/LVGL_Porting.elf.dir/lvgl/src/lv_themes/lv_theme_material.c.obj
 .bss.sw_indic.6128
                0x20003d64       0x40 CMakeFiles/LVGL_Porting.elf.dir/lvgl/src/lv_themes/lv_theme_material.c.obj
 .bss.sw_knob_off.6129
                0x20003da4       0x40 CMakeFiles/LVGL_Porting.elf.dir/lvgl/src/lv_themes/lv_theme_material.c.obj
 .bss.sw_knob_on.6130
                0x20003de4       0x40 CMakeFiles/LVGL_Porting.elf.dir/lvgl/src/lv_themes/lv_theme_material.c.obj
 .bss.tgl_pr.6095
                0x20003e24       0x40 CMakeFiles/LVGL_Porting.elf.dir/lvgl/src/lv_themes/lv_theme_material.c.obj
 .bss.tgl_pr.6164
                0x20003e64       0x40 CMakeFiles/LVGL_Porting.elf.dir/lvgl/src/lv_themes/lv_theme_material.c.obj
 .bss.tgl_pr.6173
                0x20003ea4       0x40 CMakeFiles/LVGL_Porting.elf.dir/lvgl/src/lv_themes/lv_theme_material.c.obj
 .bss.tgl_pr.6201
                0x20003ee4       0x40 CMakeFiles/LVGL_Porting.elf.dir/lvgl/src/lv_themes/lv_theme_material.c.obj
 .bss.tgl_pr.6221
                0x20003f24       0x40 CMakeFiles/LVGL_Porting.elf.dir/lvgl/src/lv_themes/lv_theme_material.c.obj
 .bss.tgl_rel.6094
                0x20003f64       0x40 CMakeFiles/LVGL_Porting.elf.dir/lvgl/src/lv_themes/lv_theme_material.c.obj
 .bss.tgl_rel.6163
                0x20003fa4       0x40 CMakeFiles/LVGL_Porting.elf.dir/lvgl/src/lv_themes/lv_theme_material.c.obj
 .bss.tgl_rel.6172
                0x20003fe4       0x40 CMakeFiles/LVGL_Porting.elf.dir/lvgl/src/lv_themes/lv_theme_material.c.obj
 .bss.tgl_rel.6200
                0x20004024       0x40 CMakeFiles/LVGL_Porting.elf.dir/lvgl/src/lv_themes/lv_theme_material.c.obj
 .bss.tgl_rel.6220
                0x20004064       0x40 CMakeFiles/LVGL_Porting.elf.dir/lvgl/src/lv_themes/lv_theme_material.c.obj
 .bss.theme     0x200040a4      0x1b0 CMakeFiles/LVGL_Porting.elf.dir/lvgl/src/lv_themes/lv_theme_material.c.obj
 .bss.today_box.6155
                0x20004254       0x40 CMakeFiles/LVGL_Porting.elf.dir/lvgl/src/lv_themes/lv_theme_material.c.obj
 .bss.week_box.6154
                0x20004294       0x40 CMakeFiles/LVGL_Porting.elf.dir/lvgl/src/lv_themes/lv_theme_material.c.obj
 .bss.__malloc_current_mallinfo
                0x200042d4       0x28 d:/program/gcc-arm/gcc-arm-none-eabi-9-2020-q2-update-win32/bin/../lib/gcc/arm-none-eabi/9.3.1/../../../../arm-none-eabi/lib/thumb/v7-m/nofp\libg.a(lib_a-mallocr.o)
                0x200042d4                __malloc_current_mallinfo
 .bss.__malloc_max_sbrked_mem
                0x200042fc        0x4 d:/program/gcc-arm/gcc-arm-none-eabi-9-2020-q2-update-win32/bin/../lib/gcc/arm-none-eabi/9.3.1/../../../../arm-none-eabi/lib/thumb/v7-m/nofp\libg.a(lib_a-mallocr.o)
                0x200042fc                __malloc_max_sbrked_mem
 .bss.__malloc_max_total_mem
                0x20004300        0x4 d:/program/gcc-arm/gcc-arm-none-eabi-9-2020-q2-update-win32/bin/../lib/gcc/arm-none-eabi/9.3.1/../../../../arm-none-eabi/lib/thumb/v7-m/nofp\libg.a(lib_a-mallocr.o)
                0x20004300                __malloc_max_total_mem
 .bss.__malloc_top_pad
                0x20004304        0x4 d:/program/gcc-arm/gcc-arm-none-eabi-9-2020-q2-update-win32/bin/../lib/gcc/arm-none-eabi/9.3.1/../../../../arm-none-eabi/lib/thumb/v7-m/nofp\libg.a(lib_a-mallocr.o)
                0x20004304                __malloc_top_pad
 *(COMMON)
 COMMON         0x20004308       0x21 d:/program/gcc-arm/gcc-arm-none-eabi-9-2020-q2-update-win32/bin/../lib/gcc/arm-none-eabi/9.3.1/../../../../arm-none-eabi/lib/thumb/v7-m/nofp\libg.a(lib_a-lock.o)
                0x20004308                __lock___atexit_recursive_mutex
                0x2000430c                __lock___arc4random_mutex
                0x20004310                __lock___env_recursive_mutex
                0x20004314                __lock___sinit_recursive_mutex
                0x20004318                __lock___malloc_recursive_mutex
                0x2000431c                __lock___at_quick_exit_mutex
                0x20004320                __lock___dd_hash_mutex
                0x20004324                __lock___tz_mutex
                0x20004328                __lock___sfp_recursive_mutex
 *fill*         0x20004329        0x3 
 COMMON         0x2000432c        0x4 d:/program/gcc-arm/gcc-arm-none-eabi-9-2020-q2-update-win32/bin/../lib/gcc/arm-none-eabi/9.3.1/../../../../arm-none-eabi/lib/thumb/v7-m/nofp\libg.a(lib_a-reent.o)
                0x2000432c                errno
                0x20004330                . = ALIGN (0x4)
                0x20004330                _ebss = .
                0x20004330                __bss_end__ = _ebss

._user_heap_stack
                0x20004330      0x600 load address 0x08017164
                0x20004330                . = ALIGN (0x8)
                0x20004330                PROVIDE (end = .)
                [!provide]                PROVIDE (_end = .)
                0x20004530                . = (. + _Min_Heap_Size)
 *fill*         0x20004330      0x200 
                0x20004930                . = (. + _Min_Stack_Size)
 *fill*         0x20004530      0x400 
                0x20004930                . = ALIGN (0x8)

/DISCARD/
 libc.a(*)
 libm.a(*)
 libgcc.a(*)

.ARM.attributes
                0x00000000       0x29
 *(.ARM.attributes)
 .ARM.attributes
                0x00000000       0x1d d:/program/gcc-arm/gcc-arm-none-eabi-9-2020-q2-update-win32/bin/../lib/gcc/arm-none-eabi/9.3.1/thumb/v7-m/nofp/crti.o
 .ARM.attributes
                0x0000001d       0x2d d:/program/gcc-arm/gcc-arm-none-eabi-9-2020-q2-update-win32/bin/../lib/gcc/arm-none-eabi/9.3.1/thumb/v7-m/nofp/crtbegin.o
 .ARM.attributes
                0x0000004a       0x2d CMakeFiles/LVGL_Porting.elf.dir/Core/Src/gpio.c.obj
 .ARM.attributes
                0x00000077       0x2d CMakeFiles/LVGL_Porting.elf.dir/Core/Src/main.c.obj
 .ARM.attributes
                0x000000a4       0x2d CMakeFiles/LVGL_Porting.elf.dir/Core/Src/retarget.c.obj
 .ARM.attributes
                0x000000d1       0x2d CMakeFiles/LVGL_Porting.elf.dir/Core/Src/spi.c.obj
 .ARM.attributes
                0x000000fe       0x2d CMakeFiles/LVGL_Porting.elf.dir/Core/Src/stm32f1xx_hal_msp.c.obj
 .ARM.attributes
                0x0000012b       0x2d CMakeFiles/LVGL_Porting.elf.dir/Core/Src/stm32f1xx_it.c.obj
 .ARM.attributes
                0x00000158       0x2d CMakeFiles/LVGL_Porting.elf.dir/Core/Src/syscalls.c.obj
 .ARM.attributes
                0x00000185       0x2d CMakeFiles/LVGL_Porting.elf.dir/Core/Src/system_stm32f1xx.c.obj
 .ARM.attributes
                0x000001b2       0x2d CMakeFiles/LVGL_Porting.elf.dir/Core/Src/tim.c.obj
 .ARM.attributes
                0x000001df       0x2d CMakeFiles/LVGL_Porting.elf.dir/Core/Src/usart.c.obj
 .ARM.attributes
                0x0000020c       0x2d CMakeFiles/LVGL_Porting.elf.dir/Drivers/STM32F1xx_HAL_Driver/Src/stm32f1xx_hal.c.obj
 .ARM.attributes
                0x00000239       0x2d CMakeFiles/LVGL_Porting.elf.dir/Drivers/STM32F1xx_HAL_Driver/Src/stm32f1xx_hal_cortex.c.obj
 .ARM.attributes
                0x00000266       0x2d CMakeFiles/LVGL_Porting.elf.dir/Drivers/STM32F1xx_HAL_Driver/Src/stm32f1xx_hal_gpio.c.obj
 .ARM.attributes
                0x00000293       0x2d CMakeFiles/LVGL_Porting.elf.dir/Drivers/STM32F1xx_HAL_Driver/Src/stm32f1xx_hal_rcc.c.obj
 .ARM.attributes
                0x000002c0       0x2d CMakeFiles/LVGL_Porting.elf.dir/Drivers/STM32F1xx_HAL_Driver/Src/stm32f1xx_hal_spi.c.obj
 .ARM.attributes
                0x000002ed       0x2d CMakeFiles/LVGL_Porting.elf.dir/Drivers/STM32F1xx_HAL_Driver/Src/stm32f1xx_hal_tim.c.obj
 .ARM.attributes
                0x0000031a       0x2d CMakeFiles/LVGL_Porting.elf.dir/Drivers/STM32F1xx_HAL_Driver/Src/stm32f1xx_hal_tim_ex.c.obj
 .ARM.attributes
                0x00000347       0x2d CMakeFiles/LVGL_Porting.elf.dir/Drivers/STM32F1xx_HAL_Driver/Src/stm32f1xx_hal_uart.c.obj
 .ARM.attributes
                0x00000374       0x2d CMakeFiles/LVGL_Porting.elf.dir/LCD/lcd.c.obj
 .ARM.attributes
                0x000003a1       0x2d CMakeFiles/LVGL_Porting.elf.dir/LCD/lcd_init.c.obj
 .ARM.attributes
                0x000003ce       0x2d CMakeFiles/LVGL_Porting.elf.dir/lvgl/porting/lv_port_disp.c.obj
 .ARM.attributes
                0x000003fb       0x2d CMakeFiles/LVGL_Porting.elf.dir/lvgl/src/lv_core/lv_debug.c.obj
 .ARM.attributes
                0x00000428       0x2d CMakeFiles/LVGL_Porting.elf.dir/lvgl/src/lv_core/lv_disp.c.obj
 .ARM.attributes
                0x00000455       0x2d CMakeFiles/LVGL_Porting.elf.dir/lvgl/src/lv_core/lv_group.c.obj
 .ARM.attributes
                0x00000482       0x2d CMakeFiles/LVGL_Porting.elf.dir/lvgl/src/lv_core/lv_indev.c.obj
 .ARM.attributes
                0x000004af       0x2d CMakeFiles/LVGL_Porting.elf.dir/lvgl/src/lv_core/lv_obj.c.obj
 .ARM.attributes
                0x000004dc       0x2d CMakeFiles/LVGL_Porting.elf.dir/lvgl/src/lv_core/lv_refr.c.obj
 .ARM.attributes
                0x00000509       0x2d CMakeFiles/LVGL_Porting.elf.dir/lvgl/src/lv_core/lv_style.c.obj
 .ARM.attributes
                0x00000536       0x2d CMakeFiles/LVGL_Porting.elf.dir/lvgl/src/lv_draw/lv_draw.c.obj
 .ARM.attributes
                0x00000563       0x2d CMakeFiles/LVGL_Porting.elf.dir/lvgl/src/lv_draw/lv_draw_basic.c.obj
 .ARM.attributes
                0x00000590       0x2d CMakeFiles/LVGL_Porting.elf.dir/lvgl/src/lv_draw/lv_draw_img.c.obj
 .ARM.attributes
                0x000005bd       0x2d CMakeFiles/LVGL_Porting.elf.dir/lvgl/src/lv_draw/lv_draw_rect.c.obj
 .ARM.attributes
                0x000005ea       0x2d CMakeFiles/LVGL_Porting.elf.dir/lvgl/src/lv_draw/lv_img_cache.c.obj
 .ARM.attributes
                0x00000617       0x2d CMakeFiles/LVGL_Porting.elf.dir/lvgl/src/lv_draw/lv_img_decoder.c.obj
 .ARM.attributes
                0x00000644       0x2d CMakeFiles/LVGL_Porting.elf.dir/lvgl/src/lv_font/lv_font_fmt_txt.c.obj
 .ARM.attributes
                0x00000671       0x33 CMakeFiles/LVGL_Porting.elf.dir/lvgl/src/lv_font/lv_font_roboto_16.c.obj
 .ARM.attributes
                0x000006a4       0x2d CMakeFiles/LVGL_Porting.elf.dir/lvgl/src/lv_hal/lv_hal_disp.c.obj
 .ARM.attributes
                0x000006d1       0x2d CMakeFiles/LVGL_Porting.elf.dir/lvgl/src/lv_hal/lv_hal_indev.c.obj
 .ARM.attributes
                0x000006fe       0x2d CMakeFiles/LVGL_Porting.elf.dir/lvgl/src/lv_hal/lv_hal_tick.c.obj
 .ARM.attributes
                0x0000072b       0x2d CMakeFiles/LVGL_Porting.elf.dir/lvgl/src/lv_misc/lv_anim.c.obj
 .ARM.attributes
                0x00000758       0x2d CMakeFiles/LVGL_Porting.elf.dir/lvgl/src/lv_misc/lv_area.c.obj
 .ARM.attributes
                0x00000785       0x2d CMakeFiles/LVGL_Porting.elf.dir/lvgl/src/lv_misc/lv_circ.c.obj
 .ARM.attributes
                0x000007b2       0x2d CMakeFiles/LVGL_Porting.elf.dir/lvgl/src/lv_misc/lv_color.c.obj
 .ARM.attributes
                0x000007df       0x33 CMakeFiles/LVGL_Porting.elf.dir/lvgl/src/lv_misc/lv_gc.c.obj
 .ARM.attributes
                0x00000812       0x2d CMakeFiles/LVGL_Porting.elf.dir/lvgl/src/lv_misc/lv_ll.c.obj
 .ARM.attributes
                0x0000083f       0x2d CMakeFiles/LVGL_Porting.elf.dir/lvgl/src/lv_misc/lv_log.c.obj
 .ARM.attributes
                0x0000086c       0x2d CMakeFiles/LVGL_Porting.elf.dir/lvgl/src/lv_misc/lv_mem.c.obj
 .ARM.attributes
                0x00000899       0x2d CMakeFiles/LVGL_Porting.elf.dir/lvgl/src/lv_misc/lv_task.c.obj
 .ARM.attributes
                0x000008c6       0x2d CMakeFiles/LVGL_Porting.elf.dir/lvgl/src/lv_misc/lv_utils.c.obj
 .ARM.attributes
                0x000008f3       0x2d CMakeFiles/LVGL_Porting.elf.dir/lvgl/src/lv_objx/lv_bar.c.obj
 .ARM.attributes
                0x00000920       0x2d CMakeFiles/LVGL_Porting.elf.dir/lvgl/src/lv_themes/lv_theme.c.obj
 .ARM.attributes
                0x0000094d       0x2d CMakeFiles/LVGL_Porting.elf.dir/lvgl/src/lv_themes/lv_theme_material.c.obj
 .ARM.attributes
                0x0000097a       0x21 CMakeFiles/LVGL_Porting.elf.dir/startup/startup_stm32f103xb.s.obj
 .ARM.attributes
                0x0000099b       0x1d d:/program/gcc-arm/gcc-arm-none-eabi-9-2020-q2-update-win32/bin/../lib/gcc/arm-none-eabi/9.3.1/thumb/v7-m/nofp\libgcc.a(_arm_addsubdf3.o)
 .ARM.attributes
                0x000009b8       0x1d d:/program/gcc-arm/gcc-arm-none-eabi-9-2020-q2-update-win32/bin/../lib/gcc/arm-none-eabi/9.3.1/thumb/v7-m/nofp\libgcc.a(_arm_muldivdf3.o)
 .ARM.attributes
                0x000009d5       0x1d d:/program/gcc-arm/gcc-arm-none-eabi-9-2020-q2-update-win32/bin/../lib/gcc/arm-none-eabi/9.3.1/thumb/v7-m/nofp\libgcc.a(_arm_cmpdf2.o)
 .ARM.attributes
                0x000009f2       0x1d d:/program/gcc-arm/gcc-arm-none-eabi-9-2020-q2-update-win32/bin/../lib/gcc/arm-none-eabi/9.3.1/thumb/v7-m/nofp\libgcc.a(_arm_fixdfsi.o)
 .ARM.attributes
                0x00000a0f       0x1d d:/program/gcc-arm/gcc-arm-none-eabi-9-2020-q2-update-win32/bin/../lib/gcc/arm-none-eabi/9.3.1/thumb/v7-m/nofp\libgcc.a(_aeabi_uldivmod.o)
 .ARM.attributes
                0x00000a2c       0x2d d:/program/gcc-arm/gcc-arm-none-eabi-9-2020-q2-update-win32/bin/../lib/gcc/arm-none-eabi/9.3.1/thumb/v7-m/nofp\libgcc.a(_udivmoddi4.o)
 .ARM.attributes
                0x00000a59       0x1d d:/program/gcc-arm/gcc-arm-none-eabi-9-2020-q2-update-win32/bin/../lib/gcc/arm-none-eabi/9.3.1/thumb/v7-m/nofp\libgcc.a(_dvmd_tls.o)
 .ARM.attributes
                0x00000a76       0x2d d:/program/gcc-arm/gcc-arm-none-eabi-9-2020-q2-update-win32/bin/../lib/gcc/arm-none-eabi/9.3.1/../../../../arm-none-eabi/lib/thumb/v7-m/nofp\libg.a(lib_a-errno.o)
 .ARM.attributes
                0x00000aa3       0x2d d:/program/gcc-arm/gcc-arm-none-eabi-9-2020-q2-update-win32/bin/../lib/gcc/arm-none-eabi/9.3.1/../../../../arm-none-eabi/lib/thumb/v7-m/nofp\libg.a(lib_a-impure.o)
 .ARM.attributes
                0x00000ad0       0x2d d:/program/gcc-arm/gcc-arm-none-eabi-9-2020-q2-update-win32/bin/../lib/gcc/arm-none-eabi/9.3.1/../../../../arm-none-eabi/lib/thumb/v7-m/nofp\libg.a(lib_a-init.o)
 .ARM.attributes
                0x00000afd       0x1b d:/program/gcc-arm/gcc-arm-none-eabi-9-2020-q2-update-win32/bin/../lib/gcc/arm-none-eabi/9.3.1/../../../../arm-none-eabi/lib/thumb/v7-m/nofp\libg.a(lib_a-memcpy.o)
 .ARM.attributes
                0x00000b18       0x2d d:/program/gcc-arm/gcc-arm-none-eabi-9-2020-q2-update-win32/bin/../lib/gcc/arm-none-eabi/9.3.1/../../../../arm-none-eabi/lib/thumb/v7-m/nofp\libg.a(lib_a-memset.o)
 .ARM.attributes
                0x00000b45       0x2d d:/program/gcc-arm/gcc-arm-none-eabi-9-2020-q2-update-win32/bin/../lib/gcc/arm-none-eabi/9.3.1/../../../../arm-none-eabi/lib/thumb/v7-m/nofp\libg.a(lib_a-printf.o)
 .ARM.attributes
                0x00000b72       0x2d d:/program/gcc-arm/gcc-arm-none-eabi-9-2020-q2-update-win32/bin/../lib/gcc/arm-none-eabi/9.3.1/../../../../arm-none-eabi/lib/thumb/v7-m/nofp\libg.a(lib_a-setvbuf.o)
 .ARM.attributes
                0x00000b9f       0x2d d:/program/gcc-arm/gcc-arm-none-eabi-9-2020-q2-update-win32/bin/../lib/gcc/arm-none-eabi/9.3.1/../../../../arm-none-eabi/lib/thumb/v7-m/nofp\libg.a(lib_a-strlen-stub.o)
 .ARM.attributes
                0x00000bcc       0x2d d:/program/gcc-arm/gcc-arm-none-eabi-9-2020-q2-update-win32/bin/../lib/gcc/arm-none-eabi/9.3.1/../../../../arm-none-eabi/lib/thumb/v7-m/nofp\libg.a(lib_a-strncpy.o)
 .ARM.attributes
                0x00000bf9       0x2d d:/program/gcc-arm/gcc-arm-none-eabi-9-2020-q2-update-win32/bin/../lib/gcc/arm-none-eabi/9.3.1/../../../../arm-none-eabi/lib/thumb/v7-m/nofp\libg.a(lib_a-vfprintf.o)
 .ARM.attributes
                0x00000c26       0x2d d:/program/gcc-arm/gcc-arm-none-eabi-9-2020-q2-update-win32/bin/../lib/gcc/arm-none-eabi/9.3.1/../../../../arm-none-eabi/lib/thumb/v7-m/nofp\libg.a(lib_a-wsetup.o)
 .ARM.attributes
                0x00000c53       0x2d d:/program/gcc-arm/gcc-arm-none-eabi-9-2020-q2-update-win32/bin/../lib/gcc/arm-none-eabi/9.3.1/../../../../arm-none-eabi/lib/thumb/v7-m/nofp\libg.a(lib_a-__call_atexit.o)
 .ARM.attributes
                0x00000c80       0x2d d:/program/gcc-arm/gcc-arm-none-eabi-9-2020-q2-update-win32/bin/../lib/gcc/arm-none-eabi/9.3.1/../../../../arm-none-eabi/lib/thumb/v7-m/nofp\libg.a(lib_a-atexit.o)
 .ARM.attributes
                0x00000cad       0x2d d:/program/gcc-arm/gcc-arm-none-eabi-9-2020-q2-update-win32/bin/../lib/gcc/arm-none-eabi/9.3.1/../../../../arm-none-eabi/lib/thumb/v7-m/nofp\libg.a(lib_a-dtoa.o)
 .ARM.attributes
                0x00000cda       0x2d d:/program/gcc-arm/gcc-arm-none-eabi-9-2020-q2-update-win32/bin/../lib/gcc/arm-none-eabi/9.3.1/../../../../arm-none-eabi/lib/thumb/v7-m/nofp\libg.a(lib_a-fflush.o)
 .ARM.attributes
                0x00000d07       0x2d d:/program/gcc-arm/gcc-arm-none-eabi-9-2020-q2-update-win32/bin/../lib/gcc/arm-none-eabi/9.3.1/../../../../arm-none-eabi/lib/thumb/v7-m/nofp\libg.a(lib_a-findfp.o)
 .ARM.attributes
                0x00000d34       0x2d d:/program/gcc-arm/gcc-arm-none-eabi-9-2020-q2-update-win32/bin/../lib/gcc/arm-none-eabi/9.3.1/../../../../arm-none-eabi/lib/thumb/v7-m/nofp\libg.a(lib_a-fini.o)
 .ARM.attributes
                0x00000d61       0x2d d:/program/gcc-arm/gcc-arm-none-eabi-9-2020-q2-update-win32/bin/../lib/gcc/arm-none-eabi/9.3.1/../../../../arm-none-eabi/lib/thumb/v7-m/nofp\libg.a(lib_a-freer.o)
 .ARM.attributes
                0x00000d8e       0x2d d:/program/gcc-arm/gcc-arm-none-eabi-9-2020-q2-update-win32/bin/../lib/gcc/arm-none-eabi/9.3.1/../../../../arm-none-eabi/lib/thumb/v7-m/nofp\libg.a(lib_a-fwalk.o)
 .ARM.attributes
                0x00000dbb       0x2d d:/program/gcc-arm/gcc-arm-none-eabi-9-2020-q2-update-win32/bin/../lib/gcc/arm-none-eabi/9.3.1/../../../../arm-none-eabi/lib/thumb/v7-m/nofp\libg.a(lib_a-localeconv.o)
 .ARM.attributes
                0x00000de8       0x2d d:/program/gcc-arm/gcc-arm-none-eabi-9-2020-q2-update-win32/bin/../lib/gcc/arm-none-eabi/9.3.1/../../../../arm-none-eabi/lib/thumb/v7-m/nofp\libg.a(lib_a-lock.o)
 .ARM.attributes
                0x00000e15       0x2d d:/program/gcc-arm/gcc-arm-none-eabi-9-2020-q2-update-win32/bin/../lib/gcc/arm-none-eabi/9.3.1/../../../../arm-none-eabi/lib/thumb/v7-m/nofp\libg.a(lib_a-makebuf.o)
 .ARM.attributes
                0x00000e42       0x2d d:/program/gcc-arm/gcc-arm-none-eabi-9-2020-q2-update-win32/bin/../lib/gcc/arm-none-eabi/9.3.1/../../../../arm-none-eabi/lib/thumb/v7-m/nofp\libg.a(lib_a-malloc.o)
 .ARM.attributes
                0x00000e6f       0x2d d:/program/gcc-arm/gcc-arm-none-eabi-9-2020-q2-update-win32/bin/../lib/gcc/arm-none-eabi/9.3.1/../../../../arm-none-eabi/lib/thumb/v7-m/nofp\libg.a(lib_a-mallocr.o)
 .ARM.attributes
                0x00000e9c       0x2d d:/program/gcc-arm/gcc-arm-none-eabi-9-2020-q2-update-win32/bin/../lib/gcc/arm-none-eabi/9.3.1/../../../../arm-none-eabi/lib/thumb/v7-m/nofp\libg.a(lib_a-memchr-stub.o)
 .ARM.attributes
                0x00000ec9       0x2d d:/program/gcc-arm/gcc-arm-none-eabi-9-2020-q2-update-win32/bin/../lib/gcc/arm-none-eabi/9.3.1/../../../../arm-none-eabi/lib/thumb/v7-m/nofp\libg.a(lib_a-mlock.o)
 .ARM.attributes
                0x00000ef6       0x2d d:/program/gcc-arm/gcc-arm-none-eabi-9-2020-q2-update-win32/bin/../lib/gcc/arm-none-eabi/9.3.1/../../../../arm-none-eabi/lib/thumb/v7-m/nofp\libg.a(lib_a-mprec.o)
 .ARM.attributes
                0x00000f23       0x2d d:/program/gcc-arm/gcc-arm-none-eabi-9-2020-q2-update-win32/bin/../lib/gcc/arm-none-eabi/9.3.1/../../../../arm-none-eabi/lib/thumb/v7-m/nofp\libg.a(lib_a-s_frexp.o)
 .ARM.attributes
                0x00000f50       0x2d d:/program/gcc-arm/gcc-arm-none-eabi-9-2020-q2-update-win32/bin/../lib/gcc/arm-none-eabi/9.3.1/../../../../arm-none-eabi/lib/thumb/v7-m/nofp\libg.a(lib_a-sbrkr.o)
 .ARM.attributes
                0x00000f7d       0x2d d:/program/gcc-arm/gcc-arm-none-eabi-9-2020-q2-update-win32/bin/../lib/gcc/arm-none-eabi/9.3.1/../../../../arm-none-eabi/lib/thumb/v7-m/nofp\libg.a(lib_a-stdio.o)
 .ARM.attributes
                0x00000faa       0x2d d:/program/gcc-arm/gcc-arm-none-eabi-9-2020-q2-update-win32/bin/../lib/gcc/arm-none-eabi/9.3.1/../../../../arm-none-eabi/lib/thumb/v7-m/nofp\libg.a(lib_a-vfiprintf.o)
 .ARM.attributes
                0x00000fd7       0x2d d:/program/gcc-arm/gcc-arm-none-eabi-9-2020-q2-update-win32/bin/../lib/gcc/arm-none-eabi/9.3.1/../../../../arm-none-eabi/lib/thumb/v7-m/nofp\libg.a(lib_a-writer.o)
 .ARM.attributes
                0x00001004       0x2d d:/program/gcc-arm/gcc-arm-none-eabi-9-2020-q2-update-win32/bin/../lib/gcc/arm-none-eabi/9.3.1/../../../../arm-none-eabi/lib/thumb/v7-m/nofp\libg.a(lib_a-__atexit.o)
 .ARM.attributes
                0x00001031       0x2d d:/program/gcc-arm/gcc-arm-none-eabi-9-2020-q2-update-win32/bin/../lib/gcc/arm-none-eabi/9.3.1/../../../../arm-none-eabi/lib/thumb/v7-m/nofp\libg.a(lib_a-assert.o)
 .ARM.attributes
                0x0000105e       0x2d d:/program/gcc-arm/gcc-arm-none-eabi-9-2020-q2-update-win32/bin/../lib/gcc/arm-none-eabi/9.3.1/../../../../arm-none-eabi/lib/thumb/v7-m/nofp\libg.a(lib_a-callocr.o)
 .ARM.attributes
                0x0000108b       0x2d d:/program/gcc-arm/gcc-arm-none-eabi-9-2020-q2-update-win32/bin/../lib/gcc/arm-none-eabi/9.3.1/../../../../arm-none-eabi/lib/thumb/v7-m/nofp\libg.a(lib_a-closer.o)
 .ARM.attributes
                0x000010b8       0x2d d:/program/gcc-arm/gcc-arm-none-eabi-9-2020-q2-update-win32/bin/../lib/gcc/arm-none-eabi/9.3.1/../../../../arm-none-eabi/lib/thumb/v7-m/nofp\libg.a(lib_a-fclose.o)
 .ARM.attributes
                0x000010e5       0x2d d:/program/gcc-arm/gcc-arm-none-eabi-9-2020-q2-update-win32/bin/../lib/gcc/arm-none-eabi/9.3.1/../../../../arm-none-eabi/lib/thumb/v7-m/nofp\libg.a(lib_a-fiprintf.o)
 .ARM.attributes
                0x00001112       0x2d d:/program/gcc-arm/gcc-arm-none-eabi-9-2020-q2-update-win32/bin/../lib/gcc/arm-none-eabi/9.3.1/../../../../arm-none-eabi/lib/thumb/v7-m/nofp\libg.a(lib_a-fputwc.o)
 .ARM.attributes
                0x0000113f       0x2d d:/program/gcc-arm/gcc-arm-none-eabi-9-2020-q2-update-win32/bin/../lib/gcc/arm-none-eabi/9.3.1/../../../../arm-none-eabi/lib/thumb/v7-m/nofp\libg.a(lib_a-fstatr.o)
 .ARM.attributes
                0x0000116c       0x2d d:/program/gcc-arm/gcc-arm-none-eabi-9-2020-q2-update-win32/bin/../lib/gcc/arm-none-eabi/9.3.1/../../../../arm-none-eabi/lib/thumb/v7-m/nofp\libg.a(lib_a-fvwrite.o)
 .ARM.attributes
                0x00001199       0x2d d:/program/gcc-arm/gcc-arm-none-eabi-9-2020-q2-update-win32/bin/../lib/gcc/arm-none-eabi/9.3.1/../../../../arm-none-eabi/lib/thumb/v7-m/nofp\libg.a(lib_a-isattyr.o)
 .ARM.attributes
                0x000011c6       0x2d d:/program/gcc-arm/gcc-arm-none-eabi-9-2020-q2-update-win32/bin/../lib/gcc/arm-none-eabi/9.3.1/../../../../arm-none-eabi/lib/thumb/v7-m/nofp\libg.a(lib_a-locale.o)
 .ARM.attributes
                0x000011f3       0x2d d:/program/gcc-arm/gcc-arm-none-eabi-9-2020-q2-update-win32/bin/../lib/gcc/arm-none-eabi/9.3.1/../../../../arm-none-eabi/lib/thumb/v7-m/nofp\libg.a(lib_a-lseekr.o)
 .ARM.attributes
                0x00001220       0x2d d:/program/gcc-arm/gcc-arm-none-eabi-9-2020-q2-update-win32/bin/../lib/gcc/arm-none-eabi/9.3.1/../../../../arm-none-eabi/lib/thumb/v7-m/nofp\libg.a(lib_a-mbtowc_r.o)
 .ARM.attributes
                0x0000124d       0x2d d:/program/gcc-arm/gcc-arm-none-eabi-9-2020-q2-update-win32/bin/../lib/gcc/arm-none-eabi/9.3.1/../../../../arm-none-eabi/lib/thumb/v7-m/nofp\libg.a(lib_a-memmove.o)
 .ARM.attributes
                0x0000127a       0x2d d:/program/gcc-arm/gcc-arm-none-eabi-9-2020-q2-update-win32/bin/../lib/gcc/arm-none-eabi/9.3.1/../../../../arm-none-eabi/lib/thumb/v7-m/nofp\libg.a(lib_a-readr.o)
 .ARM.attributes
                0x000012a7       0x2d d:/program/gcc-arm/gcc-arm-none-eabi-9-2020-q2-update-win32/bin/../lib/gcc/arm-none-eabi/9.3.1/../../../../arm-none-eabi/lib/thumb/v7-m/nofp\libg.a(lib_a-reallocr.o)
 .ARM.attributes
                0x000012d4       0x2d d:/program/gcc-arm/gcc-arm-none-eabi-9-2020-q2-update-win32/bin/../lib/gcc/arm-none-eabi/9.3.1/../../../../arm-none-eabi/lib/thumb/v7-m/nofp\libg.a(lib_a-reent.o)
 .ARM.attributes
                0x00001301       0x2d d:/program/gcc-arm/gcc-arm-none-eabi-9-2020-q2-update-win32/bin/../lib/gcc/arm-none-eabi/9.3.1/../../../../arm-none-eabi/lib/thumb/v7-m/nofp\libg.a(lib_a-wbuf.o)
 .ARM.attributes
                0x0000132e       0x2d d:/program/gcc-arm/gcc-arm-none-eabi-9-2020-q2-update-win32/bin/../lib/gcc/arm-none-eabi/9.3.1/../../../../arm-none-eabi/lib/thumb/v7-m/nofp\libg.a(lib_a-wcrtomb.o)
 .ARM.attributes
                0x0000135b       0x2d d:/program/gcc-arm/gcc-arm-none-eabi-9-2020-q2-update-win32/bin/../lib/gcc/arm-none-eabi/9.3.1/../../../../arm-none-eabi/lib/thumb/v7-m/nofp\libg.a(lib_a-wctomb_r.o)
 .ARM.attributes
                0x00001388       0x2d d:/program/gcc-arm/gcc-arm-none-eabi-9-2020-q2-update-win32/bin/../lib/gcc/arm-none-eabi/9.3.1/../../../../arm-none-eabi/lib/thumb/v7-m/nofp\libg.a(lib_a-abort.o)
 .ARM.attributes
                0x000013b5       0x2d d:/program/gcc-arm/gcc-arm-none-eabi-9-2020-q2-update-win32/bin/../lib/gcc/arm-none-eabi/9.3.1/../../../../arm-none-eabi/lib/thumb/v7-m/nofp\libg.a(lib_a-ctype_.o)
 .ARM.attributes
                0x000013e2       0x2d d:/program/gcc-arm/gcc-arm-none-eabi-9-2020-q2-update-win32/bin/../lib/gcc/arm-none-eabi/9.3.1/../../../../arm-none-eabi/lib/thumb/v7-m/nofp\libg.a(lib_a-signal.o)
 .ARM.attributes
                0x0000140f       0x2d d:/program/gcc-arm/gcc-arm-none-eabi-9-2020-q2-update-win32/bin/../lib/gcc/arm-none-eabi/9.3.1/../../../../arm-none-eabi/lib/thumb/v7-m/nofp\libg.a(lib_a-signalr.o)
 .ARM.attributes
                0x0000143c       0x1d d:/program/gcc-arm/gcc-arm-none-eabi-9-2020-q2-update-win32/bin/../lib/gcc/arm-none-eabi/9.3.1/thumb/v7-m/nofp\libgcc.a(_arm_unorddf2.o)
 .ARM.attributes
                0x00001459       0x1d d:/program/gcc-arm/gcc-arm-none-eabi-9-2020-q2-update-win32/bin/../lib/gcc/arm-none-eabi/9.3.1/thumb/v7-m/nofp/crtn.o
OUTPUT(LVGL_Porting.elf elf32-littlearm)
LOAD linker stubs
LOAD d:/program/gcc-arm/gcc-arm-none-eabi-9-2020-q2-update-win32/bin/../lib/gcc/arm-none-eabi/9.3.1/../../../../arm-none-eabi/lib/thumb/v7-m/nofp\libc.a
LOAD d:/program/gcc-arm/gcc-arm-none-eabi-9-2020-q2-update-win32/bin/../lib/gcc/arm-none-eabi/9.3.1/../../../../arm-none-eabi/lib/thumb/v7-m/nofp\libm.a
LOAD d:/program/gcc-arm/gcc-arm-none-eabi-9-2020-q2-update-win32/bin/../lib/gcc/arm-none-eabi/9.3.1/thumb/v7-m/nofp\libgcc.a

.debug_info     0x00000000    0x58e09
 .debug_info    0x00000000      0x3c3 CMakeFiles/LVGL_Porting.elf.dir/Core/Src/gpio.c.obj
 .debug_info    0x000003c3     0x1df6 CMakeFiles/LVGL_Porting.elf.dir/Core/Src/main.c.obj
 .debug_info    0x000021b9     0x13ee CMakeFiles/LVGL_Porting.elf.dir/Core/Src/retarget.c.obj
 .debug_info    0x000035a7      0x92b CMakeFiles/LVGL_Porting.elf.dir/Core/Src/spi.c.obj
 .debug_info    0x00003ed2      0x2fd CMakeFiles/LVGL_Porting.elf.dir/Core/Src/stm32f1xx_hal_msp.c.obj
 .debug_info    0x000041cf     0x16d3 CMakeFiles/LVGL_Porting.elf.dir/Core/Src/stm32f1xx_it.c.obj
 .debug_info    0x000058a2      0xf91 CMakeFiles/LVGL_Porting.elf.dir/Core/Src/syscalls.c.obj
 .debug_info    0x00006833      0x2c9 CMakeFiles/LVGL_Porting.elf.dir/Core/Src/system_stm32f1xx.c.obj
 .debug_info    0x00006afc      0xb43 CMakeFiles/LVGL_Porting.elf.dir/Core/Src/tim.c.obj
 .debug_info    0x0000763f      0x8fb CMakeFiles/LVGL_Porting.elf.dir/Core/Src/usart.c.obj
 .debug_info    0x00007f3a      0x831 CMakeFiles/LVGL_Porting.elf.dir/Drivers/STM32F1xx_HAL_Driver/Src/stm32f1xx_hal.c.obj
